:020000040800F2
:1000000038220020D5000008013E0008593C0008B5
:1000100000000000000000000000000000000000E0
:10002000000000000000000000000000BB430008CA
:100030000000000000000000B53E0008A1560008C6
:10004000E7000008E700000861400008E70000083A
:10005000E70000084D1400085D1400086D14000846
:10006000E7000008E7000008E7000008E7000008D4
:10007000E7000008E7000008F15F0008E70000085B
:10008000E7000008E7000008E700000800000000A3
:10009000E7000008E7000008E7000008E7000008A4
:1000A000E7000008E7000008E7000008E700000894
:1000B000995F0008E7000008E7000008E700000873
:1000C0000348854600F0B4FC00480047216E000854
:1000D000382200200448804704480047FEE7FEE736
:1000E000FEE7FEE7FEE7FEE70D580008C100000846
:1000F00030B50B46014600202022012409E00D46C0
:10010000D5409D4205D31D469540491B2546954047
:1001100040191546521E002DF1DC30BDF0B51FB45C
:100120000646002082B005464024019100901BE065
:10013000019922460F46304600F01AFA049A059BB0
:10014000801A994110D310461946224600F000FA51
:10015000361A8F410197224601200021009F00F0AE
:10016000F7F938184D4100902046641E0028DFDC66
:10017000019B00982946324607B0F0BD03460B4369
:100180009B0703D009E008C9121F08C0042AFAD24D
:1001900003E00B780370401C491C521EF9D27047D3
:1001A000D2B201E00270401C491EFBD2704700220F
:1001B000F6E710B513460A4604461946FFF7F0FF66
:1001C000204610BD0FB400B58DB009900B9010A95A
:1001D00000200091C0430A9000200C900648069031
:1001E000064807906A4609A80F9900F0E7F90DB094
:1001F00008BC04B018470000DD050008FD05000834
:10020000FFB50027FF4383B000205C6801909E6823
:100210001D46A9697F1C049888470090296A884771
:100220000028F6D10098401C0CD0032040028443E3
:10023000002E19DD600614D500982B2809D02D2832
:100240000FD103E00020C04307B0F0BD01208002C1
:100250000443A9697F1C04988847761E0090002EED
:1002600002DD0098302803D00598002825D035E01D
:10027000012040020443A969761E7F1C0498884728
:100280000090002E03DD782805D0582803D005986B
:10029000002810D022E00598002801D010281DD198
:1002A000012040028443A969761E7F1C0498884778
:1002B0000090102002E0082000E00A2005900DE0E8
:1002C000012149020C43059A0199761E51430818F1
:1002D0000190A9697F1C049888470090002E05DDD5
:1002E0000599009800F055F90028E9DAE9690498C1
:1002F0008847A00502D40120C043A5E7E00722D12A
:10030000600611D56005019800D5404229680A1D94
:100310002A600968220501D5087014E0220701D57A
:10032000088010E008600EE02868011D2960006860
:10033000210502D50199017005E02107019901D538
:10034000018000E0016038467EE7F8B502464A4089
:10035000D40F42004B0052085B089A4202D2024678
:10036000084611464A0023D0C30D4A00DDB2120EE2
:10037000AD1A202D35DA49020126490AF6058A19F7
:10038000002C00D0524220214F1B1146B9402A4177
:100390001018C20D9A4221D0002C17D0012D08DC74
:1003A000DA05801AD20F8019D207DBB200F040F9CB
:1003B000F8BDDA05801A012340001B06C01880181A
:1003C0005A428018CA0F1043490007E04908C20783
:1003D0001143DA05801A80194008801800F020F9CE
:1003E000F8BD61000122511A001BF7E70122D20774
:1003F0005140AAE70122D2075040A6E7024670B555
:100400004A40D30FDB0740002DD04A002AD0010E0E
:10041000140E000212020919400A520A8418E5015A
:1004200004465443000A120A2E045043A4194219E8
:10043000200CC543AA18120C0125AD03521C5219F9
:1004400012047F39240400D0521C104301D4400010
:10045000491EC2B20C06C0092018401C4008802A60
:1004600002D003E0002070BD40084000002900DAFF
:100470000020184370BD70B502464A40D50F4000B9
:100480004A00ED0740085208002814D0002A12D074
:10049000C40DD30D41020120C0055202490A520A7F
:1004A000E41A091812187D34914201D3641C00E04B
:1004B0004900002C01DA002070BD0023914201D3D5
:1004C000891A0343400849000028F7D100290AD0BF
:1004D000914202D10121C90705E0914201D20121D7
:1004E00001E00121C943E005C018401900F098F867
:1004F00070BD10B500229623114600F099F810BD8A
:10050000410040020122400AD205090E80187F29CD
:1005100001DA00207047962903DC9622511AC84060
:100520007047963988407047C20FD2074000400894
:100530000BD0C10D0723DB01C91840020905400A91
:100540001143C2084007114370470020014670471D
:1005500010B5202A04DB0146203A9140002010BD4E
:10056000914020239C1A0346E3401943904010BD5C
:1005700010B5202A04DB0846203AD040002110BDE7
:100580000B46D340D0402024A21A9140084319467C
:1005900010BD3A2800D23038202302469A43412A1F
:1005A00001D310463738884201D30020C04370473A
:1005B00002681378511801601846704710B5D16071
:1005C000044951610449116200211161114600F092
:1005D0005BFA10BDB10500087B0A00084268002ADA
:1005E00008D001680B78491C002B03D0521E06C0AE
:1005F000184670470121C160881E70474268002A72
:100600000BD0C3680168002B07D183688B4204D0EC
:10061000491E521C06C0002070470020C04370478E
:10062000002904DA401C490001D14008400070470D
:1006300070B40024050C05D11024000402D1002957
:1006400021D01124050E01D100020834050F01D17B
:100650000001241D850F01D18000A41C002801DBAE
:100660004000641C002908D020252E1B0D46F540B3
:10067000A14000D001212943084301061B1B000AA9
:10068000DB1D02D5002070BC7047DB0518188018F0
:100690000029F8DA401C4900F5D170BC4008400040
:1006A00070470000F0B507460846584087B0C00FB5
:1006B000049048000E46590040084908BC1A884179
:1006C00005D2384631461E4617460B4602465800AC
:1006D000400810434CD0300D039040055900400DA8
:1006E000490D0590401A0290402872DA1803012142
:1006F000000B09050843019004980092002805D0DA
:1007000001995242002088410092019002984021B4
:100710000A1A01990098FFF71BFF05460C466B4625
:1007200007CB00F097F9C0197141039A0E0D002311
:10073000D71756401A467A40164344D0049A002AE6
:100740002DD0029A012A039A15DC1205C01A914194
:1007500001263605001C7141D20F059ED207009379
:10076000019202962A46234600F037FB07B0F0BDFF
:1007700038463146FAE71605224A0F46B218C01A23
:10078000B74101210905001C4F4100187F41114666
:1007900018187941E20F10436D19644113E0E20724
:1007A0006D0815436408C2071443039A0126120515
:1007B000C01A91413605001C7141CE0740083043F4
:1007C0004908C01851412A46234600F0F9FACDE7FE
:1007D000FFE7049801224000C117121A00238B4141
:1007E00004983146C417381AA141EEE730B4012409
:1007F000E407634030BC55E730B40124E4076140AE
:1008000030BC4FE70000E0FFF0B51FB488B00B9993
:100810000998002448400999C00F490049080991E6
:10082000C0070B990090490049080B910999089855
:10083000A64608431CD00B990A98084318D009987B
:1008400001244000420D4800410D09982405000391
:10085000000B204309900B980003000B20430B90E2
:1008600050181C494018002201901446104605E01B
:10087000002001460DB0F0BD032801DA034600E078
:1008800003239C46C11A0AAE0AE05F0008ADED5B87
:100890004F00F75B7D430027AA187C41491C5B1E73
:1008A0006145F2DD410004AB5A522104120C0A43A7
:1008B000240C401C0828DFDB019802900099704648
:1008C00001910090059B049A0799069800F085FA1B
:1008D000D0E700000DFCFFFFF0B50C465C4085B092
:1008E000E40FE40703944C00002664085900944682
:1008F000490802460296224321D062460A431ED08E
:100900006200570D4A000E032303550D01240246D1
:100910002C492405781B1B0B360B40182343264318
:10092000614600901C46501AB44103D30098401C05
:10093000009002E0921800985B41002803DA002042
:10094000014605B0F0BD0020012109050746864695
:1009500011E064461D46141BB54106D36546521B83
:10096000B341744607430C43A646CD0740084908E7
:10097000284392185B4105460D43EAD110461843BF
:1009800013D06046194650407140084306D0604677
:10099000101AB34106D20122002306E000220123EF
:1009A000DB0702E00122D243531000987446010590
:1009B000381C6141029C039D0019694100F000FA56
:1009C000BFE70000FD0300004A0009030123090BF3
:1009D0001B0519430A4B10B5520D9A4202DA00204A
:1009E000014610BD064B34339A4203DC9A1AFFF7D6
:1009F000BFFD10BD034BD218FFF7AAFD10BD0000CC
:100A0000FF030000CDFBFFFF10B5002904DB01242C
:100A1000E40740428C412146002B04DB1C460123A5
:100A2000DB075242A341994200D1904210BD000021
:100A3000064C0125064E05E0E36807CC2B430C3C31
:100A400098471034B442F7D3FFF73EFBB476000862
:100A5000D476000810B5202A06DBCB170846203ACA
:100A60001041C1170B4306E00B461341D040202430
:100A7000A21A91400843194610BD10B50F21C0B20B
:100A8000490200F0FDF910BDF3B58DB000200A90C9
:100A900001200B90002608460C300C460990626934
:100AA000012109989047051E2ED0252D2DD0216AB1
:100AB0008847002818D06269012109989047216A67
:100AC00088470028F7D1411E62690998904700E0E5
:100AD000761CA1690D988847216A88470028F7D1BC
:100AE000E1690D988847DAE7A1690D9888470746BC
:100AF000A84201D1761CD2E7E1690D9888477F1C96
:100B000002D10A98002877D049E1002762693D4662
:100B10003946099890472A280CD162690121099821
:100B20009047012506E00A214F433F18303FEBD4A0
:100B30001020054362690121099890470146303928
:100B40000A2903D29B498F42DEDCECE7E90600D498
:100B5000994F6C280AD04C2810D0682824D06A28D5
:100B60002ED074280CD07A280AD00DE062690121B9
:100B7000099890476C2823D004211CE020200543CD
:100B80006269012109989047A760656065284FD088
:100B900026DC582839D01ADC452849D012DC252813
:100BA00034D04128B0D143E06269012109989047CF
:100BB000682802D008210D43E6E70120C002DEE7E5
:100BC0000220DCE7462833D047282CD130E05B28D0
:100BD00070D061282CD063286CD0642823D161E0C8
:100BE0006F284FD009DC662822D0672820D06928DA
:100BF00026D06E2817D12EE0CDE070284DD0732876
:100C00006FD075284ED078280DD154E0A1690D9889
:100C100088470546252800D16CE7E1690D9888478B
:100C20006D1C00D16DE7BAE00A224CE00A2252E0C6
:100C3000012023466A46C0430D99C046C046A3E042
:100C40002846402108436060A807234601D50022BA
:100C500039E000223FE0E80700D020E72068011DCE
:100C600021600068290501D5067018E7290701D51C
:100C7000068014E7A90703D5F117066041600EE767
:100C800006600CE72846402108436060A807234619
:100C900001D5082217E008221DE0484928460840EF
:100CA000606016E02846402108436060A80723469C
:100CB000BCD5B9E715E02846402108436060A80785
:100CC00007D5234610220120C0430D99C046C046D7
:100CD0005AE0234610220120C0430D99FFF790FAF5
:100CE00052E000210C910B460091632802D05B2852
:100CF00007D043E0E80601D40120A0600120009065
:100D00003CE062690121099890475E2805D10120E5
:100D10000C9001466269099890472169002906D123
:100D20000B4601AA8F00491CD3510829FADB002881
:100D300035D0216900290ED1C117C90E09184A11F1
:100D4000930001AA9A1849094901411A0120136820
:100D500088400343136062690121099890475D2828
:100D6000E5D10C98002808D0002001AB81005A582A
:100D7000401CD2435A500828F8DB01AB0120224620
:100D8000C0430D99C046C04600280ADA401C06D16F
:100D90000B98002803D00020C0430FB0F0BD0A9884
:100DA000FBE7E90702D10A99491C0A91361800208D
:100DB0000B9074E6CCCCCC0CFFFFFF7FF1F7FFFF6C
:100DC00010B5002B08DA0024401C614192185B41E9
:100DD0001A4301D14008400010BDF0B51FB482B0E5
:100DE00005460C0003D0084605F04EFB02E005F076
:100DF0004BFB20300246009021462846FFF7A8FB17
:100E0000049B059A04460F4618431143084314D027
:100E1000184610431BD0009840210A1A184605991D
:100E2000FFF7A6FB05460E46009A05990498FFF7C2
:100E30008FFB084305D0012004E02046394607B067
:100E4000F0BD0020C11705430E432C4337430099E2
:100E50000E986305401A7905E40A00220C43FD0A46
:100E60000A3002D500200146E9E701051019694161
:100E70000C9C0D9D00196941FFF7A2FFDFE7000000
:100E80007F2801D9002207E0054B42089A5CC00781
:100E900000D112091207120F01209040084070473C
:100EA0005D6F000870B58C180578401C6B075B0FF0
:100EB00001D10378401C2A1106D10278401C03E0BE
:100EC00006780E70401C491C5B1EF9D12B0705D417
:100ED0000023521E0DD40B70491CFAE70378401C06
:100EE000CB1A921C03E01D780D70491C5B1C521E2E
:100EF000F9D5A142D8D3002070BD70B504460025B5
:100F000020688068042108408008002829D02068D3
:100F10008068084000280BD02068806802210840C3
:100F2000002805D120688068102108432168886066
:100F300001F04CF805460EE001F048F8401B0A2885
:100F400009D9A06D10210843A065E06D0121084377
:100F5000E065012070BD20688068042108400028F9
:100F6000EAD10020F6E7000038B5044607490848F2
:100F70000068FFF7BDF86043009002E00098401E53
:100F8000009000980028F9D138BD000040420F00C1
:100F90000000002070B504460025206880688007A6
:100FA000800F012807D120680068C007C00F002803
:100FB00001D0012000E00020002837D020688068A0
:100FC00005210840012800D100E0002000280AD0B7
:100FD00000BF2068806802210843216888600320E0
:100FE0002168086009E0A06D10210843A065E06D4C
:100FF00001210843E065012070BD00F0E7FF0546D0
:101000000EE000F0E3FF401B0A2809D9A06D102173
:101010000843A065E06D01210843E0650120EBE78E
:1010200020688068C007C00F0028EAD10020E3E7ED
:1010300070B504460025206880688007800F01286D
:1010400007D120680068C007C00F002801D0012028
:1010500000E00020002839D1206880681C49084041
:10106000002801D1012000E00020002809D1A06D56
:1010700010210843A065E06D01210843E0650120CF
:1010800070BD2068806801210843216888600120C4
:10109000FFF76AFF00F09AFF05460EE000F096FFAA
:1010A000401B0A2809D9A06D10210843A065E06DF6
:1010B00001210843E0650120E2E720680068C007DD
:1010C000C00F0121484048400028E7D00020D7E762
:1010D00017000080FEB504460D4600260020009053
:1010E000019401200003029001A91B4800F020FB9D
:1010F000002801D000F0E8F90021174800F0ACFA10
:10110000002717E0144800F06BFD6421124800F03E
:10111000F3FC00BF104800F0AFFB0121490208407A
:101120000028F7D00C4800F0AAFB00900098361871
:10113000781CC7B2AF42E5DB074800F08DFD019493
:101140000648029001A9044800F0F2FA2946304608
:10115000FEF7CEFFFEBD0000BC0A0020011000001B
:1011600008B54848007800283FD100F03DFF04F062
:10117000ABFA00BF4448C06A042108434249C86230
:101180000846C06A04210840009000BF00BF00BFAD
:101190003D48C06A802108433B49C8620846C06A8E
:1011A00080210840009000BF00BF00BF3648C06AE1
:1011B000022108433449C8620846C06A0221084037
:1011C000009000BF00BF00BF2F48C06A0121084344
:1011D0002D49C8620846C06AC007C00F009000BF12
:1011E00000BF01202749087039E004F0C7FA00BFAA
:1011F0002548C06A042108432349C8620846C06ADA
:1012000004210840009000BF00BF00BF1E48C06A14
:10121000802108431C49C8620846C06A80210840F2
:10122000009000BF00BF00BF1748C06A02210843FA
:101230001549C8620846C06A02210840009000BFF4
:1012400000BF00BF1048C06A012108430E49C862B0
:101250000846C06AC007C00F009000BF00BF02F080
:1012600053FD02F073FD02F01FFD02F005FF0022A6
:101270000321022000F0EAFE022000F0DBFE04F071
:101280001DFF08BD0C0000200010024070B5024692
:101290000F48002312E0D55C684000240AE0C5072F
:1012A000ED0F002D03D040100A4D684000E04010C3
:1012B000651CECB2082CF2DB5D1CEBB28B42EADB66
:1012C000FF252D0205402D1256187570505470BD23
:1012D000FFFF000001A00000F8B505460E460024FF
:1012E00013E028786D1C444008270CE08020204043
:1012F000002804D0600031214840C4B201E06006FB
:10130000040E781EC7B2002FF0DC3046711ECEB23C
:101310000028E6D12246BE2102A005F0A5F820460D
:10132000F8BD00004170703A2E2E5C555345525C5A
:101330005A6574612E632C6C696E65203A202564B1
:101340002C63726338203D20253032580D0A00008E
:10135000F0B587B000200590069000BF0A2128480C
:10136000FFF7B8FE694688822649098B4A008A1829
:101370006946898A4A431046FFF7BBF804900A2160
:101380002148FFF7A7FE80B26946C882C98A0A03CE
:10139000501AFFF7AEF8039003990498FFF76BF823
:1013A0001A490290FFF72AF80746FFF7BDF80191A6
:1013B00000906846838AC28A1248018B14A005F007
:1013C00053F803990498FFF756F810490290FFF775
:1013D00015F807461B49FFF709F806461A49FFF7B3
:1013E0004AF80546FFF78CF8C4B2642C01DB64248C
:1013F00002E0052C00DC0324204607B0F0BD00000D
:10140000020000046000F81F000002440000FA44DB
:10141000424154203D202564206164633137203DE2
:10142000202564202C2061646330203D2025642C1D
:101430002056424154203D20252E32666D56200D07
:101440000A000000000061450000C04010B5012006
:1014500000F0A0FC022000F09DFC10BD10B504209F
:1014600000F098FC082000F095FC10BD10B510208D
:1014700000F090FC202000F08DFC402000F08AFC61
:10148000802000F087FCFF20013000F083FC012069
:10149000400200F07FFC0120800200F07BFC012074
:1014A000C00200F077FC0120000300F073FC012073
:1014B000400300F06FFC0120800300F06BFC012072
:1014C000C00300F067FC10BD10B502A004F0CCFF13
:1014D00010BD00006572726F720D0A0081680029EC
:1014E00007D0016809680968202211430268126860
:1014F0001160704738B50446002C5ED02820005D8E
:1015000000285AD020680068006820210840002880
:1015100028D06946206804F073FD002821D1A06816
:1015200000281ED068460078E28AA1688854E08AC4
:10153000401C80B2E082E189884201DB0020E08229
:10154000608BE189884203DA608B401C608301E094
:10155000E08A2083606A002803D068460078616AC8
:10156000884700BF20680068006880210840002884
:1015700023D0A08A00280CD1206800680068884326
:10158000216809680860206A002816D0206A804710
:1015900013E0638A6268D15C206804F03FFD002894
:1015A0000BD1608A401C80B26082A189884201DB35
:1015B00000206082A08A401EA08238BD70B504461B
:1015C0000D46012004F09EFF668B002004F09AFF78
:1015D000002E04D0002D02D0A068002801D10120E7
:1015E00070BD218BA068405C2870012004F08AFF48
:1015F000208B401C80B22083E189884201DB0020DF
:101600002083608B401E6083002004F07BFF00205D
:10161000E6E7F0B5069D059C016042608360848129
:10162000C581002606824682C6820683468386825C
:10163000079EC661089E0662099E4662012628270B
:101640003E54F0BD014602484843024A105C7047D0
:1016500013020000540B0020F8B5044600250026B4
:10166000002700BF5420005D012801D10220F8BDF1
:1016700001215420015500BF206880688007800F39
:10168000012806D1206800680840002801D0012008
:1016900000E0002000283FD1A06DFF2101318843E8
:1016A00002210843A0652068C0688707BF0F206833
:1016B000C068800880002168C860206880680121B7
:1016C000C90708432168886000F080FC064611E0E5
:1016D00000F07CFC801B0A280CD9A06D02218843F5
:1016E00010210843A06500BF00215420015500BF10
:1016F0000120BCE720688068C00FC0070028E7D140
:101700002068C06838432168C860A06D0221884302
:1017100001210843A06504E0A06D20210843A065D5
:10172000012500BF00215420015500BF28469EE737
:1017300070B504460D4600BF5420005D012801D15C
:10174000022070BD01215420015500BF206880682F
:1017500004210840800800280AD0A06D20210843F9
:10176000A06500BF00215420015500BF0120E8E71B
:101770003C496868884238D02068806A29684903F3
:10178000490B08432168886228684003400B3649AA
:10179000084001218904884208D134488068490101
:1017A0000843324988600A20FFF7DEFB28684003BF
:1017B000400B2F49084001214904884205D12B489C
:1017C0008068490108432949886028684003400B24
:1017D000284908400121090488423BD123488068F8
:1017E000090208432149886034E02068806A29683A
:1017F0004903490B88432168886228684003400BED
:101800001949084001218904884205D11748806898
:10181000490188431549886028684003400B1449F2
:10182000084001214904884205D1104880684901D7
:1018300088430E49886028684003400B0D490840E2
:1018400001210904884205D10848806809028843BB
:101850000649886000BF00215420015500BF0020C8
:101860006FE700000110000000000448002701405D
:1018700000000244000001400146886D70470146A7
:101880000868006C7047000010B50446002C01D1B8
:10189000012010BDA06D002806D1E0650021542074
:1018A0000155204600F00AF9A06D102108400028DB
:1018B00006D12068806804210840800800280AD0EA
:1018C000A06D10210843A06500BF002154200155E0
:1018D00000BF0120DDE7A06DFF2101318843022117
:1018E0000843A065206880688007800F012807D121
:1018F00020680068C007C00F002801D0012000E068
:10190000002000283AD100BF03218907606888427F
:1019100007D049426068884203D049006068884225
:101920000CD1206800698000800821680861206867
:101930000069616808432168086112E02068006955
:1019400080008008216808615A4880680F21890456
:10195000884358498860084680686168084355494B
:10196000886000BF2068C068182188432168C8606B
:101970002068C068A16808432168C8604D48806835
:101980000121490688434B49886008468068218FB9
:101990004906084347498860206880680121090793
:1019A0000840002804D120688068084321688860C6
:1019B0002068C068404908402168C8602169E06823
:1019C000022901D1042100E000210843216A4903D2
:1019D0000843216B49000843616B0843A1698903EF
:1019E0000843E169C90308432168C96808432168BD
:1019F000C860FF21C231A06A884207D0E16AA06AAC
:101A000008432168C96808432168C860606A0128E2
:101A100012D1206A002807D12068C068012109047A
:101A200008432168C86007E0A06D20210843A06535
:101A3000E06D01210843E065206C012817D1206882
:101A40000069FF218900884321680861616CA06CEE
:101A50000843E16C0843216809690843216808616B
:101A60002068006901210843216808610BE02068B3
:101A70000069C007C00F002805D020680069400831
:101A800040002168086120684069C008C0002168E2
:101A9000486120684069E16B084321684861002083
:101AA000E065A06D0221884301210843A065002064
:101AB000EFE60000002701401902FEFF10B586B0D6
:101AC00004460B492068884210D10A48406B4915EA
:101AD0000843084948630120019003200290002038
:101AE000039001A90520000700F064F906B010BDBD
:101AF0000024014000100240F8B504460D460026BF
:101B000000276069082801D1082711E02068C06813
:101B1000C007C00F00280AD0A06D20210843A0658F
:101B200000BF00215420015500BF0120F8BD0C2743
:101B300000F04CFA064614E0681C002811D0002D75
:101B400004D000F043FA801BA8420AD9A06D0421FA
:101B50000843A06500BF00215420015500BF0320A9
:101B6000E4E72068006838400028E5D0A06D012136
:101B700049020843A0652068C06803218902084023
:101B8000002825D1206A002822D120680068082179
:101B9000084008281CD1206880680421084080087B
:101BA00000280DD1206840680C21884321684860D6
:101BB000A06DFF210131884301210843A06507E0A2
:101BC000A06D20210843A065E06D01210843E06578
:101BD000A069002802D10C20216808600020A5E738
:101BE00070B50446002520688068042108408008FC
:101BF00000282BD100BF5420005D012801D1022014
:101C000070BD01215420015500BFE069012803D0B7
:101C10002046FFF70DFA0546002D18D1A06D0D499D
:101C20000840FF2101310843A0650020E06500BFA6
:101C300000215420015500BF1C2021680860206845
:101C40008068042108432168886000E00225284656
:101C5000D6E70000FEF1FFFF70B50446002500BF87
:101C60005420005D012801D1022070BD01215420C3
:101C7000015500BF2046FFF740F90546002D0CD165
:101C80002046FFF787F90546002D06D1A06DFF21FC
:101C90000131884301210843A06500BF0021542081
:101CA000015500BF2846E0E770B504460025252011
:101CB000005D022803D00420E063012549E020688C
:101CC00000680E2188432168086020680068400889
:101CD00040002168086020492068884201D1012025
:101CE00026E01D4914312068884201D110201FE0F0
:101CF000194928312068884201D1801518E0164919
:101D00003C312068884201D1801411E012495031E1
:101D10002068884202D10120000409E00E496431A4
:101D20002068884202D10120000501E00120000660
:101D300009490839486001212520015500BF0021CB
:101D40002420015500BFA06B002802D02046A16BC3
:101D50008847284670BD00000800024031B50024C5
:101D600000F034F9044600BF00F030F9001B009980
:101D70008842F9D338BD000010B50446012C03D1C8
:101D80000349C868804700BF00BF00BF10BD000006
:101D9000141C002010B50446054840692040002866
:101DA00004D0034844612046FFF7E6FF10BD000061
:101DB0000004014070B50346002200240020DFE04B
:101DC000012696400D6835402C46002C77D04D6892
:101DD000022D02D04D68122D15D1D508AE001D463A
:101DE0002035A8595507EE0E0F25B5400646AE43DF
:101DF00030465607F60E0D69B5402843D508AD00AC
:101E00001E46203670514D68012D08D04D68022DB8
:101E100005D04D68112D02D04D68122D18D198684B
:101E200056000325B5400646AE4330465600CD6801
:101E3000B540284398605868012595400646AE4352
:101E4000304610264D6835402D099540284358608E
:101E5000186856000325B5400646AE4330460D7956
:101E6000AD07AD0F5600B54028431860D86856003E
:101E70000325B5400646AE43304656008D68B54052
:101E80002843D860012636074D683540B54276D1E3
:101E90003E4D6D6B012635433C4E75633C4D9608B7
:101EA000B600A85995072E0F0F25B5400646AE433C
:101EB000304605252D07AB4202D100251AE05EE031
:101EC000344DAB4201D1012514E0334DAB4201D179
:101ED00002250FE0314DAB4201D103250AE0304D20
:101EE000AB4201D1042505E02E4DAB4201D10525C1
:101EF00000E006259607360FB5402843244D960886
:101F0000B600A851284D28680546A5432846012655
:101F100036044D683540B54202D105462543284672
:101F2000214D286068680546A543284601267604A9
:101F30004D683540B54202D10546254328461A4D25
:101F40006860A8680546A5432846012636054D6801
:101F50003540B54202D1054625432846124DA860BA
:101F6000E8680546A5432846012676054D683540B4
:101F7000B54202D10546254328460B4DE860521C68
:101F80000D68D540002D00D01AE770BD001002404A
:101F9000080001400004005000080050000C0050F0
:101FA00000100050001C005000040140024613695C
:101FB0000B40002B01D0012000E000207047002AD8
:101FC00001D0816100E08162704700000148006833
:101FD000704700000400002002480068401C0149CE
:101FE000086070470400002010B5064800684021D2
:101FF000084304490860002000F006F800F018F8D3
:10200000002010BD0020024070B504467D21C900AB
:1020100006480068FEF76CF8054601F057FB002201
:102020002146501E00F012F8002070BD0000002074
:102030007047000000BFC206D20E01219140024A43
:10204000116000BF7047000000E100E070B5044679
:102050000D4616462946204601F0D4FE70BD00000C
:10206000F0B585B0054600260020039002900024BC
:10207000002701900090102D7ED008DC012D7CD02F
:10208000022D7BD0042D7AD0082D79D13BE1202D73
:102090000AD0402D51D0E81FF938002871D007210F
:1020A0000902401AF1D100E000BFC6480669006984
:1020B000032109040840044601200004844206D19B
:1020C000C0113040002802D06010029034E001209E
:1020D0004004844206D102203040002802D0BA4891
:1020E000029029E003200004844223D1B5484038FF
:1020F000006801214904084000281BD0B14840383D
:102100000068210108400390012109050398401A45
:1021100009D0401A04D0401A08D1AC48029008E017
:10212000AB48029005E0AB48029002E0AA4802905A
:1021300000BF01E0002002903FE1A248C0680121F9
:10214000890608400446002C42D19E484038006869
:102150004910084000283BD09A484038C0680F21F9
:1021600089040840074697484038C068032189051C
:1021700008400190B80C05E0EAE03AE064E08FE046
:102180001AE1F4E095490F5C0198800D401C019024
:102190008C484038C06801210904084000280CD14F
:1021A00088484038006810210840002802D08A483A
:1021B000009004E08A48009001E08A48009000986E
:1021C0007843009001990098FDF792FF02900FE08C
:1021D00001208006844209D17A4840388068022173
:1021E0000840002802D08048029001E000200290C0
:1021F000E3E07448C0688407A40F002C03D100F00A
:102200005FFB02901FE0022C09D16E484038006845
:1022100004210840002802D07148029013E0012CEC
:1022200003D100F05FFB02900DE0032C09D165485B
:102230000069012149020840002802D0880102906B
:1022400001E000200290B8E05E48C0680C21084020
:102250000446002C03D100F021FB02901FE0082C63
:1022600009D158484038006804210840002802D0AD
:102270005B48029013E0042C03D100F033FB029082
:102280000DE00C2C09D14F4800690121490208409A
:10229000002802D08801029001E0002002908CE02A
:1022A0004848C0680321890208400446002C03D135
:1022B00000F0F4FA029025E00120C002844209D126
:1022C00040484038006804210840002802D04448B3
:1022D000029017E001208002844203D100F002FB4B
:1022E00002900FE003208002844209D13548006942
:1022F000012149020840002802D08801029001E033
:102300000020029059E02F48C068032109030840CB
:102310000446002C03D100F0C1FA029017E001201E
:102320004003844209D1274840380068042108400E
:10233000002802D02A48029009E0012000038442CC
:1023400003D100F0CFFA029001E00020029034E0C7
:102350001C484038806B012189050840884203D120
:1023600000F09CFA029001E00020029025E0154860
:10237000C0680321090408400446002C03D100F082
:102380008DFA029017E001204004844209D10D48E3
:102390004038006804210840002802D0104802900C
:1023A00009E001200004844203D100F09BFA02906E
:1023B00001E00020029000E000BF00BF029805B0DD
:1023C000F0BD0000401002408890000020A10700EE
:1023D00040420F0080841E0000093D00186F000875
:1023E0000024F40000127A00006CDC02F8B5044608
:1023F00000260025202120680840202804D08901DB
:102400002068084088427DD120212068084020288B
:1024100000D100BF0121C90220680840884200D1D4
:1024200000BF00279948806B012109070840002858
:1024300005D19648806B08439449886301279448E6
:102440000068FF2101310840002816D1904800683B
:1024500008438F490860FFF7B9FD064606E0FFF71D
:10246000B5FD801B642801D90320F8BD88480068A9
:10247000FF21013108400028F1D084480068032181
:1024800009050840054660680840A84203D1A068D5
:102490000840A8420ED00321090460680840884221
:1024A00008D17A480068012149040840002801D079
:1024B0000120DAE77548403000690321090408402B
:1024C0000546002D49D060680840A84204D020216C
:1024D0002068084020280BD003210904A068084088
:1024E000A8423AD00121C90220680840884234D16C
:1024F0006648403000690321090488430546634863
:10250000403000E052E000690121C90408435F49FE
:1025100040310861084600690121C90488435B49CC
:10252000403108610846056180152840002814D014
:10253000FFF74CFD064607E0FFF748FD801B5549B5
:10254000884201D9032090E75048403000690121BA
:1025500049020840400A0028EED000BF00BF032116
:1025600009046068084088420AD1484800680901A7
:1025700088430322120561681140084343490860FB
:1025800000BF4248403000690322120461681140D4
:1025900008433E494031086100BF012F05D13B4847
:1025A000806B890588433949886300BF2078C0075C
:1025B000C00F002809D035484030C068800880002E
:1025C000E168084331494031C86002212068084071
:1025D000022809D12D484030C0680C218843216968
:1025E00008432A494031C860042120680840042873
:1025F0000AD126484030C0680321890288436169B6
:10260000084322494031C860082120680840082852
:102610000AD11E484030C068032109038843A169DC
:1026200008431A494031C860FF2101312068084041
:1026300088420AD115484030C06803210904884304
:10264000E169084311494031C860402120680840D1
:10265000402809D10D484030C06809058843616AA7
:1026600008430A494031C86080212068084080281A
:102670000AD106484030C068032189048843216A92
:10268000084302494031C8600020EEE600100240D5
:10269000007000408813000070B504460D46002607
:1026A00076480068C007C00FA8420ED27348006881
:1026B0004008400028437149086008460068C00788
:1026C000C00FA84201D0012070BD0221206808403F
:1026D000022807D16A48C068F0218843A1680843EE
:1026E0006749C8602078C007C00F00284CD06068D8
:1026F000022809D162480068012149040840400CC1
:10270000002824D10120DFE76068032809D15C4854
:102710000068012149060840400E002817D1012019
:10272000D2E76068012808D15548006804210840B4
:10273000800800280BD10120C6E75148006801211C
:1027400049020840400A002801D10120BCE74C485A
:10275000C06880088000616808434949C860FFF785
:1027600035FC0646606802280FD107E0FFF72EFC13
:10277000801B4449884201D90320A5E74048C0682E
:102780000C2108400828F1D134E0606803280FD1FB
:1027900007E0FFF71BFC801B3A49884201D9032060
:1027A00092E73748C0680C2108400C28F1D121E09D
:1027B000606801280FD107E0FFF708FC801B314952
:1027C000884201D903207FE72D48C0680C210840CA
:1027D0000428F1D10EE007E0FFF7F8FB801B294940
:1027E000884201D903206FE72548C0680C210840C2
:1027F0000028F1D121480068C007C00FA8420ED9B7
:102800001E4800684008400028431C4908600846EC
:102810000068C007C00FA84201D0012054E704217E
:1028200020680840042808D11548C068072109021B
:102830008843E16808431249C860082120680840BD
:10284000082809D10E48C0680721C90288432169B8
:10285000C90008430A49C86000F044F80849C9683B
:10286000F02211400909084A515CC8400749086034
:102870000020FFF7C9FB002026E7000000200240EF
:102880000010024088130000006F000800000020C4
:1028900001480068704700000000002000B5FFF705
:1028A000F7FF0549C968072212021140090A034AC5
:1028B000515CC84000BD000000100240106F0008CD
:1028C00000B5FFF7E5FF0549C9680722D2021140AC
:1028D000C90A034A515CC84000BD00000010024014
:1028E000106F0008FEB500250026002700240020F8
:1028F000019000902F48C5680C202840002847D040
:10290000042804D008280ED00C2840D10EE0294815
:10291000006810210840002802D02748009001E0FC
:102920002648009042E0264800903FE00F208004B7
:102930002840800C23490E5C032080052840800D30
:10294000471C1C48C068012109040840002807D022
:102950001B49714308463946FDF7CAFB044614E09B
:102960001448006810210840002807D0124971431C
:1029700008463946FDF7BCFB044606E00F497143A3
:1029800008463946FDF7B4FB044600940EE000BF4C
:1029900008484068072149030840400B019001980E
:1029A000401C01218140C803009000BF00BF009877
:1029B000FEBD00000010024000093D000024F400AC
:1029C00000127A00186F0008F8B504460025207838
:1029D000C007C00F00287DD0FE48C0680C21084009
:1029E00008280BD0FB48C06808400C2813D1F948D0
:1029F000C06801210904084088420CD1F5480068EC
:102A0000012149040840400C002863D06068002878
:102A100060D10120F8BD00BF01210904606888422F
:102A200005D1EC4800680843EA49086027E0052121
:102A30000904606888420ED1E648006801218904D3
:102A40000843E44908600846006801210904084376
:102A5000E049086013E0DF48006801210904884369
:102A6000DC4908600846006801210904084000901C
:102A700000BFD848006889008843D649086000BF75
:102A80006068002813D0FFF7A1FA054606E0FFF7BB
:102A90009DFA401B642801D90320BBE7CD4800689C
:102AA000012149040840400C0028F0D012E0FFF753
:102AB0008DFA054606E0FFF789FA401B642801D924
:102AC0000320A7E7C3480068012149040840400CDF
:102AD0000028F0D1022120680840022868D1BD48B2
:102AE000C0680C21084004280BD0BA48C0680840D0
:102AF0000C281DD1B748C0680121090408400028EE
:102B000016D1B4480068042108408008002804D089
:102B1000E068012801D001207CE7AE4840681F2111
:102B200009028843216909020843AA4948603FE035
:102B3000E068002824D0A748006809218843E1689C
:102B40000843A4490860FFF741FA054606E0FFF78D
:102B50003DFA401B022801D903205BE79D4800682D
:102B60000421084080080028F1D09A4840681F21BD
:102B7000090288432169090208439649486017E021
:102B8000944800684008400092490860FFF71EFA28
:102B9000054606E0FFF71AFA401B022801D9032078
:102BA00038E78C4800680421084080080028F1D1EB
:102BB000102120680840102860D18648C0680C2188
:102BC000084000285BD18348006801214902084081
:102BD000400A002804D0E069002801D1012019E74B
:102BE0007C48616A4068072252031040814219D92B
:102BF000606A01F061F9002801D001200AE77548F8
:102C00004068072149038843616A08437149486065
:102C1000084640680002000A218C090608436D49F5
:102C2000486018E06B484068072149038843616A9F
:102C3000084368494860084640680002000A218C41
:102C40000906084363494860606A01F035F90028C5
:102C500001D00120DEE6606A400B401C012181406A
:102C6000C8035C49C968F022114009095A4A515CFD
:102C7000C8405A4908600020FFF7C6F949E0E069FA
:102C800000282CD053480068FF21013108435149E6
:102C90000860FFF79BF9054606E0FFF797F9401B30
:102CA000022801D90320B5E64A48006801214902FB
:102CB0000840400A0028F0D04648406807214903F0
:102CC0008843616A084343494860084640680002F7
:102CD000000A218C090608433E49486019E03D4836
:102CE0000068FF21013188433A490860FFF76EF917
:102CF000054606E0FFF76AF9401B022801D90320C8
:102D000088E634480068012149020840400A00284A
:102D1000F0D1082120680840082839D160690028CE
:102D20001BD02C484030006901210843294940311B
:102D30000861FFF74BF9054606E0FFF747F9401B2E
:102D4000022801D9032065E62248403000690221AB
:102D5000084040080028F0D01AE01E4840300069C2
:102D6000400840001B4940310861FFF72FF9054634
:102D700006E0FFF72BF9401B022801D9032049E6A2
:102D80001448403000690221084040080028F0D172
:102D9000042120680840042877D100260D48806B64
:102DA00089060840002805D10A48806B0843094974
:102DB000886301260A480068FF2101310840002885
:102DC0001ED107480068084305490860FFF7FEF870
:102DD00005460EE000100240006F000800000020D1
:102DE00000700040FFF7F2F8401B642801D903206F
:102DF00010E6A6480068FF21013108400028F1D004
:102E000000BFFF210131A068884205D1A0480069B8
:102E100008439F49086130E0A06800280DD19C4814
:102E20000069FF210131884399490861084600691A
:102E300009158843964908611FE005210902A06829
:102E400088420DD1924800690121890208439049C6
:102E5000086108460069891508438D4908610CE03E
:102E60008B480069FF210131884389490861084680
:102E70000069091588438649086100BFA0680028D9
:102E800015D0FFF7A3F8054608E02FE0FFF79EF8FE
:102E9000401B8049884201D90320BBE57C4800697A
:102EA000012149020840400A0028EFD013E0FFF753
:102EB0008DF8054607E0FFF789F8401B7549884201
:102EC00001D90320A6E572480069012149020840A2
:102ED000400A0028EFD1012E07D16D484038806BA1
:102EE000310788436A494039886300BF2021206840
:102EF0000840202852D1A06900282BD000BF644888
:102F0000403880680121084361494039886008469B
:102F1000406B012108435E49403948635E48006ABE
:102F20000121490308435C49086200BFFFF74EF8DE
:102F3000054606E0FFF74AF8401B022801D90320A6
:102F400068E553484038806802210840400800285E
:102F5000F0D023E000BF4E48403880684008400071
:102F60004B49403988604C48006A01214903884335
:102F70004949086200BFFFF729F8054606E0FFF758
:102F800025F8401B022801D9032043E5404840387A
:102F900080680221084040080028F0D1A06A00287B
:102FA00072D03B484038C0680C2108400C2869D0DA
:102FB000A06A022848D13648403800680121090635
:102FC0008843334940390860FFF700F8054606E0BA
:102FD000FEF7FCFF401B022801D903201AE52C480C
:102FE00040380068012149060840400E0028EFD112
:102FF000216BE06A0843616B084325494039C96881
:10300000FD2212049143084321494039C860084613
:1030100000680121090608431D4940390860FEF790
:10302000D5FF054606E0FEF7D1FF401B022801D977
:103030000320EFE4164840380068012149060840A3
:10304000400E0028EFD01FE01148403800680121F1
:10305000090688430E4940390860FEF7B7FF054668
:1030600006E0FEF7B3FF401B022801D90320D1E49C
:10307000074840380068012149060840400E0028F2
:10308000EFD101E00120C5E40020C3E4007000405E
:1030900040100240881300000000014070470246C3
:1030A00000231068034650338800C318186870471F
:1030B00010B500230468234650338C00E3181A60CF
:1030C00010BD000010B5044610484068C007C00F8E
:1030D000012148404840002805D00C4800680421E0
:1030E00008430A4908600A48C0680C2108400828BB
:1030F00004D00748C0680840002804D1FEF730F823
:1031000004A003F0B1F962B610BD000000700040E9
:1031100000100240776B7570206C6F772D706F77A1
:103120006572206E6F770D0A0000000010B504462E
:1031300020688068012109030840000B002811D095
:103140002068C06809110840000A00280AD02046FB
:10315000FFF7B8FF2068C068802108401249084383
:103160002168C86020688068012149030840400B3D
:10317000002811D02068C06809110840400A0028C2
:103180000AD02046FFF78AFF2068C06880210840E7
:10319000064908432168C860012040040449486189
:1031A00001212120015510BD7FFEFFFF7FFDFFFFA4
:1031B0000004014070B504460D46002600BF2020E3
:1031C000005D012801D1022070BD012120200155A0
:1031D00000BF02212120015500BFCA20216848629A
:1031E00053202168486200BFFF20013085422CD166
:1031F0002068806829468843216888602068806844
:103200002901884321688860FEF7E0FE064615E044
:10321000FEF7DCFE801B7D21C90088420ED900BF6D
:10322000FF202168486200BF03212120015500BF13
:1032300000212020015500BF0320C5E72068C06899
:10324000C007C00F0028E3D02EE02068806801216D
:103250004902884321688860206880680121490309
:10326000884321688860FEF7B1FE064615E0FEF748
:10327000ADFE801B7D21C90088420ED900BFFF2012
:103280002168486200BF03212120015500BF0021B1
:103290002020015500BF032096E72068C068022166
:1032A000084040080028E2D000BFFF2021684862A3
:1032B00000BF01212120015500BF00212020015520
:1032C00000BF002080E7000010B50446002C01D1AB
:1032D000012010BD2FA003F0C7F82120005D0028B9
:1032E00005D1002120200155204600F061F802217F
:1032F0002120015500BFCA2021684862532021685F
:10330000486200BF204600F089FE002809D000BFB7
:10331000FF202168486200BF0421212001550120BF
:10332000D7E72068806821490840216888602169C2
:1033300060680843A16908432168896808432168D7
:1033400088602168E06808612068006921890904B3
:103350000843216808612068C0688021884321688B
:10336000C8602068C06C800880002168C8646169FA
:10337000E06908432168C96C08432168C86400BF3C
:10338000FF202168486200BF012121200155002053
:103390009FE7000048414C5F5254435F496E697497
:1033A000205374617274200D0A000000BFFF8FFF6C
:1033B000054A0168914206D1044909690122920433
:1033C0001143024A1161704700280040401002403A
:1033D000F8B504460D461646002700BF2020005DC4
:1033E000012801D10220F8BD01212020015500BF94
:1033F000022121200155002E09D1687810210840B2
:10340000102804D16878EF2108400A306870002E37
:1034100011D1E87800F0F5FD0304687800F0F1FDC3
:1034200000020343A87800F0ECFD03432878400332
:1034300003431F4612E0687800F0D6FD0746A878DF
:1034400000F0D2FD0746E8780004697809020843D5
:10345000A9780843297849030843074600BFCA20D2
:103460002168486253202168486200BF204600F06E
:10347000D5FD00280ED000BFFF202168486200BFA4
:1034800004212120015500BF00212020015500BF4B
:103490000120A8E719483840216848602068C068C2
:1034A000802188432168C860206880682021084006
:1034B000002813D1204600F0CDF800280ED000BF20
:1034C000FF202168486200BF04212120015500BF70
:1034D00000212020015500BF012084E700BFFF200C
:1034E0002168486200BF01212120015500BF002151
:1034F0002020015500BF002075E700003FFFFF00BE
:10350000F8B504460D461646002700BF2020005D92
:10351000012801D10220F8BD01212020015500BF62
:10352000022121200155002E1BD1206880684021F6
:103530000840002800D002E00020E87000BF287892
:1035400000F05FFD0304687800F05BFD00020343B8
:10355000A87800F056FD0343E878000403431F46B3
:1035600018E02068806840210840002804D02878AE
:1035700000F03AFD074602E00020E87000BF28781E
:103580000004697809020843A9780843E978090426
:103590000843074600BFCA202168486253202168BB
:1035A000486200BF204600F039FD00280ED000BF61
:1035B000FF202168486200BF04212120015500BF7F
:1035C00000212020015500BF0120A4E720483840F9
:1035D0002168086020688068012189048843216887
:1035E00088602969E8680843216889680843216878
:1035F00088602068C068802188432168C86020688E
:10360000806820210840002813D1204600F022F8CD
:1036100000280ED000BFFF202168486200BF0421AF
:103620002120015500BF00212020015500BF0120AD
:1036300071E700BFFF202168486200BF01212120FF
:10364000015500BF00212020015500BF002062E786
:103650007F7F7F0070B5044600252068C068A021E8
:1036600088432168C860FEF7B1FC054608E0FEF714
:10367000ADFC401B7D21C900884201D9032070BDEB
:103680002068C068202108400028F0D00020F6E71C
:10369000034800690221084301490861704700009E
:1036A00000E000E0042806D106490969042211431C
:1036B000044A116105E00349096904229143014A62
:1036C0001161704700E000E07047000070B50446EB
:1036D0002546681E0949884201D901200CE0681E70
:1036E000074948610321081F00F08CFB00200449B2
:1036F000886107200861002070BD0000FFFFFF0007
:1037000000E000E010B5FFF7DFFF10BD7047704725
:103710000146002200236920425C6A20435C104677
:1037200018437047F8B504462068C56920680668E4
:103730002807000F0090009800280BD12020284077
:10374000002807D020203040002803D0204602F077
:1037500070F9F8BD20688768009800287ED0F807C7
:10376000C00F002804D1FF20213030400028F5D0C0
:10377000E807C00F00280BD0FF20013030400028A0
:1037800006D0012021680862E06E01210843E0664E
:103790000220284000280AD0F807C00F002806D0D1
:1037A000022021680862E06E04210843E0660420DC
:1037B000284000280AD0F807C00F002806D00420AF
:1037C00021680862E06E02210843E0660820284074
:1037D00000280ED020203040002803D1F807C00F69
:1037E000002806D0082021680862E06E08210843FE
:1037F000E066E06E002841D020202840002806D056
:1038000020203040002802D0204602F012F9E06E5D
:1038100008210840002805D1206880684021084020
:10382000002826D0204602F0E3F820688068402176
:103830000840002819D02068806888432168886083
:10384000606E00280DD02648616E8863606EFEF7BA
:103850002BFA002812D0606E816B00E00FE08847E1
:103860000CE02046FFF753FF08E02046FFF74FFF2C
:1038700004E02046FFF74BFF0020E06669E70120E7
:1038800000052840002811D001208005384000287C
:103890000CD0012000052168086220216920015513
:1038A0006A2001552046FFF731FF52E7802028406B
:1038B000002807D080203040002803D0204602F0A6
:1038C000F9FA46E740202840002807D04020304041
:1038D000002803D0204602F09CF83AE700BF38E702
:1038E000D959000810B50446002C01D1012010BDA3
:1038F000A069002800D000E000BF6920005D00281A
:1039000005D1002168200155204600F02DF8242122
:10391000692001552068006840084000216808605F
:10392000606A002802D0204601F0A4FF204602F081
:10393000C9F8012800D1DAE7206840680921C902E6
:10394000884321684860206880682A21884321686C
:1039500088602068006801210843216808602046CB
:1039600002F000F8C3E7000010B586B0044629490C
:103970002068884217D12848406B012189030843F9
:103980002549486303204002019002200290012053
:103990000390032004900420059001A9052000074E
:1039A000FEF708FA34E01D492068884216D11A480B
:1039B000806B012149040843174988630C2001905A
:1039C000022002900120039003200490042005901F
:1039D00001A905200007FEF7EDF919E0104920685C
:1039E000884215D10C48806B0121C90408430A495B
:1039F000886303208002019002200290012003903E
:103A0000032004900620059001A90648FEF7D2F98C
:103A100006B010BD003801400010024000440040D4
:103A2000004C00400008005010B503466A20C05CFE
:103A300020286AD1002901D0002A01D1012010BD1F
:103A4000012424039868A04208D11869002805D1F0
:103A5000C807C00F002801D00120F0E700BF682090
:103A6000C05C012801D10220E9E701246820C45488
:103A700000BF59655820C2525A20C25200BF2403C9
:103A80009868A0420AD11869002803D1204C5C2014
:103A9000C45220E0FF245C20C4521CE09868002837
:103AA0000AD11869002803D1FF245C20C45212E017
:103AB0007F245C20C4520EE0012424079868A042B1
:103AC00009D11869002803D17F245C20C45202E088
:103AD0003F245C20C45200BF0020D86622246A2004
:103AE000C45400BF00246820C45400BF1868806814
:103AF000012420431C68A06018680068FF2421345A
:103B000020431C682060002099E7022097E700000E
:103B1000FF01000010B504460F49206888421AD101
:103B20000E48817A0289FF38FD3881540B4800899C
:103B3000401C81B209480181FEF748FA08498860B3
:103B4000012106480173008981218900884202DB36
:103B500000210248018110BD004400407809002086
:103B6000D0050020FEB504460D4616461F4600202F
:103B700001906920005D20286AD1002D01D0002E1F
:103B800001D10120FEBD01210903A068884208D1AE
:103B90002069002805D1E807C00F002801D00120C6
:103BA000F0E700BF6820005D012801D10220E9E7AD
:103BB00001216820015500BF0020E0662121692015
:103BC0000155FEF703FA0190502006535220065388
:103BD00025E05220005B401E81B252200153009725
:103BE000002280212046019B02F09DF9002801D08F
:103BF0000320C7E701210903A06888420BD120698F
:103C0000002808D10295029D2888C005C00D2168B2
:103C10008862AD1C03E028786D1C21688862522000
:103C2000005B0028D5D10097002240212046019B4F
:103C300002F079F9002801D00320A3E720216920B0
:103C4000015500BF00216820015500BF002099E701
:103C5000022097E770470000024903A002F004FC2D
:103C600000BFFEE7216F000825730D0A0000000069
:103C700000B585B000206423029003900193009367
:103C80000490054B054A06490648FDF7C2FC054865
:103C9000FDF724FC05B000BDD0090020340A002047
:103CA000DC0600204C07002010B5154815490860B7
:103CB0000021144801640120800712494860002156
:103CC000104881600521C163012101610021C160AB
:103CD0000121016200214162C162FF21C231816282
:103CE00000210163042141610021416381618163FD
:103CF000C161FDF7C9FD002801D0FDF7E5FB10BD4E
:103D000000240140BC0A002010B50E480E4908608E
:103D1000E1204002486000210B488160C1600161E0
:103D20000C21416100218161C161016200200649CD
:103D300048620846FFF7D6FD002801D0FDF7C4FB16
:103D400010BD000000380140FC05002010B51448EB
:103D500014490860E1204002486000211148816058
:103D6000C16001610C21416100218161C161016279
:103D700000200C4948620846FFF7B4FD002801D036
:103D8000FDF7A2FB002204211C20FEF75FF91C2096
:103D9000FEF750F9012204490248FFF745FE10BD25
:103DA000004400406C0600208209002010B5124833
:103DB000124908604B20C001486000210F48816013
:103DC000C16001610C21416100218161C161016219
:103DD00000200A4948620846FFF784FD002801D008
:103DE000FDF772FB002203210E20FEF72FF90E20B3
:103DF000FEF720F910BD0000004C0040DC0600205A
:103E00007047000010B5002819DA1A4A03071B0F83
:103E1000083B9B089B00D2588307DC0EFF23A3407E
:103E20009A438B071B0E8407E40EA3401A43114BE1
:103E30000407240F083CA408A4001A5118E00E4AF5
:103E400003231B02D21883089B00D2588307DC0E81
:103E5000FF23A3409A438B071B0E8407E40EA34065
:103E60001A43054B032424021B198408A4001A5189
:103E700010BD00001CED00E000E100E0F8B50446D4
:103E800000250026042C01D1062500E0254601204E
:103E9000A840064948710648642303220721476B5E
:103EA0000248B84706463046F8BD000075050020B8
:103EB0001C0B00207047000010B5014600230022B3
:103EC0002048C068F0242040002829D11D48806B7C
:103ED000012424072040002806D01B480068032442
:103EE000E4022040034613E01648806B01242407B7
:103EF0002043144CA063144800680324E4022040CB
:103F000003461048806B01242407A0430D4CA06396
:103F10000320C002834203D1C000814200D10122AC
:103F20000A480068400840001043084C20602046C2
:103F30000068C007C00F904201D0012010BD0020D2
:103F4000FCE700000010024000700040002002402A
:103F500070B50546002442E05C216143214A89187E
:103F600008460C301421FCF722F95C2060431D49FF
:103F7000095C5C2060431B4A801801735C2060432D
:103F80001146401845735C20604340188078FF213B
:103F90000902084001125C206043801881735C2094
:103FA00060431146401880785C2161438918C873CA
:103FB0005C20604311464018C078FF210902084088
:103FC00001125C206043801801745C20604311463C
:103FD0004018C0785C21614389184874641C0F2C18
:103FE000BAD370BD10000020014600BFF020084089
:103FF00000110A23584302460807000F8018C0B278
:1040000070470146002203E0521C08460A38C1B23C
:104010000A29F9D21007000E0843704770B504460C
:1040200000252068C06840210840002815D1401EA6
:104030002168C860FDF7CAFF054608E0FDF7C6FF26
:10404000401B7D21C900884201D9032070BD206832
:10405000C068402108400028F0D00020F6E70000AA
:1040600010B50448FFF762F8FF2101310148FFF75E
:10407000A1F810BD980A002000B587B000212248A1
:10408000FFF70DF8214988423BD021481E490860BE
:10409000002048607F211C488160FF21C160002111
:1040A000016141618161C161FFF70EF9002801D012
:1040B000FDF70AFA00216846017241728172C172ED
:1040C000002005900690002202A90F48FFF718FA79
:1040D000002801D0FDF7F8F901216846017141710E
:1040E00081710021C171002201A90748FFF770F911
:1040F000002801D0FDF7E8F9044A00210248FEF744
:10410000D7FF07B000BD0000980A0020F23200007F
:104110000028004070B51025002407E02846A04084
:1041200081B200220348FDF74AFF641C062CF5DB30
:1041300070BD000000040050FFB583B005460E4678
:1041400017460122D10305200007FDF738FF1F485D
:104150003146826A284690470698FDF7FFFD1C4BC2
:10416000B21C29461B48FFF7FDFC00220121C903B0
:1041700005200007FDF723FFFF209130FDF7EEFD3E
:1041800014211248FCF713F810483946C26A9047C8
:104190000446601E0D49085C0290A01E085C019058
:1041A000A01EC1B20948826A9047601E0749095C97
:1041B0000298814208D1A01E0449095C01988142FD
:1041C00002D1204607B0F0BD0020FBE71C0B002009
:1041D000FFFF0000DC060020F8B506460D46002073
:1041E0000090002404E0684600783055601CC4B29A
:1041F00069460F48FDF7E2F90028F4D0002C15DDE0
:10420000022D02DC0BA002F02FF9002707E0022D9F
:1042100003DCF15D0CA002F027F9781CC7B2A742BD
:10422000F5DB022D02DC0AA002F01EF92046F8BDE3
:104230004C0700202D2D2D2D67657420646174615D
:104240002D2D2D2D000000002530325820000000BB
:104250000D0A000010B5FFF7A9FDFFF709FD0B4897
:104260000B4948610B4888610B48C8610B480862DC
:104270000B4848620B4808630B4888620B48C862C9
:104280000B4848634869804710BD0000ED420008B4
:104290001C0B0020B5420008154100084D640008C1
:1042A0002D640008694300088D120008D9410008F8
:1042B0003941000870B5054601267602002408E061
:1042C00030462041014600220748FDF778FE601C79
:1042D000C4B2062CF4DB30462841014601220248D4
:1042E000FDF76DFE70BD00000004005000B587B002
:1042F00000BF1A48C06A012108431849C86208462D
:10430000C06AC007C00F019000BF00BF00BF0846D1
:10431000C06A022108431149C8620846C06A0221E6
:104320000840019000BF00BF0D480290012003909B
:1043300000200490059002A90A48FDF73BFD0120EA
:10434000C00302900120039000200490059002A970
:1043500005200007FDF72EFD07B000BD001002404C
:10436000F843000000040050F8B506460F46144616
:10437000002506E0022C03DC715D06A002F074F853
:104380006D1CBD42F6DB022C02DC04A002F06CF8CE
:10439000F8BD000025303258200000000D0A000052
:1043A00030B50B46002105E004884D005C53801CAD
:1043B0004C1CA1B29142F7DB30BD7047F0B595B00F
:1043C0000020149000250026342107A8FBF7EFFEFB
:1043D00000200690059000270024FE4802789221D4
:1043E000FD4802F041F800BF5EE2FC486043FC4932
:1043F000085C01287ED1F74801780598814279DD73
:10440000F6486043F6494018017914980818C0B27C
:1044100014901498262852DCF0486043F049401864
:104420004178F048007865225043EF4A82182846C8
:104430006B1CDDB21154E9486043E9494018C1786A
:10444000E848007865225043E74A821828466B1CEA
:10445000DDB21154E1486043E14BC0180079801E81
:1044600082B2DE486043C0180146373107AB069878
:104470001818049002F038FDD84A6243D84BD2187D
:104480001279911ED54A6243D21810463730FBF795
:104490008EFED2486043D24940180079801E0699AA
:1044A0004018C0B20690CD486043CD49401800790D
:1044B0008019C6B20598401CC0B20590F2E1C94807
:1044C0000178007865225043C74A801820308174F3
:1044D000FCF73EFFC349097865225143C24A891857
:1044E00032314870E90F4919C9050A0EBD490978EA
:1044F000652300E080E05943BB4BC91832318A7014
:1045000003200490B7490978652251431A46891857
:104510003231049A88183221FBF749FEB1480078FD
:1045200065225043B04A8118AE4800786522504356
:10453000AD4A80183230049A83182A46184602F091
:10454000D3FC04984019C0B20490A64909786522AA
:104550005143A54A89183231049A881807A9069A46
:1045600002F0C2FCF01CC6B29E48007865214843A8
:104570009D49401860300671964801780598334689
:1045800000940291019097480278C121974801F068
:104590006BFF002003900FE09248007865225043A3
:1045A000914A80183230039A815C91A001F05CFF3F
:1045B0000398401CC0B203900398B042ECDB8EA07D
:1045C00001F052FF07A80699FBF7F1FD854909782C
:1045D00065225143844A88182946FBF7E8FD601E8E
:1045E000C4B280480078401C7E49087000201490B6
:1045F00000260690002555E1784860437849085C1C
:104600000228F8D17348017805988142F3DD00272C
:1046100045E172486043724940184B304C21794360
:104620004018407800287DD06C4860436C494018A1
:104630004B304C2179434018417914980818C0B286
:1046400014901498262877DC644860436449401825
:104650004B304C21794340188178624800786522BC
:104660005043614A821828466B1CDDB211545B48E6
:1046700060435B4940184B304C2179434018017925
:104680005848007865225043574A821828466B1CC8
:10469000DDB2115451486043514BC0184B304C238C
:1046A0007B43C0184079801E82B24C4860434C4B1B
:1046B000C0184B304C237B43C0180146383107AB40
:1046C00006981818049002F00FFC444A6243444BC9
:1046D000D2184B324C237B43D2185279911E3F4A59
:1046E00062433F4BD2184B324C237B43D2181046C7
:1046F0003830FBF75CFD39486043394940184B308E
:104700004C21794340184079801E06994018C0B268
:10471000069032486043324940184B304C2179436F
:10472000401801E0B9E007E040798019C6B2059869
:10473000401CC0B20590B0E02A480178007865229C
:104740005043294A801820308174FCF701FE254926
:10475000097865225143244A891832314870E90F9B
:104760004919C9050A0E1F490978652359431E4B8B
:10477000C91832318A70032004901A4909786522D9
:1047800051431A4689183231049A88183221FBF7AE
:104790000EFD1448007865225043134A81181148D1
:1047A000007865225043104A80183230049A8318EA
:1047B0002A46184602F098FB04984019C0B20490AB
:1047C0000849097865225143074A89183231049A09
:1047D000881813E0B81B0020B07000081302000016
:1047E000540B002074050020C61700207C720008BE
:1047F00025303258200000000D0A000007A9069A53
:1048000002F072FBF01CC6B2804800786521484374
:104810007F494018603006717E480178059833461C
:1048200000940291019079480278FF2106317A487C
:1048300001F01AFE002003900FE074480078652212
:104840005043734A80183230039A815C734801F0F8
:104850000BFE0398401CC0B203900398B042ECDBFF
:104860006FA001F001FE07A80699FBF7A0FC6749BD
:10487000097865225143664A88182946FBF797FC58
:10488000781EC7B261480078401C6049087000205B
:10489000149000260690002500BF781CC7B2052F93
:1048A00000DAB6E6601CC4B2062C00DA9DE50BD136
:1048B000052F09D1574801780598401A012803D1DE
:1048C0000598401EC0B20590524801780598814273
:1048D0007ED14E4801780078652250434C4A8018BA
:1048E00020308174FCF734FD484909786522514332
:1048F000474A891832314870E90F4919C9050A0E2B
:104900004249097865235943414BC91832318A70AD
:10491000032004903D490978652251431A468918BD
:104920003231049A88183221FBF741FC374800786D
:1049300065225043364A8118344800786522504336
:10494000334A80183230049A83182A46184602F0F7
:10495000CBFA04984019C0B204902C49097865221A
:1049600051432B4A89183231049A881807A9069AAC
:1049700002F0BAFAF01CC6B2244800786521484318
:104980002349401860300671009632461F4801786E
:10499000069B244801F068FD002003900FE01B48AF
:1049A0000078652250431A4A80183230039A815C9D
:1049B0001A4801F059FD0398401CC0B203900398B7
:1049C000B042ECDB16A001F04FFD07A8069900E00D
:1049D00015E0FBF7ECFB0D490978652251430C4AC1
:1049E00088182946FBF7E3FB08480078401C074974
:1049F00008700020149000260690002500BF0020BB
:104A000004490870059015B0F0BD00007405002041
:104A1000C6170020B81B002004730008F0470008E8
:104A20000D0A000038720008F0B58BB00546002072
:104A30000A90142105A8FBF7BAFBE8B20490002401
:104A400042E10022AE486843AE4940184B304C2149
:104A5000614340184270AA486843AA4940184B3045
:104A60004C216143405C00287ED023462A46A4495D
:104A7000A54801F0F9FCE0B2FFF700FAA349497933
:104A8000884211D06420FDF769F9E0B2FFF7F6F92A
:104A90009E494979884207D023462A4698490831D9
:104AA0009B4801F0E1FC0EE19A487D23DB000322E4
:104AB0000721466B9848B0470A90964905A80A9A7C
:104AC00002F012FA93480322036B05A80A9998474B
:104AD0000A9805286BDD6846C27D89491A318F48DE
:104AE00001F0C2FC002600BF4BE05C207043874908
:104AF000085C6946C97D884242D10498401CC0B216
:104B0000049001217E4868437E4A80184B304C2235
:104B1000624380184170049800012043C1B2784874
:104B20006843784A80184B304C2262438018817069
:104B300073486843734A80184B304C226243801894
:104B4000C6705C2070437149401841786C486843D6
:104B50006C4A80184B304C226243801801715C20F3
:104B600070436A49401800E0ACE0817964486843CA
:104B7000644A80184B304C2262438018417102E035
:104B8000761C0F2EB1D300BF0F2E0FD100215C4831
:104B900068435C4A80184B304C226243815468461B
:104BA000C27D912189005E4801F05EFC8AE02246C8
:104BB000534938315B4801F057FCFDF707FA039081
:104BC000042668E05C2070435049401883685C20EC
:104BD00070434018007901905C20704340180C30FD
:104BE00000904C480322476B01990098B8470A90FF
:104BF0005C2070434549401841790A98814249D167
:104C00005C20704341490A5C3D49443146A001F0B3
:104C10002BFC0498401CC0B2049001213848684322
:104C2000384A80184B304C226243801841700498F7
:104C300000012043C1B232486843324A80184B30E9
:104C40004C226243801881702D4868432D4A801899
:104C50004B304C2262438018C6705C2070432B4955
:104C60004018417826486843264A80184B304C2229
:104C70006243801801715C20704324494018817997
:104C80001F4868431F4A80184B304C2262438018EB
:104C9000417102E0761C062E94DB00BF02980F28BB
:104CA0000FD1002216486843164940184B304C215A
:104CB000614342546846C27D114953312A4801F08C
:104CC000D3FB00BF00BF641C052C00DAB9E600204E
:104CD000264948710F48C82303220721446B234803
:104CE000A0470A900A98002807D105495E3120485C
:104CF00001F0BAFB01200BB0F0BD0020FBE7000083
:104D000013020000540B00205C710008100000200A
:104D1000D07300081C0B00207F05002020750008C0
:104D2000C4750008307400084170703A2E2E5C483B
:104D3000414C5C73656E736F725C7372635C736518
:104D40006E736F722E632C6C696E65203A20256439
:104D50002C646576696365206861642066696E64A9
:104D60003A253032780D0A001876000875050020C3
:104D70008C730008F0B587B0054600260020069029
:104D80007D2040010590002404950394049D681C37
:104D9000C0B2049000BF20E19D4868439D4940187F
:104DA0004B304C2161434018407800287ED0039856
:104DB000401CC0B20390E0B2FFF760F89649497911
:104DC000884211D06420FCF7C9FFE0B2FFF756F823
:104DD00091494979884207D08D49B6318F48039B64
:104DE000049A01F041FBF7E089486843894940187B
:104DF0004B304C2161434018C0785C2148438649C0
:104E00004018836882486843824940184B304C21DF
:104E100061434018C0785C2148437F4940180079BD
:104E200002907B4868437B4940184B304C216143DA
:104E30004018C0785C214843774940180C300190F5
:104E400077480322476B02990198B8470646FDF759
:104E5000BDF8069030E06E4868436E4940184B300C
:104E60004C2161434018C0785C2148436A4940188E
:104E70008368674868436749401880785C214843E5
:104E800065494018007902906148684361494018BB
:104E900080785C214843604940180C30019060489C
:104EA0000322476B02990198B84700E093E0064659
:104EB000FF20F530FCF752FFFDF788F80699411AFC
:104EC000059881420FD252486843524940184B30EE
:104ED0004C2161434018C0785C2148434E4940183A
:104EE0004079B042B7D14A4868434A4940184B30EC
:104EF0004C2161434018C0785C2148434649401822
:104F00004079B0420ED042486843424940184B3085
:104F10004C216143401882783D49C731414801F036
:104F2000A3FA58E040480078401C3F4908703849CF
:104F30006943384A89184B314C2262438918881DCD
:104F40003146FBF734F932496943324A89184B310B
:104F50004C2262438918881D3246314901F0C4FF52
:104F60002B4868432B4940184B304C216143401873
:104F700080780090B92189002C48039B049A01F0A5
:104F800073FA23496943234A89184B314C226243FF
:104F90008918881D224902220B6B3146984700214F
:104FA000032015E01A4A6A431A4BD2184B324C239D
:104FB0006343D218921D135C154A6A43154FD219E8
:104FC0004B324C276743D21938325354491C401C8A
:104FD000B21E8242E6DC00BF641C052C00DADBE670
:104FE0000020134948710E48642303220721476BB0
:104FF0000F48B8470646002E07D10549E4310D4851
:1050000001F032FA012007B0F0BD0020FBE70000FC
:1050100013020000540B002010000020D073000881
:105020001C0B00208C740008B81B0020F46F0008D3
:10503000750500208C73000830B5024600201EE084
:1050400004280DD140231340002B08D001240E4B1F
:105050004B430E4D5B194B334C2545435C5510E0DB
:10506000012383401340002B08D00124064B4B43FF
:10507000064D5B194B334C2545435C55401C0528B8
:10508000DEDB00BF30BD000013020000540B002027
:1050900070B504460C48016920468847012805D1AF
:1050A000E0B2094A516A884705460AE006480169A4
:1050B00020468847022804D1E0B2034A916A884713
:1050C0000546284670BD0000B81B002010B51849E1
:1050D000086A804700241CE016480169204688477A
:1050E000032814D0601CC4B222466121124801F08A
:1050F000BBF9601EC4B20E488169204688477D20F6
:10510000C000FCF72BFE0B48C16920468847601C95
:10511000C4B2062CE0DB0649C86980470449486AE6
:10512000804700200549087002498868804710BD03
:105130001C0B0020B81B0020E4710008740500203F
:10514000FEB5044600BF00BF7D20400100905D4ACF
:1051500062435D4FD21992785C277A435B4FD21934
:105160009368584A6243584FD21992785C277A4321
:10517000564FD2191179534A6243534FD21992783C
:105180005C277A43514FD21910460C30504A566B67
:105190000322B0470546FCF719FF019027E0494A72
:1051A0006243494FD21992785C277A43474FD2190C
:1051B0009368444A6243444FD21992785C277A43F9
:1051C000424FD21911793F4A62433F4FD219927828
:1051D0005C277A433D4FD21910460C303C4A566B3F
:1051E0000322B0470546FF20F530FCF7B7FDFCF77A
:1051F000EDFE0199411A009881420BD2314860437B
:105200003149401880785C21484330494018407942
:10521000A842C4D12B4860432B49401880785C21B8
:1052200048432A4940184079A8420BD0254860439A
:1052300025494018427823497F31264801F014F966
:105240000120FEBD24480078401C234908701D49F8
:1052500061431D4A8918481D2946FAF7A8FF1949D4
:105260006143194A8918481D2A46194901F03CFE34
:10527000601CC4B2224613498731184801F0F4F883
:10528000601EC4B20F4961430F4A8918481D104976
:1052900002220B6B29469847002103200DE0094AA2
:1052A0006243094BD218521D135C064A6243064EF4
:1052B000921937325354491C401CAA1E8242EEDC1C
:1052C0000020BEE713020000540B00201000002055
:1052D0001C0B0020D4740008B81B0020A06F00082D
:1052E00070B5032510480321C26A9047002414E0DA
:1052F0000D488169204688477D20C000FCF72EFDBF
:105300000A48416920468847032805D12246FF21E3
:105310007031074801F0A8F8641C062CE8DB02494C
:10532000C8698047284670BD1C0B0020B81B0020B0
:1053300064700008F0B589B00446142104A8FAF797
:1053400036FF00BF03218D4860438D4A11548D48BC
:105350007D23DB0003220721456B8B48A8470646C7
:10536000B2B2884904A801F0BFFD86480322314645
:10537000036B04A8984785484079B0421DD1684620
:10538000C07C002819D16846007D039080482146E2
:10539000C26803989047022178486043784A1154C4
:1053A0007B48016A20468847641C2246FF219731CA
:1053B000784801F059F8641ED9E0052E4DDD00252E
:1053C00000BF32E05C2068437049085C6946C97CD4
:1053D000884229D1012169486043694A115427460E
:1053E000781CC7B26548604311464018477063484F
:1053F0006043801885705C20684364494018417898
:105400005E4860438018C1705C2068435F49401863
:1054100081795A486043801801712A46FF21AF31D3
:105420005D4801F021F802E06D1C0F2DCAD300BFCA
:105430000F2D0CD1032151486043514A1154684645
:10544000C27CFF21B731554801F00EF804E001217C
:105450004A4860434A4A115489E0FCF7B7FD02907C
:1054600004257FE05C206843484A801883685C20FC
:105470006843801801795C20684380180C300190E3
:1054800040480322476B0198B847064617E05C2066
:1054900068433E4A801883685C206843801801791D
:1054A0005C20684380180C30019036480322476B1B
:1054B0000198B8470646FF20F530FCF74FFCFCF793
:1054C00085FD0299411A5C206843304A8018806843
:1054D000814206D25C206843114640184079B042B0
:1054E000D5D15C206843294940184079B0422BD17E
:1054F0005C2068430A5CFF21D03129A000F0B4FF92
:105500002746781CC7B21D4860431D4940184770A4
:105510001A4860430A46801885705C2068431B491E
:1055200040184178154860438018C1705C2068437A
:105530001649401881791148604380180171012192
:105540000E486043115410E0641C2246FF21E031F4
:10555000234800F089FF641E032108486043084A7D
:1055600011546D1C062D00DA7CE700BF00BF034814
:1055700060430349085C09B0F0BD0000130200005D
:10558000540B00201C0B00207F0500201000002081
:10559000B81B002000710008A07100086C7600089C
:1055A0004170703A2E2E5C48414C5C73656E736F8F
:1055B000725C7372635C73656E736F722E632C6CB6
:1055C000696E65203A2025642C64657669636520E0
:1055D0006861642066696E643A253032780D0A008D
:1055E0006C75000810B5134813494860134888606B
:1055F00013488861134848611348C861134808611B
:105600001348C86013484862134808621348886208
:10561000FEF720FE1249086A80470320FEF798FC37
:10562000002005490870886980470D49486A80470D
:1056300010BD0000CD500008B81B0020BD4300087D
:10564000E152000835530008915000084516000843
:105650003950000841510008294A0008754D0008DA
:105660001C0B00207CB505460E4614460020019018
:105670000CE00199490048196A4608A1FAF7A2FD11
:105680000098019970540198401C0190E10F09198C
:105690004910019A9142ECDC7CBD00002532580093
:1056A00010B5FCF799FCFEF72DF805480068401C82
:1056B0000349086003480068401C0249086010BDA7
:1056C000880500208C05002030B59DB02A48006870
:1056D0000321C90288430121C902401826490860F4
:1056E00005200F900120000410900012119002205C
:1056F0001990C1031A9141041B9141051C910FA8F7
:10570000FDF762F9002801D0FBF7DEFE0F200A90BA
:1057100003200B9000200C900D900E9000210AA801
:10572000FCF7BAFF002801D0FBF7CEFE2B2000903B
:105730000020039004900120000401906846FCF7CB
:1057400055FE002801D0FBF7BFFE102001F026FB1C
:10575000FDF79EF805467D21C900FAF7C9FC04460D
:10576000FDF7B4FF0420FDF79DFF00221146501EF7
:10577000FCF76CFC1DB030BD0070004010B5214836
:10578000806B0121090708431E4988631E48006891
:105790000321C90288430121C90240181A4908603F
:1057A00000BF184800680121090408431549086032
:1057B00000BF00BF13480068012149040840400CA5
:1057C0000028F7D00F480068C90108430D49086058
:1057D00000BF0C480068012149060840400E00281F
:1057E000F7D00848C06880088000C01C0549C86020
:1057F00000BF0448C0680C2108400C28F9D1FDF70F
:1058000047FF10BD001002400070004015480068BE
:10581000FF2101310843134908600846C068124956
:1058200008401049C86008460068104908400D4902
:1058300008600846806840084000886008460068A4
:10584000012189048843074908600846C068FD2192
:10585000090488430349C86000200861C80304495B
:1058600088607047001002400C40FF88F6FFF6FE8B
:1058700000ED00E0818CC907C90F002908D001683C
:105880004968012252049143826A114302685160BF
:105890000222416A1140002907D001684968D203F9
:1058A0009143C26A1143026851600422416A114067
:1058B000002907D00168496812049143026B114323
:1058C000026851600822416A1140002907D001682E
:1058D000496812039143426B1143026851601022E0
:1058E000416A1140002907D001688968120291437A
:1058F000826B1143026891602022416A11400029A5
:1059000007D00168896812029143C26B1143026893
:1059100091604022416A1140002915D00168496810
:1059200092039143026C11430268516001221205F7
:10593000016C914208D101684968032252059143E4
:10594000426C1143026851608022416A1140002973
:1059500007D00168496812039143826C11430268C1
:105960005160704738B5044600250020E066FCF71A
:105970002DFB0546206800680821084008280BD147
:1059800014482B46002289040090204600F0CBFAF0
:10599000002801D0032038BD206800680421084099
:1059A00004280BD10B482B46002209050090204605
:1059B00000F0B9FA002801D00320ECE7202169208B
:1059C00001556A20015500BF00216820015500BF24
:1059D0000020E0E7FFFFFF0170B50546AC6A00213B
:1059E0005A200153522001532046FDF790FE70BD0E
:1059F00001680968FF222132914302681160016841
:105A00008968490849000268916020226A210A5485
:105A1000704710B50446206800684021884321681B
:105A200008602021692001552046FEF713F9002067
:105A300010BDF8B504465C20075B6A20005D222893
:105A400037D12068406A85B201210903A0688842E5
:105A50000AD12069002807D1666D28463840308079
:105A6000606D801C606505E0F8B22840626D511CD5
:105A7000616510705A20005B401E81B25A200153AC
:105A8000002914D120680068FF2121318843216852
:105A900008602068806840084000216888602021F4
:105AA0006A2001552046FEF735F80020F8BD002099
:105AB000FCE720688069082108432168886102208A
:105AC000F4E70000F0B587B004460025102600205A
:105AD000059004900390EA492068884201D1012092
