:020000040800F2
:1000000038220020D5000008C93D0008213C000826
:1000100000000000000000000000000000000000E0
:100020000000000000000000000000008B430008FA
:100030000000000000000000C53E0008095800084C
:10004000E7000008E700000871400008E70000082A
:10005000E7000008151400082514000835140008EE
:10006000E7000008E7000008E7000008E7000008D4
:10007000E7000008E700000859610008E7000008F1
:10008000E7000008E7000008E700000800000000A3
:10009000E7000008E7000008E7000008E7000008A4
:1000A000E7000008E7000008E7000008E700000894
:1000B00001610008E7000008E7000008E700000809
:1000C0000348854600F0B4FC00480047896F0008EB
:1000D000382200200448804704480047FEE7FEE736
:1000E000FEE7FEE7FEE7FEE775590008C1000008DD
:1000F00030B50B46014600202022012409E00D46C0
:10010000D5409D4205D31D469540491B2546954047
:1001100040191546521E002DF1DC30BDF0B51FB45C
:100120000646002082B005464024019100901BE065
:10013000019922460F46304600F01AFA049A059BB0
:10014000801A994110D310461946224600F000FA51
:10015000361A8F410197224601200021009F00F0AE
:10016000F7F938184D4100902046641E0028DFDC66
:10017000019B00982946324607B0F0BD03460B4369
:100180009B0703D009E008C9121F08C0042AFAD24D
:1001900003E00B780370401C491C521EF9D27047D3
:1001A000D2B201E00270401C491EFBD2704700220F
:1001B000F6E710B513460A4604461946FFF7F0FF66
:1001C000204610BD0FB400B58DB009900B9010A95A
:1001D00000200091C0430A9000200C900648069031
:1001E000064807906A4609A80F9900F0E7F90DB094
:1001F00008BC04B018470000DD050008FD05000834
:10020000FFB50027FF4383B000205C6801909E6823
:100210001D46A9697F1C049888470090296A884771
:100220000028F6D10098401C0CD0032040028443E3
:10023000002E19DD600614D500982B2809D02D2832
:100240000FD103E00020C04307B0F0BD01208002C1
:100250000443A9697F1C04988847761E0090002EED
:1002600002DD0098302803D00598002825D035E01D
:10027000012040020443A969761E7F1C0498884728
:100280000090002E03DD782805D0582803D005986B
:10029000002810D022E00598002801D010281DD198
:1002A000012040028443A969761E7F1C0498884778
:1002B0000090102002E0082000E00A2005900DE0E8
:1002C000012149020C43059A0199761E51430818F1
:1002D0000190A9697F1C049888470090002E05DDD5
:1002E0000599009800F055F90028E9DAE9690498C1
:1002F0008847A00502D40120C043A5E7E00722D12A
:10030000600611D56005019800D5404229680A1D94
:100310002A600968220501D5087014E0220701D57A
:10032000088010E008600EE02868011D2960006860
:10033000210502D50199017005E02107019901D538
:10034000018000E0016038467EE7F8B502464A4089
:10035000D40F42004B0052085B089A4202D2024678
:10036000084611464A0023D0C30D4A00DDB2120EE2
:10037000AD1A202D35DA49020126490AF6058A19F7
:10038000002C00D0524220214F1B1146B9402A4177
:100390001018C20D9A4221D0002C17D0012D08DC74
:1003A000DA05801AD20F8019D207DBB200F040F9CB
:1003B000F8BDDA05801A012340001B06C01880181A
:1003C0005A428018CA0F1043490007E04908C20783
:1003D0001143DA05801A80194008801800F020F9CE
:1003E000F8BD61000122511A001BF7E70122D20774
:1003F0005140AAE70122D2075040A6E7024670B555
:100400004A40D30FDB0740002DD04A002AD0010E0E
:10041000140E000212020919400A520A8418E5015A
:1004200004465443000A120A2E045043A4194219E8
:10043000200CC543AA18120C0125AD03521C5219F9
:1004400012047F39240400D0521C104301D4400010
:10045000491EC2B20C06C0092018401C4008802A60
:1004600002D003E0002070BD40084000002900DAFF
:100470000020184370BD70B502464A40D50F4000B9
:100480004A00ED0740085208002814D0002A12D074
:10049000C40DD30D41020120C0055202490A520A7F
:1004A000E41A091812187D34914201D3641C00E04B
:1004B0004900002C01DA002070BD0023914201D3D5
:1004C000891A0343400849000028F7D100290AD0BF
:1004D000914202D10121C90705E0914201D20121D7
:1004E00001E00121C943E005C018401900F098F867
:1004F00070BD10B500229623114600F099F810BD8A
:10050000410040020122400AD205090E80187F29CD
:1005100001DA00207047962903DC9622511AC84060
:100520007047963988407047C20FD2074000400894
:100530000BD0C10D0723DB01C91840020905400A91
:100540001143C2084007114370470020014670471D
:1005500010B5202A04DB0146203A9140002010BD4E
:10056000914020239C1A0346E3401943904010BD5C
:1005700010B5202A04DB0846203AD040002110BDE7
:100580000B46D340D0402024A21A9140084319467C
:1005900010BD3A2800D23038202302469A43412A1F
:1005A00001D310463738884201D30020C04370473A
:1005B00002681378511801601846704710B5D16071
:1005C000044951610449116200211161114600F092
:1005D0005BFA10BDB10500087B0A00084268002ADA
:1005E00008D001680B78491C002B03D0521E06C0AE
:1005F000184670470121C160881E70474268002A72
:100600000BD0C3680168002B07D183688B4204D0EC
:10061000491E521C06C0002070470020C04370478E
:10062000002904DA401C490001D14008400070470D
:1006300070B40024050C05D11024000402D1002957
:1006400021D01124050E01D100020834050F01D17B
:100650000001241D850F01D18000A41C002801DBAE
:100660004000641C002908D020252E1B0D46F540B3
:10067000A14000D001212943084301061B1B000AA9
:10068000DB1D02D5002070BC7047DB0518188018F0
:100690000029F8DA401C4900F5D170BC4008400040
:1006A00070470000F0B507460846584087B0C00FB5
:1006B000049048000E46590040084908BC1A884179
:1006C00005D2384631461E4617460B4602465800AC
:1006D000400810434CD0300D039040055900400DA8
:1006E000490D0590401A0290402872DA1803012142
:1006F000000B09050843019004980092002805D0DA
:1007000001995242002088410092019002984021B4
:100710000A1A01990098FFF71BFF05460C466B4625
:1007200007CB00F097F9C0197141039A0E0D002311
:10073000D71756401A467A40164344D0049A002AE6
:100740002DD0029A012A039A15DC1205C01A914194
:1007500001263605001C7141D20F059ED207009379
:10076000019202962A46234600F037FB07B0F0BDFF
:1007700038463146FAE71605224A0F46B218C01A23
:10078000B74101210905001C4F4100187F41114666
:1007900018187941E20F10436D19644113E0E20724
:1007A0006D0815436408C2071443039A0126120515
:1007B000C01A91413605001C7141CE0740083043F4
:1007C0004908C01851412A46234600F0F9FACDE7FE
:1007D000FFE7049801224000C117121A00238B4141
:1007E00004983146C417381AA141EEE730B4012409
:1007F000E407634030BC55E730B40124E4076140AE
:1008000030BC4FE70000E0FFF0B51FB488B00B9993
:100810000998002448400999C00F490049080991E6
:10082000C0070B990090490049080B910999089855
:10083000A64608431CD00B990A98084318D009987B
:1008400001244000420D4800410D09982405000391
:10085000000B204309900B980003000B20430B90E2
:1008600050181C494018002201901446104605E01B
:10087000002001460DB0F0BD032801DA034600E078
:1008800003239C46C11A0AAE0AE05F0008ADED5B87
:100890004F00F75B7D430027AA187C41491C5B1E73
:1008A0006145F2DD410004AB5A522104120C0A43A7
:1008B000240C401C0828DFDB019802900099704648
:1008C00001910090059B049A0799069800F085FA1B
:1008D000D0E700000DFCFFFFF0B50C465C4085B092
:1008E000E40FE40703944C00002664085900944682
:1008F000490802460296224321D062460A431ED08E
:100900006200570D4A000E032303550D01240246D1
:100910002C492405781B1B0B360B40182343264318
:10092000614600901C46501AB44103D30098401C05
:10093000009002E0921800985B41002803DA002042
:10094000014605B0F0BD0020012109050746864695
:1009500011E064461D46141BB54106D36546521B83
:10096000B341744607430C43A646CD0740084908E7
:10097000284392185B4105460D43EAD110461843BF
:1009800013D06046194650407140084306D0604677
:10099000101AB34106D20122002306E000220123EF
:1009A000DB0702E00122D243531000987446010590
:1009B000381C6141029C039D0019694100F000FA56
:1009C000BFE70000FD0300004A0009030123090BF3
:1009D0001B0519430A4B10B5520D9A4202DA00204A
:1009E000014610BD064B34339A4203DC9A1AFFF7D6
:1009F000BFFD10BD034BD218FFF7AAFD10BD0000CC
:100A0000FF030000CDFBFFFF10B5002904DB01242C
:100A1000E40740428C412146002B04DB1C460123A5
:100A2000DB075242A341994200D1904210BD000021
:100A3000064C0125064E05E0E36807CC2B430C3C31
:100A400098471034B442F7D3FFF73EFB1C7A0008F6
:100A50003C7A000810B5202A06DBCB170846203A5E
:100A60001041C1170B4306E00B461341D040202430
:100A7000A21A91400843194610BD10B50F21C0B20B
:100A8000490200F0FDF910BDF3B58DB000200A90C9
:100A900001200B90002608460C300C460990626934
:100AA000012109989047051E2ED0252D2DD0216AB1
:100AB0008847002818D06269012109989047216A67
:100AC00088470028F7D1411E62690998904700E0E5
:100AD000761CA1690D988847216A88470028F7D1BC
:100AE000E1690D988847DAE7A1690D9888470746BC
:100AF000A84201D1761CD2E7E1690D9888477F1C96
:100B000002D10A98002877D049E1002762693D4662
:100B10003946099890472A280CD162690121099821
:100B20009047012506E00A214F433F18303FEBD4A0
:100B30001020054362690121099890470146303928
:100B40000A2903D29B498F42DEDCECE7E90600D498
:100B5000994F6C280AD04C2810D0682824D06A28D5
:100B60002ED074280CD07A280AD00DE062690121B9
:100B7000099890476C2823D004211CE020200543CD
:100B80006269012109989047A760656065284FD088
:100B900026DC582839D01ADC452849D012DC252813
:100BA00034D04128B0D143E06269012109989047CF
:100BB000682802D008210D43E6E70120C002DEE7E5
:100BC0000220DCE7462833D047282CD130E05B28D0
:100BD00070D061282CD063286CD0642823D161E0C8
:100BE0006F284FD009DC662822D0672820D06928DA
:100BF00026D06E2817D12EE0CDE070284DD0732876
:100C00006FD075284ED078280DD154E0A1690D9889
:100C100088470546252800D16CE7E1690D9888478B
:100C20006D1C00D16DE7BAE00A224CE00A2252E0C6
:100C3000012023466A46C0430D99C046C046A3E042
:100C40002846402108436060A807234601D50022BA
:100C500039E000223FE0E80700D020E72068011DCE
:100C600021600068290501D5067018E7290701D51C
:100C7000068014E7A90703D5F117066041600EE767
:100C800006600CE72846402108436060A807234619
:100C900001D5082217E008221DE0484928460840EF
:100CA000606016E02846402108436060A80723469C
:100CB000BCD5B9E715E02846402108436060A80785
:100CC00007D5234610220120C0430D99C046C046D7
:100CD0005AE0234610220120C0430D99FFF790FAF5
:100CE00052E000210C910B460091632802D05B2852
:100CF00007D043E0E80601D40120A0600120009065
:100D00003CE062690121099890475E2805D10120E5
:100D10000C9001466269099890472169002906D123
:100D20000B4601AA8F00491CD3510829FADB002881
:100D300035D0216900290ED1C117C90E09184A11F1
:100D4000930001AA9A1849094901411A0120136820
:100D500088400343136062690121099890475D2828
:100D6000E5D10C98002808D0002001AB81005A582A
:100D7000401CD2435A500828F8DB01AB0120224620
:100D8000C0430D99C046C04600280ADA401C06D16F
:100D90000B98002803D00020C0430FB0F0BD0A9884
:100DA000FBE7E90702D10A99491C0A91361800208D
:100DB0000B9074E6CCCCCC0CFFFFFF7FF1F7FFFF6C
:100DC00010B5002B08DA0024401C614192185B41E9
:100DD0001A4301D14008400010BDF0B51FB482B0E5
:100DE00005460C0003D0084605F002FC02E005F0C1
:100DF000FFFB20300246009021462846FFF7A8FB63
:100E0000049B059A04460F4618431143084314D027
:100E1000184610431BD0009840210A1A184605991D
:100E2000FFF7A6FB05460E46009A05990498FFF7C2
:100E30008FFB084305D0012004E02046394607B067
:100E4000F0BD0020C11705430E432C4337430099E2
:100E50000E986305401A7905E40A00220C43FD0A46
:100E60000A3002D500200146E9E701051019694161
:100E70000C9C0D9D00196941FFF7A2FFDFE7000000
:100E80007F2801D9002207E0054B42089A5CC00781
:100E900000D112091207120F01209040084070473C
:100EA000C570000870B58C180578401C6B075B0F87
:100EB00001D10378401C2A1106D10278401C03E0BE
:100EC00006780E70401C491C5B1EF9D12B0705D417
:100ED0000023521E0DD40B70491CFAE70378401C06
:100EE000CB1A921C03E01D780D70491C5B1C521E2E
:100EF000F9D5A142D8D3002070BD70B504460025B5
:100F000020688068042108408008002829D02068D3
:100F10008068084000280BD02068806802210840C3
:100F2000002805D120688068102108432168886066
:100F300001F030F805460EE001F02CF8401B0A28BD
:100F400009D9A06D10210843A065E06D0121084377
:100F5000E065012070BD20688068042108400028F9
:100F6000EAD10020F6E7000038B5044607490848F2
:100F70000068FFF7BDF86043009002E00098401E53
:100F8000009000980028F9D138BD000040420F00C1
:100F90000000002070B504460025206880688007A6
:100FA000800F012807D120680068C007C00F002803
:100FB00001D0012000E00020002837D020688068A0
:100FC00005210840012800D100E0002000280AD0B7
:100FD00000BF2068806802210843216888600320E0
:100FE0002168086009E0A06D10210843A065E06D4C
:100FF00001210843E065012070BD00F0CBFF0546EC
:101000000EE000F0C7FF401B0A2809D9A06D10218F
:101010000843A065E06D01210843E0650120EBE78E
:1010200020688068C007C00F0028EAD10020E3E7ED
:1010300070B504460025206880688007800F01286D
:1010400007D120680068C007C00F002801D0012028
:1010500000E00020002839D1206880681C49084041
:10106000002801D1012000E00020002809D1A06D56
:1010700010210843A065E06D01210843E0650120CF
:1010800070BD2068806801210843216888600120C4
:10109000FFF76AFF00F07EFF05460EE000F07AFFE2
:1010A000401B0A2809D9A06D10210843A065E06DF6
:1010B00001210843E0650120E2E720680068C007DD
:1010C000C00F0121484048400028E7D00020D7E762
:1010D00017000080FEB504460D4600260020009053
:1010E000019401200003029001A91B4800F004FBB9
:1010F000002801D000F0CCF90021174800F090FA48
:10110000002717E0144800F04FFD6421124800F05A
:10111000D7FC00BF104800F093FB012149020840B2
:101120000028F7D00C4800F08EFB0090009836188D
:10113000781CC7B2AF42E5DB074800F071FD0194AF
:101140000648029001A9044800F0D6FA2946304624
:10115000FEF7CEFFFEBD0000BC0A0020011000001B
:1011600008B54848007800283FD100F021FF04F07E
:101170005FFB00BF4448C06A042108434249C8627B
:101180000846C06A04210840009000BF00BF00BFAD
:101190003D48C06A802108433B49C8620846C06A8E
:1011A00080210840009000BF00BF00BF3648C06AE1
:1011B000022108433449C8620846C06A0221084037
:1011C000009000BF00BF00BF2F48C06A0121084344
:1011D0002D49C8620846C06AC007C00F009000BF12
:1011E00000BF01202749087039E004F07BFB00BFF5
:1011F0002548C06A042108432349C8620846C06ADA
:1012000004210840009000BF00BF00BF1E48C06A14
:10121000802108431C49C8620846C06A80210840F2
:10122000009000BF00BF00BF1748C06A02210843FA
:101230001549C8620846C06A02210840009000BFF4
:1012400000BF00BF1048C06A012108430E49C862B0
:101250000846C06AC007C00F009000BF00BF02F080
:1012600037FD02F057FD02F003FD02F00DFF0022F2
:101270000321022000F0CEFE022000F0BFFE04F0A9
:10128000D1FF08BD0C0000200010024070B50246DE
:101290000F48002312E0D55C684000240AE0C5072F
:1012A000ED0F002D03D040100A4D684000E04010C3
:1012B000651CECB2082CF2DB5D1CEBB28B42EADB66
:1012C000FF252D0205402D1256187570505470BD23
:1012D000FFFF000001A0000030B502460B460020D1
:1012E00013E01478521C604008210CE08024044074
:1012F000002C04D0440031256C40E0B201E04406EB
:10130000200E4C1EE1B20029F0DC1C465D1EEBB243
:10131000002CE6D130BD0000F0B587B0002005906C
:10132000069000BF0A212848FFF7D4FE694688824C
:101330002649098B4A008A186946898A4A43104619
:10134000FFF7D7F804900A212148FFF7C3FE80B2C7
:101350006946C882C98A0A03501AFFF7CAF803907F
:1013600003990498FFF787F81A490290FFF746F8A7
:101370000746FFF7D9F8019100906846838AC28A30
:101380001248018B14A005F023F903990498FFF784
:1013900072F810490290FFF731F807461B49FFF732
:1013A00025F806461A49FFF766F80546FFF7A8F83C
:1013B000C4B2642C01DB642402E0052C00DC0324AD
:1013C000204607B0F0BD0000020000046000F81FD6
:1013D000000002440000FA44424154203D202564AC
:1013E000206164633137203D202564202C20616416
:1013F0006330203D2025642C2056424154203D205E
:10140000252E32666D56200D0A0000000000614551
:101410000000C04010B5012000F0A0FC022000F048
:101420009DFC10BD10B5042000F098FC082000F0D1
:1014300095FC10BD10B5102000F090FC202000F0AD
:101440008DFC402000F08AFC802000F087FCFF200B
:10145000013000F083FC0120400200F07FFC0120FD
:10146000800200F07BFC0120C00200F077FC01202C
:10147000000300F073FC0120400300F06FFC01202A
:10148000800300F06BFC0120C00300F067FC10BD7E
:1014900010B502A005F09CF810BD00006572726FD7
:1014A000720D0A008168002907D00168096809687F
:1014B00020221143026812681160704738B5044653
:1014C000002C5ED02820005D00285AD020680068DB
:1014D000006820210840002828D06946206804F0D0
:1014E00043FE002821D1A06800281ED0684600785D
:1014F000E28AA1688854E08A401C80B2E082E189D7
:10150000884201DB0020E082608BE189884203DAB7
:10151000608B401C608301E0E08A2083606A0028C1
:1015200003D068460078616A884700BF2068006879
:10153000006880210840002823D0A08A00280CD110
:101540002068006800688843216809680860206A8C
:10155000002816D0206A804713E0638A6268D15C55
:10156000206804F00FFE00280BD1608A401C80B276
:101570006082A189884201DB00206082A08A401E2F
:10158000A08238BD70B504460D46012005F06EF806
:10159000668B002005F06AF8002E04D0002D02D0E2
:1015A000A068002801D1012070BD218BA068405C9B
:1015B0002870012005F05AF8208B401C80B220834F
:1015C000E189884201DB00202083608B401E60831C
:1015D000002005F04BF80020E6E7F0B5069D059CDD
:1015E0000160426083608481C58100260682468254
:1015F000C682068346838682079EC661089E06626F
:10160000099E4662012628273E54F0BD0146024845
:101610004843024A105C704713020000540B00203C
:10162000F8B5044600250026002700BF5420005DC1
:10163000012801D10220F8BD01215420015500BF2D
:10164000206880688007800F012806D12068006824
:101650000840002801D0012000E0002000283FD1F0
:10166000A06DFF210131884302210843A065206855
:10167000C0688707BF0F2068C068800880002168A5
:10168000C860206880680121C90708432168886014
:1016900000F080FC064611E000F07CFC801B0A286C
:1016A0000CD9A06D0221884310210843A06500BF1A
:1016B00000215420015500BF0120BCE7206880684C
:1016C000C00FC0070028E7D12068C06838432168F0
:1016D000C860A06D0221884301210843A06504E091
:1016E000A06D20210843A065012500BF00215420E2
:1016F000015500BF28469EE770B504460D4600BF61
:101700005420005D012801D1022070BD0121542028
:10171000015500BF20688068042108408008002827
:101720000AD0A06D20210843A06500BF00215420ED
:10173000015500BF0120E8E73C496868884238D07D
:101740002068806A29684903490B08432168886238
:1017500028684003400B364908400121890488422B
:1017600008D13448806849010843324988600A201A
:10177000FFF7FAFB28684003400B2F49084001217E
:101780004904884205D12B4880684901084329490A
:10179000886028684003400B28490840012109045B
:1017A00088423BD123488068090208432149886068
:1017B00034E02068806A29684903490B884321681E
:1017C000886228684003400B1949084001218904B8
:1017D000884205D1174880684901884315498860C7
:1017E00028684003400B14490840012149048842FD
:1017F00005D110488068490188430E4988602868EF
:101800004003400B0D49084001210904884205D1DD
:1018100008488068090288430649886000BF0021A3
:101820005420015500BF00206FE7000001100000A8
:10183000000004480027014000000244000001406D
:101840000146886D704701460868006C70470000CB
:1018500010B50446002C01D1012010BDA06D002858
:1018600006D1E065002154200155204600F00AF918
:10187000A06D10210840002806D12068806804214E
:101880000840800800280AD0A06D10210843A065F8
:1018900000BF00215420015500BF0120DDE7A06DED
:1018A000FF210131884302210843A0652068806838
:1018B0008007800F012807D120680068C007C00F8B
:1018C000002801D0012000E0002000283AD100BF0C
:1018D000032189076068884207D0494260688842CE
:1018E00003D04900606888420CD1206800698000FC
:1018F00080082168086120680069616808432168E0
:10190000086112E020680069800080082168086191
:101910005A4880680F2189048843584988600846DE
:101920008068616808435549886000BF2068C068C6
:10193000182188432168C8602068C068A1680843EE
:101940002168C8604D4880680121490688434B4999
:10195000886008468068218F4906084347498860A7
:1019600020688068012109070840002804D1206808
:1019700080680843216888602068C0684049084042
:101980002168C8602169E068022901D1042100E0D2
:1019900000210843216A49030843216B4900084399
:1019A000616B0843A16989030843E169C9030843DE
:1019B0002168C96808432168C860FF21C231A06A54
:1019C000884207D0E16AA06A08432168C9680843D1
:1019D0002168C860606A012812D1206A002807D1F6
:1019E0002068C0680121090408432168C86007E035
:1019F000A06D20210843A065E06D01210843E0654A
:101A0000206C012817D120680069FF2189008843D4
:101A100021680861616CA06C0843E16C084321688F
:101A200009690843216808612068006901210843A9
:101A3000216808610BE020680069C007C00F00281A
:101A400005D02068006940084000216808612068CE
:101A50004069C008C0002168486120684069E16BA6
:101A60000843216848610020E065A06D0221884399
:101A700001210843A0650020EFE600000027014097
:101A80001902FEFF10B586B004460B492068884253
:101A900010D10A48406B49150843084948630120A2
:101AA0000190032002900020039001A90520000767
:101AB00000F064F906B010BD00240140001002409F
:101AC000F8B504460D46002600276069082801D1B4
:101AD000082711E02068C068C007C00F00280AD09E
:101AE000A06D20210843A06500BF002154200155AE
:101AF00000BF0120F8BD0C2700F04CFA064614E0A8
:101B0000681C002811D0002D04D000F043FA801B7F
:101B1000A8420AD9A06D04210843A06500BF002196
:101B20005420015500BF0320E4E7206800683840D6
:101B30000028E5D0A06D012149020843A065206876
:101B4000C068032189020840002825D1206A0028A6
:101B500022D1206800680821084008281CD120688C
:101B6000806804210840800800280DD12068406862
:101B70000C21884321684860A06DFF210131884312
:101B800001210843A06507E0A06D20210843A0655E
:101B9000E06D01210843E065A069002802D10C2016
:101BA000216808600020A5E770B50446002520687C
:101BB000806804210840800800282BD100BF5420F1
:101BC000005D012801D1022070BD01215420015582
:101BD00000BFE069012803D02046FFF729FA054637
:101BE000002D18D1A06D0D490840FF210131084397
:101BF000A0650020E06500BF00215420015500BF12
:101C00001C2021680860206880680421084321683E
:101C1000886000E002252846D6E70000FEF1FFFFBD
:101C200070B50446002500BF5420005D012801D195
:101C3000022070BD01215420015500BF2046FFF74E
:101C40005CF90546002D0CD12046FFF7A3F90546A7
:101C5000002D06D1A06DFF210131884301210843E9
:101C6000A06500BF00215420015500BF2846E0E7D1
:101C700070B5044600252520005D022803D004200D
:101C8000E063012549E0206800680E21884321684F
:101C9000086020680068400840002168086020490A
:101CA0002068884201D1012026E01D4914312068B6
:101CB000884201D110201FE019492831206888424C
:101CC00001D1801518E016493C312068884201D1C5
:101CD000801411E0124950312068884202D101205D
:101CE000000409E00E4964312068884202D10120D5
:101CF000000501E00120000609490839486001217A
:101D00002520015500BF00212420015500BFA06BF4
:101D1000002802D02046A16B8847284670BD0000ED
:101D20000800024031B5002400F034F9044600BF39
:101D300000F030F9001B00998842F9D338BD00004B
:101D400010B50446012C03D10349C868804700BF81
:101D500000BF00BF10BD0000141C002010B50446D9
:101D6000054840692040002804D0034844612046CB
:101D7000FFF7E6FF10BD00000004014070B5034608
:101D8000002200240020DFE0012696400D68354047
:101D90002C46002C77D04D68022D02D04D68122DB4
:101DA00015D1D508AE001D462035A8595507EE0EB1
:101DB0000F25B5400646AE4330465607F60E0D6970
:101DC000B5402843D508AD001E46203670514D68F9
:101DD000012D08D04D68022D05D04D68112D02D07F
:101DE0004D68122D18D1986856000325B540064657
:101DF000AE4330465600CD68B540284398605868D9
:101E0000012595400646AE43304610264D683540C4
:101E10002D09954028435860186856000325B540A1
:101E20000646AE4330460D79AD07AD0F5600B540BE
:101E300028431860D86856000325B5400646AE43CF
:101E4000304656008D68B5402843D86001263607D5
:101E50004D683540B54276D13E4D6D6B0126354318
:101E60003C4E75633C4D9608B600A85995072E0F59
:101E70000F25B5400646AE43304605252D07AB423B
:101E800002D100251AE05EE0344DAB4201D10125BC
:101E900014E0334DAB4201D102250FE0314DAB428E
:101EA00001D103250AE0304DAB4201D1042505E004
:101EB0002E4DAB4201D1052500E006259607360FD1
:101EC000B5402843244D9608B600A851284D2868EF
:101ED0000546A5432846012636044D683540B542DF
:101EE00002D1054625432846214D286068680546ED
:101EF000A5432846012676044D683540B54202D1F7
:101F00000546254328461A4D6860A8680546A5433E
:101F10002846012636054D683540B54202D10546B2
:101F200025432846124DA860E8680546A543284683
:101F3000012676054D683540B54202D10546254358
:101F400028460B4DE860521C0D68D540002D00D08E
:101F50001AE770BD00100240080001400004005064
:101F600000080050000C005000100050001C0050F1
:101F700000040140024613690B40002B01D00120F0
:101F800000E000207047002A01D0816100E08162FA
:101F900070470000014800687047000004000020FE
:101FA00002480068401C0149086070470400002096
:101FB00010B5064800684021084304490860002025
:101FC00000F006F800F018F8002010BD00200240D4
:101FD00070B504467D21C90006480068FEF788F800
:101FE000054601F057FB00222146501E00F012F872
:101FF000002070BD000000207047000000BFC20636
:10200000D20E01219140024A116000BF70470000CA
:1020100000E100E070B504460D461646294620460C
:1020200001F0D4FE70BD0000F0B585B00546002675
:102030000020039002900024002701900090102DB2
:102040007ED008DC012D7CD0022D7BD0042D7AD0EF
:10205000082D79D13BE1202D0AD0402D51D0E81F29
:10206000F938002871D007210902401AF1D100E0A7
:1020700000BFC648066900690321090408400446F8
:1020800001200004844206D1C0113040002802D053
:102090006010029034E001204004844206D1022006
:1020A0003040002802D0BA48029029E00320000402
:1020B000844223D1B54840380068012149040840D2
:1020C00000281BD0B1484038006821010840039027
:1020D000012109050398401A09D0401A04D0401A7A
:1020E00008D1AC48029008E0AB48029005E0AB484C
:1020F000029002E0AA48029000BF01E00020029096
:102100003FE1A248C0680121890608400446002C2E
:1021100042D19E48403800684910084000283BD012
:102120009A484038C0680F218904084007469748FC
:102130004038C0680321890508400190B80C05E0CB
:10214000EAE03AE064E08FE01AE1F4E095490F5CE0
:102150000198800D401C01908C484038C0680121D6
:102160000904084000280CD1884840380068102134
:102170000840002802D08A48009004E08A48009075
:1021800001E08A48009000987843009001990098F7
:10219000FDF7AEFF02900FE001208006844209D1D6
:1021A0007A484038806802210840002802D08048E0
:1021B000029001E000200290E3E07448C0688407C8
:1021C000A40F002C03D100F05FFB02901FE0022C53
:1021D00009D16E484038006804210840002802D028
:1021E0007148029013E0012C03D100F05FFB0290D4
:1021F0000DE0032C09D1654800690121490208401E
:10220000002802D08801029001E000200290B8E08E
:102210005E48C0680C2108400446002C03D100F041
:1022200021FB02901FE0082C09D158484038006873
:1022300004210840002802D05B48029013E0042CDF
:1022400003D100F033FB02900DE00C2C09D14F4874
:102250000069012149020840002802D0880102904B
:1022600001E0002002908CE04848C0680321890208
:1022700008400446002C03D100F0F4FA029025E057
:102280000120C002844209D140484038006804213E
:102290000840002802D04448029017E00120800244
:1022A000844203D100F002FB02900FE00320800281
:1022B000844209D1354800690121490208400028BB
:1022C00002D08801029001E00020029059E02F48DE
:1022D000C0680321090308400446002C03D100F024
:1022E000C1FA029017E001204003844209D1274837
:1022F0004038006804210840002802D02A48029093
:1023000009E001200003844203D100F0CFFA0290DB
:1023100001E00020029034E01C484038806B01212D
:1023200089050840884203D100F09CFA029001E040
:102330000020029025E01548C068032109040840E8
:102340000446002C03D100F08DFA029017E0012022
:102350004004844209D10D484038006804210840F7
:10236000002802D01048029009E0012000048442B5
:1023700003D100F09BFA029001E00020029000E0FF
:1023800000BF00BF029805B0F0BD00004010024041
:102390008890000020A1070040420F0080841E00AA
:1023A00000093D00807000080024F40000127A004B
:1023B000006CDC02F8B504460026002520212068C8
:1023C0000840202804D089012068084088427DD137
:1023D000202120680840202800D100BF0121C90227
:1023E00020680840884200D100BF00279948806BD0
:1023F000012109070840002805D19648806B084351
:1024000094498863012794480068FF2101310840FE
:10241000002816D19048006808438F490860FFF7EC
:10242000B9FD064606E0FFF7B5FD801B642801D91B
:102430000320F8BD88480068FF21013108400028CA
:10244000F1D084480068032109050840054660680A
:102450000840A84203D1A0680840A8420ED003213A
:10246000090460680840884208D17A480068012160
:1024700049040840002801D00120DAE775484030BF
:1024800000690321090408400546002D49D0606811
:102490000840A84204D020212068084020280BD002
:1024A00003210904A0680840A8423AD00121C902CA
:1024B00020680840884234D16648403000690321D2
:1024C0000904884305466348403000E052E0006953
:1024D0000121C90408435F49403108610846006989
:1024E0000121C90488435B49403108610846056100
:1024F00080152840002814D0FFF74CFD064607E061
:10250000FFF748FD801B5549884201D9032090E719
:10251000504840300069012149020840400A002823
:10252000EED000BF00BF0321090460680840884264
:102530000AD14848006809018843032212056168EE
:10254000114008434349086000BF424840300069D9
:10255000032212046168114008433E49403108617A
:1025600000BF012F05D13B48806B8905884339495D
:10257000886300BF2078C007C00F002809D0354805
:102580004030C06880088000E1680843314940312C
:10259000C860022120680840022809D12D48403037
:1025A000C0680C218843216908432A494031C8602A
:1025B00004212068084004280AD126484030C06819
:1025C0000321890288436169084322494031C86078
:1025D00008212068084008280AD11E484030C068F9
:1025E000032109038843A16908431A494031C8609F
:1025F000FF2101312068084088420AD11548403047
:10260000C068032109048843E16908431149403146
:10261000C860402120680840402809D10D4840305A
:10262000C06809058843616A08430A494031C860A7
:1026300080212068084080280AD106484030C068C0
:10264000032189048843216A084302494031C86054
:102650000020EEE6001002400070004088130000E9
:1026600070B504460D46002676480068C007C00FC6
:10267000A8420ED2734800684008400028437149C0
:10268000086008460068C007C00FA84201D00120BA
:1026900070BD022120680840022807D16A48C0683E
:1026A000F0218843A16808436749C8602078C007C3
:1026B000C00F00284CD06068022809D16248006829
:1026C000012149040840400C002824D10120DFE703
:1026D0006068032809D15C48006801214906084068
:1026E000400E002817D10120D2E76068012808D1E8
:1026F0005548006804210840800800280BD10120BB
:10270000C6E751480068012149020840400A0028F4
:1027100001D10120BCE74C48C06880088000616896
:1027200008434949C860FFF735FC0646606802283F
:102730000FD107E0FFF72EFC801B4449884201D9E6
:102740000320A5E74048C0680C2108400828F1D1C3
:1027500034E0606803280FD107E0FFF71BFC801B03
:102760003A49884201D9032092E73748C0680C21D2
:1027700008400C28F1D121E0606801280FD107E062
:10278000FFF708FC801B3149884201D903207FE70D
:102790002D48C0680C2108400428F1D10EE007E064
:1027A000FFF7F8FB801B2949884201D903206FE716
:1027B0002548C0680C2108400028F1D12148006854
:1027C000C007C00FA8420ED91E480068400840004C
:1027D00028431C49086008460068C007C00FA8428B
:1027E00001D0012054E7042120680840042808D1C2
:1027F0001548C068072109028843E1680843124967
:10280000C860082120680840082809D10E48C0681F
:102810000721C90288432169C90008430A49C860E1
:1028200000F044F80849C968F02211400909084A33
:10283000515CC840074908600020FFF7C9FB002031
:1028400026E700000020024000100240881300002C
:102850006870000800000020014800687047000010
:102860000000002000B5FFF7F7FF0549C9680722FF
:1028700012021140090A034A515CC84000BD000021
:10288000001002407870000800B5FFF7E5FF054929
:10289000C9680722D2021140C90A034A515CC840E4
:1028A00000BD00000010024078700008FEB5002551
:1028B0000026002700240020019000902F48C568C2
:1028C0000C202840002847D0042804D008280ED027
:1028D0000C2840D10EE0294800681021084000284B
:1028E00002D02748009001E02648009042E02648A8
:1028F00000903FE00F2080042840800C23490E5CAC
:10290000032080052840800D471C1C48C068012119
:1029100009040840002807D01B497143084639467E
:10292000FDF7E6FB044614E0144800681021084057
:10293000002807D01249714308463946FDF7D8FBF5
:10294000044606E00F49714308463946FDF7D0FBBF
:10295000044600940EE000BF084840680721490380
:102960000840400B01900198401C01218140C803A0
:10297000009000BF00BF0098FEBD000000100240A4
:1029800000093D000024F40000127A008070000865
:10299000F8B5044600252078C007C00F00287DD078
:1029A000FE48C0680C21084008280BD0FB48C068CE
:1029B00008400C2813D1F948C068012109040840D7
:1029C00088420CD1F5480068012149040840400CB8
:1029D000002863D06068002860D10120F8BD00BFE6
:1029E000012109046068884205D1EC480068084369
:1029F000EA49086027E005210904606888420ED191
:102A0000E6480068012189040843E4490860084653
:102A10000068012109040843E049086013E0DF4829
:102A20000068012109048843DC4908600846006801
:102A3000012109040840009000BFD84800688900BF
:102A40008843D649086000BF6068002813D0FFF7AC
:102A5000A1FA054606E0FFF79DFA401B642801D95C
:102A60000320BBE7CD480068012149040840400C21
:102A70000028F0D012E0FFF78DFA054606E0FFF7D8
:102A800089FA401B642801D90320A7E7C3480068DE
:102A9000012149040840400C0028F0D1022120689F
:102AA0000840022868D1BD48C0680C2108400428AD
:102AB0000BD0BA48C06808400C281DD1B748C06880
:102AC000012109040840002816D1B44800680421F7
:102AD00008408008002804D0E068012801D00120C7
:102AE0007CE7AE4840681F2109028843216909023A
:102AF0000843AA4948603FE0E068002824D0A7487E
:102B0000006809218843E1680843A4490860FFF789
:102B100041FA054606E0FFF73DFA401B022801D9BD
:102B200003205BE79D4800680421084080080028D6
:102B3000F1D09A4840681F2109028843216909029F
:102B400008439649486017E09448006840084000F0
:102B500092490860FFF71EFA054606E0FFF71AFAE9
:102B6000401B022801D9032038E78C480068042163
:102B7000084080080028F1D1102120680840102862
:102B800060D18648C0680C21084000285BD183488A
:102B90000068012149020840400A002804D0E06989
:102BA000002801D1012019E77C48616A40680722AA
:102BB00052031040814219D9606A01F085F900285A
:102BC00001D001200AE7754840680721490388437E
:102BD000616A084371494860084640680002000A7B
:102BE000218C090608436D49486018E06B4840682D
:102BF000072149038843616A0843684948600846D9
:102C000040680002000A218C0906084363494860B5
:102C1000606A01F059F9002801D00120DEE6606AFF
:102C2000400B401C01218140C8035C49C968F02267
:102C3000114009095A4A515CC8405A4908600020AD
:102C4000FFF7C6F949E0E06900282CD05348006836
:102C5000FF210131084351490860FFF79BF9054600
:102C600006E0FFF797F9401B022801D90320B5E6DB
:102C70004A480068012149020840400A0028F0D073
:102C800046484068072149038843616A084343492D
:102C90004860084640680002000A218C0906084383
:102CA0003E49486019E03D480068FF2101318843F2
:102CB0003A490860FFF76EF9054606E0FFF76AF942
:102CC000401B022801D9032088E63448006801210E
:102CD00049020840400A0028F0D108212068084035
:102CE000082839D1606900281BD02C484030006981
:102CF00001210843294940310861FFF74BF9054696
:102D000006E0FFF747F9401B022801D9032065E6DA
:102D10002248403000690221084040080028F0D0D5
:102D20001AE01E4840300069400840001B4940310D
:102D30000861FFF72FF9054606E0FFF72BF9401B66
:102D4000022801D9032049E61448403000690221D5
:102D5000084040080028F0D10421206808400428D9
:102D600077D100260D48806B89060840002805D1E0
:102D70000A48806B08430949886301260A480068AD
:102D8000FF210131084000281ED107480068084390
:102D900005490860FFF7FEF805460EE00010024006
:102DA000687000080000002000700040FFF7F2F893
:102DB000401B642801D9032010E6A6480068FF21C3
:102DC000013108400028F1D000BFFF210131A06887
:102DD000884205D1A048006908439F49086130E056
:102DE000A06800280DD19C480069FF21013188436B
:102DF00099490861084600690915884396490861A0
:102E00001FE005210902A06888420DD1924800699F
:102E10000121890208439049086108460069891523
:102E200008438D4908610CE08B480069FF2101319E
:102E3000884389490861084600690915884386491D
:102E4000086100BFA068002815D0FFF7A3F8054669
:102E500008E02FE0FFF79EF8401B8049884201D927
:102E60000320BBE57C480069012149020840400A73
:102E70000028EFD013E0FFF78DF8054607E0FFF7D5
:102E800089F8401B7549884201D90320A6E572489C
:102E90000069012149020840400A0028EFD1012EB3
:102EA00007D16D484038806B310788436A49403903
:102EB000886300BF202120680840202852D1A069E3
:102EC00000282BD000BF64484038806801210843A7
:102ED0006149403988600846406B012108435E49DA
:102EE000403948635E48006A0121490308435C4950
:102EF000086200BFFFF74EF8054606E0FFF74AF804
:102F0000401B022801D9032068E5534840388068F7
:102F10000221084040080028F0D023E000BF4E48BE
:102F200040388068400840004B49403988604C4830
:102F3000006A0121490388434949086200BFFFF73D
:102F400029F8054606E0FFF725F8401B022801D9BD
:102F5000032043E54048403880680221084040088B
:102F60000028F0D1A06A002872D03B484038C068E1
:102F70000C2108400C2869D0A06A022848D13648A4
:102F80004038006801210906884333494039086008
:102F9000FFF700F8054606E0FEF7FCFF401B02289D
:102FA00001D903201AE52C48403800680121490660
:102FB0000840400E0028EFD1216BE06A0843616BA6
:102FC000084325494039C968FD221204914308434A
:102FD00021494039C86008460068012109060843B4
:102FE0001D4940390860FEF7D5FF054606E0FEF7AB
:102FF000D1FF401B022801D90320EFE416484038D6
:103000000068012149060840400E0028EFD01FE06B
:103010001148403800680121090688430E494039AB
:103020000860FEF7B7FF054606E0FEF7B3FF401B5A
:10303000022801D90320D1E4074840380068012163
:1030400049060840400E0028EFD101E00120C5E408
:103050000020C3E4007000404010024088130000CC
:1030600000000140704702460023106803465033B9
:103070008800C3181868704710B5002304682346F9
:1030800050338C00E3181A6010BD000010B50446E0
:1030900010484068C007C00F012148404840002840
:1030A00005D00C480068042108430A4908600A4812
:1030B000C0680C210840082804D00748C0680840B0
:1030C000002804D1FEF74CF804A003F081FA62B6A0
:1030D00010BD00000070004000100240776B75705A
:1030E000206C6F772D706F776572206E6F770D0A89
:1030F0000000000010B50446206880680121090323
:103100000840000B002811D02068C0680911084051
:10311000000A00280AD02046FFF7B8FF2068C068E0
:1031200080210840124908432168C86020688068EF
:10313000012149030840400B002811D02068C068D5
:1031400009110840400A00280AD02046FFF78AFFEC
:103150002068C06880210840064908432168C8608B
:10316000012040040449486101212120015510BD7E
:103170007FFEFFFF7FFDFFFF0004014070B50446A6
:103180000D46002600BF2020005D012801D102204D
:1031900070BD01212020015500BF022121200155D1
:1031A00000BFCA202168486253202168486200BFDE
:1031B000FF20013085422CD1206880682946884351
:1031C00021688860206880682901884321688860B8
:1031D000FEF7E0FE064615E0FEF7DCFE801B7D21D3
:1031E000C90088420ED900BFFF202168486200BF95
:1031F00003212120015500BF00212020015500BFDF
:103200000320C5E72068C068C007C00F0028E3D0CE
:103210002EE0206880680121490288432168886087
:103220002068806801214903884321688860FEF78F
:10323000B1FE064615E0FEF7ADFE801B7D21C900FC
:1032400088420ED900BFFF202168486200BF0321D9
:103250002120015500BF00212020015500BF03207F
:1032600096E72068C0680221084040080028E2D0A4
:1032700000BFFF202168486200BF012121200155C5
:1032800000BF00212020015500BF002080E7000082
:1032900010B50446002C01D1012010BD2FA003F071
:1032A00097F92120005D002805D10021202001553B
:1032B000204600F061F802212120015500BFCA20FC
:1032C0002168486253202168486200BF204600F010
:1032D000ADFE002809D000BFFF202168486200BF72
:1032E0000421212001550120D7E720688068214969
:1032F000084021688860216960680843A169084323
:10330000216889680843216888602168E06808614D
:103310002068006921890904084321680861206840
:10332000C068802188432168C8602068C06C80081C
:1033300080002168C8646169E06908432168C96C3C
:1033400008432168C86400BFFF202168486200BFAD
:1033500001212120015500209FE7000048414C5FDA
:103360005254435F496E6974205374617274200D26
:103370000A000000BFFF8FFF054A0168914206D195
:1033800004490969012292041143024A11617047FC
:103390000028004040100240F8B504460D4616468D
:1033A000002700BF2020005D012801D10220F8BDC8
:1033B00001212020015500BF022121200155002EAE
:1033C00009D1687810210840102804D16878EF21CD
:1033D00008400A306870002E11D1E87800F019FE1C
:1033E0000304687800F015FE00020343A87800F09B
:1033F00010FE03432878400303431F4612E0687819
:1034000000F0FAFD0746A87800F0F6FD0746E878D8
:103410000004697809020843A97808432978490318
:103420000843074600BFCA2021684862532021682C
:10343000486200BF204600F0F9FD00280ED000BF12
:10344000FF202168486200BF04212120015500BFF0
:1034500000212020015500BF0120A8E7194838406D
:10346000216848602068C068802188432168C8605E
:103470002068806820210840002813D1204600F0F1
:10348000CDF800280ED000BFFF202168486200BFA1
:1034900004212120015500BF00212020015500BF3B
:1034A000012084E700BFFF202168486200BF01219E
:1034B0002120015500BF00212020015500BF002020
:1034C00075E700003FFFFF00F8B504460D461646BD
:1034D000002700BF2020005D012801D10220F8BD97
:1034E00001212020015500BF022121200155002E7D
:1034F0001BD12068806840210840002800D002E0ED
:103500000020E87000BF287800F083FD030468788D
:1035100000F07FFD00020343A87800F07AFD03432A
:10352000E878000403431F4618E0206880684021C3
:103530000840002804D0287800F05EFD074602E02D
:103540000020E87000BF2878000469780902084369
:10355000A9780843E97809040843074600BFCA2050
:103560002168486253202168486200BF204600F06D
:103570005DFD00280ED000BFFF202168486200BF1B
:1035800004212120015500BF00212020015500BF4A
:103590000120A4E72048384021680860206880683E
:1035A000012189048843216888602969E868084303
:1035B000216889680843216888602068C068802184
:1035C00088432168C860206880682021084000285E
:1035D00013D1204600F022F800280ED000BFFF20B3
:1035E0002168486200BF04212120015500BF00214D
:1035F0002020015500BF012071E700BFFF20216896
:10360000486200BF01212120015500BF0021202078
:10361000015500BF002062E77F7F7F0070B5044640
:1036200000252068C068A02188432168C860FEF793
:10363000B1FC054608E0FEF7ADFC401B7D21C9004A
:10364000884201D9032070BD2068C068202108404D
:103650000028F0D00020F6E7034800690221084363
:10366000014908617047000000E000E0042806D12D
:103670000649096904221143044A116105E003491E
:10368000096904229143014A1161704700E000E09A
:103690007047000070B504462546681E09498842F7
:1036A00001D901200CE0681E074948610321081F69
:1036B00000F08CFB0020044988610720086100208D
:1036C00070BD0000FFFFFF0000E000E010B5FFF755
:1036D000DFFF10BD704770470146002200236920BC
:1036E000425C6A20435C104618437047F8B50446B4
:1036F0002068C569206806682807000F00900098B8
:1037000000280BD120202840002807D0202030405E
:10371000002803D0204602F040FAF8BD20688768F0
:10372000009800287ED0F807C00F002804D1FF20A1
:10373000213030400028F5D0E807C00F00280BD01A
:10374000FF2001303040002806D0012021680862A7
:10375000E06E01210843E0660220284000280AD0DC
:10376000F807C00F002806D0022021680862E06E2A
:1037700004210843E0660420284000280AD0F80706
:10378000C00F002806D0042021680862E06E0221E4
:103790000843E0660820284000280ED02020304052
:1037A000002803D1F807C00F002806D008202168A0
:1037B0000862E06E08210843E066E06E002841D010
:1037C00020202840002806D020203040002802D0A9
:1037D000204602F0E2F9E06E08210840002805D1F9
:1037E0002068806840210840002826D0204602F04A
:1037F000B3F92068806840210840002819D020686B
:103800008068884321688860606E00280DD0264853
:10381000616E8863606EFEF72BFA002812D0606E2E
:10382000816B00E00FE088470CE02046FFF753FF74
:1038300008E02046FFF74FFF04E02046FFF74BFF6C
:103840000020E06669E7012000052840002811D02B
:1038500001208005384000280CD001200005216897
:1038600008622021692001556A2001552046FFF792
:1038700031FF52E780202840002807D080203040C8
:10388000002803D0204602F0C9FB46E7402028402C
:10389000002807D040203040002803D0204602F006
:1038A0006CF93AE700BF38E7415B000810B5044601
:1038B000002C01D1012010BDA069002800D000E03B
:1038C00000BF6920005D002805D100216820015556
:1038D000204600F02DF82421692001552068006859
:1038E0004008400021680860606A002802D0204635
:1038F00002F074F8204602F099F9012800D1DAE7C5
:10390000206840680921C90288432168486020680E
:1039100080682A2188432168886020680068012126
:10392000084321680860204602F0D0F8C3E7000091
:1039300010B586B0044629492068884217D1284826
:10394000406B012189030843254948630320400255
:103950000190022002900120039003200490042093
:10396000059001A905200007FEF708FA34E01D497B
:103970002068884216D11A48806B01214904084307
:10398000174988630C2001900220029001200390C7
:10399000032004900420059001A905200007FEF7EC
:1039A000EDF919E010492068884215D10C48806B68
:1039B0000121C90408430A49886303208002019059
:1039C000022002900120039003200490062005901D
:1039D00001A90648FEF7D2F906B010BD0038014033
:1039E0000010024000440040004C0040000800501D
:1039F00010B503466A20C05C20286AD1002901D096
:103A0000002A01D1012010BD012424039868A0429E
:103A100008D11869002805D1C807C00F002801D0B7
:103A20000120F0E700BF6820C05C012801D102201E
:103A3000E9E701246820C45400BF59655820C252E8
:103A40005A20C25200BF24039868A0420AD11869C4
:103A5000002803D1204C5C20C45220E0FF245C20CD
:103A6000C4521CE0986800280AD11869002803D1C4
:103A7000FF245C20C45212E07F245C20C4520EE07C
:103A8000012424079868A04209D11869002803D1AD
:103A90007F245C20C45202E03F245C20C45200BF5B
:103AA0000020D86622246A20C45400BF0024682065
:103AB000C45400BF18688068012420431C68A060BB
:103AC00018680068FF24213420431C68206000200F
:103AD00099E7022097E70000FF01000010B50446B7
:103AE0000F49206888421AD10E48817A0289FF382E
:103AF000FD3881540B480089401C81B2094801817E
:103B0000FEF748FA084988600121064801730089D8
:103B100081218900884202DB00210248018110BD19
:103B20000044004078090020D0050020FEB504467E
:103B30000D4616461F46002001906920005D202892
:103B40006AD1002D01D0002E01D10120FEBD01213E
:103B50000903A068884208D12069002805D1E80738
:103B6000C00F002801D00120F0E700BF6820005DF1
:103B7000012801D10220E9E701216820015500BF99
:103B80000020E066212169200155FEF703FA01902B
:103B9000502006535220065325E05220005B401E61
:103BA00081B2522001530097002280212046019BC0
:103BB00002F06DFA002801D00320C7E701210903B4
:103BC000A06888420BD12069002808D10295029D87
:103BD0002888C005C00D21688862AD1C03E02878E4
:103BE0006D1C216888625220005B0028D5D10097A7
:103BF000002240212046019B02F049FA002801D012
:103C00000320A3E720216920015500BF002168207F
:103C1000015500BF002099E7022097E77047000098
:103C2000024903A002F0D4FC00BFFEE7897000083F
:103C300025730D0A0000000000B585B00020642344
:103C400002900390019300930490054B054A0649A6
:103C50000648FDF7C2FC0548FDF724FC05B000BD91
:103C6000D0090020340A0020DC0600204C07002088
:103C700010B5154815490860002114480164012059
:103C80008007124948600021104881600521C16306
:103C9000012101610021C160012101620021416215
:103CA000C162FF21C23181620021016304214161AF
:103CB0000021416381618163C161FDF7C9FD002875
:103CC00001D0FDF7E5FB10BD00240140BC0A002037
:103CD00010B50E480E490860E120400248600021FE
:103CE0000B488160C16001610C214161002181614B
:103CF000C16101620020064948620846FFF7D6FD0F
:103D0000002801D0FDF7C4FB10BD000000380140C1
:103D1000FC05002010B5144814490860E120400259
:103D20004860002111488160C16001610C2141613E
:103D300000218161C161016200200C49486208468E
:103D4000FFF7B4FD002801D0FDF7A2FB00220421FB
:103D50001C20FEF75FF91C20FEF750F901220449F0
:103D60000248FFF745FE10BD004400406C060020ED
:103D70008209002010B51248124908604B20C0018A
:103D8000486000210F488160C16001610C214161E0
:103D900000218161C161016200200A494862084630
:103DA000FFF784FD002801D0FDF772FB00220321FC
:103DB0000E20FEF72FF90E20FEF720F910BD0000AF
:103DC000004C0040DC0600207047000010B50028C1
:103DD00019DA1A4A03071B0F083B9B089B00D258AD
:103DE0008307DC0EFF23A3409A438B071B0E840737
:103DF000E40EA3401A43114B0407240F083CA40807
:103E0000A4001A5118E00E4A03231B02D21883089B
:103E10009B00D2588307DC0EFF23A3409A438B07F5
:103E20001B0E8407E40EA3401A43054B032424020F
:103E30001B198408A4001A5110BD00001CED00E0FD
:103E400000E100E070B5044600260025042C01D1F5
:103E5000062600E026460120B0400849487108487F
:103E6000C8220721436B05489847C5B22A46054931
:103E700005A002F0ADFB284670BD000075050020CE
:103E80001C0B0020F50200004170703A2E2E5C4899
:103E9000414C5C73656E736F725C7372635C7365C7
:103EA0006E736F722E632C6C696E65203A202564E8
:103EB0002C5273343835732D2D6C656E203D2025C2
:103EC000640D0A007047000010B50146002300226F
:103ED0002048C068F0242040002829D11D48806B6C
:103EE000012424072040002806D01B480068032432
:103EF000E4022040034613E01648806B01242407A7
:103F00002043144CA063144800680324E4022040BA
:103F100003461048806B01242407A0430D4CA06386
:103F20000320C002834203D1C000814200D101229C
:103F30000A480068400840001043084C20602046B2
:103F40000068C007C00F904201D0012010BD0020C2
:103F5000FCE700000010024000700040002002401A
:103F600070B50546002442E05C216143214A89186E
:103F700008460C301421FCF71AF95C2060431D49F7
:103F8000095C5C2060431B4A801801735C2060431D
:103F90001146401845735C20604340188078FF212B
:103FA0000902084001125C206043801881735C2084
:103FB00060431146401880785C2161438918C873BA
:103FC0005C20604311464018C078FF210902084078
:103FD00001125C206043801801745C20604311462C
:103FE0004018C0785C21614389184874641C0F2C08
:103FF000BAD370BD10000020014600BFF020084079
:1040000000110A23584302460807000F8018C0B267
:1040100070470146002203E0521C08460A38C1B22C
:104020000A29F9D21007000E0843704770B50446FC
:1040300000252068C06840210840002815D1401E96
:104040002168C860FDF7A6FF054608E0FDF7A2FF5E
:10405000401B7D21C900884201D9032070BD206822
:10406000C068402108400028F0D00020F6E700009A
:1040700010B50448FFF73EF8FF2101310148FFF772
:104080007DF810BD980A002000B587B000212248B5
:10409000FEF7E9FF214988423BD021481E490860CC
:1040A000002048607F211C488160FF21C160002101
:1040B000016141618161C161FFF7EAF8002801D027
:1040C000FDF7E6F900216846017241728172C17202
:1040D000002005900690002202A90F48FFF7F4F98E
:1040E000002801D0FDF7D4F9012168460171417122
:1040F00081710021C171002201A90748FFF74CF925
:10410000002801D0FDF7C4F9044A00210248FEF757
:10411000B3FF07B000BD0000980A0020F232000093
:104120000028004070B51025002407E02846A04074
:1041300081B200220348FDF726FF641C062CF5DB44
:1041400070BD000000040050FEB506460D4617463F
:104150000122D10305200007FDF715FFE9B2214830
:10416000026B304690473846FDF7DCFD002000E04A
:10417000401CA91C8842FBDBA81C82B21A4B3146AA
:104180001A48FFF7D3FC00220121C90305200007CC
:10419000FDF7F9FEC820FDF7C5FD14211148FCF715
:1041A00006F81048C16A88470446601E0D49085C3D
:1041B0000190A01E085C0090A01EC1B20948026BCD
:1041C0009047601E0749095C0198814207D1A01EF3
:1041D0000449095C0098814201D12046FEBD0020BF
:1041E000FCE700001C0B0020FFFF0000DC060020A5
:1041F00038B50546002407E0684600782855295D53
:1042000008A002F0E5F9641C69460848FDF7BAF910
:104210000028F1D0002C02DD05A002F0D9F92046DB
:1042200038BD000025303258200000004C07002027
:104230000D0A000010B5FFF79DFDFFF7FDFC0B48D0
:104240000B4948610B4888610B48C8610B480862FC
:104250000B4848620B4888620B4808630B48C862E9
:104260000B4848634869804710BD0000C9420008F8
:104270001C0B00209542000825410008B565000888
:1042800095650008454300088D120008F1410008BB
:104290004941000870B505461026002407E0304665
:1042A000A04081B200220748FDF76DFE641C062C79
:1042B000F5DB3046A84081B201220248FDF763FEDB
:1042C00070BD00000004005000B587B000BF1A4860
:1042D000C06A012108431849C8620846C06AC0077D
:1042E000C00F019000BF00BF00BF0846C06A022196
:1042F00008431149C8620846C06A0221084001907B
:1043000000BF00BF0D4802900120039000200490E0
:10431000059002A90A48FDF731FD0120C003029073
:104320000120039000200490059002A905200007B9
:10433000FDF724FD07B000BD00100240F843000067
:104340000004005070B505460E46002404E0295DC7
:1043500004A002F03DF9641CB442F8DB03A002F0B3
:1043600037F970BD25303258200000000D0A0000DA
:1043700030B50B46002105E004884D005C53801CDD
:104380004C1CA1B29142F7DB30BD7047F0B595B03F
:104390000020149000250026342107A8FBF707FF12
:1043A0000020069005900027FE4802788E21FE48E6
:1043B00002F00EF900242BE3FC486043FC49085C42
:1043C00001287DD1F74801780598814278DDF748CA
:1043D0006043F7494018017914980818C0B2149046
:1043E00022469421F348149B02F0F2F814982628F0
:1043F00075DCEE486043EE4940184178EE4800789D
:1044000065225043ED4A821828466B1CDDB21154D8
:10441000E6486043E6494018C178E74800786522DD
:104420005043E64A821828466B1CDDB211549B218A
:10443000E3A0069A02F0CCF8DC486043DC4BC018DD
:104440000079801E82B2D9486043C01801463731D6
:1044500007AB06981818049002F0FAFD00200490AB
:104460000BE0049A0698801807AA115CE3A002F0FA
:10447000AFF80498401CC0B20490CC486043CC49CB
:1044800040180079801E04998842EADCDDA002F021
:104490009FF8C6486043C64940180079801E0699B7
:1044A0004018C0B20690C1486043C1494018007925
:1044B0008019C6B20598401CC0B20590B94801E009
:1044C00093E00CE001780598009402910190BA48BD
:1044D0000278149BA621CC4802F07AF8F7E1B6489E
:1044E0000178007865225043B44A801820308174E6
:1044F000FCF712FFB049097865225143AF4A891889
:1045000032314870E90F4919C9050A0EAA490978DC
:1045100065235943A94BC91832318A70032004908E
:10452000A5480078652250431A468118A2480078B1
:10453000652250431A4680183230049A83182A465E
:10454000184602F085FD04984019C0B204909A49BB
:10455000097865225143994A89183231049A88189A
:1045600007A9069A02F074FDF01CC6B292480078C2
:1045700065214843914940186030067189480078A8
:10458000059933460094019102908B480278BE2130
:104590009E4802F01DF8002003900FE08648007846
:1045A00065225043854A80183230039A815C98A076
:1045B00002F00EF80398401CC0B203900398B0427A
:1045C000ECDB90A002F004F807A80699FBF7EFFDDA
:1045D000601EC4B278480078401C774908700020FB
:1045E000149000260690002571E1704860437049E0
:1045F000085C0228F8D16B48017805988142F3DD08
:10460000002761E169486043694940184B304C21FB
:1046100079434018407800287ED06448604364495C
:1046200040184B304C2179434018417914980818B0
:10463000C0B214905D4860435D4940184B304C2136
:1046400079434018407914993B46224600910190E5
:10465000D521714801F0BCFF149826286DDC534821
:104660006043534940184B304C21794340188178BE
:104670005148007865225043504A821828466B1CE6
:10468000DDB2115449486043494940184B304C2130
:104690007943401801794848007865225043474AD9
:1046A000821828466B1CDDB2115440486043404BD1
:1046B000C0184B304C237B43C0184079801E82B217
:1046C0003A4860433A4BC0184B304C237B43C018E8
:1046D0000146383107AB06981818049002F0B8FC70
:1046E00032486043324940184B304C2179434018DE
:1046F0004079801E06994018C0B206902B4860434E
:104700002B4940184B304C2179434018407980198F
:10471000C6B20598401C00E0D4E0C0B20590214824
:10472000017805983346009402910190224802785E
:10473000E1213A4801F04CFFC4E01F4801780078BD
:10474000652250431D4A801820308174FCF7E4FD37
:104750001949097865225143184A8918323148703D
:10476000E90F4919C9050A0E134909786523594308
:10477000124BC91832318A70032004900E48007819
:10478000652250431A4681180B4800786522504331
:104790001A4680183230049A83182A46184602F0C6
:1047A00057FC3DE0B81B00202872000813020000EF
:1047B000540B00200871000874050020C617002063
:1047C0004170703A2E2E5C48414C5C73656E736F7D
:1047D000725C7372635C73656E736F722E632C6CA4
:1047E000696E65203A2025642C54656D70496E64AD
:1047F0006578203D2025640D0A00000025303278C0
:10480000200000000D0A0000E87500085074000840
:104810002530325820000000F4730008D8740008D6
:1048200004984019C0B204907E490978652251432A
:104830007D4A89183231049A881807A9069A02F02D
:1048400007FCF01CC6B277480078652148437649DA
:104850004018603006717548017805983346009419
:10486000029101906F480278FA21714801F0B0FE80
:10487000002003900FE06B480078652250436A4A9D
:1048800080183230039A815C6A4801F0A1FE0398D7
:10489000401CC0B203900398B042ECDB66A001F06C
:1048A00097FE07A80699FBF782FC781EC7B25D4801
:1048B0000078401C5B490870002014900026069088
:1048C000002500BF781CC7B2052F00DA9AE6052C38
:1048D0000BD1052F09D1554801780598401A0128B8
:1048E00003D10598401EC0B2059050480178059844
:1048F00081427DD14B4801780078652250434A4A75
:10490000801820308174FCF707FD4649097865223C
:104910005143454A891832314870E90F4919C90590
:104920000A0E40490978652359433F4BC918323173
:104930008A70032004903B480078652250431A4651
:10494000811838480078652250431A468018323062
:10495000049A83182A46184602F07AFB2246FF2161
:1049600021313648059B01F033FE04984019C0B24E
:10497000049033A0049901F02BFE2A49097865229E
:104980005143294A89183231049A881807A9069A8E
:1049900002F05EFBF01CC6B2224800786521484355
:1049A0002149401860300671009632461D48017852
:1049B000069B274801F00CFE002003900FE01948E9
:1049C000007865225043184A80183230039A815C7F
:1049D000184801F0FDFD0398401CC0B203900398F5
:1049E000B042ECDB14A001F0F3FD07A8069900E04B
:1049F0000CE0FBF7DCFB0B480078401C0949087011
:104A00000020149000260690002500BF601CC4B250
:104A1000062C00DAD0E4002004490870059015B097
:104A2000F0BD000074050020C6170020B81B002050
:104A300060750008104800080D0A00005071000859
:104A40004275664C656E203D2025642C200D0A00C1
:104A5000B0730008F0B589B005460027142104A8FA
:104A6000FBF7A5FB00243AE10021AC486843AC4ABF
:104A700080184B304C22624380184170A74868432D
:104A8000A74940184B304C216143405C00287DD041
:104A900023462A46A1491139A24801F099FDE0B206
:104AA000FFF7D0F9A0494979884207D023462A4622
:104AB0009A490D399D4801F08BFD0FE12246974937
:104AC00008399B4801F084FD9A487D22D2000721D5
:104AD000436B99489847C7B23A46964904A8FBF7F2
:104AE0004DFB8E49491E954801F072FD91483946AB
:104AF000826A04A89047052F6CDD6846C27C87490E
:104B0000091D8F4801F064FD002600BF4CE05C20C9
:104B100070438549085C6946C97C884243D10121BC
:104B20007E4868437E4A80184B304C22624380188E
:104B3000417028012043C1B278486843784A801800
:104B40004B304C2262438018817074486843744A29
:104B500080184B304C2262438018C6705C20704332
:104B60007149401841786D4868436D4A80184B3050
:104B70004C226243801801715C2070436A494018DE
:104B8000817966486843664A801800E0A5E04B30AA
:104B90004C226243801841713246604912316948A3
:104BA00001F016FD02E0761C0F2EB0D300BF0F2ED1
:104BB0000FD1002159486843594A80184B304C2284
:104BC000624381546846C27C54491A315E4801F000
:104BD000FFFC82E022468D2189005C4801F0F8FC50
:104BE000FDF7D8F90390042660E05C2070434E4B3B
:104BF000C01882685C207043C01801795C20704343
:104C0000C0180C3001904B48406B0090009B0198FD
:104C10009847C7B25C207043434940184079B84276
:104C200043D15C2070430A5C0921890148A001F04E
:104C3000CFFC012139486843394A80184B304C2257
:104C400062438018417028012043C1B23348684351
:104C5000334A80184B304C226243801881702F48B1
:104C600068432F4A80184B304C2262438018C6702C
:104C70005C2070432C494018417828486843284AF2
:104C800080184B304C226243801801715C207043C5
:104C900025494018817921486843214A80184B30C2
:104CA0004C2262438018417102E0761C062E9CDB88
:104CB00000BF02980F280FD1002118486843184AF6
:104CC00080184B304C22624381546846C27C1349A1
:104CD0003B311D4801F07CFC00BF00BF641C052C6B
:104CE00000DAC1E600202A4948711248C82207218B
:104CF000436B27489847C7B2002F07D10749463171
:104D0000244801F065FC012009B0F0BD03494B3196
:104D100021A001F05DFC0020F6E700001302000076
:104D2000540B0020D472000810000020B476000854
:104D30004C7800081C0B00207F050020E071000863
:104D40009C780008187300083C7900085C7700081C
:104D50004170703A2E2E5C48414C5C73656E736FE7
:104D6000725C7372635C73656E736F722E632C6C0E
:104D7000696E65203A2025642C6465766963652038
:104D80006861642066696E643A253032780D0A00E5
:104D900075050020707600084170703A2E2E5C4830
:104DA000414C5C73656E736F725C7372635C7365A8
:104DB0006E736F722E632C6C696E65203A202564C9
:104DC0002C636C6F736520657870656E6420626F0C
:104DD000780D0A00FEB504460026002002907D20D2
:104DE00040010190002526E195486043954940180F
:104DF0004B304C2169434018407800287ED0E8B2FF
:104E0000FFF720F890494979884207D02B4622467F
:104E10008B498E318D4801F0DBFB0BE1884B6343FE
:104E2000884FDB194B334C276F43DB19DB785C274A
:104E30007B43854FDB199A68814B6343814FDB19B4
:104E40004B334C276F43DB19DB785C277B437E4F6A
:104E5000DB1919797A4B63437A4FDB194B334C27B3
:104E60006F43DB19DB785C277B43774FDB191846F0
:104E70000C30774B5B6B00939847C6B2FDF78AF80E
:104E800002902CE06E4961436E4FC9194B314C279B
:104E90006F43C919C9785C2779436B4FC9198A6870
:104EA00067496143674FC91989785C277943664F21
:104EB000C9190979009162496143624FC91989781A
:104EC0005C277943604FC91908460C3060494B6B29
:104ED00000999847C6B2FF20F530FCF723FFFDF795
:104EE00059F80299411A0198814211D254486043FD
:104EF000544940184B304C21694300E099E0401878
:104F0000C0785C214843504940184079B042B9D13B
:104F10004B4860434B4940184B304C216943401883
:104F2000C0785C214843484940184079B0420ED0CF
:104F300043486043434940184B304C216943401873
:104F400082783F499C31434801F042FB71E042487E
:104F50000078401C4049087039496143394A891832
:104F60004B314C226A438918881D3146FBF71FF9E3
:104F700033496143334A89184B314C226A438918BB
:104F8000881D32463249FBF7F9F82D4860432D4F12
:104F9000C0194B304C276F43C0198378681C0546F5
:104FA0000246601CC0B2044601462C4801F010FBCA
:104FB000601EC4B26D1E22496143224BC9184B3199
:104FC0004C236B43C918881D21498A6A3146904792
:104FD00000200090032729E0194860431949401830
:104FE0004B304C2169434018801DC15D144860431B
:104FF000144A80184B304C226A4380183830009A8B
:1050000081540F4860430F4940184B304C2169438D
:10501000401838300099435C3A460949AF3110488E
:1050200001F0D6FA0098401C00907F1CB01EB842D8
:10503000D2DC00BF6D1C052D00DAD5E60020FEBDD8
:1050400013020000540B002010000020B47600086A
:105050001C0B0020B8770008B81B0020D879000886
:105060009C71000870B506460D4600242AE0042C09
:1050700013D14020304000280ED00121134868434E
:10508000134A80184B304C22624381542A46FF2138
:10509000E73110A001F09CFA16E00120A04030405A
:1050A00000280ED02A46FF21ED310AA001F090FA27
:1050B000012106486843064A80184B304C2262435F
:1050C0008154641C052CD2DB00BF70BD13020000AC
:1050D000540B00204170703A2E2E5C48414C5C739A
:1050E000656E736F725C7372635C73656E736F72FF
:1050F0002E632C6C696E65203A2025642C6D6169E5
:105100006E426F7820696E646578203A20253032CF
:10511000780D0A0070B504460C480169204688479E
:10512000012805D1E0B2094A516A884705460AE0DC
:105130000648016920468847022804D1E0B2034AA4
:10514000916A88470546284670BD0000B81B0020BC
:1051500010B51949086A804700241DE0601CC0B2E0
:10516000044602465E21154801F032FA601EC4B2C0
:10517000134801692046884703280BD00E488169EF
:10518000204688477D20C000FCF7CCFD0C48C16953
:1051900020468847601CC4B2062CDFDB0649C8697C
:1051A00080470549486A804700200649087004493D
:1051B0008868804710BD00001C0B00205C7300084D
:1051C000B81B002074050020FEB5044600BF00BFD8
:1051D0007D2040010090614E6643614FF619B6781C
:1051E0005C277E435F4FF619B2685C4E66435C4FA6
:1051F000F619B6785C277E435A4FF6193179574E27
:105200006643574FF619B6785C277E43554FF6191B
:1052100030460C30544E736B9847C5B2FCF7BAFE5B
:10522000019026E04D4E66434D4FF619B6785C2747
:105230007E434C4FF619B268484E6643484FF61904
:10524000B6785C277E43474FF6193179434E664363
:10525000434FF619B6785C277E43424FF619304625
:105260000C30414E736B9847C5B2FF20F530FCF708
:1052700059FDFCF78FFE0199411A009881420BD22B
:10528000364860433649401880785C2148433549A8
:1052900040184079A842C5D1304860433049401891
:1052A00080785C2148432F4940184079A8420BD0B0
:1052B0002A4860432A49401842784F21C9002B48A8
:1052C00001F086F90120FEBD29480078401C2849DC
:1052D000087022496143224A8918481D2946FAF775
:1052E00066FF1E4961431E4A8918481D2A461E4909
:1052F000FAF744FF601CC0B2044601461DA001F04D
:1053000067F9601EC4B215496143154BC918481DA1
:1053100015498A6A294690470027032619E00F4855
:1053200060430F494018401D815D0C4860430C4AA2
:1053300080183730C155094860431146401837304E
:10534000C35D324605497431144801F041F97F1CB0
:10535000761CA81EB042E2DC0020B4E71302000075
:10536000540B0020100000201C0B002000780008C7
:10537000B81B00206D61696E5F626F78203D20254B
:10538000642C2073656E736F72205273343835202D
:1053900072657644617461203A2000009C710008B7
:1053A00070B503251348C16A884700241BE01148E3
:1053B0008169204688477D20C000FCF7B3FC0E4879
:1053C000416920468847032804D021460BA001F0FC
:1053D000FFF803E0214610A001F0FAF8214615A0DD
:1053E00001F0F6F8641C062CE1DB0249C86980472D
:1053F000284670BD1C0B0020B81B002070696E2071
:10540000253032783A2066696E6420646576696377
:10541000650D0A2C0000000070696E2025643A6E4C
:105420006F742066696E64206465766963650D0A31
:105430002C000000675F696E646578203D2025645C
:105440000D0A0000F0B589B00446142104A8FAF74B
:10545000AEFE00BF032192486043924A1154924825
:105460007D22D2000721436B90489847064632467A
:105470008D4904A8FAF782FE8B483146826A04A857
:1054800090478B484079B04222D16846C07C0028C2
:105490001ED1FF21843187A001F09AF86846077D6C
:1054A00093482146C2683846904702217C486043B1
:1054B0007C4A11548E48016A20468847601C044685
:1054C0000246FF218D318B4801F082F8641EE1E035
:1054D000052E50DD6846C27CFF219331864801F0DD
:1054E00077F8002500BF2EE05C2068437049085C17
:1054F0006946C97C884225D1012169486043694ACF
:1055000011546748604380184470654860438018B0
:1055100085705C2068436649401841786048604364
:105520008018C1705C2068436149401881795C48EB
:105530006043801801712A46FF21A2316F4801F0B3
:1055400047F802E06D1C0F2DCED300BF0F2D0CD1FC
:10555000032153486043534A11546846C27CFF21DB
:10556000AA31674801F034F804E001214C48604357
:105570004C4A11548EE0FF21B431624801F028F802
:10558000FCF708FD039004257FE05C216943484B4C
:10559000C9188A685C216943C918097902915C219C
:1055A0006943C91808460C303F49496B0191019B7A
:1055B00002999847064618E05C2068433C4BC018A7
:1055C00082685C206843C01801795C206843C01879
:1055D0000C3002903448406B0190019B0298984730
:1055E0000646FF20F530FCF79DFBFCF7D3FC039942
:1055F000411A5C2068432E4A80188068814206D296
:105600005C206843114640184079B042D4D15C20F8
:105610006843274940184079B04227D15C2068434D
:105620000A5CFF21C33138A000F0D2FF1C48604360
:105630001C4A801844701A486043801885705C20AA
:1056400068431B4940184178154860438018C17071
:105650005C206843164940188179114860438018DE
:10566000017101210E486043115411E0601C044691
:105670000246FF21CF31344800F0AAFF641E032107
:1056800007486043074A11546D1C062D00DA7CE779
:1056900000BF00BF024860430249085C09B0F0BD8A
:1056A00013020000540B00201C0B00207F0500207B
:1056B000100000204170703A2E2E5C48414C5C7303
:1056C000656E736F725C7372635C73656E736F7219
:1056D0002E632C6C696E65203A2025642C657870E9
:1056E000656E6420626F78206973206F6B0D0A000D
:1056F000B81B0020787200089C7800081873000816
:1057000090790008147700084170703A2E2E5C489A
:10571000414C5C73656E736F725C7372635C73652E
:105720006E736F722E632C6C696E65203A2025644F
:105730002C646576696365206861642066696E64BF
:105740003A253032780D0A00E878000810B5134881
:1057500013494860134888601348886113484861BA
:105760001348C861134808611348C8601348486269
:105770001348086213488862FEF75CFD1249086A04
:1057800080470320FEF7ECFB00200549087088697C
:1057900080470D49486A804710BD000051510008FC
:1057A000B81B00208D430008A15300084554000891
:1057B000155100080D16000865500008C951000871
:1057C000554A0008D54D00081C0B00207CB5054645
:1057D0000E461446002001900CE00199490048193A
:1057E0006A4608A1FAF7EEFC0098019970540198F6
:1057F000401C0190E10F09194910019A9142ECDC1B
:105800007CBD00002532580010B5FCF7C9FBFDF740
:105810005DFF05480068401C0349086003480068B4
:10582000401C0249086010BD880500208C0500203E
:1058300030B59DB02A4800680321C9028843012180
:10584000C90240182649086005200F900120000475
:1058500010900012119002201990C1031A91410476
:105860001B9141051C910FA8FDF792F8002801D06B
:10587000FBF70EFE0F200A9003200B9000200C90E7
:105880000D900E9000210AA8FCF7EAFE002801D036
:10589000FBF7FEFD2B2000900020039004900120D8
:1058A000000401906846FCF785FD002801D0FBF755
:1058B000EFFD102001F026FBFCF7CEFF05467D2111
:1058C000C900FAF715FC0446FDF7E4FE0420FDF7D5
:1058D000CDFE00221146501EFCF79CFB1DB030BDD2
:1058E0000070004010B52148806B01210907084372
:1058F0001E4988631E4800680321C90288430121AC
:10590000C90240181A49086000BF18480068012100
:10591000090408431549086000BF00BF1348006828
:10592000012149040840400C0028F7D00F480068C6
:10593000C90108430D49086000BF0C4800680121F7
:1059400049060840400E0028F7D00848C068800883
:105950008000C01C0549C86000BF0448C0680C2115
:1059600008400C28F9D1FDF777FE10BD0010024069
:105970000070004015480068FF21013108431349B9
:1059800008600846C068124908401049C8600846C7
:105990000068104908400D490860084680684008C2
:1059A000400088600846006801218904884307494F
:1059B00008600846C068FD21090488430349C8609F
:1059C00000200861C8030449886070470010024045
:1059D0000C40FF88F6FFF6FE00ED00E0818CC90761
:1059E000C90F002908D00168496801225204914377
:1059F000826A1143026851600222416A1140002903
:105A000007D001684968D2039143C26A1143026812
:105A100051600422416A1140002907D00168496899
:105A200012049143026B1143026851600822416ADB
:105A30001140002907D00168496812039143426B65
:105A40001143026851601022416A1140002907D0B9
:105A50000168896812029143826B11430268916068
:105A60002022416A1140002907D00168896812028A
:105A70009143C26B1143026891604022416A114018
:105A8000002915D00168496892039143026C1143C3
:105A90000268516001221205016C914208D101682F
:105AA0004968032252059143426C114302685160D8
:105AB0008022416A1140002907D001684968120319
:105AC0009143826C114302685160704738B50446B7
:105AD00000250020E066FCF75DFA054620680068B6
