:020000040800F2
:10000000D80C0020D5000008852A000869290008BE
:1000100000000000000000000000000000000000E0
:10002000000000000000000000000000C12C0008DB
:100030000000000000000000012B0008C52C000893
:10004000E7000008E7000008152C0008E70000089A
:10005000E7000008C9070008D9070008E9070008F9
:10006000E7000008E7000008E7000008E7000008D4
:10007000E7000008E700000815360008E700000860
:10008000E7000008E7000008E700000800000000A3
:10009000E7000008E7000008E7000008E7000008A4
:1000A000E7000008E7000008E7000008E700000894
:1000B000BD350008E7000008E7000008E700000879
:1000C0000348854600F066FA004800477D46000870
:1000D000D80C00200448804704480047FEE7FEE7AC
:1000E000FEE7FEE7FEE7FEE7312E0008C10000084C
:1000F00030B50B46014600202022012409E00D46C0
:10010000D5409D4205D31D469540491B2546954047
:1001100040191546521E002DF1DC30BDF0B51FB45C
:100120000646002082B005464024019100901BE065
:10013000019922460F46304600F054F8049A059B78
:10014000801A994110D310461946224600F03AF819
:10015000361A8F410197224601200021009F00F0AE
:1001600031F838184D4100902046641E0028DFDC2D
:10017000019B00982946324607B0F0BD03460B4369
:100180009B0703D009E008C9121F08C0042AFAD24D
:1001900003E00B780370401C491C521EF9D27047D3
:1001A000D2B201E00270401C491EFBD2704700220F
:1001B000F6E710B513460A4604461946FFF7F0FF66
:1001C000204610BD10B5202A04DB0146203A91409C
:1001D000002010BD914020239C1A0346E3401943A0
:1001E000904010BD10B5202A04DB0846203AD040CC
:1001F000002110BD0B46D340D0402024A21A9140CC
:100200000843194610BD0000F0B50746084658409F
:1002100087B0C00F049048000E46590040084908B6
:10022000BC1A884105D2384631461E4617460B4651
:1002300002465800400810434CD0300D0390400552
:100240005900400D490D0590401A0290402872DA7D
:1002500018030121000B090508430190049800923E
:10026000002805D001995242002088410092019057
:10027000029840210A1A01990098FFF7A3FF05464A
:100280000C466B4607CB00F097F9C0197141039AF1
:100290000E0D0023D71756401A467A40164344D015
:1002A000049A002A2DD0029A012A039A15DC12051D
:1002B000C01A914101263605001C7141D20F059EDE
:1002C000D2070093019202962A46234600F094F941
:1002D00007B0F0BD38463146FAE71605224A0F4608
:1002E000B218C01AB74101210905001C4F4100187E
:1002F0007F41114618187941E20F10436D1964418E
:1003000013E0E2076D0815436408C2071443039A1B
:1003100001261205C01A91413605001C7141CE0715
:10032000400830434908C01851412A46234600F08E
:1003300056F9CDE7FFE7049801224000C117121AD1
:1003400000238B4104983146C417381AA141EEE7C7
:1003500030B40124E407634030BC55E730B40124D5
:10036000E407614030BC4FE70000E0FFF0B51FB488
:1003700088B00B990998002448400999C00F49009A
:1003800049080991C0070B990090490049080B9151
:1003900009990898A64608431CD00B990A98084367
:1003A00018D0099801244000420D4800410D0998D9
:1003B00024050003000B204309900B980003000B59
:1003C00020430B9050181C494018002201901446FD
:1003D000104605E0002001460DB0F0BD032801DA0B
:1003E000034600E003239C46C11A0AAE0AE05F0000
:1003F00008ADED5B4F00F75B7D430027AA187C41F9
:10040000491C5B1E6145F2DD410004AB5A522104D8
:10041000120C0A43240C401C0828DFDB01980290D0
:100420000099704601910090059B049A07990698DF
:1004300000F0E2F8D0E700000DFCFFFFF0B50C463D
:100440005C4085B0E40FE40703944C000026640888
:1004500059009446490802460296224321D062463A
:100460000A431ED06200570D4A000E032303550DA8
:10047000012402462C492405781B1B0B360B40181F
:1004800023432643614600901C46501AB44103D3CF
:100490000098401C009002E0921800985B410028F0
:1004A00003DA0020014605B0F0BD00200121090556
:1004B0000746864611E064461D46141BB54106D327
:1004C0006546521BB341744607430C43A646CD070D
:1004D00040084908284392185B4105460D43EAD17C
:1004E0001046184313D060461946504071400843E7
:1004F00006D06046101AB34106D20122002306E05E
:1005000000220123DB0702E00122D24353100098AE
:1005100074460105381C6141029C039D0019694124
:1005200000F05DF8BFE70000FD0300004A0009038A
:100530000123090B1B0519430A4B10B5520D9A42B2
:1005400002DA0020014610BD064B34339A4203DC28
:100550009A1AFFF747FE10BD034BD218FFF732FE81
:1005600010BD0000FF030000CDFBFFFF10B5002908
:1005700004DB0124E40740428C412146002B04DBCC
:100580001C460123DB075242A341994200D190420D
:1005900010BD0000064C0125064E05E0E36807CCBF
:1005A0002B430C3C98471034B442F7D3FFF78CFD33
:1005B000D0470008F047000810B5202A06DBCB170B
:1005C0000846203A1041C1170B4306E00B46134181
:1005D000D0402024A21A91400843194610BD10B5FE
:1005E000002B08DA0024401C614192185B411A4339
:1005F00001D14008400010BDF0B51FB482B00546DF
:100600000C0003D0084603F071FB02E003F06EFB20
:1006100020300246009021462846FFF7D3FD049B78
:10062000059A04460F4618431143084314D0184650
:1006300010431BD0009840210A1A18460599FFF76D
:10064000D1FD05460E46009A05990498FFF7BAFDBC
:10065000084305D0012004E02046394607B0F0BD2C
:100660000020C11705430E432C43374300990E98D1
:100670006305401A7905E40A00220C43FD0A0A309A
:1006800002D500200146E9E70105101969410C9CDB
:100690000D9D00196941FFF7A2FFDFE708B5484843
:1006A000007800283FD100F0AFFB02F01FFB00BF35
:1006B0004448C06A042108434249C8620846C06AE7
:1006C00004210840009000BF00BF00BF3D48C06A41
:1006D000802108433B49C8620846C06A802108401F
:1006E000009000BF00BF00BF3648C06A0221084327
:1006F0003449C8620846C06A02210840009000BF21
:1007000000BF00BF2F48C06A012108432D49C862BD
:100710000846C06AC007C00F009000BF00BF01209C
:100720002749087039E002F03BFB00BF2548C06A4A
:10073000042108432349C8620846C06A04210840CE
:10074000009000BF00BF00BF1E48C06A8021084360
:100750001C49C8620846C06A80210840009000BF5A
:1007600000BF00BF1748C06A022108431549C8628C
:100770000846C06A02210840009000BF00BF00BFC9
:100780001048C06A012108430E49C8620846C06A81
:10079000C007C00F009000BF00BF02F021F902F0B7
:1007A00041F902F0EDF802F03DFA002201210220A9
:1007B00000F05CFB022000F04DFB03F0D5F808BD13
:1007C0000C0000200010024010B5012000F0F2F9EA
:1007D000022000F0EFF910BD10B5042000F0EAF996
:1007E000082000F0E7F910BD10B5102000F0E2F984
:1007F000202000F0DFF9402000F0DCF9802000F03C
:10080000D9F9FF20013000F0D5F90120400200F0B5
:10081000D1F90120800200F0CDF90120C00200F0E2
:10082000C9F90120000300F0C5F90120400300F0E0
:10083000C1F90120800300F0BDF90120C00300F0E0
:10084000B9F910BD10B502A003F040FA10BD0000C8
:100850006572726F720D0A0010B50446002C01D14A
:10086000012010BDA06D002806D1E06500215420B4
:100870000155204600F00AF9A06D1021084000281B
:1008800006D12068806804210840800800280AD02A
:10089000A06D10210843A06500BF00215420015520
:1008A00000BF0120DDE7A06DFF2101318843022157
:1008B0000843A065206880688007800F012807D161
:1008C00020680068C007C00F002801D0012000E0A8
:1008D000002000283AD100BF0321890760688842C0
:1008E00007D049426068884203D049006068884266
:1008F0000CD12068006980008008216808612068A8
:100900000069616808432168086112E02068006995
:1009100080008008216808615A4880680F21890496
:10092000884358498860084680686168084355498B
:10093000886000BF2068C068182188432168C860AB
:100940002068C068A16808432168C8604D48806875
:100950000121490688434B49886008468068218FF9
:1009600049060843474988602068806801210907D3
:100970000840002804D12068806808432168886006
:100980002068C068404908402168C8602169E06863
:10099000022901D1042100E000210843216A490312
:1009A0000843216B49000843616B0843A16989032F
:1009B0000843E169C90308432168C96808432168FD
:1009C000C860FF21C231A06A884207D0E16AA06AEC
:1009D00008432168C96808432168C860606A012823
:1009E00012D1206A002807D12068C06801210904BB
:1009F00008432168C86007E0A06D20210843A06576
:100A0000E06D01210843E065206C012817D12068C2
:100A10000069FF218900884321680861616CA06C2E
:100A20000843E16C084321680969084321680861AB
:100A30002068006901210843216808610BE02068F3
:100A40000069C007C00F002805D020680069400871
:100A500040002168086120684069C008C000216822
:100A6000486120684069E16B0843216848610020C3
:100A7000E065A06D0221884301210843A0650020A4
:100A8000EFE60000002701401902FEFF10B586B016
:100A900004460B492068884210D10A48406B49152A
:100AA0000843084948630120019003200290002078
:100AB000039001A90520000700F08CF806B010BDD6
:100AC000002401400010024070B504460025252096
:100AD000005D022803D00420E063012549E020687E
:100AE00000680E218843216808602068006840087B
:100AF00040002168086020492068884201D1012017
:100B000026E01D4914312068884201D110201FE0E1
:100B1000194928312068884201D1801518E016490A
:100B20003C312068884201D1801411E012495031D3
:100B30002068884202D10120000409E00E49643196
:100B40002068884202D10120000501E00120000652
:100B500009490839486001212520015500BF0021BD
:100B60002420015500BFA06B002802D02046A16BB5
:100B70008847284670BD00000800024031B50024B7
:100B800000F034F9044600BF00F030F9001B009972
:100B90008842F9D338BD000010B50446012C03D1BA
:100BA0000349C868804700BF00BF00BF10BD0000F8
:100BB000BC06002010B504460548406920400028C6
:100BC00004D0034844612046FFF7E6FF10BD000053
:100BD0000004014070B50346002200240020DFE03D
:100BE000012696400D6835402C46002C77D04D6884
:100BF000022D02D04D68122D15D1D508AE001D462C
:100C00002035A8595507EE0E0F25B5400646AE43D0
:100C100030465607F60E0D69B5402843D508AD009D
:100C20001E46203670514D68012D08D04D68022DAA
:100C300005D04D68112D02D04D68122D18D198683D
:100C400056000325B5400646AE4330465600CD68F3
:100C5000B540284398605868012595400646AE4344
:100C6000304610264D6835402D0995402843586080
:100C7000186856000325B5400646AE4330460D7948
:100C8000AD07AD0F5600B54028431860D868560030
:100C90000325B5400646AE43304656008D68B54044
:100CA0002843D860012636074D683540B54276D1D5
:100CB0003E4D6D6B012635433C4E75633C4D9608A9
:100CC000B600A85995072E0F0F25B5400646AE432E
:100CD000304605252D07AB4202D100251AE05EE023
:100CE000344DAB4201D1012514E0334DAB4201D16B
:100CF00002250FE0314DAB4201D103250AE0304D12
:100D0000AB4201D1042505E02E4DAB4201D10525B2
:100D100000E006259607360FB5402843244D960877
:100D2000B600A851284D28680546A5432846012647
:100D300036044D683540B54202D105462543284664
:100D4000214D286068680546A5432846012676049B
:100D50004D683540B54202D10546254328461A4D17
:100D60006860A8680546A5432846012636054D68F3
:100D70003540B54202D1054625432846124DA860AC
:100D8000E8680546A5432846012676054D683540A6
:100D9000B54202D10546254328460B4DE860521C5A
:100DA0000D68D540002D00D01AE770BD001002403C
:100DB000080001400004005000080050000C0050E2
:100DC00000100050001C005000040140024613694E
:100DD0000B40002B01D0012000E000207047002ACA
:100DE00001D0816100E08162704700000148006825
:100DF000704700000400002002480068401C0149C0
:100E0000086070470400002010B5064800684021C3
:100E1000084304490860002000F006F800F018F8C4
:100E2000002010BD0020024070B504467D21C9009D
:100E300006480068FFF75CF9054601F0ABFA0022AE
:100E40002146501E00F012F8002070BD0000002066
:100E50007047000000BFC206D20E01219140024A35
:100E6000116000BF7047000000E100E070B504466B
:100E70000D4616462946204601F006FE70BD0000CC
:100E8000F0B585B0054600260020039002900024AE
:100E9000002701900090102D7ED008DC012D7CD021
:100EA000022D7BD0042D7AD0082D79D13BE1202D65
:100EB0000AD0402D51D0E81FF938002871D0072101
:100EC0000902401AF1D100E000BFC6480669006976
:100ED000032109040840044601200004844206D18D
:100EE000C0113040002802D06010029034E0012090
:100EF0004004844206D102203040002802D0BA4883
:100F0000029029E003200004844223D1B5484038F0
:100F1000006801214904084000281BD0B14840382E
:100F20000068210108400390012109050398401A37
:100F300009D0401A04D0401A08D1AC48029008E009
:100F4000AB48029005E0AB48029002E0AA4802904C
:100F500000BF01E0002002903FE1A248C0680121EB
:100F6000890608400446002C42D19E48403800685B
:100F70004910084000283BD09A484038C0680F21EB
:100F800089040840074697484038C068032189050E
:100F900008400190B80C05E0EAE03AE064E08FE038
:100FA0001AE1F4E095490F5C0198800D401C019016
:100FB0008C484038C06801210904084000280CD141
:100FC00088484038006810210840002802D08A482C
:100FD000009004E08A48009001E08A480090009860
:100FE0007843009001990098FFF782F802900FE093
:100FF00001208006844209D17A4840388068022165
:101000000840002802D08048029001E000200290B1
:10101000E3E07448C0688407A40F002C03D100F0FB
:101020005FFB02901FE0022C09D16E484038006837
:1010300004210840002802D07148029013E0012CDE
:1010400003D100F05FFB02900DE0032C09D165484D
:101050000069012149020840002802D0880102905D
:1010600001E000200290B8E05E48C0680C21084012
:101070000446002C03D100F021FB02901FE0082C55
:1010800009D158484038006804210840002802D09F
:101090005B48029013E0042C03D100F033FB029074
:1010A0000DE00C2C09D14F4800690121490208408C
:1010B000002802D08801029001E0002002908CE01C
:1010C0004848C0680321890208400446002C03D127
:1010D00000F0F4FA029025E00120C002844209D118
:1010E00040484038006804210840002802D04448A5
:1010F000029017E001208002844203D100F002FB3D
:1011000002900FE003208002844209D13548006933
:10111000012149020840002802D08801029001E024
:101120000020029059E02F48C068032109030840BD
:101130000446002C03D100F0C1FA029017E0012010
:101140004003844209D12748403800680421084000
:10115000002802D02A48029009E0012000038442BE
:1011600003D100F0CFFA029001E00020029034E0B9
:101170001C484038806B012189050840884203D112
:1011800000F09CFA029001E00020029025E0154852
:10119000C0680321090408400446002C03D100F074
:1011A0008DFA029017E001204004844209D10D48D5
:1011B0004038006804210840002802D010480290FE
:1011C00009E001200004844203D100F09BFA029060
:1011D00001E00020029000E000BF00BF029805B0CF
:1011E000F0BD0000401002408890000020A10700E0
:1011F00040420F0080841E0000093D00684700083F
:101200000024F40000127A00006CDC02F8B50446F9
:1012100000260025202120680840202804D08901CC
:101220002068084088427DD120212068084020287D
:1012300000D100BF0121C90220680840884200D1C6
:1012400000BF00279948806B01210907084000284A
:1012500005D19648806B08439449886301279448D8
:101260000068FF2101310840002816D1904800682D
:1012700008438F490860FFF7B9FD064606E0FFF70F
:10128000B5FD801B642801D90320F8BD884800689B
:10129000FF21013108400028F1D084480068032173
:1012A00009050840054660680840A84203D1A068C7
:1012B0000840A8420ED00321090460680840884213
:1012C00008D17A480068012149040840002801D06B
:1012D0000120DAE77548403000690321090408401D
:1012E0000546002D49D060680840A84204D020215E
:1012F0002068084020280BD003210904A06808407A
:10130000A8423AD00121C90220680840884234D15D
:101310006648403000690321090488430546634854
:10132000403000E052E000690121C90408435F49F0
:1013300040310861084600690121C90488435B49BE
:10134000403108610846056180152840002814D006
:10135000FFF74CFD064607E0FFF748FD801B5549A7
:10136000884201D9032090E75048403000690121AC
:1013700049020840400A0028EED000BF00BF032108
:1013800009046068084088420AD148480068090199
:1013900088430322120561681140084343490860ED
:1013A00000BF4248403000690322120461681140C6
:1013B00008433E494031086100BF012F05D13B4839
:1013C000806B890588433949886300BF2078C0074E
:1013D000C00F002809D035484030C0688008800020
:1013E000E168084331494031C86002212068084063
:1013F000022809D12D484030C0680C21884321695A
:1014000008432A494031C860042120680840042864
:101410000AD126484030C0680321890288436169A7
:10142000084322494031C860082120680840082844
:101430000AD11E484030C068032109038843A169CE
:1014400008431A494031C860FF2101312068084033
:1014500088420AD115484030C068032109048843F6
:10146000E169084311494031C860402120680840C3
:10147000402809D10D484030C06809058843616A99
:1014800008430A494031C86080212068084080280C
:101490000AD106484030C068032189048843216A84
:1014A000084302494031C8600020EEE600100240C7
:1014B000007000408813000070B504460D460026F9
:1014C00076480068C007C00FA8420ED27348006873
:1014D0004008400028437149086008460068C0077A
:1014E000C00FA84201D0012070BD02212068084031
:1014F000022807D16A48C068F0218843A1680843E0
:101500006749C8602078C007C00F00284CD06068C9
:10151000022809D162480068012149040840400CB2
:10152000002824D10120DFE76068032809D15C4846
:101530000068012149060840400E002817D101200B
:10154000D2E76068012808D15548006804210840A6
:10155000800800280BD10120C6E75148006801210E
:1015600049020840400A002801D10120BCE74C484C
:10157000C06880088000616808434949C860FFF777
:1015800035FC0646606802280FD107E0FFF72EFC05
:10159000801B4449884201D90320A5E74048C06820
:1015A0000C2108400828F1D134E0606803280FD1ED
:1015B00007E0FFF71BFC801B3A49884201D9032052
:1015C00092E73748C0680C2108400C28F1D121E08F
:1015D000606801280FD107E0FFF708FC801B314944
:1015E000884201D903207FE72D48C0680C210840BC
:1015F0000428F1D10EE007E0FFF7F8FB801B294932
:10160000884201D903206FE72548C0680C210840B3
:101610000028F1D121480068C007C00FA8420ED9A8
:101620001E4800684008400028431C4908600846DE
:101630000068C007C00FA84201D0012054E7042170
:1016400020680840042808D11548C068072109020D
:101650008843E16808431249C860082120680840AF
:10166000082809D10E48C0680721C90288432169AA
:10167000C90008430A49C86000F044F80849C9682D
:10168000F02211400909084A515CC8400749086026
:101690000020FFF7C9FB002026E7000000200240E1
:1016A000001002408813000050470008000000208E
:1016B00001480068704700000000002000B5FFF7F7
:1016C000F7FF0549C968072212021140090A034AB7
:1016D000515CC84000BD0000001002406047000897
:1016E00000B5FFF7E5FF0549C9680722D20211409E
:1016F000C90A034A515CC84000BD00000010024006
:1017000060470008FEB500250026002700240020C1
:10171000019000902F48C5680C202840002847D031
:10172000042804D008280ED00C2840D10EE0294807
:10173000006810210840002802D02748009001E0EE
:101740002648009042E0264800903FE00F208004A9
:101750002840800C23490E5C032080052840800D22
:10176000471C1C48C068012109040840002807D014
:101770001B49714308463946FEF7BAFC044614E09B
:101780001448006810210840002807D0124971430E
:1017900008463946FEF7ACFC044606E00F497143A3
:1017A00008463946FEF7A4FC044600940EE000BF4C
:1017B00008484068072149030840400B0190019800
:1017C000401C01218140C803009000BF00BF009869
:1017D000FEBD00000010024000093D000024F4009E
:1017E00000127A0068470008F8B504460025207802
:1017F000C007C00F00287DD0FE48C0680C210840FB
:1018000008280BD0FB48C06808400C2813D1F948C1
:10181000C06801210904084088420CD1F5480068DD
:10182000012149040840400C002863D0606800286A
:1018300060D10120F8BD00BF012109046068884221
:1018400005D1EC4800680843EA49086027E0052113
:101850000904606888420ED1E648006801218904C5
:101860000843E44908600846006801210904084368
:10187000E049086013E0DF4800680121090488435B
:10188000DC4908600846006801210904084000900E
:1018900000BFD848006889008843D649086000BF67
:1018A0006068002813D0FFF7A1FA054606E0FFF7AD
:1018B0009DFA401B642801D90320BBE7CD4800688E
:1018C000012149040840400C0028F0D012E0FFF745
:1018D0008DFA054606E0FFF789FA401B642801D916
:1018E0000320A7E7C3480068012149040840400CD1
:1018F0000028F0D1022120680840022868D1BD48A4
:10190000C0680C21084004280BD0BA48C0680840C1
:101910000C281DD1B748C0680121090408400028DF
:1019200016D1B4480068042108408008002804D07B
:10193000E068012801D001207CE7AE4840681F2103
:1019400009028843216909020843AA4948603FE027
:10195000E068002824D0A748006809218843E1688E
:101960000843A4490860FFF741FA054606E0FFF77F
:101970003DFA401B022801D903205BE79D4800681F
:101980000421084080080028F1D09A4840681F21AF
:10199000090288432169090208439649486017E013
:1019A000944800684008400092490860FFF71EFA1A
:1019B000054606E0FFF71AFA401B022801D903206A
:1019C00038E78C4800680421084080080028F1D1DD
:1019D000102120680840102860D18648C0680C217A
:1019E000084000285BD18348006801214902084073
:1019F000400A002804D0E069002801D1012019E73D
:101A00007C48616A4068072252031040814219D91C
:101A1000606A01F077F8002801D001200AE77548D4
:101A20004068072149038843616A08437149486057
:101A3000084640680002000A218C090608436D49E7
:101A4000486018E06B484068072149038843616A91
:101A5000084368494860084640680002000A218C33
:101A60000906084363494860606A01F04BF80028A2
:101A700001D00120DEE6606A400B401C012181405C
:101A8000C8035C49C968F022114009095A4A515CEF
:101A9000C8405A4908600020FFF7C6F949E0E069EC
:101AA00000282CD053480068FF21013108435149D8
:101AB0000860FFF79BF9054606E0FFF797F9401B22
:101AC000022801D90320B5E64A48006801214902ED
:101AD0000840400A0028F0D04648406807214903E2
:101AE0008843616A084343494860084640680002E9
:101AF000000A218C090608433E49486019E03D4828
:101B00000068FF21013188433A490860FFF76EF908
:101B1000054606E0FFF76AF9401B022801D90320B9
:101B200088E634480068012149020840400A00283C
:101B3000F0D1082120680840082839D160690028C0
:101B40001BD02C484030006901210843294940310D
:101B50000861FFF74BF9054606E0FFF747F9401B20
:101B6000022801D9032065E622484030006902219D
:101B7000084040080028F0D01AE01E4840300069B4
:101B8000400840001B4940310861FFF72FF9054626
:101B900006E0FFF72BF9401B022801D9032049E694
:101BA0001448403000690221084040080028F0D164
:101BB000042120680840042877D100260D48806B56
:101BC00089060840002805D10A48806B0843094966
:101BD000886301260A480068FF2101310840002877
:101BE0001ED107480068084305490860FFF7FEF862
:101BF00005460EE00010024050470008000000209B
:101C000000700040FFF7F2F8401B642801D9032060
:101C100010E6A6480068FF21013108400028F1D0F5
:101C200000BFFF210131A068884205D1A0480069AA
:101C300008439F49086130E0A06800280DD19C4806
:101C40000069FF210131884399490861084600690C
:101C500009158843964908611FE005210902A0681B
:101C600088420DD1924800690121890208439049B8
:101C7000086108460069891508438D4908610CE030
:101C80008B480069FF210131884389490861084672
:101C90000069091588438649086100BFA0680028CB
:101CA00015D0FFF7A3F8054608E02FE0FFF79EF8F0
:101CB000401B8049884201D90320BBE57C4800696C
:101CC000012149020840400A0028EFD013E0FFF745
:101CD0008DF8054607E0FFF789F8401B75498842F3
:101CE00001D90320A6E57248006901214902084094
:101CF000400A0028EFD1012E07D16D484038806B93
:101D0000310788436A494039886300BF2021206831
:101D10000840202852D1A06900282BD000BF644879
:101D2000403880680121084361494039886008468D
:101D3000406B012108435E49403948635E48006AB0
:101D40000121490308435C49086200BFFFF74EF8D0
:101D5000054606E0FFF74AF8401B022801D9032098
:101D600068E5534840388068022108404008002850
:101D7000F0D023E000BF4E48403880684008400063
:101D80004B49403988604C48006A01214903884327
:101D90004949086200BFFFF729F8054606E0FFF74A
:101DA00025F8401B022801D9032043E5404840386C
:101DB00080680221084040080028F0D1A06A00286D
:101DC00072D03B484038C0680C2108400C2869D0CC
:101DD000A06A022848D13648403800680121090627
:101DE0008843334940390860FFF700F8054606E0AC
:101DF000FEF7FCFF401B022801D903201AE52C48FE
:101E000040380068012149060840400E0028EFD103
:101E1000216BE06A0843616B084325494039C96872
:101E2000FD2212049143084321494039C860084605
:101E300000680121090608431D4940390860FEF782
:101E4000D5FF054606E0FEF7D1FF401B022801D969
:101E50000320EFE416484038006801214906084095
:101E6000400E0028EFD01FE01148403800680121E3
:101E7000090688430E4940390860FEF7B7FF05465A
:101E800006E0FEF7B3FF401B022801D90320D1E48E
:101E9000074840380068012149060840400E0028E4
:101EA000EFD101E00120C5E40020C3E40070004050
:101EB00040100240881300000000014070470000FD
:101EC00010B5044610484068C007C00F01214840C3
:101ED0004840002805D00C480068042108430A49FE
:101EE00008600A48C0680C210840042804D007484C
:101EF000C0680840002804D1FEF7D0FB04A001F020
:101F0000E5FE62B610BD0000007000400010024007
:101F1000776B7570206C6F772D706F776572206EA0
:101F20006F770D0A0000000010B504462068806835
:101F3000012109030840000B002811D02068C06867
:101F400009110840000A00280AD02046FFF7B8FF10
:101F50002068C06880210840124908432168C86091
:101F600020688068012149030840400B002811D0F7
:101F70002068C06809110840400A00280AD020469D
:101F8000FFF79CFF2068C06880210840064908438D
:101F90002168C860012040040449486101212120D2
:101FA000015510BD7FFEFFFF7FFDFFFF00040140D4
:101FB00010B50446002C01D1012010BD2120005D88
:101FC000002805D1002120200155204600F054F8BA
:101FD00002212120015500BFCA20216848625320F8
:101FE0002168486200BF204600F0F2FD002809D0B9
:101FF00000BFFF202168486200BF04212120015555
:102000000120DAE7206880681A4908402168886062
:10201000216960680843A169084321688968084309
:10202000216888602168E06808612068006921896A
:1020300009040843216808612068C068802188433A
:102040002168C8602068C06C800880002168C8646E
:102050006169E06908432168C96C08432168C86464
:1020600000BFFF202168486200BF012121200155E7
:102070000020A2E7BFFF8FFF054A0168914206D109
:1020800004490969012292041143024A116170470F
:102090000028004040100240F8B504460D461646A0
:1020A000002700BF2020005D012801D10220F8BDDB
:1020B00001212020015500BF022121200155002EC1
:1020C00009D1687810210840102804D16878EF21E0
:1020D00008400A306870002E11D1E87800F06BFDDE
:1020E0000304687800F067FD00020343A87800F05D
:1020F00062FD03432878400303431F4612E06878DB
:1021000000F04CFD0746A87800F048FD0746E87847
:102110000004697809020843A9780843297849032B
:102120000843074600BFCA2021684862532021683F
:10213000486200BF204600F04BFD00280ED000BFD3
:10214000FF202168486200BF04212120015500BF03
:1021500000212020015500BF0120A8E71948384080
:10216000216848602068C068802188432168C86071
:102170002068806820210840002813D1204600F004
:10218000CDF800280ED000BFFF202168486200BFB4
:1021900004212120015500BF00212020015500BF4E
:1021A000012084E700BFFF202168486200BF0121B1
:1021B0002120015500BF00212020015500BF002033
:1021C00075E700003FFFFF00F8B504460D461646D0
:1021D000002700BF2020005D012801D10220F8BDAA
:1021E00001212020015500BF022121200155002E90
:1021F0001BD12068806840210840002800D002E000
:102200000020E87000BF287800F0D5FC030468784F
:1022100000F0D1FC00020343A87800F0CCFC03439B
:10222000E878000403431F4618E0206880684021D6
:102230000840002804D0287800F0B0FC074602E0EF
:102240000020E87000BF287800046978090208437C
:10225000A9780843E97809040843074600BFCA2063
:102260002168486253202168486200BF204600F080
:10227000AFFC00280ED000BFFF202168486200BFDD
:1022800004212120015500BF00212020015500BF5D
:102290000120A4E720483840216808602068806851
:1022A000012189048843216888602969E868084316
:1022B000216889680843216888602068C068802197
:1022C00088432168C8602068806820210840002871
:1022D00013D1204600F022F800280ED000BFFF20C6
:1022E0002168486200BF04212120015500BF002160
:1022F0002020015500BF012071E700BFFF202168A9
:10230000486200BF01212120015500BF002120208B
:10231000015500BF002062E77F7F7F0070B5044653
:1023200000252068C068A02188432168C860FEF7A6
:102330005DFD054608E0FEF759FD401B7D21C90003
:10234000884201D9032070BD2068C0682021084060
:102350000028F0D00020F6E7034800690221084376
:10236000014908617047000000E000E0042806D140
:102370000649096904221143044A116105E0034931
:10238000096904229143014A1161704700E000E0AD
:102390007047000070B504462546681E094988420A
:1023A00001D901200CE0681E074948610321081F7C
:1023B00000F06AFB002004498861072008610020C2
:1023C00070BD0000FFFFFF0000E000E010B5FFF768
:1023D000DFFF10BD704770470146002200236920CF
:1023E000425C6A20435C104618437047F8B50446C7
:1023F0002068C569206806682807000F00900098CB
:1024000000280BD120202840002807D02020304071
:10241000002803D0204600F01EFEF8BD2068876823
:10242000009800287ED0F807C00F002804D1FF20B4
:10243000213030400028F5D0E807C00F00280BD02D
:10244000FF2001303040002806D0012021680862BA
:10245000E06E01210843E0660220284000280AD0EF
:10246000F807C00F002806D0022021680862E06E3D
:1024700004210843E0660420284000280AD0F80719
:10248000C00F002806D0042021680862E06E0221F7
:102490000843E0660820284000280ED02020304065
:1024A000002803D1F807C00F002806D008202168B3
:1024B0000862E06E08210843E066E06E002841D023
:1024C00020202840002806D020203040002802D0BC
:1024D000204600F0C0FDE06E08210840002805D12C
:1024E0002068806840210840002826D0204600F05F
:1024F00091FD2068806840210840002819D020689C
:102500008068884321688860606E00280DD0264866
:10251000616E8863606EFEF7D7FA002812D0606E95
:10252000816B00E00FE088470CE02046FFF753FF87
:1025300008E02046FFF74FFF04E02046FFF74BFF7F
:102540000020E06669E7012000052840002811D03E
:1025500001208005384000280CD0012000052168AA
:1025600008622021692001556A2001552046FFF7A5
:1025700031FF52E780202840002807D080203040DB
:10258000002803D0204600F0A7FF46E7402028405F
:10259000002807D040203040002803D0204600F01B
:1025A0004AFD3AE700BF38E7FD2F000810B50446A2
:1025B000002C01D1012010BDA069002800D000E04E
:1025C00000BF6920005D002805D100216820015569
:1025D000204600F02DF8242169200155206800686C
:1025E0004008400021680860606A002802D0204648
:1025F00000F052FC204600F077FD012800D1DAE718
:10260000206840680921C902884321684860206821
:1026100080682A2188432168886020680068012139
:10262000084321680860204600F0AEFCC3E70000C4
:1026300010B586B0044629492068884217D1284839
:10264000406B012189030843254948630320400268
:1026500001900220029001200390032004900420A6
:10266000059001A905200007FEF7B4FA33E01D49E3
:102670002068884216D11A48806B0121490408431A
:10268000174988630C2001900220029001200390DA
:10269000032004900420059001A905200007FEF7FF
:1026A00099FA18E010492068884214D10C48806BD0
:1026B0000121090508430A49886318200190022076
:1026C000029001200390032004900620059001A9A8
:1026D0000648FEF77FFA06B010BD00000038014042
:1026E0000010024000440040005000400004005030
:1026F00010B503466A20C05C20286AD1002901D0A9
:10270000002A01D1012010BD012424039868A042B1
:1027100008D11869002805D1C807C00F002801D0CA
:102720000120F0E700BF6820C05C012801D1022031
:10273000E9E701246820C45400BF59655820C252FB
:102740005A20C25200BF24039868A0420AD11869D7
:10275000002803D1204C5C20C45220E0FF245C20E0
:10276000C4521CE0986800280AD11869002803D1D7
:10277000FF245C20C45212E07F245C20C4520EE08F
:10278000012424079868A04209D11869002803D1C0
:102790007F245C20C45202E03F245C20C45200BF6E
:1027A0000020D86622246A20C45400BF0024682078
:1027B000C45400BF18688068012420431C68A060CE
:1027C00018680068FF24213420431C682060002022
:1027D00099E7022097E70000FF01000010B50446CA
:1027E0001E49206888421AD11D48817A0289FF3823
:1027F000FD3881541A480089401C81B21848018173
:10280000FEF7F4FA17498860012115480173008921
:1028100081218900884202DB00211148018112498F
:102820002068884218D11148817A0289FF38FD3822
:1028300081540E480089401C81B20C480181FEF78A
:10284000D5FA0B490860094800898121890088422E
:1028500002DB00210548018110BD0000004400405A
:10286000C40300204800002000500040D405002090
:10287000D4030020FEB504460D4616461F46002030
:1028800001906920005D20286AD1002D01D0002E22
:1028900001D10120FEBD01210903A068884208D1B1
:1028A0002069002805D1E807C00F002801D00120C9
:1028B000F0E700BF6820005D012801D10220E9E7B0
:1028C00001216820015500BF0020E0662121692018
:1028D0000155FEF78BFA0190502006535220065303
:1028E00025E05220005B401E81B252200153009728
:1028F000002280212046019B00F027FE002801D005
:102900000320C7E701210903A06888420BD1206991
:10291000002808D10295029D2888C005C00D2168B5
:102920008862AD1C03E028786D1C21688862522003
:10293000005B0028D5D10097002240212046019B52
:1029400000F003FE002801D00320A3E72021692026
:10295000015500BF00216820015500BF002099E704
:10296000022097E770470000024903A001F0AEF98A
:1029700000BFFEE77147000825730D0A0000000044
:1029800010B515481549086000211448016401205C
:102990008007124948600021104881600521C16309
:1029A000012101610021C160012101620021416218
:1029B000C162FF21C23181620021016304214161B2
:1029C0000021416381618163C161FDF745FF0028FA
:1029D00001D0FDF737FF10BD002401405006002054
:1029E00010B50E480E490860E12040024860002101
:1029F0000B488160C16001610C214161002181614E
:102A0000C16101620020064948620846FFF7CEFD19
:102A1000002801D0FDF716FF10BD0000003801406E
:102A20007400002010B5144814490860E1204002E9
:102A30004860002111488160C16001610C21416141
:102A400000218161C161016200200C494862084691
:102A5000FFF7ACFD002801D0FDF7F4FE00220421B1
:102A60001C20FEF703FA1C20FEF7F4F901220449AA
:102A70000248FFF73DFE10BD00440040E400002086
:102A8000CE0300207047000010B5002819DA1A4A5A
:102A900003071B0F083B9B089B00D2588307DC0EE3
:102AA000FF23A3409A438B071B0E8407E40EA34029
:102AB0001A43114B0407240F083CA408A4001A5120
:102AC00018E00E4A03231B02D21883089B00D25839
:102AD0008307DC0EFF23A3409A438B071B0E84075A
:102AE000E40EA3401A43054B032424021B19840857
:102AF000A4001A5110BD00001CED00E000E100E050
:102B00007047000010B50146002300222048C0682D
:102B1000F0242040002829D11D48806B012424077F
:102B20002040002806D01B4800680324E40220400F
:102B3000034613E01648806B012424072043144CFD
:102B4000A063144800680324E402204003461048B0
:102B5000806B01242407A0430D4CA0630320C00216
:102B6000834203D1C000814200D101220A4800689B
:102B7000400840001043084C206020460068C00711
:102B8000C00F904201D0012010BD0020FCE70000E2
:102B9000001002400070004000200240014600BFCB
:102BA000F020084000110A23584302460807000F8E
:102BB0008018C0B270470146002203E0521C08464C
:102BC0000A38C1B20A29F9D21007000E084370472B
:102BD00070B5044600252068C068402108400028E0
:102BE00015D1401E2168C860FEF700F9054608E0CF
:102BF000FEF7FCF8401B7D21C900884201D9032063
:102C000070BD2068C068402108400028F0D0002036
:102C1000F6E7000010B50248FFF786F910BD000086
:102C20002C06002000B587B01D481E490860002012
:102C300048607F211B488160FF21C1600021016144
:102C40008161C161FFF7B4F9002804D016A001F03A
:102C50003DF8FDF7F7FD00216846C172017241722F
:102C60008172002005900690002202A90D48FFF70E
:102C7000ABFA002801D0FDF7E5FD0121684601719E
:102C8000417181711121C171002201A90548FFF72D
:102C900003FA002801D0FDF7D5FD07B000BD000004
:102CA000002800402C06002048414C5F5254435FEE
:102CB000496E6974206572726F72200D0A000000FF
:102CC0007047000010B5FEF797F8FFF77FFB054847
:102CD0000068401C0349086003480068401C024922
:102CE000086010BD100000201400002030B59DB019
:102CF0002A4800680321C90288430121C9024018FB
:102D00002649086005200F90012000041090001251
:102D1000119002201990C1031A9141041B914105A1
:102D20001C910FA8FEF760FD002801D0FDF78AFD79
:102D30000F200A9003200B9000200C900D900E9015
:102D400000210AA8FEF7B8FB002801D0FDF77AFDA4
:102D50002B2000900020039004900120000401909B
:102D60006846FEF753FA002801D0FDF76BFD1020EE
:102D700001F042FCFEF79CFC05467D21C900FDF7F1
:102D8000B7F90446FFF706FB0420FFF7EFFA00222D
:102D90001146501EFEF76AF81DB030BD00700040AD
:102DA00010B52148806B0121090708431E4988633B
:102DB0001E4800680321C90288430121C902401846
:102DC0001A49086000BF1848006801210904084337
:102DD0001549086000BF00BF13480068012149047D
:102DE0000840400C0028F7D00F480068C90108438C
:102DF0000D49086000BF0C480068012149060840E1
:102E0000400E0028F7D00848C06880088000C01C29
:102E10000549C86000BF0448C0680C2108400C2860
:102E2000F9D1FFF799FA10BD001002400070004080
:102E300015480068FF21013108431349086008461E
:102E4000C068124908401049C86008460068104927
:102E500008400D49086008468068400840008860C6
:102E6000084600680121890488430749086008462C
:102E7000C068FD21090488430349C8600020086137
:102E8000C803044988607047001002400C40FF8866
:102E9000F6FFF6FE00ED00E0818CC907C90F00299E
:102EA00008D001684968012252049143826A1143A3
:102EB000026851600222416A1140002907D001686E
:102EC0004968D2039143C26A1143026851600422E7
:102ED000416A1140002907D00168496812049143F2
:102EE000026B1143026851600822416A11400029B7
:102EF00007D00168496812039143426B114302688D
:102F000051601022416A1140002907D00168896888
:102F100012029143826B1143026891602022416A40
:102F20001140002907D00168896812029143C26BE1
:102F30001143026891604022416A1140002915D076
:102F40000168496892039143026C11430268516021
:102F500001221205016C914208D1016849680322DF
:102F600052059143426C1143026851608022416ACC
:102F70001140002907D00168496812039143826C0F
:102F8000114302685160704738B50446002500209F
:102F9000E066FDF72BFF0546206800680821084021
:102FA00008280BD114482B460022890400902046A3
:102FB00000F0CBFA002801D0032038BD206800685B
:102FC0000421084004280BD10B482B460022090598
:102FD0000090204600F0B9FA002801D00320ECE769
:102FE0002021692001556A20015500BF0021682079
:102FF000015500BF0020E0E7FFFFFF0170B5054667
:10300000AC6A00215A200153522001532046FFF799
:10301000E2F970BD01680968FF222132914302681C
:10302000116001688968490849000268916020229E
:103030006A210A54704710B5044620680068402190
:103040008843216808602021692001552046FFF748
:1030500089FC002010BDF8B504465C20075B6A209F
:10306000005D222837D12068406A85B2012109031A
:10307000A06888420AD12069002807D1666D2846D9
:1030800038403080606D801C606505E0F8B22840F3
:10309000626D511C616510705A20005B401E81B248
:1030A0005A200153002914D120680068FF212131E2
:1030B00088432168086020688068400840002168D3
:1030C000886020216A2001552046FFF787FB0020F9
:1030D000F8BD0020FCE720688069082108432168CA
:1030E00088610220F4E70000F0B587B004460025AF
:1030F00010260020059004900390EA492068884239
:1031000001D1012000E00020002800D000E000BF35
:103110002169A068084361690843E16908430546DD
:1031200020680068E049084028432168086020685A
:103130004068032109038843E16808432168486027
:10314000A569D8492068884201D1012000E000200B
:10315000002801D1206A0543206880680B210902FC
:10316000884328432168886000BFD049206888428E
:1031700017D1CF48C0688007800F002806D00128EB
:1031800008D0022804D0032808D105E0012607E072
:10319000022605E0042603E0082601E0102600BF11
:1031A00046E0C4492068884217D1C148C0680C2154
:1031B0000840002806D0042808D0082804D00C288D
:1031C00008D105E0002607E0022605E0042603E01A
:1031D000082601E0102600BF2AE0B749206888428F
:1031E00001D1002624E0B5492068884201D100269B
:1031F0001EE0AC49206888421AD1AD48C06803215E
:1032000089020840002808D001218902401A08D00C
:10321000401A04D0401A08D105E0002607E0022633
:1032200005E0042603E0082601E0102600BF00BFE9
:1032300000BF0220FDF724FE07469A492068884215
:1032400001D1012000E00020002856D00025042EE6
:103250001AD004DC002E07D0022E1CD108E0082E64
:1032600016D0102E17D117E0FEF728FA054616E003
:103270008F4840380068102108400009002801D01C
:103280008F4D00E08F4D0AE0FEF73CFA054606E060
:103290000125ED0303E000BF0120039000BF00BF44
:1032A000002D0AD0606841004018A84203D8606829
:1032B0000003A84202D201200390EFE06068029070
:1032C0002846FF21013100F028FD626852080023E2
:1032D0008018594101910090029AFCF71FFF0546A2
:1032E00003200002854205D37748854202D8206832
:1032F000C560D3E001200390D0E00121C903E0695B
:10330000884269D1042E3DD006DC002E09D0012E62
:1033100011D0022E4DD11BE0082E40D0102E48D1E6
:1033200048E07A0063685B08D0186168FCF7E0FE4B
:1033300080B2049041E0FEF7D3F94000616849088B
:10334000401802906168FCF7D3FE80B2049034E02C
:10335000574840380068102108400009002808D06C
:1033600061684A08594BD018FCF7C2FE80B204903D
:1033700007E061684A08564BD018FCF7B9FE80B2E6
:1033800004901AE0FEF7BEF9400061684908401851
:1033900002906168FCF7ACFE80B204900DE06168B9
:1033A0004A0801231B04D018FCF7A2FE80B2049047
:1033B00003E000BF0120039000BF00BF454904980F
:1033C0000840059004980007400F059908430590B0
:1033D00005982168C86061E0042E42D006DC002E0A
:1033E00009D0012E14D0022E53D11EE0082E45D054
:1033F000102E4ED14EE0FEF761F961684908401881
:1034000002906168FCF774FE80B22168C86044E0F5
:10341000FEF766F961684908401802906168FCF798
:1034200067FE80B22168C86037E0214840380068F4
:10343000102108400009002809D061684A08204B83
:10344000D018FCF755FE80B22168C86008E06168BA
:103450004A081C4BD018FCF74BFE80B22168C860AC
:103460001BE0FEF74FF96168490840180290616857
:10347000FCF73EFE80B22168C8600EE061684A0831
:103480000123DB03D018FCF733FE80B22168C8604B
:1034900003E000BF0120039000BF00BF039807B006
:1034A000F0BD000000480040F369FFEF0038014024
:1034B0004010024000440040004C004000500040DA
:1034C00000093D000024F400FFFF0F0000127A0005
:1034D0000048E801F0FF000001466920405C212817
:1034E00031D15220405A00280DD10868006880234D
:1034F00098430B68186008680068402318430B68FD
:1035000018600020704701231B03886898420CD183
:103510000869002809D1CA6C1088C005C00D0B6865
:103520009862C86C801CC86405E0CB6C581CC864E9
:1035300018780B6898625220405A401E83B252207D
:1035400043520020DEE70220DCE7FFB581B00446ED
:103550000D4617460A9E24E0701C002821D0002E3C
:1035600005D0FDF743FC0499401AB04219D92068F0
:103570000068FF21A13188432168086020688068C5
:1035800040084000216888602021692001556A2098
:10359000015500BF00216820015500BF032005B080
:1035A000F0BD2068C0692840A84201D1012000E098
:1035B0000020B842D0D00020F1E7000010B5134839
:1035C000FEF714FF0024FDF711FC044605E0FDF7AB
:1035D0000DFC001B142800D904E00C48FEF7FCFE8B
:1035E0002028F4D100BFFDF701FC044605E0FDF7FB
:1035F000FDFB001B142800D906E001220449034802
:10360000FFF776F80028F2D100BF10BDE4000020DB
:10361000CE03002010B51648FEF7E8FE0024FDF7A3
:10362000E5FB044608E0FDF7E1FB001B142800D988
:1036300007E010A000F04AFB0D48FEF7CDFE202861
:10364000F1D100BFFDF7D2FB044608E0FDF7CEFB49
:10365000001B142800D909E00AA000F037FB012262
:103660000B490348FFF744F80028EFD100BF10BD15
:103670005401002074696D656F75742D2D313120F2
:103680000D0A000074696D656F7574200D0A0000E5
:10369000DE050020FEB504462EA00068019004203F
:1036A00001F020F82C4948600322486801A9FCF782
:1036B00065FD207828494968C870042026490870AB
:1036C0000020009032E0002707E023484068C15DF9
:1036D00022A000F0FBFA781CC7B2042FF5DB21A072
:1036E00000F0F4FA204801691B4888476420FDF780
:1036F00045FA1D49886980470546FDF777FB064670
:1037000000BF207AA84205D0FDF770FB801B6168DE
:103710008842F6D3207AA84200D10AE0FF202D305B
:10372000FDF72CFA0098401CC0B2009000980328C6
:10373000C9DB00BF084A11785068FCF738FD0B4A16
:1037400011785068FCF733FD0349486800F06CFFBE
:10375000FEBD0000FF000400580000202530327834
:10376000200000000D0A0000BC06002048000020D8
:10377000F8B50E2000F0B6FF33494860FF204968D5
:103780000870002030494968487002202E49496875
:10379000C8702D494968081D0A222CA1FCF7EEFCCF
:1037A0000E20294949688870274840688078264952
:1037B000087000273FE028A000F088FA002607E004
:1037C00021484068815D29A000F080FA701CC6B2D3
:1037D0001D480078B042F3DC26A000F077FA2648B6
:1037E0000169194888476420FDF7C8F922498869AA
:1037F00080470446FDF7FAFA054600BF012C04D0C5
:10380000FDF7F4FA401BC828F8D3012C00D114E0CE
:10381000032C0DD0432C06D118A000F057FA1E48F7
:10382000FDF7ACF905E0FF202D30FDF7A7F900E02A
:1038300003E0781CC7B2032FBDDB00BF0249486814
:1038400000F0F2FEF8BD00005800002068656C6CC6
:103850006F776F726C6400007374617274207365AB
:103860006E6420646174610D0A00000025303278B6
:10387000200000000D0A0000BC0600202D2D2D5751
:10388000726974696E6720726567697374657265C1
:10389000642D2D2D0D0A0000409C0000F1B582B072
:1038A0002AA000680190052000F01CFF284948600C
:1038B0000422486801A9FCF761FC2549029849687F
:1038C000087105202249087000272DE0002607E036
:1038D0001F484068815D1FA000F0F8F9701CC6B257
:1038E000052EF5DB1DA000F0F1F91D48016918480F
:1038F00088476420FDF742F91949886980470446E2
:10390000FDF774FA054600BF202C04D0FDF76EFACF
:10391000401BC828F8D3202C00D107E0FF202D3011
:10392000FDF72CF9781CC7B2032FCFDB00BF084A84
:1039300011785068FCF73BFC0A4A11785068FCF794
:1039400036FC0349486800F06FFEFEBDFF0005220B
:103950005800002025303278200000000D0A0000B9
:10396000BC0600204800002010B50948094908603D
:1039700009484860094888600948C86009484861A2
:1039800009480861094888610868804710BD00003F
:10399000F9390008BC060020D5390008B139000803
:1039A000AD3A0008B93C0008953C0008D53A00083B
:1039B00010B500220121490305200007FDF70FFA89
:1039C0000120FDF7DBF80122510305200007FDF778
:1039D00006FA10BD10B50122910305200007FDF77E
:1039E000FEF90120FDF7CAF8002201214903052054
:1039F0000007FDF7F4F910BD00B587B000BF2848F7
:103A0000C06A012108432649C8620846C06AC00747
:103A1000C00F019000BF00BF00BF0846C06A02216E
:103A200008431F49C8620846C06A02210840019045
:103A300000BF00BF012002901A48039001200490AB
:103A400002A905200007FDF7C5F8032040030290F6
:103A50000120039004900320059002A9052000078F
:103A6000FDF7B8F8012080030290002003900120A8
:103A700004900320059002A90B48FDF7ABF8012242
:103A8000510305200007FDF7AAF9002202210520B5
:103A9000FDF7ECF90520FDF7DDF907B000BD0000EA
:103AA00000100240000011100004005010B550201A
:103AB000FDF764F8034988698047034903A000F0D3
:103AC00005F910BDBC060020C247000825730D0A89
:103AD0000000000010B5FDF789F968498968401AAF
:103AE000142875D96648007B002871D000216448ED
:103AF00001730146088900F0F5FD6049486060499E
:103B00000A895E4948685F49FCF738FB5C48007ADF
:103B10005A4908705A4801895A48FCF748FB002165
:103B200057480181002407E054484068015D56A0D1
:103B300000F0CCF8601CC4B250480078A042F3DC1E
:103B400053A000F0C3F84D480078042876D14B48C4
:103B500040688078042807D148484068C078012828
:103B600002D1464908737AE04448406880780428C6
:103B700007D142484068C078022802D13F49087303
:103B80006DE03E4840688078042807D13B48406893
:103B9000C078032802D13949087360E0374840688B
:103BA0008078042807D135484068C078202802D1A1
:103BB0003249087353E0314840688078042808D1BE
:103BC0002E484068C078212803D12C49087346E06C
:103BD00050E02A4840688078042807D12748406888
:103BE000C078402802D12549087338E0234840684E
:103BF0008078042807D121484068C078412802D144
:103C00001E4908732BE01D4840688078042807D1BE
:103C10001A484068C078422802D1184908731EE04B
:103C2000164840688078042819D114484068C07844
:103C3000432814D11149087311E0FFE70F480078B9
:103C400005280CDB0D4840680078FF2807D10B4899
:103C500040684078002802D1442008490873074A88
:103C600011785068FCF7A3FA0020044908704868EE
:103C700000F0DAFC0148007B10BD00004800002085
:103C8000C4030020C8010020253032782000000045
:103C90000D0A000010B5044622780023DB430448D7
:103CA0006168FEF7E7FD45200249087310BD00007A
:103CB000E40000204800002010B5012189030248DB
:103CC000FDF784F810BD0000000400500FB410B5DB
:103CD00003A9044B044A029800F0F2F810BC08BC97
:103CE00004B018470D460008680000202021020C8F
:103CF00001D010211046020A01D0104608390209ED
:103D000001D01046091F820801D01046891E4208C2
:103D100001D0881E7047081A7047F8B582B28BB27E
:103D2000040C0D0C10465843002126465E43370C08
:103D300036048019794116466E43370C36048019D3
:103D4000794126466E438919F8BD02E008C8121F62
:103D500008C1002AFAD170477047002001E001C174
:103D6000121F002AFBD17047F0B51FB484B007982A
:103D70000699020D014314D04A484B491018484394
:103D800005140F9801280E981CD0281A401C0024F6
:103D9000464E4749009401910290002814DA4742A8
:103DA00027E00F98012443A3012808D0002104989C
:103DB0000F9A84600360C260416009B0F0BD0E9844
:103DC000C143F4E74042E2E7074612E0F80707D0B4
:103DD0002246334601990098FCF7C8FA01910090F9
:103DE0002246334610461946FCF7C0FA04460E46F2
:103DF0007F10002FEAD10298019B0028009A0799B2
:103E0000069802DAFCF7B2FA01E0FCF717FB044669
:103E10000E460022284BFCF7A9FB03D80020C04324
:103E2000014607E00022254B20463146FCF7ECF91D
:103E3000FCF77CFB102409E0002C0ADB0A2200239B
:103E4000FCF76CF9059B30321A55641E02460A4392
:103E5000F2D11122641C059B121B1C190F9B012B14
:103E600003D0012308430ED10AE0084304D01120F7
:103E70000E9000200F9084E70E98151A6D1E0BE02F
:103E80000E98824202DD00236D1C03E0824201DABB
:103E900000236D1E002BEED004980F998260C16044
:103EA00030C08AE701FCFFFF104D000000002440F5
:103EB0000000F03F300000000000F0430000E03F51
:103EC000FFB597B00646002518E2252877D10024D3
:103ED0002746FD49049400E00443761C3278012013
:103EE000203A90400842F7D130782A280ED002229A
:103EF000307801463039092916D804990A235943E4
:103F0000303940181443761C0490F1E7189802C821
:103F100004911890002904DA012040030443484228
:103F2000049002200443761C30782E2814D10420FB
:103F300004437078761C2A2809D11898761C80C80A
:103F4000189009E00A214F43303FC719761C30789A
:103F5000014630390929F5D930786C2810D006DCB3
:103F60004C281AD068280ED06A2817D104E074288B
:103F700013D07A2812D110E00120400504430CE050
:103F80000121090501E0032109050C4371788142F3
:103F900003D1012000052418761C761C307811907E
:103FA00066280BD013DC58287DD009DC00287BD094
:103FB0004528F6D04628F4D047281AD1A5E118E0C4
:103FC000632835D0642870D0652812D19DE170280F
:103FD0006CD008DC6728F1D069287BD06E280DD022
:103FE0006F2806D1BAE073282ED0752871D07828B2
:103FF00059D01A9A199990476D1C7EE16002400FC2
:10400000022809D003280DD00428189801680DD083
:104010000D60001D189070E11898EA1701680D6096
:104020004A60F6E7189801680D80F2E70D70F0E736
:1040300018986A4601781172001D1890002050727D
:1040400002A80090012005E0189802C818900020EE
:104050000091C04361070DD5002101E00199491C81
:104060000191B94212DA8142F8DB009A515C0029D1
:10407000F4D10BE0002101E00199491C019181423A
:10408000FADB019A0099895C0029F5D1019904981D
:104090001A9B471A21463846199A00F097FA019957
:1040A000401945180BE04FE02CE113E04EE000987A
:1040B00000990078491C00911A9A19999047019823
:1040C000401E0190401CF2D1214638461A9B199A95
:1040D00010E137E00A200021009001916002410FB9
:1040E000022907D0189A01CA1892C21794460329C8
:1040F00008D00AE01898C01DC108C90005C9189168
:10410000944607E000B2C2179446042902D140B297
:10411000C1178C4600226146944506DA0A46002102
:10412000404291418C462D2102E0210504D52B21EE
:104130006A461173012103E0E10701D02021F7E76E
:10414000029155E00A200AE0102008E010200090BB
:104150000021042004430191082703E008200021E6
:10416000019100906002410F022907D0189A01CAFC
:10417000189200229446032908D008E01898C01D20
:10418000C108C90005C91891944603E080B204290A
:1041900000D1C0B200210291210729D511997029BF
:1041A00006D0009A1021019B4A401A4305D00EE028
:1041B00040216A461173012108E06146014306D09F
:1041C00030216A4611731199517302210291009AAC
:1041D0000821019B4A401A430AD16146014301D19B
:1041E000610705D530216A46117301217F1E0291B6
:1041F0001199582904D035A10E910DA90D910DE00A
:1042000037A1F9E76146019B009AFBF787FF0E9BF8
:104210008C469B5C0D9A521E0D92137061460143B1
:10422000F0D10D9805A9081A20300190600703D538
:1042300001200004844300E001270198874201DD4A
:10424000381A00E0002001990090411802980918DE
:104250000498401A0490E00306D421461A9B199A48
:10426000049800F0B3F94519002706E003A81A9A4C
:10427000C05D199990476D1C7F1C02988742F5DB41
:10428000E0030CD521461A9B199A049800F09EF978
:10429000451904E01A9A3020199990476D1C00992D
:1042A000481E00900029F5DC08E00D980D99007873
:1042B000491C0D911A9A199990476D1C0199481E35
:1042C00001900029F1DC63E109280100303132332B
:1042D0003435363738396162636465660000000042
:1042E000303132333435363738394142434445462C
:1042F0000000000000F05AF94519761C30780028BB
:1043000000D0E2E528461BB0F0BD600700D40627C8
:104310001898C01DC108C90048680A680831C30F51
:10432000DB071891190001D09CA108E0210501D5F7
:104330009BA104E0E10701D09AA100E09AA143000B
:1043400011985B08109165280CD006DC452809D02F
:1043500046281DD0472841D141E0662818D067285B
:104360003CD13CE00021112F01DB112000E0781C42
:104370000191009008A911A8FFF7F6FC1399059187
:104380000021119A15927F1C12980197009150E01C
:104390000120C00703900120019008A9009711A8EF
:1043A000FFF7E2FC139A149905920022119B0092E8
:1043B00012981593059A0192002901D0104602E047
:1043C000791C40180190381A01D5019804E0404248
:1043D000401E0090781C0190C01B029043E0012F0A
:1043E00000DA01270021112F01DD112000E03846FD
:1043F0000191009008A911A8FFF7B6FC1399059147
:10440000119A0021129815920091019721070CD45E
:104410000599B94201DB019900E00191012904DD10
:10442000159A491E515C302906D0B84201DA011DA7
:1044300005DA0121029115E00199491EEDE70028F6
:1044400005DC0099411800910199091A03E0019ACD
:10445000411C914200DD01910099401A401C0290DC
:104460000120C0070390200706D4029901988142D9
:1044700002DB0020C043029000206946C87707AFE6
:10448000012103980337C907884224D002201190E4
:104490002B201290039800280CDA404203902D2024
:1044A000129007E00A210398FBF722FE30317F1EAD
:1044B000039039701199481E11900029F2DC03987D
:1044C0000028EFD1791E129808703078202108401A
:1044D0004530BF1E387006A8C01BC01D0390109841
:1044E0000078002800D00120019941180298C017D7
:1044F0000918039809180498401A401E0490E00314
:1045000006D421461A9B199A049800F05FF84519C1
:1045100010980078002803D01A9A199990476D1CBA
:10452000E00324D521461A9B199A049800F04EF80E
:1045300045191CE00098002807DB0099059888427F
:1045400003DD1598405C199901E0199930201A9AF9
:10455000904700986D1C401C00900298401E0290ED
:10456000002804D11A9A2E20199990476D1C0199A0
:10457000481E01900029DDDC05E038781A9A7F1C7E
:10458000199990476D1C0399481E03900029F4DC8B
:1045900021461A9B199A0498ACE600002D000000F1
:1045A0002B0000002000000000000000F8B50446C9
:1045B00000251E461746880404D405E0394620200D
:1045C000B0476D1C641EF9D52846F8BDFFB50446FA
:1045D000002581B01E46C80301D5302700E0202702
:1045E000880404D505E038460399B0476D1C641E65
:1045F000F9D5284605B0F0BD10B504460420FDF7F6
:10460000B5FE0148046010BD0800002013B50C463B
:10461000034B012269460348FEF72CF901201CBD1B
:10462000FFFF00007400002010B5002823D0124BBB
:104630000022001F196803E0814203D80A46496836
:104640000029F9D1002A0AD01368841A9C4204D1A7
:10465000006818181060104602E0506000E0186012
:10466000002907D002680B1A934203D10B68D218B5
:1046700002604968416010BD6C000020FCF70EF834
:104680000BA20EA110A0FFF721FB1548FFF702F8BF
:1046900013481830FEF7FEFF11482430FEF7FAFFEA
:1046A0000020FFF7FBF8FFF763F800BFFEE700000C
:1046B0004A756C20313220323031380031313A3590
:1046C000393A34370000000054494D45203A20253E
:1046D00073202044415445203A2025730D0A0000E0
:1046E00018000020F0B50B30C108C900144F002697
:1046F000144A0FE003688B420BD38B4205D95C1A36
:104700004318456830C3083B00E04368136002C0AB
:1047100004E0021D10680028ECD13046002803D1C7
:104720003868002801D00020F0BD064A0648106015
:10473000064A121AD208D20044C001203860D7E7D6
:10474000700000206C000020DC060020D80800204B
:104750000000000000000000010203040607080931
:104760000000000001020304030406080C101820D6
:1047700030486172644661756C745F48616E646C48
:104780006572005254435F49525148616E646C65D2
:10479000720048414C5F5254435F416C61726D41FD
:1047A0004576656E7443616C6C6261636B00555352
:1047B000415254345F355F49525148616E646C65B3
:1047C00072005A657461496E746572727570740016
:1047D000F047000800000020740000004A3D000877
:1047E0006448000874000020640C00005A3D000872
:1047F00080841E0000000000000000000000000097
:10480000000000000000000010000000DC050000B7
:104810004400000011000000E80300004400000014
:1048200012000000F401000044000000130000002A
:10483000E803000044000000000000000000000049
:104840000000000045000000000000000000000023
:104850000000000045000000000000000000000013
:044860000000000054
:04000005080000C12E
:00000001FF
