:020000040800F2
:10000000101F0020D500000863610008395A00085D
:1000100000000000000000000000000000000000E0
:10002000000000000000000000000000056A000859
:10003000000000000000000015620008697F000851
:1000400009960008E700000819640008E7000008A6
:10005000E7000008D5160008E5160008F5160008A8
:10006000E7000008E7000008E7000008E7000008D4
:10007000E7000008E7000008498A00082D81000811
:10008000E7000008E7000008E700000800000000A3
:10009000E7000008E7000008E7000008E7000008A4
:1000A000E7000008E7000008E7000008E700000894
:1000B000F1890008B1620008E7000008E7000008C5
:1000C0000348854600F072FD0048004735A400084B
:1000D000101F00200448804704480047FEE7FEE761
:1000E000FEE7FEE7FEE7FEE7C5800008C100000866
:1000F00030B50B46014600202022012409E00D46C0
:10010000D5409D4205D31D469540491B2546954047
:1001100040191546521E002DF1DC30BD70B500248B
:100120002546002801DA01244042002901DA012590
:100130004942FFF7DDFFAC4200D04042002C00D026
:10014000494270BDF0B51FB40646002082B0054696
:100150004024019100901BE0019922460F46304651
:1001600000F0DEFA049A059B801A994110D31046DC
:100170001946224600F0C4FA361A8F4101972246EA
:1001800001200021009F00F0BBFA38184D4100907B
:100190002046641E0028DFDC019B00982946324679
:1001A00007B0F0BD03460B439B0703D009E008C925
:1001B000121F08C0042AFAD203E00B780370401C17
:1001C000491C521EF9D27047D2B201E00270401CA5
:1001D000491EFBD270470022F6E710B513460A46C7
:1001E00004461946FFF7F0FF204610BD30B505461E
:1001F0002A460B4610781C78521C5B1C002801D044
:10020000A042F7D0002C03D0002802D06D1CEFE7ED
:10021000284630BD421C0178401C0029FBD1801AC1
:10022000704710B5002200E0521C835C8C5CA34236
:1002300001D1002BF8D1D8B2E1B2401A10BD032190
:10024000001D401E037812021A43491EF9D51046BC
:100250007047034603220870000A491C521EFAD553
:10026000184670470FB400B58DB009900B9010A9D7
:1002700000200091C0430A9000200C900648069090
:10028000064807906A4609A80F9900F06FFA0DB06A
:1002900008BC04B0184700008D070008AD0700082F
:1002A000FFB50027FF4383B000205C6801909E6883
:1002B0001D46A9697F1C049888470090296A8847D1
:1002C0000028F6D10098401C0CD003204002844343
:1002D000002E19DD600614D500982B2809D02D2892
:1002E0000FD103E00020C04307B0F0BD0120800221
:1002F0000443A9697F1C04988847761E0090002E4D
:1003000002DD0098302803D00598002825D035E07C
:10031000012040020443A969761E7F1C0498884787
:100320000090002E03DD782805D0582803D00598CA
:10033000002810D022E00598002801D010281DD1F7
:10034000012040028443A969761E7F1C04988847D7
:100350000090102002E0082000E00A2005900DE047
:10036000012149020C43059A0199761E5143081850
:100370000190A9697F1C049888470090002E05DD34
:100380000599009800F0DDF90028E9DAE969049898
:100390008847A00502D40120C043A5E7E00722D189
:1003A000600611D56005019800D5404229680A1DF4
:1003B0002A600968220501D5087014E0220701D5DA
:1003C000088010E008600EE02868011D29600068C0
:1003D000210502D50199017005E02107019901D598
:1003E000018000E0016038467EE7F8B502464A40E9
:1003F000D40F42004B0052085B089A4202D20246D8
:10040000084611464A0023D0C30D4A00DDB2120E41
:10041000AD1A202D35DA49020126490AF6058A1956
:10042000002C00D0524220214F1B1146B9402A41D6
:100430001018C20D9A4221D0002C17D0012D08DCD3
:10044000DA05801AD20F8019D207DBB200F0C8F9A2
:10045000F8BDDA05801A012340001B06C018801879
:100460005A428018CA0F1043490007E04908C207E2
:100470001143DA05801A80194008801800F0A8F9A5
:10048000F8BD61000122511A001BF7E70122D207D3
:100490005140AAE70122D2075040A6E7024670B5B4
:1004A0004A40D30FDB0740002DD04A002AD0010E6E
:1004B000140E000212020919400A520A8418E501BA
:1004C00004465443000A120A2E045043A419421948
:1004D000200CC543AA18120C0125AD03521C521959
:1004E00012047F39240400D0521C104301D4400070
:1004F000491EC2B20C06C0092018401C4008802AC0
:1005000002D003E0002070BD40084000002900DA5E
:100510000020184370BD70B502464A40D50F400018
:100520004A00ED0740085208002814D0002A12D0D3
:10053000C40DD30D41020120C0055202490A520ADE
:10054000E41A091812187D34914201D3641C00E0AA
:100550004900002C01DA002070BD0023914201D334
:10056000891A0343400849000028F7D100290AD01E
:10057000914202D10121C90705E0914201D2012136
:1005800001E00121C943E005C018401900F020F93D
:1005900070BD0000F0B50C465C4085B0E40FE40788
:1005A00003944C000026640859009446490802460A
:1005B0000296224321D062460A431ED06200570DA4
:1005C0004A000E032303550D012402462C4924053D
:1005D000781B1B0B360B40182343264361460090C3
:1005E0001C46501AB44103D30098401C009002E00E
:1005F000921800985B41002803DA0020014605B0FC
:10060000F0BD0020012109050746864611E0644639
:100610001D46141BB54106D36546521BB3417446B3
:1006200007430C43A646CD074008490828439218C3
:100630005B4105460D43EAD11046184313D060468E
:10064000194650407140084306D06046101AB34125
:1006500006D20122002306E000220123DB0702E08C
:100660000122D2435310009874460105381C6141A1
:10067000029C039D0019694100F0EBF8BFE7000000
:10068000FD03000010B500229623114600F0A8F8E3
:1006900010BD00000EB505490291002100910A46E7
:1006A0000B46019100F0E2F803B000BD33040000F6
:1006B000410040020122400AD205090E80187F291C
:1006C00001DA00207047962903DC9622511AC840AF
:1006D0007047963988407047C20FD20740004008E3
:1006E0000BD0C10D0723DB01C91840020905400AE0
:1006F0001143C2084007114370470020014670476C
:1007000010B5202A04DB0146203A9140002010BD9C
:10071000914020239C1A0346E3401943904010BDAA
:1007200010B5202A04DB0846203AD040002110BD35
:100730000B46D340D0402024A21A914008431946CA
:1007400010BD3A2800D23038202302469A43412A6D
:1007500001D310463738884201D30020C043704788
:1007600002681378511801601846704710B5D160BF
:10077000044951610449116200211161114600F0E0
:1007800041FA10BD61070008F70B00084268002A13
:1007900008D001680B78491C002B03D0521E06C0FC
:1007A000184670470121C160881E70474268002AC0
:1007B0000BD0C3680168002B07D183688B4204D03B
:1007C000491E521C06C0002070470020C0437047DD
:1007D000002904DA401C490001D14008400070475C
:1007E00070B40024050C05D11024000402D10029A6
:1007F00021D01124050E01D100020834050F01D1CA
:100800000001241D850F01D18000A41C002801DBFC
:100810004000641C002908D020252E1B0D46F54001
:10082000A14000D001212943084301061B1B000AF7
:10083000DB1D02D5002070BC7047DB05181880183E
:100840000029F8DA401C4900F5D170BC400840008E
:10085000704710B5002B08DA0024401C6141921843
:100860005B411A4301D14008400010BDF0B51FB4F0
:1008700082B005460C0003D0084609F043F902E0B7
:1008800009F040F920300246009021462846FFF743
:1008900037FF049B059A04460F461843114308434B
:1008A00014D0184610431BD0009840210A1A18464D
:1008B0000599FFF735FF05460E46009A05990498FD
:1008C000FFF71EFF084305D0012004E0204639460B
:1008D00007B0F0BD0020C11705430E432C4337433A
:1008E00000990E986305401A7905E40A00220C432A
:1008F000FD0A0A3002D500200146E9E7010510197A
:1009000069410C9C0D9D00196941FFF7A2FFDFE7CB
:10091000F0B507460846584087B0C00F049048001D
:100920000E46590040084908BC1A884105D238468D
:1009300031461E4617460B460246580040081043F3
:100940004CD0300D039040055900400D490D0590E5
:10095000401A0290402872DA18030121000B0905A1
:100960000843019004980092002805D00199524252
:100970000020884100920190029840210A1A0199B2
:100980000098FFF7BDFE05460C466B4607CB00F00E
:100990001FF9C0197141039A0E0D0023D717564055
:1009A0001A467A40164344D0049A002A2DD0029A5F
:1009B000012A039A15DC1205C01A91410126360559
:1009C000001C7141D20F059ED2070093019202963E
:1009D0002A462346FFF74AFF07B0F0BD38463146A6
:1009E000FAE71605224A0F46B218C01AB74101218C
:1009F0000905001C4F4100187F4111461818794124
:100A0000E20F10436D19644113E0E2076D081543CE
:100A10006408C2071443039A01261205C01A9141C3
:100A20003605001C7141CE07400830434908C01804
:100A300051412A462346FFF70CFFCDE7FFE7049814
:100A400001224000C117121A00238B41049831463D
:100A5000C417381AA141EEE730B40124E40763401B
:100A600030BC55E730B40124E407614030BC4FE7A7
:100A70000000E0FFF0B51FB488B00B99099800247E
:100A800048400999C00F490049080991C0070B99CE
:100A90000090490049080B9109990898A646084317
:100AA0001CD00B990A98084318D0099801244000DB
:100AB000420D4800410D099824050003000B204316
:100AC00009900B980003000B20430B9050181C4911
:100AD0004018002201901446104605E0002001460F
:100AE0000DB0F0BD032801DA034600E003239C4665
:100AF000C11A0AAE0AE05F0008ADED5B4F00F75B7C
:100B00007D430027AA187C41491C5B1E6145F2DD2C
:100B1000410004AB5A522104120C0A43240C401C1D
:100B20000828DFDB0198029000997046019100903F
:100B3000059B049A07990698FFF798FED0E70000F6
:100B40000DFCFFFF4A0009030123090B1B05194394
:100B50000A4B10B5520D9A4202DA0020014610BD30
:100B6000064B34339A4203DC9A1AFFF7D9FD10BDC5
:100B7000034BD218FFF7C4FD10BD0000FF030000B7
:100B8000CDFBFFFF10B5002904DB0124E407404240
:100B90008C412146002B04DB1C460123DB0752421B
:100BA000A341994200D1904210BD0000064C01259E
:100BB000064E05E0E36807CC2B430C3C9847103405
:100BC000B442F7D3FFF780FA24B0000844B000081D
:100BD00010B5202A06DBCB170846203A1041C11772
:100BE0000B4306E00B461341D0402024A21A91404B
:100BF0000843194610BD10B50F21C0B2490200F0DC
:100C00009DF910BDF3B58DB000200A9001200B9026
:100C1000002608460C300C460990626901210998AB
:100C20009047051E2ED0252D2DD0216A88470028FB
:100C300018D06269012109989047216A88470028E5
:100C4000F7D1411E62690998904700E0761CA169BE
:100C50000D988847216A88470028F7D1E1690D98E7
:100C60008847DAE7A1690D9888470746A84201D16D
:100C7000761CD2E7E1690D9888477F1C02D10A985B
:100C8000002877D049E1002762693D463946099836
:100C900090472A280CD162690121099890470125C3
:100CA00006E00A214F433F18303FEBD410200543A4
:100CB0006269012109989047014630390A2903D217
:100CC0009B498F42DEDCECE7E90600D4994F6C28A3
:100CD0000AD04C2810D0682824D06A282ED0742836
:100CE0000CD07A280AD00DE062690121099890475A
:100CF0006C2823D004211CE02020054362690121D7
:100D000009989047A760656065284FD026DC582871
:100D100039D01ADC452849D012DC252834D04128A6
:100D2000B0D143E06269012109989047682802D058
:100D300008210D43E6E70120C002DEE70220DCE7E0
:100D4000462833D047282CD130E05B2870D061286A
:100D50002CD063286CD0642823D161E06F284FD059
:100D600009DC662822D0672820D0692826D06E2882
:100D700017D12EE0CDE070284DD073286FD07528A4
:100D80004ED078280DD154E0A1690D9888470546CA
:100D9000252800D16CE7E1690D9888476D1C00D1CA
:100DA0006DE7BAE00A224CE00A2252E00120234615
:100DB0006A46C0430D99C046C046A3E0284640217C
:100DC00008436060A807234601D5002239E00022CD
:100DD0003FE0E80700D020E72068011D216000689F
:100DE000290501D5067018E7290701D5068014E703
:100DF000A90703D5F117066041600EE706600CE70E
:100E00002846402108436060A807234601D50822F0
:100E100017E008221DE0484928460840606016E0B7
:100E20002846402108436060A8072346BCD5B9E79F
:100E300015E02846402108436060A80707D52346EF
:100E400010220120C0430D99C046C0465AE02346F7
:100E500010220120C0430D99FFF722FA52E0002131
:100E60000C910B460091632802D05B2807D043E029
:100E7000E80601D40120A060012000903CE06269F6
:100E80000121099890475E2805D101200C90014668
:100E90006269099890472169002906D10B4601AA89
:100EA0008F00491CD3510829FADB002835D021696D
:100EB00000290ED1C117C90E09184A11930001AAC1
:100EC0009A1849094901411A0120136888400343CF
:100ED000136062690121099890475D28E5D10C985B
:100EE000002808D0002001AB81005A58401CD24392
:100EF0005A500828F8DB01AB01202246C0430D9967
:100F0000C046C04600280ADA401C06D10B980028CB
:100F100003D00020C0430FB0F0BD0A98FBE7E907FB
:100F200002D10A99491C0A91361800200B9074E6E8
:100F3000CCCCCC0CFFFFFF7FF1F7FFFF7F2801D95E
:100F4000002207E0054B42089A5CC00700D1120955
:100F50001207120F012090400840704776A6000843
:100F600070B58C180578401C6B075B0F01D10378B6
:100F7000401C2A1106D10278401C03E006780E704E
:100F8000401C491C5B1EF9D12B0705D40023521EBF
:100F90000DD40B70491CFAE70378401CCB1A921C45
:100FA00003E01D780D70491C5B1C521EF9D5A1424F
:100FB000D8D3002070BD70B5044600252068806835
:100FC000042108408008002829D020688068084053
:100FD00000280BD02068806802210840002805D135
:100FE00020688068102108432168886001F0CCFEE9
:100FF00005460EE001F0C8FE401B0A2809D9A06D85
:1010000010210843A065E06D01210843E06501203F
:1010100070BD20688068042108400028EAD10020C3
:10102000F6E7000038B50446074908480068FFF7AE
:101030005FF86043009002E00098401E0090009826
:101040000028F9D138BD000040420F000000002008
:1010500070B504460025206880688007800F01284D
:1010600007D120680068C007C00F002801D0012008
:1010700000E00020002837D0206880680521084063
:10108000012800D100E0002000280AD000BF20681D
:101090008068022108432168886003202168086075
:1010A00009E0A06D10210843A065E06D012108430F
:1010B000E065012070BD01F067FE05460EE001F01D
:1010C00063FE401B0A2809D9A06D10210843A065C2
:1010D000E06D01210843E0650120EBE720688068AE
:1010E000C007C00F0028EAD10020E3E770B504462E
:1010F0000025206880688007800F012807D12068BC
:101100000068C007C00F002801D0012000E00020C7
:10111000002839D1206880681C490840002801D186
:10112000012000E00020002809D1A06D1021084313
:10113000A065E06D01210843E065012070BD2068D5
:10114000806801210843216888600120FFF76AFF59
:1011500001F01AFE05460EE001F016FE401B0A28BB
:1011600009D9A06D10210843A065E06D0121084355
:10117000E0650120E2E720680068C007C00F012198
:10118000484048400028E7D00020D7E717000080FB
:10119000FEB504460D460026002000900194012073
:1011A0000003029001A91B4801F060F8002801D05B
:1011B00000F0CEFA0021174800F0ECFF002717E0FE
:1011C000144801F0ABFA6421124801F033FA00BF71
:1011D000104801F0EFF80121490208400028F7D03B
:1011E0000C4801F0EAF8009000983618781CC7B255
:1011F000AF42E5DB074801F0CDFA019406480290C2
:1012000001A9044801F032F829463046FEF770FF84
:10121000FEBD0000200E00200110000010B50122CC
:101220005102024801F0A9FD10BD00000004005069
:1012300010B5002201214902014801F09EFD10BDB8
:101240000004005000B585B001204002009001204C
:10125000019000200290032003906946084801F0A5
:1012600083FCFF20C130009000200190029069466D
:10127000034801F079FCFFF7DBFF05B000BD00007B
:101280000004005000B587B05348806B0121090766
:1012900008435149886300BF0846C06A01210843DA
:1012A0004D49C8620846C06AC007C00F019000BF20
:1012B00000BF00BF0846C06A022108434649C86211
:1012C0000846C06A02210840019000BF00BF00BF6D
:1012D0004148C06A042108433F49C8620846C06AC1
:1012E00004210840019000BF00BF00BF3A48C06A17
:1012F000802108433849C8620846C06A80210840F6
:10130000019000BF00BF06F0E9FD344801F074F918
:10131000002032498865324803F05CFF00213048E4
:10132000603041722F4803F055FF00212D48603096
:1013300041722D4803F04EFF00212B48603041726E
:101340002A4803F047FF00212848603041722848AE
:10135000029003200390022004900020059002A92F
:101360000520000701F000FC2248029003200390B2
:10137000022004900020059002A91F4801F0F4FB10
:1013800002A91E4801F0F0FB1D48029003200390C3
:10139000022004900020059002A91A4801F0E4FB05
:1013A00003F006FD0C48C06A400840000A49C862C4
:1013B0000846C06A022188430749C8620846C06AD5
:1013C000042188430449C8620846C06A80218843D2
:1013D0000149C86207B000BD00100240200E002085
:1013E000780800202807002098070020080800201F
:1013F000FFF70000FFFF000000080050001C005035
:10140000FFCF00000004005008B54D4800780028C8
:101410003FD101F0C7FC06F0B5FD00BF4948C06AE6
:10142000042108434749C8620846C06A04210840AD
:10143000009000BF00BF00BF4248C06A802108433F
:101440004049C8620846C06A80210840009000BF39
:1014500000BF00BF3B48C06A022108433949C86247
:101460000846C06A02210840009000BF00BF00BFCC
:101470003448C06A012108433249C8620846C06A3C
:10148000C007C00F009000BF00BF01202C490870AA
:1014900039E006F0CFFD00BF2A48C06A04210843A6
:1014A0002849C8620846C06A04210840009000BF6D
:1014B00000BF00BF2348C06A802108432149C86299
:1014C0000846C06A80210840009000BF00BF00BFEE
:1014D0001C48C06A022108431A49C8620846C06A0B
:1014E00002210840009000BF00BF00BF1548C06A3D
:1014F000012108431349C8620846C06AC007C00FEB
:10150000009000BF00BF04F0FDFB04F09BFB05F062
:10151000BBF9FFF797FE04F08BFF002203210220A6
:1015200001F07EFC022001F06FFC04F0C3FA06F02B
:10153000F3FB05490868804703494868804708BDB0
:101540000C000020001002403CA6000870B50246C6
:101550000F48002312E0D55C684000240AE0C5076C
:10156000ED0F002D03D040100A4D684000E0401000
:10157000651CECB2082CF2DB5D1CEBB28B42EADBA3
:10158000FF252D0205402D1256187570505470BD60
:10159000FFFF000001A0000030B502460B4600200E
:1015A00013E01478521C604008210CE080240440B1
:1015B000002C04D0440031256C40E0B201E0440628
:1015C000200E4C1EE1B20029F0DC1C465D1EEBB281
:1015D000002CE6D130BD0000F0B587B000200590AA
:1015E000069000BF0A212848FFF7D2FD694688828D
:1015F0002649098B4A008A186946898A4A43104657
:10160000FFF740F804900A212148FFF7C1FD80B29E
:101610006946C882C98A0A03501AFFF733F8039053
:1016200003990498FEF777FF1A490290FEF736FFF8
:101630000746FFF751F8019100906846838AC28AF5
:101640001248018B14A008F04DFA03990498FEF794
:1016500062FF10490290FEF721FF07461B49FEF783
:1016600015FF06461A49FEF756FF0546FFF720F814
:10167000C4B2642C01DB642402E0052C00DC0324EA
:10168000204607B0F0BD0000020000046000F81F13
:10169000000002440000FA44424154203D202564E9
:1016A000206164633137203D202564202C20616453
:1016B0006330203D2025642C2056424154203D209B
:1016C000252E32666D56200D0A000000000061458F
:1016D0000000C04010B5012001F036FA022001F0F0
:1016E00033FA10BD10B5042001F02EFA082001F0E5
:1016F0002BFA10BD10B5102001F026FA202001F0C1
:1017000023FA402001F020FA802001F01DFAFF208A
:10171000013001F019FA0120400201F015FA012010
:10172000800201F011FA0120C00201F00DFA01203F
:10173000000301F009FA0120400301F005FA01203D
:10174000800301F001FA0120C00301F0FDF910BD92
:1017500010B502A008F0C6F910BD00006572726FE6
:10176000720D0A008168002907D0016809680968BC
:1017700020221143026812681160704738B5044690
:10178000002C5ED02820005D00285AD02068006818
:10179000006820210840002828D06946206807F00A
:1017A0005BF9002821D1A06800281ED06846007887
:1017B000E28AA1688854E08A401C80B2E082E18914
:1017C000884201DB0020E082608BE189884203DAF5
:1017D000608B401C608301E0E08A2083606A0028FF
:1017E00003D068460078616A884700BF20680068B7
:1017F000006880210840002823D0A08A00280CD14E
:101800002068006800688843216809680860206AC9
:10181000002816D0206A804713E0638A6268D15C92
:10182000206807F027F900280BD1608A401C80B29D
:101830006082A189884201DB00206082A08A401E6C
:10184000A08238BD70B504460D46012008F098F915
:10185000668B002008F094F9002E04D0002D02D0F1
:10186000A068002801D1012070BD218BA068405CD8
:101870002870012008F084F9208B401C80B220835E
:10188000E189884201DB00202083608B401E608359
:10189000002008F075F90020E6E7F0B5069D059CEC
:1018A0000160426083608481C58100260682468291
:1018B000C682068346838682079EC661089E0662AC
:1018C000099E4662012628273E54F0BD00210A4A9F
:1018D00051610A494968012252021143074A516085
:1018E0001146496808221143044A51600021C20987
:1018F000D201116070470000100700200020024054
:10190000002039498969FF2201321140914208D1F2
:101910003649496902221143344A5161FF2101319C
:10192000084331498969012252021140914208D18C
:101930002E494969012211432C4A51610121490272
:10194000084329498969012292021140914208D134
:101950002649496908221143244A5161012189021B
:101960000843214989690122D2021140914208D1DC
:101970001E494969042211431C4A51610121C902CF
:10198000084319498969012252031140914208D143
:101990001649496910221143144A51610121490332
:1019A000084311498969012252041140914207D12B
:1019B0000E494969202211430C4A516120210843F4
:1019C00009498969012212041140914208D107494D
:1019D000496940221143054A516101210904084324
:1019E0000149886170470000002002401007002074
:1019F00070B5044601F0C8F905460BE0601C0028EC
:101A000008D0002C04D001F0BFF9401BA04201D93E
:101A1000032070BD1F488069C007C00F0028EDD1AA
:101A20001C48806902210840022801D119498861B7
:101A300018488069FF2101310840884223D01548A9
:101A400080694900084088421DD0124880694900D9
:101A50000840884217D00F488069490008408842F2
:101A600011D00C4880698900084088420BD0094891
:101A7000806909010840884205D0064880694910FC
:101A80000840884203D1FFF73BFF0120C1E7002057
:101A9000BFE700000020024001460120C00681424D
:101AA00008D30648808F000480090122D2068018DE
:101AB000884201D2002070470888FCE74000F81FE8
:101AC00070B503460E4615460120C00683420AD370
:101AD0006800C0180C49898F090489090122D206BF
:101AE0008918884201D9002070BD002407E01846FB
:101AF000FFF7D2FF610070529B1C601C84B2AC42A5
:101B0000F5DB0120F0E700004000F81F014601204E
:101B1000C006814208D30648808F00048009012254
:101B2000D2068018884201D2002070470868FCE77E
:101B30004000F81F10B5024600230120C006824273
:101B40000AD30F48808F000480090124E406041999
:101B500010468030844201D2002010BD5006400E55
:101B6000002801D00020F8E7134603E01868086059
:101B70001B1D091D104680308342F7D30120ECE77E
:101B80004000F81FF7B5A2B004461546802102A810
:101B9000FEF721FB002001900120C00684420AD3F9
:101BA000A80000192349898F090489090122D20656
:101BB0008918884202D9002025B0F0BDA007800F07
:101BC000002801D00020F7E7202D01D90020F3E7FD
:101BD000260A3602E7B2F809002801D08036803F95
:101BE000A800011930468030814201D90020E3E786
:101BF00002A93046FFF79EFF012801D00020DBE755
:101C0000002001900EE02398BA080168019810188E
:101C1000800002AA11502398001D23900198401CB7
:101C200080B201900198A842EDDB02A9304600F095
:101C300003F8C1E74000F81FF0B585B004460E4632
:101C40000027002004900120C00684420AD32A48BD
:101C5000808F000480090121C90641182046803088
:101C6000814202D2002005B0F0BD6006400E00287F
:101C700001D00020F7E700F09BFE002001900294C5
:101C800001200390002519E004A901A800F012FE2C
:101C9000002810D000F054FE2A460146009017A0FC
:101CA00007F020FF322000F0F7FD092D04D100F0ED
:101CB0004DFE0020D7E703E0681CC5B20A2DE3DB28
:101CC00000BF274610E039460220326800F048FE87
:101CD000002802D13F1D361D06E010A007F002FFCC
:101CE00000F034FE0020BEE7204680308742EAD371
:101CF00000F02CFE0120B6E74000F81F455241538A
:101D00004520464C415348204552524F523A2025D7
:101D1000782069203D2025640D0A000057726974FF
:101D20006520466C617368204572726F720D0A00FF
:101D30000149087870470000080000200146024869
:101D40004843024A105C704713020000DC0F002079
:101D500000B587B000BF1048C06A022108430E4991
:101D6000C8620846C06A02210840019000BF00BF57
:101D7000C8020290112003900020049003200590D7
:101D800002A9064800F0F0FE01221103034800F00A
:101D9000F4FF07B000BD0000001002400004005036
:101DA00010B501221103024800F0E7FF10BD00004A
:101DB00000040050F0B58FB006460024FD222146F5
:101DC000641C72546F48807E01287DD16D48203894
:101DD0008078002878D06B491C396B4804F028F8CB
:101DE00069488630FEF72BFA0746FEF753FC0022BF
:101DF000664B05910490FEF7CDFB0991089062486F
:101E00008130FEF71CFA0746FEF744FC00225F4BC8
:101E100005910490FEF7BEFB079106905A4880306A
:101E2000807A04900999089803910290564880306E
:101E30004079009056A0079B069A07F053FE52483F
:101E40008130FEF7FCF90A904F48803040790B90C2
:101E50004D488630FEF7F3F90C904B488030807A7D
:101E60000D90002534E02846E90F09184910490073
:101E7000691A012907D1A8000AA90A5C2046611C39
:101E8000CCB2325422E0A8000AA90858000E21461C
:101E9000621CD4B27054A8000AA908580002020EAD
:101EA0002046611CCCB23254A8000AA9085A00048A
:101EB000020E2046611CCCB23254A8000AA90A5C6A
:101EC0002046611CCCB200E015E03254681CC5B25B
:101ED0000B2CC8DB01202B492039C87001212A486E
:101EE0008030C1722748C476002005F049FF2F4892
:101EF00002F0D4FF43E000F047FF22492039C96CCB
:101F0000401A2B4988423AD91E4820388078002848
:101F100035D01C48807E032831D100F035FF1949A7
:101F20002039C96C451A294622A007F0DBFD0221A1
:101F30001448817624498868804700201149203957
:101F40000870081DFEF766F9054629460D481C383D
:101F5000FEF741F901200B492039C87000210A48D9
:101F60008030C17201222046611CCCB23254054837
:101F7000C476002005F004FF0C4802F08FFF0FB07C
:101F8000F0BD000004060020341A0020006AF8406A
:101F900032322D2D2D252E3566202531632C20251E
:101FA0002E3566202531630D0A000000940E0020B6
:101FB000E09304004750535F54494D453232203A74
:101FC0002025640D0A00000090A5000810B500202F
:101FD0000C4908708870487003210A4820308176C7
:101FE0000949086880470849C8688047012005F00A
:101FF000C7FE00F0C9FE0349C864044802F03EFF72
:1020000010BD0000E405002090A50008940E0020FB
:1020100000B587B000BF0F48C06A022108430D49D0
:10202000C8620846C06A02210840019000BF00BF94
:10203000C80202900120039004900320059002A999
:10204000054800F091FD03F07FFE06F00BF907B0A4
:1020500000BD0000001002400004005010B52F49E0
:1020600048688047002400BF2D4B0E222DA1314827
:1020700003F048FC7D20C00000F00EFC641C4821E9
:102080002DA007F02FFD2F480078002801D10A2C41
:10209000EAD900F079FE2B498864084600780028C8
:1020A00007D10A2C05D95021274807F01BFD002035
:1020B00010BD2448007800282DD000BF1C2000F05F
:1020C00097FE174B342221A11A4803F01BFC1C2059
:1020D00000F09AFEC82000F0DFFB1A484078002884
:1020E000ECD000BF00201749087048701C2000F099
:1020F0007FFE0B4B132222A10E4803F003FC1C2091
:1021000000F082FEC82000F0C7FB0E48807800284F
:10211000E8D00120CCE70020CAE7000090A5000825
:10212000FFFF000024504D544B3130332A33300D23
:102130000A000000980700206C696E65203D20258C
:10214000640D0A00E405002054AF000824504D54EB
:102150004B3331342C312C302C302C302C302C3073
:102160002C302C302C302C302C302C302C302C308F
:102170002C302C302C312C302C302A32380D0A00E7
:1021800024504D544B3232302C313030302A3146CD
:102190000D0A0000F8B5044600250026002700BF00
:1021A0005420005D012801D10220F8BD01215420F6
:1021B000015500BF206880688007800F012806D184
:1021C000206800680840002801D0012000E00020BD
:1021D00000283FD1A06DFF2101318843022108432F
:1021E000A0652068C0688707BF0F2068C0688008A6
:1021F00080002168C860206880680121C907084301
:102200002168886000F0C0FD064611E000F0BCFDCA
:10221000801B0A280CD9A06D022188431021084395
:10222000A06500BF00215420015500BF0120BCE77C
:1022300020688068C00FC0070028E7D12068C06808
:1022400038432168C860A06D0221884301210843FA
:10225000A06504E0A06D20210843A065012500BF12
:1022600000215420015500BF28469EE770B5044662
:102270000D4600BF5420005D012801D1022070BD31
:1022800001215420015500BF2068806804210840C6
:10229000800800280AD0A06D20210843A06500BF57
:1022A00000215420015500BF0120E8E73C4968683F
:1022B000884238D02068806A29684903490B08435E
:1022C0002168886228684003400B36490840012194
:1022D0008904884208D1344880684901084332495A
:1022E00088600A20FEF79EFE28684003400B2F49B5
:1022F000084001214904884205D12B4880684901E2
:1023000008432949886028684003400B2849084051
:102310000121090488423BD123488068090208430F
:102320002149886034E02068806A29684903490BA4
:1023300088432168886228684003400B1949084097
:1023400001218904884205D11748806849018843E2
:102350001549886028684003400B14490840012152
:102360004904884205D110488068490188430E49D4
:10237000886028684003400B0D490840012109048A
:10238000884205D108488068090288430649886068
:1023900000BF00215420015500BF00206FE700005E
:1023A0000110000000000448002701400000024422
:1023B000000001400146886D704701460868006CC6
:1023C0007047000010B50446002C01D1012010BD5B
:1023D000A06D002806D1E06500215420015520465B
:1023E00000F00AF9A06D10210840002806D12068ED
:1023F000806804210840800800280AD0A06D1021C0
:102400000843A06500BF00215420015500BF0120F2
:10241000DDE7A06DFF210131884302210843A0655B
:10242000206880688007800F012807D12068006835
:10243000C007C00F002801D0012000E000200028C4
:102440003AD100BF032189076068884207D049421A
:102450006068884203D04900606888420CD12068D7
:10246000006980008008216808612068006961684F
:1024700008432168086112E0206800698000800834
:10248000216808615A4880680F21890488435849A7
:10249000886008468068616808435549886000BFC5
:1024A0002068C068182188432168C8602068C06817
:1024B000A16808432168C8604D4880680121490629
:1024C00088434B49886008468068218F4906084345
:1024D0004749886020688068012109070840002872
:1024E00004D1206880680843216888602068C0683B
:1024F000404908402168C8602169E068022901D18B
:10250000042100E000210843216A49030843216BAC
:1025100049000843616B0843A16989030843E169E5
:10252000C90308432168C96808432168C860FF21BE
:10253000C231A06A884207D0E16AA06A08432168D4
:10254000C96808432168C860606A012812D1206AFE
:10255000002807D12068C0680121090408432168C8
:10256000C86007E0A06D20210843A065E06D01214F
:102570000843E065206C012817D120680069FF211D
:102580008900884321680861616CA06C0843E16C94
:1025900008432168096908432168086120680069C7
:1025A00001210843216808610BE020680069C00729
:1025B000C00F002805D0206800694008400021684D
:1025C000086120684069C008C0002168486120682F
:1025D0004069E16B0843216848610020E065A06D17
:1025E0000221884301210843A0650020EFE6000096
:1025F000002701401902FEFF10B586B004460B49C2
:102600002068884210D10A48406B491508430849A0
:10261000486301200190032002900020039001A94B
:102620000520000700F0A0FA06B010BD002401400C
:1026300000100240F8B504460D46002600276069E8
:10264000082801D1082711E02068C068C007C00F22
:1026500000280AD0A06D20210843A06500BF0021FA
:102660005420015500BF0120F8BD0C2700F08CFB61
:10267000064614E0681C002811D0002D04D000F09C
:1026800083FB801BA8420AD9A06D04210843A065E2
:1026900000BF00215420015500BF0320E4E720685B
:1026A000006838400028E5D0A06D012149020843A8
:1026B000A0652068C068032189020840002825D150
:1026C000206A002822D120680068082108400828D4
:1026D0001CD12068806804210840800800280DD1A2
:1026E000206840680C21884321684860A06DFF2164
:1026F0000131884301210843A06507E0A06D202136
:102700000843A065E06D01210843E065A069002849
:1027100002D10C20216808600020A5E770B50446AE
:1027200000252068806804210840800800282BD1FB
:1027300000BF5420005D012801D1022070BD01219D
:102740005420015500BFE069012803D02046FEF760
:10275000CDFC0546002D18D1A06D0D490840FF2184
:1027600001310843A0650020E06500BF002154202E
:10277000015500BF1C202168086020688068042182
:1027800008432168886000E002252846D6E700005B
:10279000FEF1FFFF70B50446002500BF5420005D28
:1027A000012801D1022070BD01215420015500BF34
:1027B0002046FEF700FC0546002D0CD12046FEF712
:1027C00047FC0546002D06D1A06DFF21013188434D
:1027D00001210843A06500BF00215420015500BF1E
:1027E0002846E0E770B5044600252520005D022854
:1027F00003D00420E063012549E0206800680E2131
:10280000884321680860206800684008400021680B
:10281000086020492068884201D1012026E01D4936
:1028200014312068884201D110201FE01949283155
:102830002068884201D1801518E016493C31206893
:10284000884201D1801411E0124950312068884239
:1028500002D10120000409E00E4964312068884259
:1028600002D10120000501E00120000609490839D4
:10287000486001212520015500BF00212420015579
:1028800000BFA06B002802D02046A16B88472846D5
:1028900070BD00000800024031B5002400F074FA59
:1028A000044600BF00F070FA001B00998842F9D37B
:1028B00038BD0000F8B504460E460127002500BFCC
:1028C0001C48007C012801D10220F8BD01201949D3
:1028D000087400BF1848FFF78BF80746002F22D175
:1028E000401E3060656817E02846FEF7EFFF12488B
:1028F000FFF77EF8074611484068082188430F49D2
:10290000486008464068491588430C494860002FD4
:1029100001D0356006E08035A068C00161684018CC
:10292000A842E1D800BF00BF00200249087400BFE0
:102930003846CAE71007002050C3000000200240BC
:1029400001484069704700001007002003484068B4
:1029500002210843014948600020704700200240DE
:10296000F8B507460C461546012600BF0E48007C08
:10297000012801D10220F8BD01200B49087400BFD5
:102980000A48FFF735F80646002E06D10649486189
:1029900025600648FFF72CF8064600BF00200249D4
:1029A000087400BF3046E6E71007002050C300005F
:1029B0000D48406802210840002810D00A484068AD
:1029C000C007C00F002804D008480749C86008485D
:1029D000C8600848044908610748086101E001200F
:1029E00070470020FCE7000000200240EFCDAB89DB
:1029F00005040302BFAE9D8C16151413F0B50B46EB
:102A000000210022002479E001258D401D402A4646
:102A1000002A72D005684F000326BE40354305608A
:102A2000CD08AE0005462035AD594E07F70E0F26EE
:102A3000BE40B543CE08B60007462037BD51856875
:102A40004F000326BE40B5438560456801268E4091
:102A5000B5434560C5684F000326BE40B543C56019
:102A6000294D8E08B600AC598D072E0F0F25B540A5
:102A70002C4005252D07A84201D1002519E0234D42
:102A8000A84201D1012514E0214DA84201D102251F
:102A90000FE0204DA84201D103250AE01E4DA842B7
:102AA00001D1042505E01D4DA84201D1052500E016
:102AB00006258E07360FB540A5421ED18D072E0F75
:102AC0000F25B5402C46104D8E08B600AD59A543D4
:102AD0000D4E8F08BF00F551114D2D689543104ED6
:102AE000356035466D68954375603546AD689543EC
:102AF000B5603546ED689543F560491C1D46CD40EF
:102B0000002D81D1F0BD00000800014000040050FC
:102B100000080050000C005000100050001C005035
:102B20000004014010B50446022C08D1054948694B
:102B300080470A2002F0F8FF06F06AF800BF00BFE5
:102B400000BF10BD3CA6000810B50446054840690A
:102B50002040002804D0034844612046FFF7E2FFEC
:102B600010BD00000004014070B50346002200249F
:102B70000020DFE0012696400D6835402C46002CF1
:102B800077D04D68022D02D04D68122D15D1D50891
:102B9000AE001D462035A8595507EE0E0F25B5404D
:102BA0000646AE4330465607F60E0D69B54028433B
:102BB000D508AD001E46203670514D68012D08D055
:102BC0004D68022D05D04D68112D02D04D68122D93
:102BD00018D1986856000325B5400646AE433046E6
:102BE0005600CD68B5402843986058680125954047
:102BF0000646AE43304610264D6835402D099540B7
:102C000028435860186856000325B5400646AE4371
:102C100030460D79AD07AD0F5600B540284318601A
:102C2000D86856000325B5400646AE4330465600E8
:102C30008D68B5402843D860012636074D68354079
:102C4000B54276D13E4D6D6B012635433C4E7563E2
:102C50003C4D9608B600A85995072E0F0F25B54094
:102C60000646AE43304605252D07AB4202D100256E
:102C70001AE05EE0344DAB4201D1012514E0334D42
:102C8000AB4201D102250FE0314DAB4201D103250A
:102C90000AE0304DAB4201D1042505E02E4DAB4298
:102CA00001D1052500E006259607360FB5402843DB
:102CB000244D9608B600A851284D28680546A5431E
:102CC0002846012636044D683540B54202D10546F6
:102CD00025432846214D286068680546A5432846B7
:102CE000012676044D683540B54202D1054625439C
:102CF00028461A4D6860A8680546A543284601265F
:102D000036054D683540B54202D105462543284673
:102D1000124DA860E8680546A543284601267605B9
:102D20004D683540B54202D10546254328460B4D36
:102D3000E860521C0D68D540002D00D01AE770BD28
:102D4000001002400800014000040050000800503C
:102D5000000C005000100050001C00500004014006
:102D6000024613690B40002B01D0012000E0002037
:102D7000704742694A4042617047002A01D0816130
:102D800000E0816270470000014800687047000061
:102D90000400002002480068401C01490860704798
:102DA0000400002010B5064800684021084304498B
:102DB0000860002000F006F800F018F8002010BDB0
:102DC0000020024070B504467D21C9000648006815
:102DD000FDF78EF9054601F0CBFF00222146501E7B
:102DE00000F01EF8002070BD0000002070470000B9
:102DF00000BFC206D20E01219140024A116000BFFD
:102E00007047000080E100E000BFC206D20E012141
:102E10009140024A116000BF7047000000E100E0ED
:102E200070B504460D4616462946204603F09AF929
:102E300070BD000003480068012189020843014970
:102E40000860704700700040034800680121490293
:102E5000084301490860704700700040034800685B
:102E6000102188430149086070470000007000404D
:102E700010B5024600200E4B1868800880000346FB
:102E8000134318460A4B18600A4B1B69042423435A
:102E9000084C2361012901D130BF02E040BF20BFAF
:102EA00020BF044B1B690424A343024C236110BDC3
:102EB0000070004000ED00E0F0B585B0054600264A
:102EC0000020039002900024002701900090102D14
:102ED0007ED008DC012D7CD0022D7BD0042D7AD051
:102EE000082D79D13BE1202D0AD0402D51D0E81F8B
:102EF000F938002871D007210902401AF1D100E009
:102F000000BFC64806690069032109040840044659
:102F100001200004844206D1C0113040002802D0B4
:102F20006010029034E001204004844206D1022067
:102F30003040002802D0BA48029029E00320000463
:102F4000844223D1B5484038006801214904084033
:102F500000281BD0B1484038006821010840039088
:102F6000012109050398401A09D0401A04D0401ADB
:102F700008D1AC48029008E0AB48029005E0AB48AD
:102F8000029002E0AA48029000BF01E000200290F7
:102F90003FE1A248C0680121890608400446002C90
:102FA00042D19E48403800684910084000283BD074
:102FB0009A484038C0680F2189040840074697485E
:102FC0004038C0680321890508400190B80C05E02D
:102FD000EAE03AE064E08FE01AE1F4E095490F5C42
:102FE0000198800D401C01908C484038C068012138
:102FF0000904084000280CD1884840380068102196
:103000000840002802D08A48009004E08A480090D6
:1030100001E08A4800900098784300900199009858
:10302000FDF766F802900FE001208006844209D186
:103030007A484038806802210840002802D0804841
:10304000029001E000200290E3E07448C068840729
:10305000A40F002C03D100F05FFB02901FE0022CB4
:1030600009D16E484038006804210840002802D089
:103070007148029013E0012C03D100F05FFB029035
:103080000DE0032C09D1654800690121490208407F
:10309000002802D08801029001E000200290B8E0F0
:1030A0005E48C0680C2108400446002C03D100F0A3
:1030B00021FB02901FE0082C09D1584840380068D5
:1030C00004210840002802D05B48029013E0042C41
:1030D00003D100F033FB02900DE00C2C09D14F48D6
:1030E0000069012149020840002802D088010290AD
:1030F00001E0002002908CE04848C068032189026A
:1031000008400446002C03D100F0F4FA029025E0B8
:103110000120C002844209D140484038006804219F
:103120000840002802D04448029017E001208002A5
:10313000844203D100F002FB02900FE003208002E2
:10314000844209D13548006901214902084000281C
:1031500002D08801029001E00020029059E02F483F
:10316000C0680321090308400446002C03D100F085
:10317000C1FA029017E001204003844209D1274898
:103180004038006804210840002802D02A480290F4
:1031900009E001200003844203D100F0CFFA02903D
:1031A00001E00020029034E01C484038806B01218F
:1031B00089050840884203D100F09CFA029001E0A2
:1031C0000020029025E01548C0680321090408404A
:1031D0000446002C03D100F08DFA029017E0012084
:1031E0004004844209D10D48403800680421084059
:1031F000002802D01048029009E001200004844217
:1032000003D100F09BFA029001E00020029000E060
:1032100000BF00BF029805B0F0BD000040100240A2
:103220008890000020A1070040420F0080841E000B
:1032300000093D0084A500080024F40000127A0073
:10324000006CDC02F8B50446002600252021206829
:103250000840202804D089012068084088427DD198
:10326000202120680840202800D100BF0121C90288
:1032700020680840884200D100BF00279948806B31
:10328000012109070840002805D19648806B0843B2
:1032900094498863012794480068FF210131084060
:1032A000002816D19048006808438F490860FFF74E
:1032B0006BFD064606E0FFF767FD801B642801D919
:1032C0000320F8BD88480068FF210131084000282C
:1032D000F1D084480068032109050840054660686C
:1032E0000840A84203D1A0680840A8420ED003219C
:1032F000090460680840884208D17A4800680121C2
:1033000049040840002801D00120DAE77548403020
:1033100000690321090408400546002D49D0606872
:103320000840A84204D020212068084020280BD063
:1033300003210904A0680840A8423AD00121C9022B
:1033400020680840884234D1664840300069032133
:103350000904884305466348403000E052E00069B4
:103360000121C90408435F494031086108460069EA
:103370000121C90488435B49403108610846056161
:1033800080152840002814D0FFF7FEFC064607E011
:10339000FFF7FAFC801B5549884201D9032090E7CA
:1033A000504840300069012149020840400A002885
:1033B000EED000BF00BF03210904606808408842C6
:1033C0000AD1484800680901884303221205616850
:1033D000114008434349086000BF4248403000693B
:1033E000032212046168114008433E4940310861DC
:1033F00000BF012F05D13B48806B890588433949BF
:10340000886300BF2078C007C00F002809D0354866
:103410004030C06880088000E1680843314940318D
:10342000C860022120680840022809D12D48403098
:10343000C0680C218843216908432A494031C8608B
:1034400004212068084004280AD126484030C0687A
:103450000321890288436169084322494031C860D9
:1034600008212068084008280AD11E484030C0685A
:10347000032109038843A16908431A494031C86000
:10348000FF2101312068084088420AD115484030A8
:10349000C068032109048843E169084311494031A8
:1034A000C860402120680840402809D10D484030BC
:1034B000C06809058843616A08430A494031C86009
:1034C00080212068084080280AD106484030C06822
:1034D000032189048843216A084302494031C860B6
:1034E0000020EEE60010024000700040881300004B
:1034F00070B504460D46002676480068C007C00F28
:10350000A8420ED273480068400840002843714921
:10351000086008460068C007C00FA84201D001201B
:1035200070BD022120680840022807D16A48C0689F
:10353000F0218843A16808436749C8602078C00724
:10354000C00F00284CD06068022809D1624800688A
:10355000012149040840400C002824D10120DFE764
:103560006068032809D15C480068012149060840C9
:10357000400E002817D10120D2E76068012808D149
:103580005548006804210840800800280BD101201C
:10359000C6E751480068012149020840400A002856
:1035A00001D10120BCE74C48C068800880006168F8
:1035B00008434949C860FFF7E7FB064660680228F0
:1035C0000FD107E0FFF7E0FB801B4449884201D997
:1035D0000320A5E74048C0680C2108400828F1D125
:1035E00034E0606803280FD107E0FFF7CDFB801BB4
:1035F0003A49884201D9032092E73748C0680C2134
:1036000008400C28F1D121E0606801280FD107E0C3
:10361000FFF7BAFB801B3149884201D903207FE7BD
:103620002D48C0680C2108400428F1D10EE007E0C5
:10363000FFF7AAFB801B2949884201D903206FE7C5
:103640002548C0680C2108400028F1D121480068B5
:10365000C007C00FA8420ED91E48006840084000AD
:1036600028431C49086008460068C007C00FA842EC
:1036700001D0012054E7042120680840042808D123
:103680001548C068072109028843E16808431249C8
:10369000C860082120680840082809D10E48C06881
:1036A0000721C90288432169C90008430A49C86043
:1036B00000F044F80849C968F02211400909084A95
:1036C000515CC840074908600020FFF77BFB0020E1
:1036D00026E700000020024000100240881300008E
:1036E0006CA5000800000020014800687047000039
:1036F0000000002000B5FFF7F7FF0549C968072261
:1037000012021140090A034A515CC84000BD000082
:10371000001002407CA5000800B5FFF7E5FF054951
:10372000C9680722D2021140C90A034A515CC84045
:1037300000BD0000001002407CA50008FEB5002579
:103740000026002700240020019000902F48C56823
:103750000C202840002847D0042804D008280ED088
:103760000C2840D10EE029480068102108400028AC
:1037700002D02748009001E02648009042E0264809
:1037800000903FE00F2080042840800C23490E5C0D
:10379000032080052840800D471C1C48C06801217B
:1037A00009040840002807D01B49714308463946E0
:1037B000FCF79EFC044614E0144800681021084001
:1037C000002807D01249714308463946FCF790FC9F
:1037D000044606E00F49714308463946FCF788FC69
:1037E000044600940EE000BF0848406807214903E2
:1037F0000840400B01900198401C01218140C80302
:10380000009000BF00BF0098FEBD00000010024005
:1038100000093D000024F40000127A0084A500088D
:10382000F8B5044600252078C007C00F00287DD0D9
:10383000FE48C0680C21084008280BD0FB48C0682F
:1038400008400C2813D1F948C06801210904084038
:1038500088420CD1F5480068012149040840400C19
:10386000002863D06068002860D10120F8BD00BF47
:10387000012109046068884205D1EC4800680843CA
:10388000EA49086027E005210904606888420ED1F2
:10389000E6480068012189040843E44908600846B5
:1038A0000068012109040843E049086013E0DF488B
:1038B0000068012109048843DC4908600846006863
:1038C000012109040840009000BFD8480068890021
:1038D0008843D649086000BF6068002813D0FFF70E
:1038E00053FA054606E0FFF74FFA401B642801D95A
:1038F0000320BBE7CD480068012149040840400C83
:103900000028F0D012E0FFF73FFA054606E0FFF787
:103910003BFA401B642801D90320A7E7C34800688D
:10392000012149040840400C0028F0D10221206800
:103930000840022868D1BD48C0680C21084004280E
:103940000BD0BA48C06808400C281DD1B748C068E1
:10395000012109040840002816D1B4480068042158
:1039600008408008002804D0E068012801D0012028
:103970007CE7AE4840681F2109028843216909029B
:103980000843AA4948603FE0E068002824D0A748DF
:10399000006809218843E1680843A4490860FFF7EB
:1039A000F3F9054606E0FFF7EFF9401B022801D9BD
:1039B00003205BE79D480068042108408008002838
:1039C000F1D09A4840681F21090288432169090201
:1039D00008439649486017E0944800684008400052
:1039E00092490860FFF7D0F9054606E0FFF7CCF9E9
:1039F000401B022801D9032038E78C4800680421C5
:103A0000084080080028F1D11021206808401028C3
:103A100060D18648C0680C21084000285BD18348EB
:103A20000068012149020840400A002804D0E069EA
:103A3000002801D1012019E77C48616A406807220B
:103A400052031040814219D9606A02F0E5FB002858
:103A500001D001200AE775484068072149038843DF
:103A6000616A084371494860084640680002000ADC
:103A7000218C090608436D49486018E06B4840688E
:103A8000072149038843616A08436849486008463A
:103A900040680002000A218C090608436349486017
:103AA000606A02F0B9FB002801D00120DEE6606AFE
:103AB000400B401C01218140C8035C49C968F022C9
:103AC000114009095A4A515CC8405A49086000200F
:103AD000FFF778F949E0E06900282CD053480068E6
:103AE000FF210131084351490860FFF74DF90546B0
:103AF00006E0FFF749F9401B022801D90320B5E68B
:103B00004A480068012149020840400A0028F0D0D4
:103B100046484068072149038843616A084343498E
:103B20004860084640680002000A218C09060843E4
:103B30003E49486019E03D480068FF210131884353
:103B40003A490860FFF720F9054606E0FFF71CF93F
:103B5000401B022801D9032088E63448006801216F
:103B600049020840400A0028F0D108212068084096
:103B7000082839D1606900281BD02C4840300069E2
:103B800001210843294940310861FFF7FDF8054646
:103B900006E0FFF7F9F8401B022801D9032065E68B
:103BA0002248403000690221084040080028F0D037
:103BB0001AE01E4840300069400840001B4940316F
:103BC0000861FFF7E1F8054606E0FFF7DDF8401B66
:103BD000022801D9032049E6144840300069022137
:103BE000084040080028F0D104212068084004283B
:103BF00077D100260D48806B89060840002805D142
:103C00000A48806B08430949886301260A4800680E
:103C1000FF210131084000281ED1074800680843F1
:103C200005490860FFF7B0F805460EE000100240B5
:103C30006CA500080000002000700040FFF7A4F809
:103C4000401B642801D9032010E6A6480068FF2124
:103C5000013108400028F1D000BFFF210131A068E8
:103C6000884205D1A048006908439F49086130E0B7
:103C7000A06800280DD19C480069FF2101318843CC
:103C80009949086108460069091588439649086101
:103C90001FE005210902A06888420DD19248006901
:103CA0000121890208439049086108460069891585
:103CB00008438D4908610CE08B480069FF21013100
:103CC000884389490861084600690915884386497F
:103CD000086100BFA068002815D0FFF755F8054619
:103CE00008E02FE0FFF750F8401B8049884201D9D7
:103CF0000320BBE57C480069012149020840400AD5
:103D00000028EFD013E0FFF73FF8054607E0FFF784
:103D10003BF8401B7549884201D90320A6E572484B
:103D20000069012149020840400A0028EFD1012E14
:103D300007D16D484038806B310788436A49403964
:103D4000886300BF202120680840202852D1A06944
:103D500000282BD000BF6448403880680121084308
:103D60006149403988600846406B012108435E493B
:103D7000403948635E48006A0121490308435C49B1
:103D8000086200BFFFF700F8054606E0FEF7FCFFFB
:103D9000401B022801D9032068E553484038806859
:103DA0000221084040080028F0D023E000BF4E4820
:103DB00040388068400840004B49403988604C4892
:103DC000006A0121490388434949086200BFFEF7A0
:103DD000DBFF054606E0FEF7D7FF401B022801D9AE
:103DE000032043E5404840388068022108404008ED
:103DF0000028F0D1A06A002872D03B484038C06843
:103E00000C2108400C2869D0A06A022848D1364805
:103E10004038006801210906884333494039086069
:103E2000FEF7B2FF054606E0FEF7AEFF401B022894
:103E300001D903201AE52C484038006801214906C1
:103E40000840400E0028EFD1216BE06A0843616B07
:103E5000084325494039C968FD22120491430843AB
:103E600021494039C8600846006801210906084315
:103E70001D4940390860FEF787FF054606E0FEF75A
:103E800083FF401B022801D90320EFE41648403885
:103E90000068012149060840400E0028EFD01FE0CD
:103EA0001148403800680121090688430E4940390D
:103EB0000860FEF769FF054606E0FEF765FF401B58
:103EC000022801D90320D1E40748403800680121C5
:103ED00049060840400E0028EFD101E00120C5E46A
:103EE0000020C3E40070004040100240881300002E
:103EF000000001407047024600231068034650331B
:103F00008800C3181868704710B50023046823465A
:103F100050338C00E3181A6010BD70B504460025BC
:103F200000BF2020005D012801D1022070BD0121C9
:103F30002020015500BF02212120015500BFCA20C9
:103F40002168486253202168486200BF2068806869
:103F500001218902884321688860206880680121E6
:103F60008903884321688860FEF70EFF054615E047
:103F7000FEF70AFF401B7D21C90088420ED900BF11
:103F8000FF202168486200BF03212120015500BFA6
:103F900000212020015500BF0320C7E72068C0682A
:103FA0000421084080080028E2D000BFFF202168DB
:103FB000486200BF01212120015500BF00212020BF
:103FC000015500BF0020B1E710B504461348406812
:103FD000C007C00F012148404840002805D00F48C5
:103FE0000068042108430D4908600D48C0680C2191
:103FF0000840082804D00A48C068084000280AD1B0
:10400000FDF702FA07A005F06DFDFDF7E5FA0328BC
:1040100001D104F031FF62B610BD00000070004015
:1040200000100240776B7570206C6F772D706F7782
:104030006572206E6F770D0A0000000010B504460F
:1040400020688068012109030840000B002811D076
:104050002068C06809110840000A00280AD02046DC
:10406000FFF7B2FF2068C06880210840124908436A
:104070002168C86020688068012149030840400B1E
:10408000002811D02068C06809110840400A0028A3
:104090000AD02046FFF72EFF2068C0688021084024
:1040A000064908432168C86001204004044948616A
:1040B00001212120015510BD7FFEFFFF7FFDFFFF85
:1040C0000004014070B504460D46002600BF2020C4
:1040D000005D012801D1022070BD01212020015581
:1040E00000BF02212120015500BFCA20216848627B
:1040F00053202168486200BFFF20013085422CD147
:104100002068806829468843216888602068806824
:104110002901884321688860FEF736FE064615E0CF
:10412000FEF732FE801B7D21C90088420ED900BFF8
:10413000FF202168486200BF03212120015500BFF4
:1041400000212020015500BF0320C5E72068C0687A
:10415000C007C00F0028E3D02EE02068806801214E
:1041600049028843216888602068806801214903EA
:10417000884321688860FEF707FE064615E0FEF7D3
:1041800003FE801B7D21C90088420ED900BFFF209D
:104190002168486200BF03212120015500BF002192
:1041A0002020015500BF032096E72068C068022147
:1041B000084040080028E2D000BFFF202168486284
:1041C00000BF01212120015500BF00212020015501
:1041D00000BF002080E70000F0B506460C461746F9
:1041E000002530684068124908400546FF20000459
:1041F0002840000CE0701F2000022840000A607078
:10420000A806800EA070072040032840400B2070B5
:10421000002F0BD1E07802F0C3F8E070607802F074
:10422000BFF86070A07802F0BBF8A0700020F0BD6D
:104230003FFFFF00F0B505460C46174600262868EC
:10424000806A6060286800694004400CA0602868AB
:1042500000681249084006463F2000043040000C28
:1042600020707F2000023040000A60707006400E0F
:10427000A070012080053040000CE070002F0BD1B1
:10428000207802F08DF82070607802F089F8607074
:10429000A07802F085F8A0700020F0BD7F7F7F003D
:1042A00010B50446002C01D1012010BD2FA005F04F
:1042B00019FC2120005D002805D100212020015596
:1042C000204600F061F802212120015500BFCA20DC
:1042D0002168486253202168486200BF204602F0EE
:1042E00079F8002809D000BFFF202168486200BF8C
:1042F0000421212001550120D7E720688068214949
:10430000084021688860216960680843A169084302
:10431000216889680843216888602168E06808612D
:104320002068006921890904084321680861206820
:10433000C068802188432168C8602068C06C8008FC
:1043400080002168C8646169E06908432168C96C1C
:1043500008432168C86400BFFF202168486200BF8D
:1043600001212120015500209FE7000048414C5FBA
:104370005254435F496E6974205374617274200D06
:104380000A000000BFFF8FFF054A0168914206D175
:1043900004490969012292041143024A11617047DC
:1043A0000028004040100240FEB504460D46164667
:1043B000002700200190009000BF2020005D012810
:1043C00001D10220FEBD01212020015500BF0221A4
:1043D00021200155002E2AD1206880684021084004
:1043E000002800D002E00020E87000BFE869002843
:1043F00000D100E000BF287801F0DFFF03046878F7
:1044000001F0DBFF00020343A87801F0D6FF03436D
:10441000E878000403432021485D01F0CEFF000648
:104420000343E86903436869034301932FE020686D
:10443000806840210840002804D0287801F0B0FFAF
:10444000019002E00020E87000BFE869002805D173
:104450002021485D01F0A4FF019005E02021485D86
:1044600001F09EFF019000BF2878000469780902DE
:104470000843A9780843E978090408432021495DE5
:1044800009060843E9690843696908430190A96975
:1044900068680843009000BFCA2021684862532022
:1044A0002168486200BFFF210131686A884241D11A
:1044B000206880688843216888602068C0688021FF
:1044C00008404D4908432168C860FEF75DFC074677
:1044D00015E0FEF759FCC01B7D21C90088420ED9AA
:1044E00000BFFF202168486200BF03212120015541
:1044F00000BF00212020015500BF032062E7206893
:10450000C068C007C00F0028E3D001982168C861C7
:1045100000982168486420688068FF2101310843C1
:1045200021688860206880680121090308432168A8
:10453000886043E02068806801214902884321683F
:1045400088602068C068802108402C4908432168A1
:10455000C860FEF719FC074615E0FEF715FCC01B06
:104560007D21C90088420ED900BFFF202168486222
:1045700000BF03212120015500BF0021202001554B
:1045800000BF03201EE72068C068022108404008E1
:104590000028E2D0019821680862009821688864A8
:1045A00020688068012149020843216888602068EA
:1045B0008068012149030843216888601048006829
:1045C0000121490408430E4908600846806801211A
:1045D000490408430A49886000BFFF2021684862F7
:1045E00000BF01212120015500BF002120200155DD
:1045F00000BF0020E6E600007FFEFFFF7FFDFFFF1B
:1046000000040140F8B504460D461646002700BFD9
:104610002020005D012801D10220F8BD01212020C9
:10462000015500BF022121200155002E09D16878D3
:1046300010210840102804D16878EF2108400A3082
:104640006870002E11D1E87801F0B7FE0304687895
:1046500001F0B3FE00020343A87801F0AEFE03436D
:104660002878400303431F4612E0687801F098FE63
:104670000746A87801F094FE0746E87800046978B8
:1046800009020843A97808432978490308430746E3
:1046900000BFCA202168486253202168486200BFD9
:1046A000204601F097FE00280ED000BFFF202168B1
:1046B000486200BF04212120015500BF00212020B5
:1046C000015500BF0120A8E719483840216848601B
:1046D0002068C068802188432168C860206880689D
:1046E00020210840002813D1204600F0CDF80028F2
:1046F0000ED000BFFF202168486200BF04212120A6
:10470000015500BF00212020015500BF012084E792
:1047100000BFFF202168486200BF01212120015510
:1047200000BF00212020015500BF002075E70000D8
:104730003FFFFF00F8B504460D461646002700BFB0
:104740002020005D012801D10220F8BD0121202098
:10475000015500BF022121200155002E1BD12068E8
:10476000806840210840002800D002E00020E87066
:1047700000BF287801F021FE0304687801F01DFED7
:1047800000020343A87801F018FE0343E878000410
:1047900003431F4618E02068806840210840002835
:1047A00004D0287801F0FCFD074602E00020E87004
:1047B00000BF28780004697809020843A9780843F3
:1047C000E97809040843074600BFCA202168486207
:1047D00053202168486200BF204601F0FBFD0028FD
:1047E0000ED000BFFF202168486200BF04212120B5
:1047F000015500BF00212020015500BF0120A4E782
:1048000020483840216808602068806801218904B8
:104810008843216888602969E868084321688968B5
:104820000843216888602068C06880218843216827
:10483000C8602068806820210840002813D12046E5
:1048400000F022F800280ED000BFFF202168486247
:1048500000BF04212120015500BF00212020015567
:1048600000BF012071E700BFFF202168486200BF40
:1048700001212120015500BF00212020015500BF4A
:10488000002062E77F7F7F0070B504460025206826
:10489000C068A02188432168C860FEF775FA054604
:1048A00008E0FEF771FA401B7D21C900884201D95A
:1048B000032070BD2068C068202108400028F0D087
:1048C0000020F6E703480069022108430149086116
:1048D0007047000000E000E010B50446002C01D154
:1048E000012010BD5120005D002805D1002150207D
:1048F0000155204600F038F802215120015520686A
:1049000000684021884321680860A1686068084306
:10491000E1680843216908436169084301225202A2
:10492000A16911400843E1690843216A0843A16A6B
:10493000084321680860A069000C04210840616AEE
:104940000843216848602168E06A08612068C069FE
:10495000910088432168C8610020606501215120D1
:1049600001550020BDE7000010B586B0044614498B
:104970002068884222D100BF1248C06A0121084342
:104980001049C8620846C06AC007C00F009000BF47
:1049900000BF0846406B891408430A494863E02079
:1049A0000190022002900020039003200490002038
:1049B000059001A905200007FEF7D6F806B010BD46
:1049C0000030014000100240F8B504460E4617467C
:1049D0001D46002000905120005D012803D0512089
:1049E000005D222873D1002E03D0002F01D0002DAE
:1049F00001D10120F8BD00BF5020005D012801D188
:104A00000220F7E701215020015500BF5120005D31
:104A1000012802D132215120015500206065A76391
:104A2000A587E5872663A586E586A064E064012165
:104A30004903A06A88420DD100BF206800688843FE
:104A40002168086020680068012149030843216843
:104A5000086000BF2068006840210840402804D05A
:104A6000206800680843216808600121C902E068E5
:104A700088427DD16068002807D0FF210531606839
:104A800088420CD1E08E012809D1206B0088216872
:104A9000C860206B801C2063E08E401EE086E08EA4
:104AA000002820D101214903A06A884205D120684D
:104AB000006849100843216808600022012120464F
:104AC000069B01F013FF002802D0032092E738E193
:104AD0002068C068A16B0880A06B801CA063E08F79
:104AE000401EE087D7E035E0002202212046069BE9
:104AF00001F0FCFE002801D003207BE7206B00883A
:104B00002168C860206B801C2063E08E401EE08618
:104B1000E08E00280AD101214903A06A884205D10C
:104B200020680068491008432168086000220121BC
:104B30002046069B01F0DAFE002801D0032059E749
:104B40002068C068A16B0880A06B801CA063E08F08
:104B5000401EE087E08E0028C6D160680028C1D1E1
:104B6000002201212046069B01F0C0FE002800E043
:104B70000DE001D003203DE72068C068A16B0880EC
:104B8000A06B801CA063E08F401EE08783E060681C
:104B9000002807D0FF210531606888420BD1E08EE4
:104BA000012808D1216B481C206308782168C8605F
:104BB000E08E401EE086E08E00281CD101214903D2
:104BC000A06A884205D1206800684910084321681E
:104BD0000860002201212046069B01F087FE002884
:104BE00001D0032006E72068C068A16B0870E08F41
:104BF000401EE0874FE034E0002202212046069B61
:104C000001F074FE002801D00320F3E6216B481C5C
:104C1000206308782168C860E08E401EE086E08E40
:104C200000280AD101214903A06A884205D12068E1
:104C300000684910084321680860002201212046CD
:104C4000069B01F053FE002801D00320D2E6206825
:104C5000C068C1B2A26B501CA0631170E08F401EEF
:104C6000E087E08E0028C7D16068002813D10022B9
:104C700001212046069B01F039FE002801D00320C7
:104C8000B8E62068C068C1B2A26B501CA063117066
:104C9000E08F401EE08701214903A06A884213D1BA
:104CA000002201212046069B01F020FE002805D0AD
:104CB000606D02210843606503209BE62068C068A0
:104CC00081B2009168460088012280212046069B1F
:104CD00001F00CFE002805D0606D202108436065BE
:104CE000032087E60121512001554903A06A88422B
:104CF00020D120688068102108400009002819D0C0
:104D0000606D02210843606500BF206800680903E8
:104D1000884321680860206800680121490308432E
:104D20002168086000BF00BF00215020015500BF6E
:104D300001205FE600BF00215020015500BF002088
:104D400058E6022056E60000042806D10649096903
:104D500004221143044A116105E003490969042250
:104D60009143014A1161704700E000E07047000084
:104D700070B504462546681E0949884201D90120BC
:104D80000CE0681E074948610321081F01F0EAF999
:104D900000200449886107200861002070BD0000E0
:104DA000FFFFFF0000E000E010B5FFF7DFFF10BDE0
:104DB00003480069022188430149086170470000E7
:104DC00000E000E0024600BF3420805C012801D1F1
:104DD0000220704701233420835400BF0223352072
:104DE00083541068406870239843136858601068B3
:104DF00040680B6818431368586010688068802307
:104E0000984313689860106880684B68184313686B
:104E1000986001233520835400BF0023342083543D
:104E200000BF0020D5E710B50446002C01D10120B9
:104E300010BD3520005D002805D10021342001552A
:104E4000204600F00DF8022135200155211D206873
:104E500003F074F90121352001550020E8E7000036
:104E6000012292070168914205D10349896B012211
:104E70001143014A916370470010024001460868DF
:104E8000C068012210430A68D060086800680122E7
:104E900010430A681060002070470000014608684F
:104EA000C068400840000A68D06000BF0868006A17
:104EB000064A1040002805D10868006840084000F4
:104EC0000A68106000BF0020704700001111000048
:104ED000F8B504460D46002600BF3420005D0128C9
:104EE00001D10220F8BD01213420015500BF02216B
:104EF000352001552068866877213046884306466C
:104F0000FF210902304688430646206886602868EB
:104F100050283ED00CDC202863D004DC002856D07A
:104F2000102868D158E0302860D0402863D144E090
:104F3000602838D070280DD001210903401A02D012
:104F4000401A58D117E020688068C008C000216866
:104F5000886051E0EB686A68A968206803F030F95E
:104F600020688668772130468843064677200643C6
:104F70002068866040E0EB686A68A968206803F0F2
:104F80001FF920688068012189030843216888602F
:104F900032E0EA686968206803F02EF95021206841
:104FA00003F01DF928E0EA686968206803F03FF91A
:104FB0006021206803F013F91EE0EA686968206840
:104FC00003F01AF94021206803F009F914E00021E8
:104FD000206803F004F90FE01021206803F0FFF8C7
:104FE0000AE02021206803F0FAF805E0302120686B
:104FF00003F0F5F800E000BF00BF012135200155A6
:1050000000BF00213420015500BF00206AE770472F
:1050100010B50446206800690221084040080028B5
:105020001CD02068C06808404008002816D0481FDF
:105030002168086101202075206880698007800F41
:10504000002803D02046FFF7E2FF05E0204600F0ED
:105050009DF8204600F09BF800202075206800692C
:1050600004210840800800281DD02068C06808403E
:105070008008002817D0C8432168086102202075E5
:1050800020688069032109020840002803D02046D7
:10509000FFF7BDFF05E0204600F078F8204600F05D
:1050A00076F8002020752068006908210840C008B3
:1050B00000281CD02068C0680840C008002816D00E
:1050C000C84321680861042020752068C0698007F2
:1050D000800F002803D02046FFF799FF05E0204607
:1050E00000F054F8204600F052F8002020752068A7
:1050F000006910210840000900281DD02068C06800
:1051000008400009002817D0C8432168086108201A
:1051100020752068C069032109020840002803D0D7
:105120002046FFF774FF05E0204600F02FF82046E8
:1051300000F02DF80020207520680069C007C00F1E
:1051400001214840484000280CD02068C068084031
:1051500048404840002805D0C81E21680861204604
:1051600000F016F8206800694021084080090028F6
:105170000BD02068C06808408009002805D0C843CB
:1051800021680861204600F023F810BD7047704781
:1051900010B504460B480068401C0A4908600846E0
:1051A000006814280DD90848807E032809D10748D3
:1051B000016905481C30884700F066FC0020014961
:1051C000086010BD340600200406002090A50008E9
:1051D0007047704710B50446002C01D1012010BD66
:1051E000242169200155206800684008400021689A
:1051F0000860002021680860216848602168886094
:10520000204600F03BF90020E066002169200155AE
:105210006A20015500BF6820015500BF0020DEE76D
:1052200070470146002200236920425C6A20435CEB
:105230001046184370470000F8B504462068C56959
:10524000206806682807000F0090009800280BD1FE
:1052500020202840002807D020203040002803D0FC
:10526000204603F012F9F8BD2068876800980028EE
:105270007ED0F807C00F002804D1FF202130304035
:105280000028F5D0E807C00F00280BD0FF20013020
:105290003040002806D0012021680862E06E01211C
:1052A0000843E0660220284000280AD0F807C00F13
:1052B000002806D0022021680862E06E042108431D
:1052C000E0660420284000280AD0F807C00F002814
:1052D00006D0042021680862E06E02210843E066DF
:1052E0000820284000280ED020203040002803D17C
:1052F000F807C00F002806D0082021680862E06E79
:1053000008210843E066E06E002841D020202840B4
:10531000002806D020203040002802D0204603F08C
:10532000B4F8E06E08210840002805D120688068A4
:1053300040210840002826D0204603F085F8206848
:10534000806840210840002819D020688068884380
:1053500021688860606E00280DD02648616E8863E1
:10536000606EFDF73FFA002812D0606E816B00E09E
:105370000FE088470CE02046FFF752FF08E0204688
:10538000FFF74EFF04E02046FFF74AFF0020E066EB
:1053900069E7012000052840002811D00120800580
:1053A000384000280CD00120000521680862202127
:1053B000692001556A2001552046FFF70AFF52E790
:1053C00080202840002807D080203040002803D0CB
:1053D000204603F09BFA46E740202840002807D0EB
:1053E00040203040002803D0204603F03EF83AE742
:1053F00000BF38E73184000810B50446002C01D105
:10540000012010BDA069002800D000E000BF692085
:10541000005D002805D1002168200155204600F0DC
:1054200075F8242169200155206800684008400073
:1054300021680860606A002802D0204602F046FF1A
:10544000204603F06BF8012800D1DAE720684068B5
:105450000921C902884321684860206880682A21A0
:10546000884321688860206800680121084321681A
:105470000860204602F0A2FFC3E7000010B5044612
:105480001D492068884210D11C48406B01218903C6
:1054900088431A4948630321490205200007FDF7A4
:1054A000ADFA1B20FDF7A4FC25E0154920688842D1
:1054B0000FD11248806B0121490488430F4988634A
:1054C0000C2105200007FDF799FA1C20FDF790FC40
:1054D00011E00C49206888420DD10848806B0121F9
:1054E000090588430549886318210748FDF786FAAE
:1054F0000E20FDF77DFC10BD003801400010024079
:1055000000440040005000400004005010B586B038
:10551000044636492068884216D13548806B0121FF
:1055200089040843324988630320800201900220E5
:10553000029000200390032004900420059001A90C
:105540002C48FDF711FB4FE02B492068884217D10A
:105550002748406B012189030843254948630320FC
:105560004002019002200290012003900320049049
:105570000420059001A905200007FDF7F5FA33E0A6
:105580001E492068884216D11948806B01214904C0
:105590000843174988630C200190022002900120E3
:1055A0000390032004900420059001A90520000722
:1055B000FDF7DAFA18E012492068884214D10C4845
:1055C000806B01210905084309498863182001906F
:1055D00002200290012003900320049006200590F1
:1055E00001A90448FDF7C0FA06B010BD004800400C
:1055F0000010024000040050003801400044004008
:105600000050004010B503466A20C05C20286AD1D3
:10561000002901D0002A01D1012010BD012424035A
:105620009868A04208D11869002805D1C807C00FA2
:10563000002801D00120F0E700BF6820C05C0128ED
:1056400001D10220E9E701246820C45400BF596554
:105650005820C2525A20C25200BF24039868A04268
:105660000AD11869002803D1204C5C20C45220E0E4
:10567000FF245C20C4521CE0986800280AD11869F5
:10568000002803D1FF245C20C45212E07F245C2058
:10569000C4520EE0012424079868A04209D1186979
:1056A000002803D17F245C20C45202E03F245C2008
:1056B000C45200BF0020D86622246A20C45400BF10
:1056C00000246820C45400BF186880680124204367
:1056D0001C68A06018680068FF24213420431C68FF
:1056E0002060002099E7022097E70000FF010000FA
:1056F00070B504466649206888421BD16548817AA6
:105700000289FF38FD38815462480089401C81B20B
:1057100060480181FDF738FB5F49086401215D485D
:105720000173008981218900884202DB00215948E8
:105730000181ABE0594920688842FAD15848807A03
:105740000D2803D101215648017396E05448807A10
:105750000A287DD15248007B002874D0002150488F
:10576000017300254FA1FF38FD38FAF75AFDA84212
:1057700003D101204F49087016E04FA15348FAF7B2
:1057800050FDA84203D101204A4948700CE050A1C5
:105790004E48FAF746FDA84206D1012045498870D7
:1057A000FDF7F2FA4349C8643D480089801F474924
:1057B000085C412839D13F484030C079401CC1B213
:1057C0003C484030C171C079142809DB45498868DC
:1057D0008047002137484030C1710121203881764F
:1057E0002F48028939493348001DFAF7DBFC0D21A7
:1057F0002B4802890089401C83B2294803812D4827
:10580000001D81540A21264802890089401C83B268
:10581000234803812748001D81543C30C17902464A
:105820003C3A31A004F05EF90CE01D480089801F6D
:105830002649085C562805D1194802891D48001DD3
:10584000FAF7B0FC00BF21492CA004F04BF900E0AE
:1058500008E0134801891D48FAF7BDFC00211048F3
:1058600001810AE00E48817A0289184881540C4867
:105870000089401C81B20A480181094800898121C0
:105880008900884202DB00210548018170BD0000CB
:1058900000480040240D00207C0600200044004009
:1058A000140B002024504D544B3031302C3030320A
:1058B0002A324400E405002024504D544B3030314E
:1058C0002C3331342C332A333600000018090020E1
:1058D00024504D544B3030312C3232302C332A335B
:1058E0003000000090A50008436F756E7465723A31
:1058F00025642C474C4C2D2D2573000025730D0A73
:1059000000000000FEB504460D4616461F46002066
:1059100001906920005D20286AD1002D01D0002E61
:1059200001D10120FEBD01210903A068884208D1F0
:105930002069002805D1E807C00F002801D0012008
:10594000F0E700BF6820005D012801D10220E9E7EF
:1059500001216820015500BF0020E0662121692057
:105960000155FDF711FA01905020065352200653BD
:1059700025E05220005B401E81B252200153009767
:10598000002280212046019B02F0F9FF002801D06F
:105990000320C7E701210903A06888420BD12069D1
:1059A000002808D10295029D2888C005C00D2168F5
:1059B0008862AD1C03E028786D1C21688862522043
:1059C000005B0028D5D10097002240212046019B92
:1059D00002F0D5FF002801D00320A3E72021692091
:1059E000015500BF00216820015500BF002099E744
:1059F000022097E77047704710B50446206840685A
:105A0000012149020840400A00280ED02068806821
:105A1000C007C00F012148404840002805D0C81EDB
:105A2000216888602046FFF7E6FF10BD01460A683E
:105A3000C868106000207047024903A004F052F8C3
:105A400000BFFEE7C8A5000825730D0A000000008E
:105A500000B585B000206423029003900193009369
:105A60000490054B054A06490648FBF716FF054812
:105A7000FBF778FE05B000BD340D0020980D002026
:105A800008080020E808002010B5FCF751F90128AB
:105A900006D0022807D0032806D0042806D104E047
:105AA00000F0C6F803E002E001E000E000BF00BF44
:105AB00010BD000000B587B000BF0F48C06A0421C8
:105AC00008430D49C8620846C06A04210840019095
:105AD00000BF00BFC8020290012003900490032081
