:020000040800F2
:1000000070200020D5000008792B0008312A000854
:1000100000000000000000000000000000000000E0
:100020000000000000000000000000005D3100083A
:100030000000000000000000712C000825450008A9
:10004000E7000008E70000081D2E0008E700000890
:10005000E7000008750800088508000895080008F2
:10006000E7000008E7000008E7000008E7000008D4
:10007000E7000008E7000008754E0008E7000008E8
:10008000E7000008E7000008E700000800000000A3
:10009000E7000008E7000008E7000008E7000008A4
:1000A000E7000008E7000008E7000008E700000894
:1000B0001D4E0008E7000008E7000008E700000800
:1000C0000348854600F06CFA00480047155C0008BC
:1000D000702000200448804704480047FEE7FEE700
:1000E000FEE7FEE7FEE7FEE791460008C1000008D4
:1000F00030B50B46014600202022012409E00D46C0
:10010000D5409D4205D31D469540491B2546954047
:1001100040191546521E002DF1DC30BDF0B51FB45C
:100120000646002082B005464024019100901BE065
:10013000019922460F46304600F05BF8049A059B71
:10014000801A994110D310461946224600F041F812
:10015000361A8F410197224601200021009F00F0AE
:1001600038F838184D4100902046641E0028DFDC26
:10017000019B00982946324607B0F0BD03460B4369
:100180009B0703D009E008C9121F08C0042AFAD24D
:1001900003E00B780370401C491C521EF9D27047D3
:1001A000D2B201E00270401C491EFBD2704700220F
:1001B000F6E710B513460A4604461946FFF7F0FF66
:1001C000204610BD421C0178401C0029FBD1801A3A
:1001D000704710B5202A04DB0146203A91400020E8
:1001E00010BD914020239C1A0346E34019439040E0
:1001F00010BD10B5202A04DB0846203AD04000216B
:1002000010BD0B46D340D0402024A21A9140084391
:10021000194610BDF0B507460846584087B0C00FD4
:10022000049048000E46590040084908BC1A88410D
:1002300005D2384631461E4617460B460246580040
:10024000400810434CD0300D039040055900400D3C
:10025000490D0590401A0290402872DA18030121D6
:10026000000B09050843019004980092002805D06E
:100270000199524200208841009201900298402149
:100280000A1A01990098FFF7A4FF05460C466B4631
:1002900007CB00F097F9C0197141039A0E0D0023A6
:1002A000D71756401A467A40164344D0049A002A7B
:1002B0002DD0029A012A039A15DC1205C01A914129
:1002C00001263605001C7141D20F059ED20700930E
:1002D000019202962A46234600F094F907B0F0BD39
:1002E00038463146FAE71605224A0F46B218C01AB8
:1002F000B74101210905001C4F4100187F411146FB
:1003000018187941E20F10436D19644113E0E207B8
:100310006D0815436408C2071443039A01261205A9
:10032000C01A91413605001C7141CE074008304388
:100330004908C01851412A46234600F056F9CDE736
:10034000FFE7049801224000C117121A00238B41D5
:1003500004983146C417381AA141EEE730B401249D
:10036000E407634030BC55E730B40124E407614042
:1003700030BC4FE70000E0FFF0B51FB488B00B9928
:100380000998002448400999C00F4900490809917B
:10039000C0070B990090490049080B9109990898EA
:1003A000A64608431CD00B990A98084318D0099810
:1003B00001244000420D4800410D09982405000326
:1003C000000B204309900B980003000B20430B9077
:1003D00050181C494018002201901446104605E0B0
:1003E000002001460DB0F0BD032801DA034600E00D
:1003F00003239C46C11A0AAE0AE05F0008ADED5B1C
:100400004F00F75B7D430027AA187C41491C5B1E07
:100410006145F2DD410004AB5A522104120C0A433B
:10042000240C401C0828DFDB0198029000997046DC
:1004300001910090059B049A0799069800F0E2F854
:10044000D0E700000DFCFFFFF0B50C465C4085B026
:10045000E40FE40703944C00002664085900944616
:10046000490802460296224321D062460A431ED022
:100470006200570D4A000E032303550D0124024666
:100480002C492405781B1B0B360B401823432643AD
:10049000614600901C46501AB44103D30098401C9A
:1004A000009002E0921800985B41002803DA0020D7
:1004B000014605B0F0BD002001210905074686462A
:1004C00011E064461D46141BB54106D36546521B18
:1004D000B341744607430C43A646CD07400849087C
:1004E000284392185B4105460D43EAD11046184354
:1004F00013D06046194650407140084306D060460C
:10050000101AB34106D20122002306E00022012383
:10051000DB0702E00122D243531000987446010524
:10052000381C6141029C039D0019694100F05DF88F
:10053000BFE70000FD0300004A0009030123090B87
:100540001B0519430A4B10B5520D9A4202DA0020DE
:10055000014610BD064B34339A4203DC9A1AFFF76A
:1005600048FE10BD034BD218FFF733FE10BD00004C
:10057000FF030000CDFBFFFF10B5002904DB0124C1
:10058000E40740428C412146002B04DB1C4601233A
:10059000DB075242A341994200D1904210BD0000B6
:1005A000064C0125064E05E0E36807CC2B430C3CC6
:1005B00098471034B442F7D3FFF786FDF063000884
:1005C0001064000810B5202A06DBCB170846203A35
:1005D0001041C1170B4306E00B461341D0402024C5
:1005E000A21A91400843194610BD10B5002B08DA35
:1005F0000024401C614192185B411A4301D140081C
:10060000400010BDF0B51FB482B005460C0003D009
:10061000084604F033FE02E004F030FE20300246CB
:10062000009021462846FFF7D4FD049B059A044616
:100630000F4618431143084314D0184610431BD0EB
:10064000009840210A1A18460599FFF7D2FD054681
:100650000E46009A05990498FFF7BBFD084305D0A4
:10066000012004E02046394607B0F0BD0020C11744
:1006700005430E432C43374300990E986305401AF7
:100680007905E40A00220C43FD0A0A3002D5002055
:100690000146E9E70105101969410C9C0D9D0019FF
:1006A0006941FFF7A2FFDFE770B58C180578401CA1
:1006B0006B075B0F01D10378401C2A1106D1027829
:1006C000401C03E006780E70401C491C5B1EF9D1EB
:1006D0002B0705D40023521E0DD40B70491CFAE7DA
:1006E0000378401CCB1A921C03E01D780D70491C46
:1006F0005B1C521EF9D5A142D8D3002070BD00006A
:1007000008B54748007800283FD100F059FB03F0B6
:100710001DFF00BF4348C06A042108434149C86225
:100720000846C06A04210840009000BF00BF00BF17
:100730003C48C06A802108433A49C8620846C06AFA
:1007400080210840009000BF00BF00BF3548C06A4C
:10075000022108433349C8620846C06A02210840A2
:10076000009000BF00BF00BF2E48C06A01210843AF
:100770002C49C8620846C06AC007C00F009000BF7D
:1007800000BF01202649087039E003F039FF00BF9F
:100790002448C06A042108432249C8620846C06A46
:1007A00004210840009000BF00BF00BF1D48C06A80
:1007B000802108431B49C8620846C06A802108405E
:1007C000009000BF00BF00BF1648C06A0221084366
:1007D0001449C8620846C06A02210840009000BF60
:1007E00000BF00BF0F48C06A012108430D49C8621D
:1007F0000846C06AC007C00F009000BF00BF02F0EB
:100800003FF902F05FF902F015FB002203210220FC
:1008100000F008FB022000F0F9FA04F04FFB08BDDD
:100820000C0000200010024070B502460F48002363
:1008300012E0D55C684000240AE0C507ED0F002DEA
:1008400003D040100A4D684000E04010651CECB237
:10085000082CF2DB5D1CEBB28B42EADBFF252D029C
:1008600005402D1256187570505470BDFFFF0000E2
:1008700001A0000010B5012000F078F9022000F07E
:1008800075F910BD10B5042000F070F9082000F0D3
:100890006DF910BD10B5102000F068F9202000F0AF
:1008A00065F9402000F062F9802000F05FF9FF2038
:1008B000013000F05BF90120400200F057F90120FF
:1008C000800200F053F90120C00200F04FF901202E
:1008D000000300F04BF90120400300F047F901202C
:1008E000800300F043F90120C00300F03FF910BD80
:1008F00010B502A004F0B2FC10BD00006572726F6A
:10090000720D0A008168002907D00168096809682A
:1009100020221143026812681160704738B50446FE
:10092000002C5ED02820005D00285AD02068006886
:10093000006820210840002828D06946206804F07B
:10094000A1FA002821D1A06800281ED068460078AE
:10095000E28AA1688854E08A401C80B2E082E18982
:10096000884201DB0020E082608BE189884203DA63
:10097000608B401C608301E0E08A2083606A00286D
:1009800003D068460078616A884700BF2068006825
:10099000006880210840002823D0A08A00280CD1BC
:1009A0002068006800688843216809680860206A38
:1009B000002816D0206A804713E0638A6268D15C01
:1009C000206804F06DFA00280BD1608A401C80B2C8
:1009D0006082A189884201DB00206082A08A401EDB
:1009E000A08238BD70B504460D46012004F084FC99
:1009F000668B002004F080FC002E04D0002D02D075
:100A0000A068002801D1012070BD218BA068405C46
:100A10002870012004F070FC208B401C80B22083E1
:100A2000E189884201DB00202083608B401E6083C7
:100A3000002004F061FC0020E6E7F0B5069D059C6F
:100A40000160426083608481C581002606824682FF
:100A5000C682068346838682079EC661089E06621A
:100A6000099E4662012628273E54F0BD01460248F1
:100A70004843024A105C704713020000B40A002089
:100A800070B5044600252520005D022803D004200F
:100A9000E063012549E0206800680E218843216851
:100AA000086020680068400840002168086020490C
:100AB0002068884201D1012026E01D4914312068B8
:100AC000884201D110201FE019492831206888424E
:100AD00001D1801518E016493C312068884201D1C7
:100AE000801411E0124950312068884202D101205F
:100AF000000409E00E4964312068884202D10120D7
:100B0000000501E00120000609490839486001217B
:100B10002520015500BF00212420015500BFA06BF6
:100B2000002802D02046A16B8847284670BD0000EF
:100B30000800024031B5002400F034F9044600BF3B
:100B400000F030F9001B00998842F9D338BD00004D
:100B500010B50446012C03D10349C868804700BF83
:100B600000BF00BF10BD0000541A002010B504469D
:100B7000054840692040002804D0034844612046CD
:100B8000FFF7E6FF10BD00000004014070B503460A
:100B9000002200240020DFE0012696400D68354049
:100BA0002C46002C77D04D68022D02D04D68122DB6
:100BB00015D1D508AE001D462035A8595507EE0EB3
:100BC0000F25B5400646AE4330465607F60E0D6972
:100BD000B5402843D508AD001E46203670514D68FB
:100BE000012D08D04D68022D05D04D68112D02D081
:100BF0004D68122D18D1986856000325B540064659
:100C0000AE4330465600CD68B540284398605868DA
:100C1000012595400646AE43304610264D683540C6
:100C20002D09954028435860186856000325B540A3
:100C30000646AE4330460D79AD07AD0F5600B540C0
:100C400028431860D86856000325B5400646AE43D1
:100C5000304656008D68B5402843D86001263607D7
:100C60004D683540B54276D13E4D6D6B012635431A
:100C70003C4E75633C4D9608B600A85995072E0F5B
:100C80000F25B5400646AE43304605252D07AB423D
:100C900002D100251AE05EE0344DAB4201D10125BE
:100CA00014E0334DAB4201D102250FE0314DAB4290
:100CB00001D103250AE0304DAB4201D1042505E006
:100CC0002E4DAB4201D1052500E006259607360FD3
:100CD000B5402843244D9608B600A851284D2868F1
:100CE0000546A5432846012636044D683540B542E1
:100CF00002D1054625432846214D286068680546EF
:100D0000A5432846012676044D683540B54202D1F8
:100D10000546254328461A4D6860A8680546A54340
:100D20002846012636054D683540B54202D10546B4
:100D300025432846124DA860E8680546A543284685
:100D4000012676054D683540B54202D1054625435A
:100D500028460B4DE860521C0D68D540002D00D090
:100D60001AE770BD00100240080001400004005066
:100D700000080050000C005000100050001C0050F3
:100D800000040140024613690B40002B01D00120F2
:100D900000E000207047002A01D0816100E08162FC
:100DA0007047000001480068704700000400002000
:100DB00002480068401C0149086070470400002098
:100DC00010B5064800684021084304490860002027
:100DD00000F006F800F018F8002010BD00200240D6
:100DE00070B504467D21C90006480068FFF780F908
:100DF000054601F057FB00222146501E00F012F874
:100E0000002070BD000000207047000000BFC20637
:100E1000D20E01219140024A116000BF70470000CC
:100E200000E100E070B504460D461646294620460E
:100E300001F0A4FE70BD0000F0B585B005460026A7
:100E40000020039002900024002701900090102DB4
:100E50007ED008DC012D7CD0022D7BD0042D7AD0F1
:100E6000082D79D13BE1202D0AD0402D51D0E81F2B
:100E7000F938002871D007210902401AF1D100E0A9
:100E800000BFC648066900690321090408400446FA
:100E900001200004844206D1C0113040002802D055
:100EA0006010029034E001204004844206D1022008
:100EB0003040002802D0BA48029029E00320000404
:100EC000844223D1B54840380068012149040840D4
:100ED00000281BD0B1484038006821010840039029
:100EE000012109050398401A09D0401A04D0401A7C
:100EF00008D1AC48029008E0AB48029005E0AB484E
:100F0000029002E0AA48029000BF01E00020029097
:100F10003FE1A248C0680121890608400446002C30
:100F200042D19E48403800684910084000283BD014
:100F30009A484038C0680F218904084007469748FE
:100F40004038C0680321890508400190B80C05E0CD
:100F5000EAE03AE064E08FE01AE1F4E095490F5CE2
:100F60000198800D401C01908C484038C0680121D8
:100F70000904084000280CD1884840380068102136
:100F80000840002802D08A48009004E08A48009077
:100F900001E08A48009000987843009001990098F9
:100FA000FFF7A6F802900FE001208006844209D1E5
:100FB0007A484038806802210840002802D08048E2
:100FC000029001E000200290E3E07448C0688407CA
:100FD000A40F002C03D100F05FFB02901FE0022C55
:100FE00009D16E484038006804210840002802D02A
:100FF0007148029013E0012C03D100F05FFB0290D6
:101000000DE0032C09D1654800690121490208401F
:10101000002802D08801029001E000200290B8E090
:101020005E48C0680C2108400446002C03D100F043
:1010300021FB02901FE0082C09D158484038006875
:1010400004210840002802D05B48029013E0042CE1
:1010500003D100F033FB02900DE00C2C09D14F4876
:101060000069012149020840002802D0880102904D
:1010700001E0002002908CE04848C068032189020A
:1010800008400446002C03D100F0F4FA029025E059
:101090000120C002844209D1404840380068042140
:1010A0000840002802D04448029017E00120800246
:1010B000844203D100F002FB02900FE00320800283
:1010C000844209D1354800690121490208400028BD
:1010D00002D08801029001E00020029059E02F48E0
:1010E000C0680321090308400446002C03D100F026
:1010F000C1FA029017E001204003844209D1274839
:101100004038006804210840002802D02A48029094
:1011100009E001200003844203D100F0CFFA0290DD
:1011200001E00020029034E01C484038806B01212F
:1011300089050840884203D100F09CFA029001E042
:101140000020029025E01548C068032109040840EA
:101150000446002C03D100F08DFA029017E0012024
:101160004004844209D10D484038006804210840F9
:10117000002802D01048029009E0012000048442B7
:1011800003D100F09BFA029001E00020029000E001
:1011900000BF00BF029805B0F0BD00004010024043
:1011A0008890000020A1070040420F0080841E00AC
:1011B00000093D000C5D00080024F40000127A00D4
:1011C000006CDC02F8B504460026002520212068CA
:1011D0000840202804D089012068084088427DD139
:1011E000202120680840202800D100BF0121C90229
:1011F00020680840884200D100BF00279948806BD2
:10120000012109070840002805D19648806B084352
:1012100094498863012794480068FF210131084000
:10122000002816D19048006808438F490860FFF7EE
:10123000B9FD064606E0FFF7B5FD801B642801D91D
:101240000320F8BD88480068FF21013108400028CC
:10125000F1D084480068032109050840054660680C
:101260000840A84203D1A0680840A8420ED003213C
:10127000090460680840884208D17A480068012162
:1012800049040840002801D00120DAE775484030C1
:1012900000690321090408400546002D49D0606813
:1012A0000840A84204D020212068084020280BD004
:1012B00003210904A0680840A8423AD00121C902CC
:1012C00020680840884234D16648403000690321D4
:1012D0000904884305466348403000E052E0006955
:1012E0000121C90408435F4940310861084600698B
:1012F0000121C90488435B49403108610846056102
:1013000080152840002814D0FFF74CFD064607E062
:10131000FFF748FD801B5549884201D9032090E71B
:10132000504840300069012149020840400A002825
:10133000EED000BF00BF0321090460680840884266
:101340000AD14848006809018843032212056168F0
:10135000114008434349086000BF424840300069DB
:10136000032212046168114008433E49403108617C
:1013700000BF012F05D13B48806B8905884339495F
:10138000886300BF2078C007C00F002809D0354807
:101390004030C06880088000E1680843314940312E
:1013A000C860022120680840022809D12D48403039
:1013B000C0680C218843216908432A494031C8602C
:1013C00004212068084004280AD126484030C0681B
:1013D0000321890288436169084322494031C8607A
:1013E00008212068084008280AD11E484030C068FB
:1013F000032109038843A16908431A494031C860A1
:10140000FF2101312068084088420AD11548403048
:10141000C068032109048843E16908431149403148
:10142000C860402120680840402809D10D4840305C
:10143000C06809058843616A08430A494031C860A9
:1014400080212068084080280AD106484030C068C2
:10145000032189048843216A084302494031C86056
:101460000020EEE6001002400070004088130000EB
:1014700070B504460D46002676480068C007C00FC8
:10148000A8420ED2734800684008400028437149C2
:10149000086008460068C007C00FA84201D00120BC
:1014A00070BD022120680840022807D16A48C06840
:1014B000F0218843A16808436749C8602078C007C5
:1014C000C00F00284CD06068022809D1624800682B
:1014D000012149040840400C002824D10120DFE705
:1014E0006068032809D15C4800680121490608406A
:1014F000400E002817D10120D2E76068012808D1EA
:101500005548006804210840800800280BD10120BC
:10151000C6E751480068012149020840400A0028F6
:1015200001D10120BCE74C48C06880088000616898
:1015300008434949C860FFF735FC06466068022841
:101540000FD107E0FFF72EFC801B4449884201D9E8
:101550000320A5E74048C0680C2108400828F1D1C5
:1015600034E0606803280FD107E0FFF71BFC801B05
:101570003A49884201D9032092E73748C0680C21D4
:1015800008400C28F1D121E0606801280FD107E064
:10159000FFF708FC801B3149884201D903207FE70F
:1015A0002D48C0680C2108400428F1D10EE007E066
:1015B000FFF7F8FB801B2949884201D903206FE718
:1015C0002548C0680C2108400028F1D12148006856
:1015D000C007C00FA8420ED91E480068400840004E
:1015E00028431C49086008460068C007C00FA8428D
:1015F00001D0012054E7042120680840042808D1C4
:101600001548C068072109028843E1680843124968
:10161000C860082120680840082809D10E48C06821
:101620000721C90288432169C90008430A49C860E3
:1016300000F044F80849C968F02211400909084A35
:10164000515CC840074908600020FFF7C9FB002033
:1016500026E700000020024000100240881300002E
:10166000F45C00080000002001480068704700009A
:101670000000002000B5FFF7F7FF0549C968072201
:1016800012021140090A034A515CC84000BD000023
:1016900000100240045D000800B5FFF7E5FF0549B2
:1016A000C9680722D2021140C90A034A515CC840E6
:1016B00000BD000000100240045D0008FEB50025DA
:1016C0000026002700240020019000902F48C568C4
:1016D0000C202840002847D0042804D008280ED029
:1016E0000C2840D10EE0294800681021084000284D
:1016F00002D02748009001E02648009042E02648AA
:1017000000903FE00F2080042840800C23490E5CAD
:10171000032080052840800D471C1C48C06801211B
:1017200009040840002807D01B4971430846394680
:10173000FEF7DEFC044614E014480068102108405F
:10174000002807D01249714308463946FEF7D0FCFD
:10175000044606E00F49714308463946FEF7C8FCC7
:10176000044600940EE000BF084840680721490382
:101770000840400B01900198401C01218140C803A2
:10178000009000BF00BF0098FEBD000000100240A6
:1017900000093D000024F40000127A000C5D0008EE
:1017A000F8B5044600252078C007C00F00287DD07A
:1017B000FE48C0680C21084008280BD0FB48C068D0
:1017C00008400C2813D1F948C068012109040840D9
:1017D00088420CD1F5480068012149040840400CBA
:1017E000002863D06068002860D10120F8BD00BFE8
:1017F000012109046068884205D1EC48006808436B
:10180000EA49086027E005210904606888420ED192
:10181000E6480068012189040843E4490860084655
:101820000068012109040843E049086013E0DF482B
:101830000068012109048843DC4908600846006803
:10184000012109040840009000BFD84800688900C1
:101850008843D649086000BF6068002813D0FFF7AE
:10186000A1FA054606E0FFF79DFA401B642801D95E
:101870000320BBE7CD480068012149040840400C23
:101880000028F0D012E0FFF78DFA054606E0FFF7DA
:1018900089FA401B642801D90320A7E7C3480068E0
:1018A000012149040840400C0028F0D102212068A1
:1018B0000840022868D1BD48C0680C2108400428AF
:1018C0000BD0BA48C06808400C281DD1B748C06882
:1018D000012109040840002816D1B44800680421F9
:1018E00008408008002804D0E068012801D00120C9
:1018F0007CE7AE4840681F2109028843216909023C
:101900000843AA4948603FE0E068002824D0A7487F
:10191000006809218843E1680843A4490860FFF78B
:1019200041FA054606E0FFF73DFA401B022801D9BF
:1019300003205BE79D4800680421084080080028D8
:10194000F1D09A4840681F210902884321690902A1
:1019500008439649486017E09448006840084000F2
:1019600092490860FFF71EFA054606E0FFF71AFAEB
:10197000401B022801D9032038E78C480068042165
:10198000084080080028F1D1102120680840102864
:1019900060D18648C0680C21084000285BD183488C
:1019A0000068012149020840400A002804D0E0698B
:1019B000002801D1012019E77C48616A40680722AC
:1019C00052031040814219D9606A01F053F900288E
:1019D00001D001200AE77548406807214903884380
:1019E000616A084371494860084640680002000A7D
:1019F000218C090608436D49486018E06B4840682F
:101A0000072149038843616A0843684948600846DA
:101A100040680002000A218C0906084363494860B7
:101A2000606A01F027F9002801D00120DEE6606A33
:101A3000400B401C01218140C8035C49C968F02269
:101A4000114009095A4A515CC8405A4908600020AF
:101A5000FFF7C6F949E0E06900282CD05348006838
:101A6000FF210131084351490860FFF79BF9054602
:101A700006E0FFF797F9401B022801D90320B5E6DD
:101A80004A480068012149020840400A0028F0D075
:101A900046484068072149038843616A084343492F
:101AA0004860084640680002000A218C0906084385
:101AB0003E49486019E03D480068FF2101318843F4
:101AC0003A490860FFF76EF9054606E0FFF76AF944
:101AD000401B022801D9032088E634480068012110
:101AE00049020840400A0028F0D108212068084037
:101AF000082839D1606900281BD02C484030006983
:101B000001210843294940310861FFF74BF9054697
:101B100006E0FFF747F9401B022801D9032065E6DC
:101B20002248403000690221084040080028F0D0D7
:101B30001AE01E4840300069400840001B4940310F
:101B40000861FFF72FF9054606E0FFF72BF9401B68
:101B5000022801D9032049E61448403000690221D7
:101B6000084040080028F0D10421206808400428DB
:101B700077D100260D48806B89060840002805D1E2
:101B80000A48806B08430949886301260A480068AF
:101B9000FF210131084000281ED107480068084392
:101BA00005490860FFF7FEF805460EE00010024008
:101BB000F45C00080000002000700040FFF7F2F81D
:101BC000401B642801D9032010E6A6480068FF21C5
:101BD000013108400028F1D000BFFF210131A06889
:101BE000884205D1A048006908439F49086130E058
:101BF000A06800280DD19C480069FF21013188436D
:101C000099490861084600690915884396490861A1
:101C10001FE005210902A06888420DD192480069A1
:101C20000121890208439049086108460069891525
:101C300008438D4908610CE08B480069FF210131A0
:101C4000884389490861084600690915884386491F
:101C5000086100BFA068002815D0FFF7A3F805466B
:101C600008E02FE0FFF79EF8401B8049884201D929
:101C70000320BBE57C480069012149020840400A75
:101C80000028EFD013E0FFF78DF8054607E0FFF7D7
:101C900089F8401B7549884201D90320A6E572489E
:101CA0000069012149020840400A0028EFD1012EB5
:101CB00007D16D484038806B310788436A49403905
:101CC000886300BF202120680840202852D1A069E5
:101CD00000282BD000BF64484038806801210843A9
:101CE0006149403988600846406B012108435E49DC
:101CF000403948635E48006A0121490308435C4952
:101D0000086200BFFFF74EF8054606E0FFF74AF805
:101D1000401B022801D9032068E5534840388068F9
:101D20000221084040080028F0D023E000BF4E48C0
:101D300040388068400840004B49403988604C4832
:101D4000006A0121490388434949086200BFFFF73F
:101D500029F8054606E0FFF725F8401B022801D9BF
:101D6000032043E54048403880680221084040088D
:101D70000028F0D1A06A002872D03B484038C068E3
:101D80000C2108400C2869D0A06A022848D13648A6
:101D9000403800680121090688433349403908600A
:101DA000FFF700F8054606E0FEF7FCFF401B02289F
:101DB00001D903201AE52C48403800680121490662
:101DC0000840400E0028EFD1216BE06A0843616BA8
:101DD000084325494039C968FD221204914308434C
:101DE00021494039C86008460068012109060843B6
:101DF0001D4940390860FEF7D5FF054606E0FEF7AD
:101E0000D1FF401B022801D90320EFE416484038D7
:101E10000068012149060840400E0028EFD01FE06D
:101E20001148403800680121090688430E494039AD
:101E30000860FEF7B7FF054606E0FEF7B3FF401B5C
:101E4000022801D90320D1E4074840380068012165
:101E500049060840400E0028EFD101E00120C5E40A
:101E60000020C3E4007000404010024088130000CE
:101E700000000140704702460023106803465033BB
:101E80008800C3181868704710B5002304682346FB
:101E900050338C00E3181A6010BD000010B50446E2
:101EA00010484068C007C00F012148404840002842
:101EB00005D00C480068042108430A4908600A4814
:101EC000C0680C210840082804D00748C0680840B2
:101ED000002804D1FEF714FC04A003F0BFF962B699
:101EE00010BD00000070004000100240776B75705C
:101EF000206C6F772D706F776572206E6F770D0A8B
:101F00000000000010B50446206880680121090324
:101F10000840000B002811D02068C0680911084053
:101F2000000A00280AD02046FFF7B8FF2068C068E2
:101F300080210840124908432168C86020688068F1
:101F4000012149030840400B002811D02068C068D7
:101F500009110840400A00280AD02046FFF78AFFEE
:101F60002068C06880210840064908432168C8608D
:101F7000012040040449486101212120015510BD80
:101F80007FFEFFFF7FFDFFFF0004014070B50446A8
:101F90000D46002600BF2020005D012801D102204F
:101FA00070BD01212020015500BF022121200155D3
:101FB00000BFCA202168486253202168486200BFE0
:101FC000FF20013085422CD1206880682946884353
:101FD00021688860206880682901884321688860BA
:101FE000FEF7E0FE064615E0FEF7DCFE801B7D21D5
:101FF000C90088420ED900BFFF202168486200BF97
:1020000003212120015500BF00212020015500BFE0
:102010000320C5E72068C068C007C00F0028E3D0D0
:102020002EE0206880680121490288432168886089
:102030002068806801214903884321688860FEF791
:10204000B1FE064615E0FEF7ADFE801B7D21C900FE
:1020500088420ED900BFFF202168486200BF0321DB
:102060002120015500BF00212020015500BF032081
:1020700096E72068C0680221084040080028E2D0A6
:1020800000BFFF202168486200BF012121200155C7
:1020900000BF00212020015500BF002080E7000084
:1020A00010B50446002C01D1012010BD2FA003F073
:1020B000D5F82120005D002805D100212020015500
:1020C000204600F061F802212120015500BFCA20FE
:1020D0002168486253202168486200BF204600F012
:1020E0007BFE002809D000BFFF202168486200BFA6
:1020F0000421212001550120D7E72068806821496B
:10210000084021688860216960680843A169084324
:10211000216889680843216888602168E06808614F
:102120002068006921890904084321680861206842
:10213000C068802188432168C8602068C06C80081E
:1021400080002168C8646169E06908432168C96C3E
:1021500008432168C86400BFFF202168486200BFAF
:1021600001212120015500209FE7000048414C5FDC
:102170005254435F496E6974205374617274200D28
:102180000A000000BFFF8FFF054A0168914206D197
:1021900004490969012292041143024A11617047FE
:1021A0000028004040100240F8B504460D4616468F
:1021B000002700BF2020005D012801D10220F8BDCA
:1021C00001212020015500BF022121200155002EB0
:1021D00009D1687810210840102804D16878EF21CF
:1021E00008400A306870002E11D1E87800F0E7FD51
:1021F0000304687800F0E3FD00020343A87800F0D0
:10220000DEFD03432878400303431F4612E068784D
:1022100000F0C8FD0746A87800F0C4FD0746E8783E
:102220000004697809020843A9780843297849031A
:102230000843074600BFCA2021684862532021682E
:10224000486200BF204600F0C7FD00280ED000BF46
:10225000FF202168486200BF04212120015500BFF2
:1022600000212020015500BF0120A8E7194838406F
:10227000216848602068C068802188432168C86060
:102280002068806820210840002813D1204600F0F3
:10229000CDF800280ED000BFFF202168486200BFA3
:1022A00004212120015500BF00212020015500BF3D
:1022B000012084E700BFFF202168486200BF0121A0
:1022C0002120015500BF00212020015500BF002022
:1022D00075E700003FFFFF00F8B504460D461646BF
:1022E000002700BF2020005D012801D10220F8BD99
:1022F00001212020015500BF022121200155002E7F
:102300001BD12068806840210840002800D002E0EE
:102310000020E87000BF287800F051FD03046878C1
:1023200000F04DFD00020343A87800F048FD034390
:10233000E878000403431F4618E0206880684021C5
:102340000840002804D0287800F02CFD074602E061
:102350000020E87000BF287800046978090208436B
:10236000A9780843E97809040843074600BFCA2052
:102370002168486253202168486200BF204600F06F
:102380002BFD00280ED000BFFF202168486200BF4F
:1023900004212120015500BF00212020015500BF4C
:1023A0000120A4E720483840216808602068806840
:1023B000012189048843216888602969E868084305
:1023C000216889680843216888602068C068802186
:1023D00088432168C8602068806820210840002860
:1023E00013D1204600F022F800280ED000BFFF20B5
:1023F0002168486200BF04212120015500BF00214F
:102400002020015500BF012071E700BFFF20216897
:10241000486200BF01212120015500BF002120207A
:10242000015500BF002062E77F7F7F0070B5044642
:1024300000252068C068A02188432168C860FEF795
:10244000B1FC054608E0FEF7ADFC401B7D21C9004C
:10245000884201D9032070BD2068C068202108404F
:102460000028F0D00020F6E7034800690221084365
:10247000014908617047000000E000E0042806D12F
:102480000649096904221143044A116105E0034920
:10249000096904229143014A1161704700E000E09C
:1024A0007047000070B504462546681E09498842F9
:1024B00001D901200CE0681E074948610321081F6B
:1024C00000F05CFB002004498861072008610020BF
:1024D00070BD0000FFFFFF0000E000E010B5FFF757
:1024E000DFFF10BD704770470146002200236920BE
:1024F000425C6A20435C104618437047F8B50446B6
:102500002068C569206806682807000F00900098B9
:1025100000280BD120202840002807D02020304060
:10252000002803D0204602F0C6F9F8BD206887686D
:10253000009800287ED0F807C00F002804D1FF20A3
:10254000213030400028F5D0E807C00F00280BD01C
:10255000FF2001303040002806D0012021680862A9
:10256000E06E01210843E0660220284000280AD0DE
:10257000F807C00F002806D0022021680862E06E2C
:1025800004210843E0660420284000280AD0F80708
:10259000C00F002806D0042021680862E06E0221E6
:1025A0000843E0660820284000280ED02020304054
:1025B000002803D1F807C00F002806D008202168A2
:1025C0000862E06E08210843E066E06E002841D012
:1025D00020202840002806D020203040002802D0AB
:1025E000204602F068F9E06E08210840002805D175
:1025F0002068806840210840002826D0204602F04C
:1026000039F92068806840210840002819D02068E6
:102610008068884321688860606E00280DD0264855
:10262000616E8863606EFEF72BFA002812D0606E30
:10263000816B00E00FE088470CE02046FFF753FF76
:1026400008E02046FFF74FFF04E02046FFF74BFF6E
:102650000020E06669E7012000052840002811D02D
:1026600001208005384000280CD001200005216899
:1026700008622021692001556A2001552046FFF794
:1026800031FF52E780202840002807D080203040CA
:10269000002803D0204602F04FFB46E740202840A8
:1026A000002807D040203040002803D0204602F008
:1026B000F2F83AE700BF38E75D48000810B5044675
:1026C000002C01D1012010BDA069002800D000E03D
:1026D00000BF6920005D002805D100216820015558
:1026E000204600F02DF8242169200155206800685B
:1026F0004008400021680860606A002802D0204637
:1027000001F0FAFF204602F01FF9012800D1DAE7B4
:10271000206840680921C902884321684860206810
:1027200080682A2188432168886020680068012128
:10273000084321680860204602F056F8C3E700000D
:1027400010B586B0044629492068884217D1284828
:10275000406B012189030843254948630320400257
:102760000190022002900120039003200490042095
:10277000059001A905200007FEF708FA34E01D497D
:102780002068884216D11A48806B01214904084309
:10279000174988630C2001900220029001200390C9
:1027A000032004900420059001A905200007FEF7EE
:1027B000EDF919E010492068884215D10C48806B6A
:1027C0000121C90408430A4988630320800201905B
:1027D000022002900120039003200490062005901F
:1027E00001A90648FEF7D2F906B010BD0038014035
:1027F0000010024000440040004C0040000800501F
:1028000010B503466A20C05C20286AD1002901D097
:10281000002A01D1012010BD012424039868A042A0
:1028200008D11869002805D1C807C00F002801D0B9
:102830000120F0E700BF6820C05C012801D1022020
:10284000E9E701246820C45400BF59655820C252EA
:102850005A20C25200BF24039868A0420AD11869C6
:10286000002803D1204C5C20C45220E0FF245C20CF
:10287000C4521CE0986800280AD11869002803D1C6
:10288000FF245C20C45212E07F245C20C4520EE07E
:10289000012424079868A04209D11869002803D1AF
:1028A0007F245C20C45202E03F245C20C45200BF5D
:1028B0000020D86622246A20C45400BF0024682067
:1028C000C45400BF18688068012420431C68A060BD
:1028D00018680068FF24213420431C682060002011
:1028E00099E7022097E70000FF01000010B50446B9
:1028F0000F49206888421AD10E48817A0289FF3830
:10290000FD3881540B480089401C81B2094801817F
:10291000FEF748FA084988600121064801730089DA
:1029200081218900884202DB00210248018110BD1B
:10293000004400403809002090050020FEB5044600
:102940000D4616461F46002001906920005D202894
:102950006AD1002D01D0002E01D10120FEBD012140
:102960000903A068884208D12069002805D1E8073A
:10297000C00F002801D00120F0E700BF6820005DF3
:10298000012801D10220E9E701216820015500BF9B
:102990000020E066212169200155FEF703FA01902D
:1029A000502006535220065325E05220005B401E63
:1029B00081B2522001530097002280212046019BC2
:1029C00002F0F3F9002801D00320C7E70121090331
:1029D000A06888420BD12069002808D10295029D89
:1029E0002888C005C00D21688862AD1C03E02878E6
:1029F0006D1C216888625220005B0028D5D10097A9
:102A0000002240212046019B02F0CFF9002801D08E
:102A10000320A3E720216920015500BF0021682081
:102A2000015500BF002099E7022097E7704700009A
:102A3000024903A002F012FC00BFFEE7155D00088A
:102A400025730D0A0000000000B585B00020642346
:102A500002900390019300930490054B054A0649A8
:102A60000648FDF7EAFF0548FDF74CFF05B000BD3D
:102A700090090020F40900209C0600200C0700208B
:102A800010B50E480E490860E12040024860002160
:102A90000B488160C16001610C21416100218161AD
:102AA000C16101620020064948620846FFF706FE40
:102AB000002801D0FDF71CFF10BD000000380140C8
:102AC000BC05002010B5144814490860E1204002FC
:102AD0004860002111488160C16001610C214161A1
:102AE00000218161C161016200200C4948620846F1
:102AF000FFF7E4FD002801D0FDF7FAFE00220421D3
:102B00001C20FEF78FF91C20FEF780F901220449F2
:102B10000248FFF775FE10BD004400402C0600205F
:102B20004209002010B51248124908604B20C0012C
:102B3000486000210F488160C16001610C21416142
:102B400000218161C161016200200A494862084692
:102B5000FFF7B4FD002801D0FDF7CAFE00220321D3
:102B60000E20FEF75FF90E20FEF750F910BD0000B1
:102B7000004C00409C0600207047000010B5002863
:102B800019DA1A4A03071B0F083B9B089B00D2580F
:102B90008307DC0EFF23A3409A438B071B0E840799
:102BA000E40EA3401A43114B0407240F083CA40869
:102BB000A4001A5118E00E4A03231B02D2188308FE
:102BC0009B00D2588307DC0EFF23A3409A438B0758
:102BD0001B0E8407E40EA3401A43054B0324240272
:102BE0001B198408A4001A5110BD00001CED00E060
:102BF00000E100E070B5044600260025042C01D158
:102C0000062600E026460120B040074948710748E3
:102C10000721026B04489047C5B22A46044905A023
:102C200002F01CFB284670BD750500207C0A0020C0
:102C3000B20200004170703A2E2E5C48414C5C7329
:102C4000656E736F725C7372635C73656E736F72C3
:102C50002E632C6C696E65203A2025642C527334E7
:102C60003835732D2D6C656E203D2025640D0A00CE
:102C70007047000010B50146002300222048C068BC
:102C8000F0242040002829D11D48806B012424070E
:102C90002040002806D01B4800680324E40220409E
:102CA000034613E01648806B012424072043144C8C
:102CB000A063144800680324E4022040034610483F
:102CC000806B01242407A0430D4CA0630320C002A5
:102CD000834203D1C000814200D101220A4800682A
:102CE000400840001043084C206020460068C007A0
:102CF000C00F904201D0012010BD0020FCE7000071
:102D000000100240007000400020024070B50546EF
:102D1000002442E05C216143214A891808460C30B6
:102D20001421FDF744FA5C2060431D49095C5C20D6
:102D300060431B4A801801735C20604311464018B1
:102D400045735C20604340188078FF2109020840E9
:102D500001125C206043801881735C20604311463F
:102D6000401880785C2161438918C8735C206043F7
:102D700011464018C078FF210902084001125C206A
:102D80006043801801745C20604311464018C0788D
:102D90005C21614389184874641C0F2CBAD370BD40
:102DA00010000020014600BFF020084000110A2357
:102DB000584302460807000F8018C0B2704701460A
:102DC000002203E0521C08460A38C1B20A29F9D28F
:102DD0001007000E0843704770B5044600252068B0
:102DE000C06840210840002815D1401E2168C860F5
:102DF000FDF7D8FF054608E0FDF7D4FF401B7D2115
:102E0000C900884201D9032070BD2068C0684021F4
:102E100008400028F0D00020F6E7000010B5044874
:102E2000FFF770F8FF2101310148FFF7AFF810BD3F
:102E3000580A002000B587B000212248FFF71BF890
:102E4000214988423BD021481E4908600020486043
:102E50007F211C488160FF21C16000210161416127
:102E60008161C161FFF71CF9002801D0FDF740FD29
:102E700000216846017241728172C1720020059082
:102E80000690002202A90F48FFF726FA002801D079
:102E9000FDF72EFD0121684601714171817100210C
:102EA000C171002201A90748FFF77EF9002801D06F
:102EB000FDF71EFD044A00210248FEF7E5FF07B0BA
:102EC00000BD0000580A0020F23200000028004037
:102ED00070B51025002407E02846A04081B20022EA
:102EE0000348FDF758FF641C062CF5DB70BD00009D
:102EF00000040050FEB506460D460122D103052010
:102F00000007FDF748FFE9B22648426B304690477C
:102F1000C820FDF70FFE24A002F0A0F9002704E06E
:102F2000F15D24A002F09AF97F1CA81C8742F7DB10
:102F300022A002F093F9A81C82B2FF233146204858
:102F4000FFF7FCFC00220121C90305200007FDF763
:102F500022FFFF20F530FDF7EDFD14211148FDF7AC
:102F600026F91048C16A88470446601E0D49085C6E
:102F70000190A01E085C0090A01EC1B20948426BDF
:102F80009047601E0749095C0198814207D1A01E45
:102F90000449095C0098814201D12046FEBD002011
:102FA000FCE700007C0A00202D2D2D73656E642047
:102FB0003A20000025303258200000000D0A0000A1
:102FC0009C06002038B5054600240BA002F046F907
:102FD00007E0684600782855295D0DA002F03EF90B
:102FE000641C69460C48FDF7FDFC0028F1D00BA0DD
:102FF00002F034F9204638BD2D2D2D2D6765745F04
:103000007273343835446174612D2D2D2D3A2000B2
:1030100025303258200000000C0700200D0A000067
:1030200010B5FFF77FFDFFF70FFD0B480B49486117
:103030000B4888610B48C8610B4808620B4848621E
:103040000B4888620B4848630B48C8620B4808630A
:103050004869804710BD0000B53000087C0A002098
:1030600081300008D12E000841520008215200088A
:103070003131000829080008C52F0008F52E000886
:1030800070B505461026002407E03046A04081B206
:1030900000220748FDF77FFE641C062CF5DB304656
:1030A000A84081B201220248FDF775FE70BD000004
:1030B0000004005000B587B000BF1A48C06A012163
:1030C00008431849C8620846C06AC007C00F01908B
:1030D00000BF00BF00BF0846C06A02210843114973
:1030E000C8620846C06A02210840019000BF00BFC4
:1030F0000D4802900120039000200490059002A941
:103100000A48FDF743FD0120C0030290012003900F
:1031100000200490059002A905200007FDF736FD68
:1031200007B000BD00100240F8430000000400504A
:1031300070B505460E46002404E0295D04A002F0A7
:103140008DF8641CB442F8DB03A002F087F870BD70
:1031500025303258200000000D0A000070470000A2
:10316000F0B587B005460027142102A8FDF71FF827
:10317000002431E10021A7486843A74A80184B305A
:103180004C22624380184170A2486843A24940180B
:103190004B304C216143405C00287DD023462A46B9
:1031A000FF21C2319D4802F059F8E0B2FFF722FD3D
:1031B0009B494979884207D023462A46FF21C631D8
:1031C000984802F04BF806E12246FF21CB319648A1
:1031D00002F044F895480721026B95489047C7B222
:1031E0003A46924902A8FCF7C9FFFF21D231914823
:1031F00002F034F88D483946826A02A89047052FBC
:103200006CDD6846C27AFF21D7318B4802F026F880
:10321000002600BF4CE05C2070438149085C694691
:10322000C97A884243D101217A4868437A4A801892
:103230004B304C2262438018417028012043C1B2B8
:1032400074486843744A80184B304C22624380189B
:10325000817070486843704A80184B304C2262433A
:103260008018C6705C2070436D49401841786948E9
:103270006843694A80184B304C22624380180171C0
:103280005C20704366494018817962486843624A0D
:1032900080184B304C2200E09CE062438018417162
:1032A0003246FF21E531654801F0D8FF02E0761C87
:1032B0000F2EB0D300BF0F2E0FD100215548684309
:1032C000554A80184B304C22624381546846C27A7A
:1032D000FF21ED315A4801F0C1FF7BE02246FF217A
:1032E000F431584801F0BAFFFDF75CFD019000266B
:1032F0005AE05C2272434A4BD21811795C22724325
:10330000D21810460C30494A126B00929047C7B24F
:103310005C207043424940184079B84243D15C2058
:1033200070430A5CFF21FF3147A001F097FF0121A4
:1033300038486843384A80184B304C226243801822
:10334000417028012043C1B232486843324A801894
:103350004B304C226243801881702E4868432E4ABD
:1033600080184B304C2262438018C6705C2070433A
:103370002B494018417827486843274A80184B302A
:103380004C226243801801715C207043244940182C
:10339000817920486843204A80184B304C22624390
:1033A0008018417102E0761C0F2EA2D300BF0F2EB1
:1033B0000FD1002117486843174A80184B304C2220
:1033C000624381546846C27A832189001C4801F017
:1033D00045FF00BF00BF641C052C00DACAE60020D0
:1033E0002949487111480721026B27489047C7B205
:1033F000002F07D10749091D244801F02FFF0120A4
:1034000007B0F0BD8721890021A001F027FF00202F
:10341000F6E7000013020000B40A0020685F00080D
:103420001000002088600008206200087C0A00204C
:103430007F0500207C5E000870620008AC5F000819
:1034400010630008306100084170703A2E2E5C480D
:10345000414C5C73656E736F725C7372635C736511
:103460006E736F722E632C6C696E65203A20256432
:103470002C646576696365206861642066696E64A2
:103480003A253032780D0A007505002044600008A6
:103490004170703A2E2E5C48414C5C73656E736FC0
:1034A000725C7372635C73656E736F722E632C6CE7
:1034B000696E65203A2025642C636C6F7365206506
:1034C0007870656E6420626F780D0A00FEB5044660
:1034D0000026002002907D204001019000250CE193
:1034E00088486043884940184B304C216943401854
:1034F000407800287ED0E8B2FFF77CFB8349497909
:10350000884207D02B4622467E494C31804801F044
:10351000A5FEF1E07D20C000FDF70CFB794B634375
:10352000794FDB194B334C276F43DB19DB785C2772
:103530007B43764FDB191979724B6343724FDB196A
:103540004B334C276F43DB19DB785C277B436F4F92
:10355000DB1918460C306F4B1A6B9047C6B2FDF75B
:1035600021FC02901CE0674B6343674FDB199B789B
:103570005C277B43654FDB191979624B6343624FCC
:10358000DB199B785C277B43604FDB1918460C30B6
:10359000604B1A6B9047C6B2FF20F530FDF7CAFAB0
:1035A000FDF700FC0299411A019881420FD255485B
:1035B0006043554940184B304C2169434018C0784E
:1035C0005C214843514940184079B042CBD14D4825
:1035D00060434D4940184B304C2169434018C07836
:1035E0005C214843494940184079B04211D04548D0
:1035F000604300E07FE0444940184B304C21694370
:10360000401882783F495B31434801F027FE012092
:10361000FEBD42480078401C40490870394961436A
:10362000394A89184B314C226A438918881D314622
:10363000FCF7BDFD33496143334A89184B314C22B5
:103640006A438918881D32463249FCF797FD2D4898
:1036500060432D4FC0194B304C276F43C0198378FE
:10366000681C05460246601CC0B2044601462C4850
:1036700001F0F4FD601EC4B26D1E22496143224B6D
:10368000C9184B314C236B43C918881D21498A6ADC
:103690003146904700200090032729E019486043F5
:1036A000194940184B304C2169434018801DC15DB9
:1036B00014486043144A80184B304C226A438018E7
:1036C0003830009A81540F4860430F4940184B30FE
:1036D0004C216943401838300099435C3A46052133
:1036E000C901104801F0BAFD0098401C00907F1CF1
:1036F000B01EB842D2DC00BF6D1C052D00DAEFE62B
:10370000002085E713020000B40A0020100000200A
:10371000886000087C0A00208C610008201A0020C4
:10372000AC630008385E000870B506460D460024FC
:103730002AE0042C13D14020304000280ED0012173
:1037400013486843134A80184B304C22624381541B
:103750002A46FF21A63110A001F080FD16E00120CD
:10376000A040304000280ED02A46FF21AC310AA0EC
:1037700001F074FD012106486843064A80184B3069
:103780004C2262438154641C052CD2DB00BF70BD07
:1037900013020000B40A00204170703A2E2E5C48DB
:1037A000414C5C73656E736F725C7372635C7365BE
:1037B0006E736F722E632C6C696E65203A202564DF
:1037C0002C6D61696E426F7820696E646578203A6D
:1037D00020253032780D0A0070B504460C48C168C7
:1037E00020468847012805D1E0B2094A116A884776
:1037F00005460AE00648C16820468847022804D1E9
:10380000E0B2034A516A88470546284670BD000069
:10381000201A0020F0B58FB000200E9000270D90E8
:1038200000260290FE49086A804700241DE0601CC3
:10383000C0B2044602468D21FA4801F00FFD601E19
:10384000C4B2F948C1682046884703280BD0F44821
:103850008169204688477D20C000FDF76BF9F2485A
:10386000816920468847601CC4B2062CDFDBEC4926
:10387000C8698047EA49486A80470020EB490870D8
:10388000E94802789F21EA4801F0E8FC002403E3BC
:10389000E8486043E849085C01287CD1E2480178A7
:1038A0000298814277DD2246A421E448029B01F080
:1038B000D5FCE0486043E049401801790E980818AB
:1038C000C0B20E900E98262866DCDA486043DA49CA
:1038D00040184278D54800784C214843D8494318CD
:1038E0003946781CC7B25A54D2486043D24940186E
:1038F000C278CE4800784C214843D1494318394614
:10390000781CC7B25A543146CEA001F0A7FC00255E
:103910000AE0C8486043C84A80183730415DCEA0ED
:1039200001F09CFC681CC5B2C2486043C249401803
:103930000079801EA842ECDCC6A001F08FFCBD4BD4
:103940006343BD4D5B191B799B1E9AB2B94B634310
:103950005B191946373103AB981902F0BFF90025FE
:1039600007E0701903AA115CBBA001F077FC681C8A
:10397000C5B2B0486043B04940180079801EA842E3
:10398000EFDCB4A001F06AFCAA496143AA4A891895
:103990000846373001E073E021E0FCF713FC8019A2
:1039A000C6B2A4486043A449401801790D9808188C
:1039B000C0B20D900298401CC0B202909D49614374
:1039C0009D4A891808463730FCF7FCFB33460090C7
:1039D000964801780E9AA2A001F040FCF7E1002081
:1039E0000190924A12784C235A43954BD1188F4A32
:1039F00012784C235A43924BD2182632019BD0188E
:103A00003A4602F06BF90198C019C0B2019087499B
:103A100009784C2251438A4A89182631019A88181C
:103A2000324603A902F05AF93346804801780E9ACB
:103A30009AA001F013FC00250CE07C4800784C2291
:103A400050437F4A80182630415DA1A001F006FC5A
:103A5000681CC5B2B542F0DB7EA001F0FFFB314629
:103A600003A8FCF7A4FB601EC4B270480078401C99
:103A70006E49087000200E900D9000260027A6E1E8
:103A80006C4860436C49085C0228A7D166480178FD
:103A900002988142A2DD002596E12246D8218E4877
:103AA000029B01F0DBFB63486043634A80184B30A4
:103AB0004C226A4380184178224688A001F0CEFB50
:103AC0005C4860435C4940184B304C2169434018C6
:103AD000407800287ED057486043574940184B3003
:103AE0004C216943401841790E980818C0B20E90D5
:103AF0000E9826286FDC4F4860434F4940184B30E2
:103B00004C21694340188178484800784C22504342
:103B10004B4A821838467B1CDFB21154454860433B
:103B2000454940184B304C216943401801793F48C2
:103B300000784C225043424A821838467B1CDFB240
:103B4000115431466DA001F089FB3A4860433A4B6D
:103B5000C0184B304C236B43C0184079801E82B292
:103B600034486043344BC0184B304C236B43C0186F
:103B70000146383103A88019019002F0AFF8002007
:103B800001900AE00198301803AA115C32A001F0FC
:103B900065FB0198401CC0B201902648604326494D
:103BA00040184B304C21694340184079801E0199E0
:103BB0008842E7DC27A001F051FB1E4860431E4904
:103BC00040184B304C21694340184079801E8019C1
:103BD000C6B201E0F6E09FE016486043164940187F
:103BE0004B304C216943401841790D980818C0B2F8
:103BF0000D900298401CC0B202900E4961430E4ADB
:103C000089184B314C226A43891808463830FCF732
:103C1000D9FA019033460090044801780E9A77E073
:103C20007C0A0020F05F0008201A002074050020A4
:103C3000205F000813020000B40A0020545D000851
:103C400026170020303054656D70496E6465782009
:103C50003D2025640D0A0000253032782000000048
:103C6000313153656E6442756673436F756E74656A
:103C700072203D2025642C204C656E203D2025645B
:103C80002C54656D70496E646578203D2025642C48
:103C900020627566203D2025640D0A00323253658E
:103CA0006E6442756673436F756E746572203D2055
:103CB00025642C204C656E203D2025642C54656DB8
:103CC00070496E646578203D2025640D0A0000006F
:103CD0002530327800000000A05D0008457870654E
:103CE0006E436865636B203D2025642C20506F7205
:103CF000744964203D2025640D0A0000313154656B
:103D00006D70496E646578203D2025640D0A0000C1
:103D100066A001F0A3FA55E00020019072480078F7
:103D20004C225043714A81186F4800784C2250430E
:103D30006E4A80182630019A83183A46184601F0D8
:103D4000CDFF0198C019C0B20190674909784C2293
:103D50005143664A89182631019A8818324603A9C8
:103D600001F0BCFF604801780E9A61A001F076FA7C
:103D7000002000900FE05C4800784C2250435B4AE2
:103D800080182630009A815C624801F067FA00983A
:103D9000401CC0B200900098B042ECDB51A001F092
:103DA0005DFA314603A8FCF702FA681EC5B24E4818
:103DB0000078401C4C49087000200E900D900026A1
:103DC000002700BF681CC5B2052D00DA65E6524821
:103DD0000178029881425DD10025434800784C2249
:103DE0005043424A8118404800784C2250433F4A91
:103DF0008018263043193A46184601F06FFF2246D4
:103E0000FF2111314548029B01F028FAE819C5B29B
:103E1000294643A001F022FA334909784C22514344
:103E2000324A891826314819324603A901F056FF53
:103E30000D98334600902C4801780E9A3CA001F072
:103E40000DFA002001900FE0274800784C225043E3
:103E5000264A80182630019A815C2E4801F0FEF92E
:103E60000198401CC0B201900D9901988842EBDB8B
:103E70001CA001F0F3F9314603A8FCF798F91A48A1
:103E80000078401C1849087000200E900D90002604
:103E9000002700BF601CC4B2062C00DAF8E4002042
:103EA0001D49087002900FB0F0BD00003333536518
:103EB0006E6442756673436F756E746572203D2043
:103EC00025642C204C656E203D2025642C54656DA6
:103ED00070496E646578203D2025642C62756620EB
:103EE0003D2025640D0A00007405002026170020DF
:103EF000343453656E6442756673436F756E7465D2
:103F000072203D2025642C204C656E203D202564C8
:103F10000D0A0000583C0008201A0020EC5D000843
:103F20004275664C656E203D2025642C200D0A00EC
:103F3000353553656E6442756673436F756E74658F
:103F400072203D2025642C204C656E203D20256488
:103F50002C54656D70496E646578203D2025642C75
:103F6000204C656E677468203D2025640D0A0000B2
:103F7000FEB5044600BF00BF7D2040010090574BB6
:103F80006343574E9B199B785C267343554E9B1990
:103F90001979524B6343524E9B199B785C267343AD
:103FA000504E9B1918460C304F4B1A6B9047C5B2B8
:103FB000FCF7F8FE01901CE0484B6343484E9B1908
:103FC0009B785C267343474E9B191979434B634397
:103FD000434E9B199B785C267343424E9B191846AF
:103FE0000C30414B1A6B9047C5B2FF20F530FCF7FF
:103FF000A1FDFCF7D7FE0199411A009881420BD22E
:10400000364860433649401880785C21484335493A
:1040100040184079A842CFD1304860433049401819
:1040200080785C2148432F4940184079A8420BD042
:104030002A4860432A4940184278284923312B48AE
:1040400001F00CF90120FEBD29480078401C2849E8
:10405000087022496143224A8918481D2946FCF705
:10406000A6F81E4961431E4A8918481D2A461E4962
:10407000FCF784F8601CC0B2044601461DA001F0A4
:10408000EDF8601EC4B215496143154BC918481DAF
:1040900015498A6A294690470027032619E00F48E8
:1040A00060430F494018401D815D0C4860430C4A35
:1040B00080183730C15509486043114640183730E1
:1040C000C35D324605493231144801F0C7F87F1C00
:1040D000761CA81EB042E2DC0020B4E71302000008
:1040E000B40A0020100000207C0A0020D4610008DF
:1040F000201A00206D61696E5F626F78203D202577
:10410000642C2073656E736F7220527334383520BF
:1041100072657644617461203A200000385E0008C0
:1041200070B503251348C16A884700241BE0114875
:104130008169204688477D20C000FCF7FBFC0E48C3
:10414000016920468847032804D021460BA001F0CE
:1041500085F803E0214610A001F080F8214615A063
:1041600001F07CF8641C062CE1DB0249C869804739
:10417000284670BD7C0A0020201A002070696E203D
:10418000253032783A2066696E642064657669630A
:10419000650D0A2C0000000070696E2025643A6EDF
:1041A0006F742066696E64206465766963650D0AC4
:1041B0002C000000675F696E646578203D202564EF
:1041C0000D0A0000F0B587B00446142102A8FBF7E1
:1041D000EEFF00BF03218A4860438A4A11548A488F
:1041E0000721026B8948904706463246864902A855
:1041F000FBF7C4FF84483146826A02A8904784488E
:104200004079B04222D16846C07A00281ED1FF21F1
:10421000443180A001F022F86846077B8C48214693
:10422000826838469047022175486043754A1154A8
:104230008748C16920468847601C04460246FF2122
:104240004D31844801F00AF8641ED3E0052E50DD9C
:104250006846C27AFF2153317F4800F0FFFF0025F6
:1042600000BF2EE05C2068436949085C6946C97A52
:10427000884225D1012162486043624A1154604856
:104280006043801844705E486043801885705C20ED
:1042900068435F4940184178594860438018C170AD
:1042A0005C2068435A49401881795548604380181A
:1042B00001712A46FF216231684800F0CFFF02E019
:1042C0006D1C0F2DCED300BF0F2D0CD103214C48F8
:1042D00060434C4A11546846C27AFF216A316048F3
:1042E00000F0BCFF04E0012145486043454A1154F9
:1042F00080E0FF2174315B4800F0B0FFFCF752FD15
:104300000190002572E05C226A43414BD21811797A
:104310005C226A43D21810460C303B4A126B009262
:104320009047064612E05C226A43394BD218117955
:104330005C226A43D21810460C30334A126B00924A
:1043400090470646FF20F530FCF7F4FBFCF72AFD0A
:104350000199411A5C2068432D4A80188068814287
:1043600006D25C206843114640184079B042DAD149
:104370005C206843264940184079B04227D15C2030
:1043800068430A5CFF21823137A000F067FF1C48B8
:1043900060431C4A80184470194860438018857037
:1043A0005C2068431A4940184178154860438018DA
:1043B000C1705C20684316494018817910486043F9
:1043C0008018017101210E486043115410E0601CF7
:1043D00004460246FF218E31334800F03FFF641E41
:1043E000032107486043074A11546D1C0F2D8AD3DF
:1043F00000BF00BF024860430249085C07B0F0BD3F
:1044000013020000B40A00207C0A00207F0500206F
:10441000100000204170703A2E2E5C48414C5C73B5
:10442000656E736F725C7372635C73656E736F72CB
:104430002E632C6C696E65203A2025642C6578709B
:10444000656E6420626F78206973206F6B0D0A00BF
:10445000201A0020C45E000870620008AC5F0008EB
:1044600064630008E86000084170703A2E2E5C48D2
:10447000414C5C73656E736F725C7372635C7365E1
:104480006E736F722E632C6C696E65203A20256402
:104490002C646576696365206861642066696E6472
:1044A0003A253032780D0A00BC62000810B5124877
:1044B00012494860124848611248086112488861F0
:1044C0001248C8601248C8611248486212488860A1
:1044D00012480862FEF7A4FD1149086A80470320CC
:1044E000FEF714FC002005490870486980470C4914
:1044F000486A804710BD000015380008201A0020C7
:1045000021410008C5410008D93700086D0A00089C
:1045100061310008CD34000829370008713F0008D8
:104520007C0A002010B5FCF743FCFDF7D7FF0548D7
:104530000068401C0349086003480068401C0249A9
:10454000086010BD880500208C05002030B59DB0A6
:104550002A4800680321C90288430121C902401882
:104560002649086005200F900120000410900012D9
:10457000119002201990C1031A9141041B91410529
:104580001C910FA8FDF70CF9002801D0FCF7B0F939
:104590000F200A9003200B9000200C900D900E909D
:1045A00000210AA8FCF764FF002801D0FCF7A0F95D
:1045B0002B20009000200390049001200004019023
:1045C0006846FCF7FFFD002801D0FCF791F91020A8
:1045D00001F0DEFAFDF748F805467D21C900FBF73A
:1045E00087FD0446FDF75EFF0420FDF747FF00222C
:1045F0001146501EFCF716FC1DB030BD0070004087
:1046000010B52148806B0121090708431E498863C2
:104610001E4800680321C90288430121C9024018CD
:104620001A49086000BF18480068012109040843BE
:104630001549086000BF00BF134800680121490404
:104640000840400C0028F7D00F480068C901084313
:104650000D49086000BF0C48006801214906084068
:10466000400E0028F7D00848C06880088000C01CB1
:104670000549C86000BF0448C0680C2108400C28E8
:10468000F9D1FDF7F1FE10BD0010024000700040AE
:1046900015480068FF2101310843134908600846A6
:1046A000C068124908401049C860084600681049AF
:1046B00008400D490860084680684008400088604E
:1046C00008460068012189048843074908600846B4
:1046D000C068FD21090488430349C86000200861BF
:1046E000C803044988607047001002400C40FF88EE
:1046F000F6FFF6FE00ED00E0818CC907C90F002926
:1047000008D001684968012252049143826A11432A
:10471000026851600222416A1140002907D00168F5
:104720004968D2039143C26A11430268516004226E
:10473000416A1140002907D0016849681204914379
:10474000026B1143026851600822416A114000293E
:1047500007D00168496812039143426B1143026814
:1047600051601022416A1140002907D00168896810
:1047700012029143826B1143026891602022416AC8
:104780001140002907D00168896812029143C26B69
:104790001143026891604022416A1140002915D0FE
:1047A0000168496892039143026C114302685160A9
:1047B00001221205016C914208D101684968032267
:1047C00052059143426C1143026851608022416A54
:1047D0001140002907D00168496812039143826C97
:1047E000114302685160704738B504460025002027
:1047F000E066FCF7D7FA0546206800680821084003
:1048000008280BD114482B4600228904009020462A
:1048100000F0CBFA002801D0032038BD20680068E2
:104820000421084004280BD10B482B46002209051F
:104830000090204600F0B9FA002801D00320ECE7F0
:104840002021692001556A20015500BF0021682000
:10485000015500BF0020E0E7FFFFFF0170B50546EE
:10486000AC6A00215A200153522001532046FDF723
:104870003AFE70BD01680968FF2221329143026847
:104880001160016889684908490002689160202226
:104890006A210A54704710B5044620680068402118
:1048A0008843216808602021692001552046FEF7D1
:1048B000BDF8002010BDF8B504465C20075B6A20F7
:1048C000005D222837D12068406A85B201210903A2
:1048D000A06888420AD12069002807D1666D284661
:1048E00038403080606D801C606505E0F8B228407B
:1048F000626D511C616510705A20005B401E81B2D0
:104900005A200153002914D120680068FF21213169
:10491000884321680860206880684008400021685A
:10492000886020216A2001552046FDF7DFFF002026
:10493000F8BD0020FCE72068806908210843216851
:1049400088610220F4E70000F0B587B00446002536
:1049500010260020059004900390EA4920688842C0
:1049600001D1012000E00020002800D000E000BFBD
:104970002169A068084361690843E1690843054665
:1049800020680068E04908402843216808602068E2
:104990004068032109038843E168084321684860AF
:1049A000A569D8492068884201D1012000E0002093
:1049B000002801D1206A0543206880680B21090284
:1049C000884328432168886000BFD0492068884216
:1049D00017D1CF48C0688007800F002806D0012873
:1049E00008D0022804D0032808D105E0012607E0FA
:1049F000022605E0042603E0082601E0102600BF99
:104A000046E0C4492068884217D1C148C0680C21DB
:104A10000840002806D0042808D0082804D00C2814
:104A200008D105E0002607E0022605E0042603E0A1
:104A3000082601E0102600BF2AE0B7492068884216
:104A400001D1002624E0B5492068884201D1002622
:104A50001EE0AC49206888421AD1AD48C0680321E5
:104A600089020840002808D001218902401A08D094
:104A7000401A04D0401A08D105E0002607E00226BB
:104A800005E0042603E0082601E0102600BF00BF71
:104A900000BF0220FCF7D0F907469A4920688842F7
:104AA00001D1012000E00020002856D00025042E6E
:104AB0001AD004DC002E07D0022E1CD108E0082EEC
:104AC00016D0102E17D117E0FCF7D4FD054616E0DE
:104AD0008F4840380068102108400009002801D0A4
:104AE0008F4D00E08F4D0AE0FCF7E8FD054606E03B
:104AF0000125ED0303E000BF0120039000BF00BFCC
:104B0000002D0AD0606841004018A84203D86068B0
:104B10000003A84202D201200390EFE060680290F7
:104B20002846FF21013100F0C0FB626852080023D3
:104B30008018594101910090029AFBF7EFFA05465F
:104B400003200002854205D37748854202D82068B9
:104B5000C560D3E001200390D0E00121C903E069E2
:104B6000884269D1042E3DD006DC002E09D0012EEA
:104B700011D0022E4DD11BE0082E40D0102E48D16E
:104B800048E07A0063685B08D0186168FBF7B0FA08
:104B900080B2049041E0FCF77FFD40006168490865
:104BA000401802906168FBF7A3FA80B2049034E0E9
:104BB000574840380068102108400009002808D0F4
:104BC00061684A08594BD018FBF792FA80B20490FA
:104BD00007E061684A08564BD018FBF789FA80B2A3
:104BE00004901AE0FCF76AFD40006168490840182B
:104BF00002906168FBF77CFA80B204900DE0616876
:104C00004A0801231B04D018FBF772FA80B2049003
:104C100003E000BF0120039000BF00BF4549049896
:104C20000840059004980007400F05990843059037
:104C300005982168C86061E0042E42D006DC002E91
:104C400009D0012E14D0022E53D11EE0082E45D0DB
:104C5000102E4ED14EE0FCF70DFD6168490840185A
:104C600002906168FBF744FA80B22168C86044E0B2
:104C7000FCF712FD61684908401802906168FBF773
:104C800037FA80B22168C86037E0214840380068B0
:104C9000102108400009002809D061684A08204B0B
:104CA000D018FBF725FA80B22168C86008E0616877
:104CB0004A081C4BD018FBF71BFA80B22168C86069
:104CC0001BE0FCF7FBFC6168490840180290616832
:104CD000FBF70EFA80B22168C8600EE061684A08EE
:104CE0000123DB03D018FBF703FA80B22168C86008
:104CF00003E000BF0120039000BF00BF039807B08E
:104D0000F0BD000000480040F369FFEF00380140AB
:104D10004010024000440040004C00400050004061
:104D200000093D000024F400FFFF0F0000127A008C
:104D30000048E801F0FF000001466920405C21289E
:104D400031D15220405A00280DD1086800688023D4
:104D500098430B68186008680068402318430B6884
:104D600018600020704701231B03886898420CD10B
:104D70000869002809D1CA6C1088C005C00D0B68ED
:104D80009862C86C801CC86405E0CB6C581CC86471
:104D900018780B6898625220405A401E83B2522005
:104DA00043520020DEE70220DCE7FFB581B0044675
:104DB0000D4617460A9E24E0701C002821D0002EC4
:104DC00005D0FBF7EFFF0499401AB04219D92068CB
:104DD0000068FF21A131884321680860206880684D
:104DE00040084000216888602021692001556A2020
:104DF000015500BF00216820015500BF032005B008
:104E0000F0BD2068C0692840A84201D1012000E01F
:104E10000020B842D0D00020F1E7000010B51348C0
:104E2000FDF76CFB0024FBF7BDFF044605E0FBF734
:104E3000B9FF001B142800D904E00C48FDF754FB0F
:104E40002028F4D100BFFBF7ADFF044605E0FBF7D7
:104E5000A9FF001B142800D906E0012204490348D9
:104E6000FDF7CEFC0028F2D100BF10BD2C060020BB
:104E70004209002010B50248FBF750FD10BD0000AC
:104E80000C07002002461068C06920231840202823
:104E900004D11068406A0870002070470120FCE7C8
:104EA00002461068C06980231840802804D1C8B227
:104EB00013689862002070470120FCE710B509488C
:104EC0000949086009484860094888600948C8607D
:104ED00009488861094808610948486108688047AD
:104EE00010BD00004D4F0008541A0020294F000843
:104EF000054F0008015000080D520008E951000854
:104F00002950000810B5002201214903052000079F
:104F1000FBF741FF0120FBF70DFE012251030520A5
:104F20000007FBF738FF10BD10B5012291030520E3
:104F30000007FBF730FF0120FBF7FCFD00220121F9
:104F4000490305200007FBF726FF10BD00B587B019
:104F500000BF2848C06A012108432649C8620846A4
:104F6000C06AC007C00F019000BF00BF00BF084665
:104F7000C06A022108431F49C8620846C06A02216C
:104F80000840019000BF00BF012002901A48039022
:104F90000120049002A905200007FBF7F7FD03207C
:104FA000400302900120039004900320059002A981
:104FB00005200007FBF7EAFD012080030290002096
:104FC0000390012004900320059002A90B48FBF7F1
:104FD000DDFD0122510305200007FBF7DCFE002266
:104FE00002210520FBF71EFF0520FBF70FFF07B08E
:104FF00000BD00000010024000001110000400502D
:1050000010B55020FBF796FD0349486980470349D6
:1050100003A000F023F910BD541A0020435D0008DE
:1050200025730D0A0000000010B5FBF7BBFE6849B0
:105030008968401A142875D96648007B002871D009
:105040000021644801730146088900F011FE60499F
:10505000486060490A895E4948685F49FBF78EF8F5
:105060005C48007A5A4908705A4801895A48FBF747
:105070009EF8002157480181002407E05448406809
:10508000015D56A000F0EAF8601CC4B250480078F8
:10509000A042F3DC53A000F0E1F84D48007804286A
:1050A00076D14B4840688078042807D1484840684A
:1050B000C078012802D1464908737AE04448406824
:1050C0008078042807D142484068C078022802D17D
:1050D0003F4908736DE03E4840688078042807D156
:1050E0003B484068C078032802D13949087360E022
:1050F000374840688078042807D135484068C07830
:10510000202802D13249087353E031484068807842
:10511000042808D12E484068C078212803D12C49A2
:10512000087346E050E02A4840688078042807D198
:1051300027484068C078402802D12549087338E0E4
:10514000234840688078042807D121484068C07807
:10515000412802D11E4908732BE01D484068807821
:10516000042807D11A484068C078422802D118495B
:1051700008731EE0164840688078042819D1144846
:105180004068C078432814D11149087311E0FFE743
:105190000F48007805280CDB0D4840680078FF2890
:1051A00007D10B4840684078002802D144200849C4
:1051B0000873074A11785068FAF7F9FF002004498C
:1051C0000870486800F0FCFC0148007B10BD00003E
:1051D00090050020380900203C0700202530327857
:1051E000200000000D0A000010B5044622780023BC
:1051F000DB4304486168FDF7A1FB452002490873C1
:1052000010BD00002C0600209005002010B50121E3
:1052100089030248FBF7B6FD10BD000000040050F2
:1052200010B5002208210548FBF7B5FD0022012139
:1052300089030248FBF7AFFD10BD000000040050D9
:1052400010B5012208210448FBF7A5FD01229103B6
:105250000148FBF7A0FD10BD000400500FB410B5CD
:1052600003A9044B044A029800F0F6F810BC08BCED
:1052700004B01847A55B0008B00500202021020CEF
:1052800001D010211046020A01D010460839020947
:1052900001D01046091F820801D01046891E42081D
:1052A00001D0881E7047081A7047F8B582B28BB2D9
:1052B000040C0D0C10465843002126465E43370C63
:1052C00036048019794116466E43370C360480192E
:1052D000794126466E438919F8BD02E008C8121FBD
:1052E00008C1002AFAD170477047002001E001C1CF
:1052F000121F002AFBD1704780F31088704700000E
:10530000F0B51FB484B007980699020D014314D07C
:105310004A484B491018484305140F9801280E9825
:105320001CD0281A401C0024464E47490094019185
:105330000290002814DA474227E00F98012443A383
:10534000012808D0002104980F9A84600360C2608D
:10535000416009B0F0BD0E98C143F4E74042E2E776
:10536000074612E0F80707D0224633460199009815
:10537000FBF702F801910090224633461046194689
:10538000FAF7FAFF04460E467F10002FEAD1029882
:10539000019B0028009A0799069802DAFAF7ECFFB9
:1053A00001E0FBF751F804460E460022284BFBF7BC
:1053B000E3F803D80020C043014607E00022254B54
:1053C00020463146FAF726FFFBF7B6F8102409E02D
:1053D000002C0ADB0A220023FAF7A0FE059B3032DC
:1053E0001A55641E02460A43F2D11122641C059B21
:1053F000121B1C190F9B012B03D0012308430ED154
:105400000AE0084304D011200E9000200F9084E79A
:105410000E98151A6D1E0BE00E98824202DD0023D5
:105420006D1C03E0824201DA00236D1E002BEED0DA
:1054300004980F998260C16030C08AE701FCFFFFC9
:10544000104D0000000024400000F03F300000003C
:105450000000F0430000E03FFFB597B0064600258E
:1054600018E2252877D100242746FD49049400E05E
:105470000443761C32780120203A90400842F7D14C
:1054800030782A280ED00222307801463039092996
:1054900016D804990A235943303940181443761C0E
:1054A0000490F1E7189802C804911890002904DAD2
:1054B0000120400304434842049002200443761C28
:1054C00030782E2814D1042004437078761C2A28C2
:1054D00009D11898761C80C8189009E00A214F431A
:1054E000303FC719761C3078014630390929F5D983
:1054F00030786C2810D006DC4C281AD068280ED0E2
:105500006A2817D104E0742813D07A2812D110E049
:105510000120400504430CE00121090501E00321BD
:1055200009050C437178814203D10120000524183C
:10553000761C761C3078119066280BD013DC582826
:105540007DD009DC00287BD04528F6D04628F4D051
:1055500047281AD1A5E118E0632835D0642870D017
:10556000652812D19DE170286CD008DC6728F1D045
:1055700069287BD06E280DD06F2806D1BAE0732839
:105580002ED0752871D0782859D01A9A1999904739
:105590006D1C7EE16002400F022809D003280DD067
:1055A0000428189801680DD00D60001D189070E156
:1055B0001898EA1701680D604A60F6E718980168C4
:1055C0000D80F2E70D70F0E718986A4601781172C5
:1055D000001D18900020507202A80090012005E0E4
:1055E000189802C8189000200091C04361070DD59B
:1055F000002101E00199491C0191B94212DA81426E
:10560000F8DB009A515C0029F4D10BE0002101E0A5
:105610000199491C01918142FADB019A0099895C48
:105620000029F5D1019904981A9B471A214638465A
:10563000199A00F097FA0199401945180BE04FE0CC
:105640002CE113E04EE0009800990078491C00918D
:105650001A9A199990470198401E0190401CF2D166
:10566000214638461A9B199A10E137E00A2000219A
:10567000009001916002410F022907D0189A01CAD7
:105680001892C2179446032908D00AE01898C01D42
:10569000C108C90005C91891944607E000B2C217B5
:1056A0009446042902D140B2C1178C4600226146BB
:1056B000944506DA0A460021404291418C462D214C
:1056C00002E0210504D52B216A461173012103E074
:1056D000E10701D02021F7E7029155E00A200AE016
:1056E000102008E0102000900021042004430191C4
:1056F000082703E008200021019100906002410F7B
:10570000022907D0189A01CA189200229446032948
:1057100008D008E01898C01DC108C90005C9189133
:10572000944603E080B2042900D1C0B20021029166
:10573000210729D51199702906D0009A1021019BC3
:105740004A401A4305D00EE040216A4611730121F8
:1057500008E06146014306D030216A461173119971
:10576000517302210291009A0821019B4A401A4379
:105770000AD16146014301D1610705D530216A464E
:10578000117301217F1E02911199582904D035A16E
:105790000E910DA90D910DE037A1F9E76146019B2E
:1057A000009AFAF7BBFC0E9B8C469B5C0D9A521E2E
:1057B0000D92137061460143F0D10D9805A9081AA6
:1057C00020300190600703D501200004844300E0ED
:1057D00001270198874201DD381A00E00020019975
:1057E00000904118029809180498401A0490E003A8
:1057F00006D421461A9B199A049800F0B3F945196A
:10580000002706E003A81A9AC05D199990476D1CFD
:105810007F1C02988742F5DBE0030CD521461A9BDA
:10582000199A049800F09EF9451904E01A9A30205C
:10583000199990476D1C0099481E00900029F5DCCD
:1058400008E00D980D990078491C0D911A9A199944
:1058500090476D1C0199481E01900029F1DC63E11D
:105860000928010030313233343536373839616236
:1058700063646566000000003031323334353637FA
:1058800038394142434445460000000000F05AF9CF
:105890004519761C3078002800D0E2E528461BB078
:1058A000F0BD600700D406271898C01DC108C900C4
:1058B00048680A680831C30FDB071891190001D046
:1058C0009CA108E0210501D59BA104E0E10701D0DE
:1058D0009AA100E09AA1430011985B0810916528F5
:1058E0000CD006DC452809D046281DD0472841D1D8
:1058F00041E0662818D067283CD13CE00021112FF8
:1059000001DB112000E0781C0191009008A911A88A
:10591000FFF7F6FC139905910021119A15927F1C4F
:1059200012980197009150E00120C00703900120D8
:10593000019008A9009711A8FFF7E2FC139A1499A7
:1059400005920022119B009212981593059A0192DC
:10595000002901D0104602E0791C40180190381A45
:1059600001D5019804E04042401E0090781C01904F
:10597000C01B029043E0012F00DA01270021112F04
:1059800001DD112000E038460191009008A911A81E
:10599000FFF7B6FC13990591119A00211298159200
:1059A0000091019721070CD40599B94201DB0199B7
:1059B00000E00191012904DD159A491E515C30294E
:1059C00006D0B84201DA011D05DA0121029115E085
:1059D0000199491EEDE7002805DC00994118009166
:1059E0000199091A03E0019A411C914200DD0191DD
:1059F0000099401A401C02900120C0070390200724
:105A000006D402990198814202DB0020C043029033
:105A100000206946C87707AF012103980337C907FB
:105A2000884224D0022011902B2012900398002845
:105A30000CDA404203902D20129007E00A210398CF
:105A4000FAF756FB30317F1E039039701199481ECA
:105A500011900029F2DC03980028EFD1791E1298EA
:105A600008703078202108404530BF1E387006A8E5
:105A7000C01BC01D039010980078002800D00120A2
:105A8000019941180298C017091803980918049839
:105A9000401A401E0490E00306D421461A9B199A2E
:105AA000049800F05FF8451910980078002803D09A
:105AB0001A9A199990476D1CE00324D521461A9B28
:105AC000199A049800F04EF845191CE00098002837
:105AD00007DB00990598884203DD1598405C199909
