:020000040800F2
:1000000080250020D500000893520008254D0008E7
:1000100000000000000000000000000000000000E0
:10002000000000000000000000000000B3580008BD
:100030000000000000000000455300086D6D00083E
:10004000FD7C0008E700000849550008E7000008AB
:10005000E70000088116000891160008A1160008A4
:10006000E7000008E7000008E7000008E7000008D4
:10007000E7000008E700000805770008356F000872
:10008000E7000008E7000008E700000800000000A3
:10009000E7000008E7000008E7000008E7000008A4
:1000A000E7000008E7000008E7000008E700000894
:1000B000AD760008E1530008E7000008E7000008FB
:1000C0000348854600F072FD004800478D8A00080D
:1000D000802500200448804704480047FEE7FEE7EB
:1000E000FEE7FEE7FEE7FEE7CD6E0008C100000870
:1000F00030B50B46014600202022012409E00D46C0
:10010000D5409D4205D31D469540491B2546954047
:1001100040191546521E002DF1DC30BD70B500248B
:100120002546002801DA01244042002901DA012590
:100130004942FFF7DDFFAC4200D04042002C00D026
:10014000494270BDF0B51FB40646002082B0054696
:100150004024019100901BE0019922460F46304651
:1001600000F0DEFA049A059B801A994110D31046DC
:100170001946224600F0C4FA361A8F4101972246EA
:1001800001200021009F00F0BBFA38184D4100907B
:100190002046641E0028DFDC019B00982946324679
:1001A00007B0F0BD03460B439B0703D009E008C925
:1001B000121F08C0042AFAD203E00B780370401C17
:1001C000491C521EF9D27047D2B201E00270401CA5
:1001D000491EFBD270470022F6E710B513460A46C7
:1001E00004461946FFF7F0FF204610BD30B505461E
:1001F0002A460B4610781C78521C5B1C002801D044
:10020000A042F7D0002C03D0002802D06D1CEFE7ED
:10021000284630BD421C0178401C0029FBD1801AC1
:10022000704710B5002200E0521C835C8C5CA34236
:1002300001D1002BF8D1D8B2E1B2401A10BD032190
:10024000001D401E037812021A43491EF9D51046BC
:100250007047034603220870000A491C521EFAD553
:10026000184670470FB400B58DB009900B9010A9D7
:1002700000200091C0430A9000200C900648069090
:10028000064807906A4609A80F9900F06FFA0DB06A
:1002900008BC04B0184700008D070008AD0700082F
:1002A000FFB50027FF4383B000205C6801909E6883
:1002B0001D46A9697F1C049888470090296A8847D1
:1002C0000028F6D10098401C0CD003204002844343
:1002D000002E19DD600614D500982B2809D02D2892
:1002E0000FD103E00020C04307B0F0BD0120800221
:1002F0000443A9697F1C04988847761E0090002E4D
:1003000002DD0098302803D00598002825D035E07C
:10031000012040020443A969761E7F1C0498884787
:100320000090002E03DD782805D0582803D00598CA
:10033000002810D022E00598002801D010281DD1F7
:10034000012040028443A969761E7F1C04988847D7
:100350000090102002E0082000E00A2005900DE047
:10036000012149020C43059A0199761E5143081850
:100370000190A9697F1C049888470090002E05DD34
:100380000599009800F0DDF90028E9DAE969049898
:100390008847A00502D40120C043A5E7E00722D189
:1003A000600611D56005019800D5404229680A1DF4
:1003B0002A600968220501D5087014E0220701D5DA
:1003C000088010E008600EE02868011D29600068C0
:1003D000210502D50199017005E02107019901D598
:1003E000018000E0016038467EE7F8B502464A40E9
:1003F000D40F42004B0052085B089A4202D20246D8
:10040000084611464A0023D0C30D4A00DDB2120E41
:10041000AD1A202D35DA49020126490AF6058A1956
:10042000002C00D0524220214F1B1146B9402A41D6
:100430001018C20D9A4221D0002C17D0012D08DCD3
:10044000DA05801AD20F8019D207DBB200F0C8F9A2
:10045000F8BDDA05801A012340001B06C018801879
:100460005A428018CA0F1043490007E04908C207E2
:100470001143DA05801A80194008801800F0A8F9A5
:10048000F8BD61000122511A001BF7E70122D207D3
:100490005140AAE70122D2075040A6E7024670B5B4
:1004A0004A40D30FDB0740002DD04A002AD0010E6E
:1004B000140E000212020919400A520A8418E501BA
:1004C00004465443000A120A2E045043A419421948
:1004D000200CC543AA18120C0125AD03521C521959
:1004E00012047F39240400D0521C104301D4400070
:1004F000491EC2B20C06C0092018401C4008802AC0
:1005000002D003E0002070BD40084000002900DA5E
:100510000020184370BD70B502464A40D50F400018
:100520004A00ED0740085208002814D0002A12D0D3
:10053000C40DD30D41020120C0055202490A520ADE
:10054000E41A091812187D34914201D3641C00E0AA
:100550004900002C01DA002070BD0023914201D334
:10056000891A0343400849000028F7D100290AD01E
:10057000914202D10121C90705E0914201D2012136
:1005800001E00121C943E005C018401900F020F93D
:1005900070BD0000F0B50C465C4085B0E40FE40788
:1005A00003944C000026640859009446490802460A
:1005B0000296224321D062460A431ED06200570DA4
:1005C0004A000E032303550D012402462C4924053D
:1005D000781B1B0B360B40182343264361460090C3
:1005E0001C46501AB44103D30098401C009002E00E
:1005F000921800985B41002803DA0020014605B0FC
:10060000F0BD0020012109050746864611E0644639
:100610001D46141BB54106D36546521BB3417446B3
:1006200007430C43A646CD074008490828439218C3
:100630005B4105460D43EAD11046184313D060468E
:10064000194650407140084306D06046101AB34125
:1006500006D20122002306E000220123DB0702E08C
:100660000122D2435310009874460105381C6141A1
:10067000029C039D0019694100F0EBF8BFE7000000
:10068000FD03000010B500229623114600F0A8F8E3
:1006900010BD00000EB505490291002100910A46E7
:1006A0000B46019100F0E2F803B000BD33040000F6
:1006B000410040020122400AD205090E80187F291C
:1006C00001DA00207047962903DC9622511AC840AF
:1006D0007047963988407047C20FD20740004008E3
:1006E0000BD0C10D0723DB01C91840020905400AE0
:1006F0001143C2084007114370470020014670476C
:1007000010B5202A04DB0146203A9140002010BD9C
:10071000914020239C1A0346E3401943904010BDAA
:1007200010B5202A04DB0846203AD040002110BD35
:100730000B46D340D0402024A21A914008431946CA
:1007400010BD3A2800D23038202302469A43412A6D
:1007500001D310463738884201D30020C043704788
:1007600002681378511801601846704710B5D160BF
:10077000044951610449116200211161114600F0E0
:1007800041FA10BD61070008F70B00084268002A13
:1007900008D001680B78491C002B03D0521E06C0FC
:1007A000184670470121C160881E70474268002AC0
:1007B0000BD0C3680168002B07D183688B4204D03B
:1007C000491E521C06C0002070470020C0437047DD
:1007D000002904DA401C490001D14008400070475C
:1007E00070B40024050C05D11024000402D10029A6
:1007F00021D01124050E01D100020834050F01D1CA
:100800000001241D850F01D18000A41C002801DBFC
:100810004000641C002908D020252E1B0D46F54001
:10082000A14000D001212943084301061B1B000AF7
:10083000DB1D02D5002070BC7047DB05181880183E
:100840000029F8DA401C4900F5D170BC400840008E
:10085000704710B5002B08DA0024401C6141921843
:100860005B411A4301D14008400010BDF0B51FB4F0
:1008700082B005460C0003D0084607F03BFC02E0BE
:1008800007F038FC20300246009021462846FFF74A
:1008900037FF049B059A04460F461843114308434B
:1008A00014D0184610431BD0009840210A1A18464D
:1008B0000599FFF735FF05460E46009A05990498FD
:1008C000FFF71EFF084305D0012004E0204639460B
:1008D00007B0F0BD0020C11705430E432C4337433A
:1008E00000990E986305401A7905E40A00220C432A
:1008F000FD0A0A3002D500200146E9E7010510197A
:1009000069410C9C0D9D00196941FFF7A2FFDFE7CB
:10091000F0B507460846584087B0C00F049048001D
:100920000E46590040084908BC1A884105D238468D
:1009300031461E4617460B460246580040081043F3
:100940004CD0300D039040055900400D490D0590E5
:10095000401A0290402872DA18030121000B0905A1
:100960000843019004980092002805D00199524252
:100970000020884100920190029840210A1A0199B2
:100980000098FFF7BDFE05460C466B4607CB00F00E
:100990001FF9C0197141039A0E0D0023D717564055
:1009A0001A467A40164344D0049A002A2DD0029A5F
:1009B000012A039A15DC1205C01A91410126360559
:1009C000001C7141D20F059ED2070093019202963E
:1009D0002A462346FFF74AFF07B0F0BD38463146A6
:1009E000FAE71605224A0F46B218C01AB74101218C
:1009F0000905001C4F4100187F4111461818794124
:100A0000E20F10436D19644113E0E2076D081543CE
:100A10006408C2071443039A01261205C01A9141C3
:100A20003605001C7141CE07400830434908C01804
:100A300051412A462346FFF70CFFCDE7FFE7049814
:100A400001224000C117121A00238B41049831463D
:100A5000C417381AA141EEE730B40124E40763401B
:100A600030BC55E730B40124E407614030BC4FE7A7
:100A70000000E0FFF0B51FB488B00B99099800247E
:100A800048400999C00F490049080991C0070B99CE
:100A90000090490049080B9109990898A646084317
:100AA0001CD00B990A98084318D0099801244000DB
:100AB000420D4800410D099824050003000B204316
:100AC00009900B980003000B20430B9050181C4911
:100AD0004018002201901446104605E0002001460F
:100AE0000DB0F0BD032801DA034600E003239C4665
:100AF000C11A0AAE0AE05F0008ADED5B4F00F75B7C
:100B00007D430027AA187C41491C5B1E6145F2DD2C
:100B1000410004AB5A522104120C0A43240C401C1D
:100B20000828DFDB0198029000997046019100903F
:100B3000059B049A07990698FFF798FED0E70000F6
:100B40000DFCFFFF4A0009030123090B1B05194394
:100B50000A4B10B5520D9A4202DA0020014610BD30
:100B6000064B34339A4203DC9A1AFFF7D9FD10BDC5
:100B7000034BD218FFF7C4FD10BD0000FF030000B7
:100B8000CDFBFFFF10B5002904DB0124E407404240
:100B90008C412146002B04DB1C460123DB0752421B
:100BA000A341994200D1904210BD0000064C01259E
:100BB000064E05E0E36807CC2B430C3C9847103405
:100BC000B442F7D3FFF780FA38950008589500082B
:100BD00010B5202A06DBCB170846203A1041C11772
:100BE0000B4306E00B461341D0402024A21A91404B
:100BF0000843194610BD10B50F21C0B2490200F0DC
:100C00009DF910BDF3B58DB000200A9001200B9026
:100C1000002608460C300C460990626901210998AB
:100C20009047051E2ED0252D2DD0216A88470028FB
:100C300018D06269012109989047216A88470028E5
:100C4000F7D1411E62690998904700E0761CA169BE
:100C50000D988847216A88470028F7D1E1690D98E7
:100C60008847DAE7A1690D9888470746A84201D16D
:100C7000761CD2E7E1690D9888477F1C02D10A985B
:100C8000002877D049E1002762693D463946099836
:100C900090472A280CD162690121099890470125C3
:100CA00006E00A214F433F18303FEBD410200543A4
:100CB0006269012109989047014630390A2903D217
:100CC0009B498F42DEDCECE7E90600D4994F6C28A3
:100CD0000AD04C2810D0682824D06A282ED0742836
:100CE0000CD07A280AD00DE062690121099890475A
:100CF0006C2823D004211CE02020054362690121D7
:100D000009989047A760656065284FD026DC582871
:100D100039D01ADC452849D012DC252834D04128A6
:100D2000B0D143E06269012109989047682802D058
:100D300008210D43E6E70120C002DEE70220DCE7E0
:100D4000462833D047282CD130E05B2870D061286A
:100D50002CD063286CD0642823D161E06F284FD059
:100D600009DC662822D0672820D0692826D06E2882
:100D700017D12EE0CDE070284DD073286FD07528A4
:100D80004ED078280DD154E0A1690D9888470546CA
:100D9000252800D16CE7E1690D9888476D1C00D1CA
:100DA0006DE7BAE00A224CE00A2252E00120234615
:100DB0006A46C0430D99C046C046A3E0284640217C
:100DC00008436060A807234601D5002239E00022CD
:100DD0003FE0E80700D020E72068011D216000689F
:100DE000290501D5067018E7290701D5068014E703
:100DF000A90703D5F117066041600EE706600CE70E
:100E00002846402108436060A807234601D50822F0
:100E100017E008221DE0484928460840606016E0B7
:100E20002846402108436060A8072346BCD5B9E79F
:100E300015E02846402108436060A80707D52346EF
:100E400010220120C0430D99C046C0465AE02346F7
:100E500010220120C0430D99FFF722FA52E0002131
:100E60000C910B460091632802D05B2807D043E029
:100E7000E80601D40120A060012000903CE06269F6
:100E80000121099890475E2805D101200C90014668
:100E90006269099890472169002906D10B4601AA89
:100EA0008F00491CD3510829FADB002835D021696D
:100EB00000290ED1C117C90E09184A11930001AAC1
:100EC0009A1849094901411A0120136888400343CF
:100ED000136062690121099890475D28E5D10C985B
:100EE000002808D0002001AB81005A58401CD24392
:100EF0005A500828F8DB01AB01202246C0430D9967
:100F0000C046C04600280ADA401C06D10B980028CB
:100F100003D00020C0430FB0F0BD0A98FBE7E907FB
:100F200002D10A99491C0A91361800200B9074E6E8
:100F3000CCCCCC0CFFFFFF7FF1F7FFFF7F2801D95E
:100F4000002207E0054B42089A5CC00700D1120955
:100F50001207120F01209040084070478A8C000849
:100F600070B58C180578401C6B075B0F01D10378B6
:100F7000401C2A1106D10278401C03E006780E704E
:100F8000401C491C5B1EF9D12B0705D40023521EBF
:100F90000DD40B70491CFAE70378401CCB1A921C45
:100FA00003E01D780D70491C5B1C521EF9D5A1424F
:100FB000D8D3002070BD70B5044600252068806835
:100FC000042108408008002829D020688068084053
:100FD00000280BD02068806802210840002805D135
:100FE00020688068102108432168886001F0A8FB10
:100FF00005460EE001F0A4FB401B0A2809D9A06DAC
:1010000010210843A065E06D01210843E06501203F
:1010100070BD20688068042108400028EAD10020C3
:10102000F6E7000038B50446074908480068FFF7AE
:101030005FF86043009002E00098401E0090009826
:101040000028F9D138BD000040420F000000002008
:1010500070B504460025206880688007800F01284D
:1010600007D120680068C007C00F002801D0012008
:1010700000E00020002837D0206880680521084063
:10108000012800D100E0002000280AD000BF20681D
:101090008068022108432168886003202168086075
:1010A00009E0A06D10210843A065E06D012108430F
:1010B000E065012070BD01F043FB05460EE001F044
:1010C0003FFB401B0A2809D9A06D10210843A065E9
:1010D000E06D01210843E0650120EBE720688068AE
:1010E000C007C00F0028EAD10020E3E770B504462E
:1010F0000025206880688007800F012807D12068BC
:101100000068C007C00F002801D0012000E00020C7
:10111000002839D1206880681C490840002801D186
:10112000012000E00020002809D1A06D1021084313
:10113000A065E06D01210843E065012070BD2068D5
:10114000806801210843216888600120FFF76AFF59
:1011500001F0F6FA05460EE001F0F2FA401B0A280B
:1011600009D9A06D10210843A065E06D0121084355
:10117000E0650120E2E720680068C007C00F012198
:10118000484048400028E7D00020D7E717000080FB
:10119000FEB504460D460026002000900194012073
:1011A0000003029001A91B4800F0E8FD002801D0CF
:1011B00000F0A4FA0021174800F074FD002717E0A2
:1011C000144801F033F86421124800F0BBFF00BF5F
:1011D000104800F077FE0121490208400028F7D0AE
:1011E0000C4800F072FE009000983618781CC7B2C8
:1011F000AF42E5DB074801F055F80194064802903C
:1012000001A9044800F0BAFD29463046FEF770FFF8
:10121000FEBD0000F40C00200110000000B587B0F6
:101220004E48806B0121090708434C49886300BF81
:101230000846C06A012108434849C8620846C06A96
:10124000C007C00F019000BF00BF00BF0846C06AC2
:10125000022108434149C8620846C06A0221084089
:10126000019000BF00BF00BF3C48C06A0421084392
:101270003A49C8620846C06A04210840019000BF8C
:1012800000BF00BF3548C06A802108433349C862A7
:101290000846C06A80210840019000BF00BF304866
:1012A00000F032FF00202E4988652E4803F0ECF84C
:1012B00000212C48603041722B4803F0E5F80021F2
:1012C000294860304172294803F0DEF800212748A0
:1012D00060304172264803F0D7F80021244860307E
:1012E00041722448029003200390022004900020C1
:1012F000059002A90520000701F016F902A91E4871
:1013000001F012F902A91D4801F00EF91C480290E3
:1013100003200390022004900020059002A91948A0
:1013200001F002F902F0E2FF0C48C06A40084000F8
:101330000A49C8620846C06A022188430749C86250
:101340000846C06A042188430449C8620846C06A46
:10135000802188430149C86207B000BD00100240E7
:10136000F40C00204C070020FC0500206C06002037
:10137000DC060020FFFF000000080050001C0050A9
:10138000FFC100000004005008B54A48007800285A
:101390003FD101F0E3F905F0F7FC00BF4648C06A11
:1013A000042108434449C8620846C06A0421084031
:1013B000009000BF00BF00BF3F48C06A80210843C3
:1013C0003D49C8620846C06A80210840009000BFBD
:1013D00000BF00BF3848C06A022108433649C862CE
:1013E0000846C06A02210840009000BF00BF00BF4D
:1013F0003148C06A012108432F49C8620846C06AC3
:10140000C007C00F009000BF00BF0120294908702D
:1014100039E005F013FD00BF2748C06A04210843E6
:101420002549C8620846C06A04210840009000BFF0
:1014300000BF00BF2048C06A802108431E49C8621F
:101440000846C06A80210840009000BF00BF00BF6E
:101450001948C06A022108431749C8620846C06A91
:1014600002210840009000BF00BF00BF1248C06AC0
:10147000012108431049C8620846C06AC007C00F6E
:10148000009000BF00BF03F0D5FC03F073FC04F034
:1014900067F800220321022001F09EF9022001F0EA
:1014A0008FF906F01DFA05F067FB0449486880478C
:1014B00008BD00000E00002000100240548C0008FF
:1014C00070B502460F48002312E0D55C6840002446
:1014D0000AE0C507ED0F002D03D040100A4D68400B
:1014E00000E04010651CECB2082CF2DB5D1CEBB296
:1014F0008B42EADBFF252D0205402D125618757030
:10150000505470BDFFFF000001A00000F8B5054673
:101510000E46002413E028786D1C444008270CE098
:1015200080202040002804D0600031214840C4B20F
:1015300001E06006040E781EC7B2002FF0DC3046D2
:10154000711ECEB20028E6D12246D42102A006F0B8
:10155000C1FD2046F8BD00004170703A2E2E5C554A
:101560005345525C5A6574612E632C6C696E65201C
:101570003A2025642C63726338203D202530325890
:101580000D0A0000F0B587B000200590069000BF5E
:101590000A212848FFF7FCFD694688822649098B05
:1015A0004A008A186946898A4A431046FFF76AF852
:1015B00004900A212148FFF7EBFD80B26946C882FA
:1015C000C98A0A03501AFFF75DF80390039904983B
:1015D000FEF7A1FF1A490290FEF760FF0746FFF7EA
:1015E0007BF8019100906846838AC28A1248018B79
:1015F00014A006F06FFD03990498FEF78CFF1049C4
:101600000290FEF74BFF07461B49FEF73FFF0646D9
:101610001A49FEF780FF0546FFF74AF8C4B2642C6A
:1016200001DB642402E0052C00DC0324204607B023
:10163000F0BD0000020000046000F81F000002443A
:101640000000FA44424154203D2025642061646337
:101650003137203D202564202C2061646330203DFB
:101660002025642C2056424154203D20252E3266F0
:101670006D56200D0A000000000061450000C040CA
:1016800010B5012000F040FF022000F03DFF10BD2A
:1016900010B5042000F038FF082000F035FF10BD21
:1016A00010B5102000F030FF202000F02DFF40206A
:1016B00000F02AFF802000F027FFFF20013000F01B
:1016C00023FF0120400200F01FFF0120800200F0F4
:1016D0001BFF0120C00200F017FF0120000300F0F3
:1016E00013FF0120400300F00FFF0120800300F0F2
:1016F0000BFF0120C00300F007FF10BD10B502A0D2
:1017000006F0E8FC10BD00006572726F720D0A00F1
:101710008168002907D001680968096820221143FF
:10172000026812681160704738B50446002C5ED01C
:101730002820005D00285AD0206800680068202119
:101740000840002828D06946206805F0E3FF0028FB
:1017500021D1A06800281ED068460078E28AA168DE
:101760008854E08A401C80B2E082E189884201DB33
:101770000020E082608BE189884203DA608B401CA4
:10178000608301E0E08A2083606A002803D0684615
:101790000078616A884700BF20680068006880217F
:1017A0000840002823D0A08A00280CD120680068B7
:1017B00000688843216809680860206A002816D0FC
:1017C000206A804713E0638A6268D15C206805F074
:1017D000AFFF00280BD1608A401C80B26082A189D3
:1017E000884201DB00206082A08A401EA08238BDB2
:1017F00070B504460D46012006F0BAFC668B002049
:1018000006F0B6FC002E04D0002D02D0A0680028FF
:1018100001D1012070BD218BA068405C287001209F
:1018200006F0A6FC208B401C80B22083E189884210
:1018300001DB00202083608B401E6083002006F0C7
:1018400097FC0020E6E7F0B5069D059C016042602C
:1018500083608481C581002606824682C682068313
:1018600046838682079EC661089E0662099E46627E
:10187000012628273E54F0BD014602484843024A4B
:10188000105C704713020000D80D002000B587B02F
:1018900000BF1048C06A022108430E49C8620846CA
:1018A000C06A02210840019000BF00BFC802029038
:1018B00011200390002004900320059002A90648FF
:1018C00000F032FE01221103034800F032FF07B09E
:1018D00000BD0000001002400004005010B50122BD
:1018E0001103024800F025FF10BD00000004005065
:1018F000F0B58FB0054600267048FEF7A0FC0A90B0
:101900006E48401E40790B906C48401DFEF797FCD6
:101910000C906A48401E807A0D90694840790028F2
:1019200016D067487A21C26C66A006F0D3FB00206F
:101930006349087108708870487048716749086881
:1019400080476649C868804700F0FAFE5C49C86471
:101950005B48C07800287AD059488078002876D033
:1019600000205749C870891D5448813803F0F8FA9F
:101970005248401DFEF763FC0746FEF78BFE00222F
:10198000574B05910490FEF705FE099108904B48CE
:10199000FEF755FC0746FEF77DFE0022504B0591F1
:1019A0000490FEF7F7FD079106904448401E807AA8
:1019B000049009990898039102904048401E40798C
:1019C000009048A0079B069A06F084FB002401269D
:1019D00032E02046E10F091849104900611A012937
:1019E00007D1A0000AA90A5C3046711CCEB22A5465
:1019F00020E0A0000AA90858000E3146721CD6B299
:101A00006854A0000AA908580002020E3046711C52
:101A1000CEB22A54A0000AA9085A0004020E304689
:101A2000711CCEB22A54A0000AA90A5C3046711C6F
:101A3000CEB22A54601CC4B20B2ECADB012020494E
:101A4000087101211D48401EC17234E0FFE700F01B
:101A500077FE1B49C96C401A294988422BD918487E
:101A60008078002827D01648C078002823D100F0BD
:101A700067FE1349C96C441A214622A006F02AFBCE
:101A800016498868804700200D490870881DFEF7B8
:101A9000C1FB044621460A48801DFEF79CFB01203D
:101AA0000749087100210548401EC17200223046D6
:101AB000711CCEB22A540FB0F0BD0000391F0020B7
:101AC000681E00206C696E65203D202564207469C5
:101AD0006D65203D2025640D0A000000B48B0008D0
:101AE000006AF84032322D2D2D252E356620253105
:101AF000632C20252E3566202531630D0A00000059
:101B0000102700004750535F54494D453232203A68
:101B10002025640D0A00000000B587B000BF0E4804
:101B2000C06A022108430C49C8620846C06A022103
:101B30000840019000BF00BFC8020290012003903E
:101B400004900320059002A9044800F0EDFC03F086
:101B500093F907B000BD00000010024000040050DF
:101B600010B5324948688047002400BF1C2000F0AF
:101B70001BFE2F4B0E222FA1324803F039F81C20F8
:101B800000F01EFE7D20C00000F00EFC641C482109
:101B90002DA006F09FFA2F480078002801D1032CD1
:101BA000E4D900F0CDFD2B49886408460078002870
:101BB00007D1032C05D95021274806F08BFA0020C5
:101BC00010BD2448007800282DD000BF1C2000F054
:101BD000EBFD174B342221A11A4803F009F81C2011
:101BE00000F0EEFDC82000F0DFFB1A484078002826
:101BF000ECD000BF00201749087048701C2000F08E
:101C0000D3FD0B4B132222A10E4802F0F1FF1C2042
:101C100000F0D6FDC82000F0C7FB0E4880780028F1
:101C2000E8D00120CCE70020CAE70000B48B000810
:101C3000FFFF000024504D544B3130332A33300D18
:101C40000A0000006C0600206C696E65203D2025AE
:101C5000640D0A00681E0020F094000824504D54C2
:101C60004B3331342C312C302C302C302C302C3068
:101C70002C302C302C302C302C302C302C302C3084
:101C80002C302C302C312C302C302A32380D0A00DC
:101C900024504D544B3232302C313030302A3146C2
:101CA0000D0A0000F8B5044600250026002700BFF5
:101CB0005420005D012801D10220F8BD01215420EB
:101CC000015500BF206880688007800F012806D179
:101CD000206800680840002801D0012000E00020B2
:101CE00000283FD1A06DFF21013188430221084324
:101CF000A0652068C0688707BF0F2068C06880089B
:101D000080002168C860206880680121C9070843F5
:101D10002168886000F014FD064611E000F010FD17
:101D2000801B0A280CD9A06D02218843102108438A
:101D3000A06500BF00215420015500BF0120BCE771
:101D400020688068C00FC0070028E7D12068C068FD
:101D500038432168C860A06D0221884301210843EF
:101D6000A06504E0A06D20210843A065012500BF07
:101D700000215420015500BF28469EE770B5044657
:101D80000D4600BF5420005D012801D1022070BD26
:101D900001215420015500BF2068806804210840BB
:101DA000800800280AD0A06D20210843A06500BF4C
:101DB00000215420015500BF0120E8E73C49686834
:101DC000884238D02068806A29684903490B084353
:101DD0002168886228684003400B36490840012189
:101DE0008904884208D1344880684901084332494F
:101DF00088600A20FFF716F928684003400B2F4936
:101E0000084001214904884205D12B4880684901D6
:101E100008432949886028684003400B2849084046
:101E20000121090488423BD1234880680902084304
:101E30002149886034E02068806A29684903490B99
:101E400088432168886228684003400B194908408C
:101E500001218904884205D11748806849018843D7
:101E60001549886028684003400B14490840012147
:101E70004904884205D110488068490188430E49C9
:101E8000886028684003400B0D490840012109047F
:101E9000884205D10848806809028843064988605D
:101EA00000BF00215420015500BF00206FE7000053
:101EB0000110000000000448002701400000024417
:101EC000000001400146886D704701460868006CBB
:101ED0007047000010B50446002C01D1012010BD50
:101EE000A06D002806D1E065002154200155204650
:101EF00000F00AF9A06D10210840002806D12068E2
:101F0000806804210840800800280AD0A06D1021B4
:101F10000843A06500BF00215420015500BF0120E7
:101F2000DDE7A06DFF210131884302210843A06550
:101F3000206880688007800F012807D1206800682A
:101F4000C007C00F002801D0012000E000200028B9
:101F50003AD100BF032189076068884207D049420F
:101F60006068884203D04900606888420CD12068CC
:101F70000069800080082168086120680069616844
:101F800008432168086112E0206800698000800829
:101F9000216808615A4880680F218904884358499C
:101FA000886008468068616808435549886000BFBA
:101FB0002068C068182188432168C8602068C0680C
:101FC000A16808432168C8604D488068012149061E
:101FD00088434B49886008468068218F490608433A
:101FE0004749886020688068012109070840002867
:101FF00004D1206880680843216888602068C06830
:10200000404908402168C8602169E068022901D17F
:10201000042100E000210843216A49030843216BA1
:1020200049000843616B0843A16989030843E169DA
:10203000C90308432168C96808432168C860FF21B3
:10204000C231A06A884207D0E16AA06A08432168C9
:10205000C96808432168C860606A012812D1206AF3
:10206000002807D12068C0680121090408432168BD
:10207000C86007E0A06D20210843A065E06D012144
:102080000843E065206C012817D120680069FF2112
:102090008900884321680861616CA06C0843E16C89
:1020A00008432168096908432168086120680069BC
:1020B00001210843216808610BE020680069C0071E
:1020C000C00F002805D02068006940084000216842
:1020D000086120684069C008C00021684861206824
:1020E0004069E16B0843216848610020E065A06D0C
:1020F0000221884301210843A0650020EFE600008B
:10210000002701401902FEFF10B586B004460B49B6
:102110002068884210D10A48406B49150843084995
:10212000486301200190032002900020039001A940
:102130000520000700F0F8F906B010BD00240140AA
:1021400000100240F8B504460D46002600276069DD
:10215000082801D1082711E02068C068C007C00F17
:1021600000280AD0A06D20210843A06500BF0021EF
:102170005420015500BF0120F8BD0C2700F0E0FA03
:10218000064614E0681C002811D0002D04D000F091
:10219000D7FA801BA8420AD9A06D04210843A06584
:1021A00000BF00215420015500BF0320E4E7206850
:1021B000006838400028E5D0A06D0121490208439D
:1021C000A0652068C068032189020840002825D145
:1021D000206A002822D120680068082108400828C9
:1021E0001CD12068806804210840800800280DD197
:1021F000206840680C21884321684860A06DFF2159
:102200000131884301210843A06507E0A06D20212A
:102210000843A065E06D01210843E065A06900283E
:1022200002D10C20216808600020A5E770B50446A3
:1022300000252068806804210840800800282BD1F0
:1022400000BF5420005D012801D1022070BD012192
:102250005420015500BFE069012803D02046FEF755
:1022600045FF0546002D18D1A06D0D490840FF21FE
:1022700001310843A0650020E06500BF0021542023
:10228000015500BF1C202168086020688068042177
:1022900008432168886000E002252846D6E7000050
:1022A000FEF1FFFF70B50446002500BF5420005D1D
:1022B000012801D1022070BD01215420015500BF29
:1022C0002046FEF778FE0546002D0CD12046FEF78D
:1022D000BFFE0546002D06D1A06DFF2101318843C8
:1022E00001210843A06500BF00215420015500BF13
:1022F0002846E0E770B5044600252520005D022849
:1023000003D00420E063012549E0206800680E2125
:102310008843216808602068006840084000216800
:10232000086020492068884201D1012026E01D492B
:1023300014312068884201D110201FE0194928314A
:102340002068884201D1801518E016493C31206888
:10235000884201D1801411E012495031206888422E
:1023600002D10120000409E00E496431206888424E
:1023700002D10120000501E00120000609490839C9
:10238000486001212520015500BF0021242001556E
:1023900000BFA06B002802D02046A16B88472846CA
:1023A00070BD00000800024031B5002400F0C8F9FB
:1023B000044600BF00F0C4F9001B00998842F9D31D
:1023C00038BD0000F0B50B4600210022002479E062
:1023D00001258D401D402A46002A72D005684F0015
:1023E0000326BE4035430560CD08AE0005462035C6
:1023F000AD594E07F70E0F26BE40B543CE08B600C6
:1024000007462037BD5185684F000326BE40B543BF
:102410008560456801268E40B5434560C5684F001C
:102420000326BE40B543C560294D8E08B600AC59A1
:102430008D072E0F0F25B5402C4005252D07A842EE
:1024400001D1002519E0234DA84201D1012514E056
:10245000214DA84201D102250FE0204DA84201D113
:1024600003250AE01E4DA84201D1042505E01D4DBB
:10247000A84201D1052500E006258E07360FB5409C
:10248000A5421ED18D072E0F0F25B5402C46104DAD
:102490008E08B600AD59A5430D4E8F08BF00F5510B
:1024A000114D2D689543104E356035466D68954346
:1024B00075603546AD689543B5603546ED68954322
:1024C000F560491C1D46CD40002D81D1F0BD0000B6
:1024D000080001400004005000080050000C0050AB
:1024E00000100050001C00500004014010B50446CC
:1024F000012C03D103494869804700BF00BF00BFDA
:1025000010BD0000548C000810B504460548406911
:102510002040002804D0034844612046FFF7E6FF2E
:1025200010BD00000004014070B5034600220024E5
:102530000020DFE0012696400D6835402C46002C37
:1025400077D04D68022D02D04D68122D15D1D508D7
:10255000AE001D462035A8595507EE0E0F25B54093
:102560000646AE4330465607F60E0D69B540284381
:10257000D508AD001E46203670514D68012D08D09B
:102580004D68022D05D04D68112D02D04D68122DD9
:1025900018D1986856000325B5400646AE4330462C
:1025A0005600CD68B540284398605868012595408D
:1025B0000646AE43304610264D6835402D099540FD
:1025C00028435860186856000325B5400646AE43B8
:1025D00030460D79AD07AD0F5600B5402843186061
:1025E000D86856000325B5400646AE43304656002F
:1025F0008D68B5402843D860012636074D683540C0
:10260000B54276D13E4D6D6B012635433C4E756328
:102610003C4D9608B600A85995072E0F0F25B540DA
:102620000646AE43304605252D07AB4202D10025B4
:102630001AE05EE0344DAB4201D1012514E0334D88
:10264000AB4201D102250FE0314DAB4201D1032550
:102650000AE0304DAB4201D1042505E02E4DAB42DE
:1026600001D1052500E006259607360FB540284321
:10267000244D9608B600A851284D28680546A54364
:102680002846012636044D683540B54202D105463C
:1026900025432846214D286068680546A5432846FD
:1026A000012676044D683540B54202D105462543E2
:1026B00028461A4D6860A8680546A54328460126A5
:1026C00036054D683540B54202D1054625432846BA
:1026D000124DA860E8680546A54328460126760500
:1026E0004D683540B54202D10546254328460B4D7D
:1026F000E860521C0D68D540002D00D01AE770BD6F
:102700000010024008000140000400500008005082
:10271000000C005000100050001C0050000401404C
:10272000024613690B40002B01D0012000E000207D
:102730007047002A01D0816100E08162704700008B
:10274000014800687047000004000020024800684B
:10275000401C0149086070470400002010B506487D
:1027600000684021084304490860002000F006F892
:1027700000F018F8002010BD0020024070B504469B
:102780007D21C90006480068FDF7B2FC054601F04E
:102790008DFD00222146501E00F01EF8002070BD65
:1027A000000000207047000000BFC206D20E0121C9
:1027B0009140024A116000BF7047000080E100E0D4
:1027C00000BFC206D20E01219140024A116000BF33
:1027D0007047000000E100E070B504460D46164663
:1027E0002946204602F056FD70BD000003480068EF
:1027F00001218902084301490860704700700040C8
:1028000003480068012149020843014908607047F4
:1028100000700040034800681021884301490860A7
:10282000704700000070004010B5024600200E4BBB
:102830001868800880000346134318460A4B186046
:102840000A4B1B6904242343084C2361012901D14D
:1028500030BF02E040BF20BF20BF044B1B690424EF
:10286000A343024C236110BD0070004000ED00E066
:10287000F0B585B0054600260020039002900024A4
:10288000002701900090102D7ED008DC012D7CD017
:10289000022D7BD0042D7AD0082D79D13BE1202D5B
:1028A0000AD0402D51D0E81FF938002871D00721F7
:1028B0000902401AF1D100E000BFC648066900696C
:1028C000032109040840044601200004844206D183
:1028D000C0113040002802D06010029034E0012086
:1028E0004004844206D102203040002802D0BA4879
:1028F000029029E003200004844223D1B5484038E7
:10290000006801214904084000281BD0B148403824
:102910000068210108400390012109050398401A2D
:1029200009D0401A04D0401A08D1AC48029008E0FF
:10293000AB48029005E0AB48029002E0AA48029042
:1029400000BF01E0002002903FE1A248C0680121E1
:10295000890608400446002C42D19E484038006851
:102960004910084000283BD09A484038C0680F21E1
:1029700089040840074697484038C0680321890504
:1029800008400190B80C05E0EAE03AE064E08FE02E
:102990001AE1F4E095490F5C0198800D401C01900C
:1029A0008C484038C06801210904084000280CD137
:1029B00088484038006810210840002802D08A4822
:1029C000009004E08A48009001E08A480090009856
:1029D0007843009001990098FDF78AFB02900FE080
:1029E00001208006844209D17A484038806802215B
:1029F0000840002802D08048029001E000200290A8
:102A0000E3E07448C0688407A40F002C03D100F0F1
:102A10005FFB02901FE0022C09D16E48403800682D
:102A200004210840002802D07148029013E0012CD4
:102A300003D100F05FFB02900DE0032C09D1654843
:102A40000069012149020840002802D08801029053
:102A500001E000200290B8E05E48C0680C21084008
:102A60000446002C03D100F021FB02901FE0082C4B
:102A700009D158484038006804210840002802D095
:102A80005B48029013E0042C03D100F033FB02906A
:102A90000DE00C2C09D14F48006901214902084082
:102AA000002802D08801029001E0002002908CE012
:102AB0004848C0680321890208400446002C03D11D
:102AC00000F0F4FA029025E00120C002844209D10E
:102AD00040484038006804210840002802D044489B
:102AE000029017E001208002844203D100F002FB33
:102AF00002900FE003208002844209D1354800692A
:102B0000012149020840002802D08801029001E01A
:102B10000020029059E02F48C068032109030840B3
:102B20000446002C03D100F0C1FA029017E0012006
:102B30004003844209D127484038006804210840F6
:102B4000002802D02A48029009E0012000038442B4
:102B500003D100F0CFFA029001E00020029034E0AF
:102B60001C484038806B012189050840884203D108
:102B700000F09CFA029001E00020029025E0154848
:102B8000C0680321090408400446002C03D100F06A
:102B90008DFA029017E001204004844209D10D48CB
:102BA0004038006804210840002802D010480290F4
:102BB00009E001200004844203D100F09BFA029056
:102BC00001E00020029000E000BF00BF029805B0C5
:102BD000F0BD0000401002408890000020A10700D6
:102BE00040420F0080841E0000093D00A88B0008B1
:102BF0000024F40000127A00006CDC02F8B50446F0
:102C000000260025202120680840202804D08901C2
:102C10002068084088427DD1202120680840202873
:102C200000D100BF0121C90220680840884200D1BC
:102C300000BF00279948806B012109070840002840
:102C400005D19648806B08439449886301279448CE
:102C50000068FF2101310840002816D19048006823
:102C600008438F490860FFF76BFD064606E0FFF753
:102C700067FD801B642801D90320F8BD88480068DF
:102C8000FF21013108400028F1D084480068032169
:102C900009050840054660680840A84203D1A068BD
:102CA0000840A8420ED00321090460680840884209
:102CB00008D17A480068012149040840002801D061
:102CC0000120DAE775484030006903210904084013
:102CD0000546002D49D060680840A84204D0202154
:102CE0002068084020280BD003210904A068084070
:102CF000A8423AD00121C90220680840884234D154
:102D0000664840300069032109048843054663484A
:102D1000403000E052E000690121C90408435F49E6
:102D200040310861084600690121C90488435B49B4
:102D3000403108610846056180152840002814D0FC
:102D4000FFF7FEFC064607E0FFF7FAFC801B55493B
:102D5000884201D9032090E75048403000690121A2
:102D600049020840400A0028EED000BF00BF0321FE
:102D700009046068084088420AD14848006809018F
:102D800088430322120561681140084343490860E3
:102D900000BF4248403000690322120461681140BC
:102DA00008433E494031086100BF012F05D13B482F
:102DB000806B890588433949886300BF2078C00744
:102DC000C00F002809D035484030C0688008800016
:102DD000E168084331494031C86002212068084059
:102DE000022809D12D484030C0680C218843216950
:102DF00008432A494031C86004212068084004285B
:102E00000AD126484030C06803218902884361699D
:102E1000084322494031C86008212068084008283A
:102E20000AD11E484030C068032109038843A169C4
:102E300008431A494031C860FF2101312068084029
:102E400088420AD115484030C068032109048843EC
:102E5000E169084311494031C860402120680840B9
:102E6000402809D10D484030C06809058843616A8F
:102E700008430A494031C860802120680840802802
:102E80000AD106484030C068032189048843216A7A
:102E9000084302494031C8600020EEE600100240BD
:102EA000007000408813000070B504460D460026EF
:102EB00076480068C007C00FA8420ED27348006869
:102EC0004008400028437149086008460068C00770
:102ED000C00FA84201D0012070BD02212068084027
:102EE000022807D16A48C068F0218843A1680843D6
:102EF0006749C8602078C007C00F00284CD06068C0
:102F0000022809D162480068012149040840400CA8
:102F1000002824D10120DFE76068032809D15C483C
:102F20000068012149060840400E002817D1012001
:102F3000D2E76068012808D155480068042108409C
:102F4000800800280BD10120C6E751480068012104
:102F500049020840400A002801D10120BCE74C4842
:102F6000C06880088000616808434949C860FFF76D
:102F7000E7FB0646606802280FD107E0FFF7E0FB99
:102F8000801B4449884201D90320A5E74048C06816
:102F90000C2108400828F1D134E0606803280FD1E3
:102FA00007E0FFF7CDFB801B3A49884201D9032097
:102FB00092E73748C0680C2108400C28F1D121E085
:102FC000606801280FD107E0FFF7BAFB801B314989
:102FD000884201D903207FE72D48C0680C210840B2
:102FE0000428F1D10EE007E0FFF7AAFB801B294976
:102FF000884201D903206FE72548C0680C210840AA
:103000000028F1D121480068C007C00FA8420ED99E
:103010001E4800684008400028431C4908600846D4
:103020000068C007C00FA84201D0012054E7042166
:1030300020680840042808D11548C0680721090203
:103040008843E16808431249C860082120680840A5
:10305000082809D10E48C0680721C90288432169A0
:10306000C90008430A49C86000F044F80849C96823
:10307000F02211400909084A515CC840074908601C
:103080000020FFF77BFB002026E700000020024025
:103090000010024088130000908B00080000002000
:1030A00001480068704700000000002000B5FFF7ED
:1030B000F7FF0549C968072212021140090A034AAD
:1030C000515CC84000BD000000100240A08B000809
:1030D00000B5FFF7E5FF0549C9680722D202114094
:1030E000C90A034A515CC84000BD000000100240FC
:1030F000A08B0008FEB50025002600270024002034
:10310000019000902F48C5680C202840002847D027
:10311000042804D008280ED00C2840D10EE02948FD
:10312000006810210840002802D02748009001E0E4
:103130002648009042E0264800903FE00F2080049F
:103140002840800C23490E5C032080052840800D18
:10315000471C1C48C068012109040840002807D00A
:103160001B49714308463946FCF7C2FF044614E088
:103170001448006810210840002807D01249714304
:1031800008463946FCF7B4FF044606E00F49714390
:1031900008463946FCF7ACFF044600940EE000BF39
:1031A00008484068072149030840400B01900198F6
:1031B000401C01218140C803009000BF00BF00985F
:1031C000FEBD00000010024000093D000024F40094
:1031D00000127A00A88B0008F8B504460025207874
:1031E000C007C00F00287DD0FE48C0680C210840F1
:1031F00008280BD0FB48C06808400C2813D1F948B8
:10320000C06801210904084088420CD1F5480068D3
:10321000012149040840400C002863D06068002860
:1032200060D10120F8BD00BF012109046068884217
:1032300005D1EC4800680843EA49086027E0052109
:103240000904606888420ED1E648006801218904BB
:103250000843E4490860084600680121090408435E
:10326000E049086013E0DF48006801210904884351
:10327000DC49086008460068012109040840009004
:1032800000BFD848006889008843D649086000BF5D
:103290006068002813D0FFF753FA054606E0FFF7F1
:1032A0004FFA401B642801D90320BBE7CD480068D2
:1032B000012149040840400C0028F0D012E0FFF73B
:1032C0003FFA054606E0FFF73BFA401B642801D9A8
:1032D0000320A7E7C3480068012149040840400CC7
:1032E0000028F0D1022120680840022868D1BD489A
:1032F000C0680C21084004280BD0BA48C0680840B8
:103300000C281DD1B748C0680121090408400028D5
:1033100016D1B4480068042108408008002804D071
:10332000E068012801D001207CE7AE4840681F21F9
:1033300009028843216909020843AA4948603FE01D
:10334000E068002824D0A748006809218843E16884
:103350000843A4490860FFF7F3F9054606E0FFF7C4
:10336000EFF9401B022801D903205BE79D48006864
:103370000421084080080028F1D09A4840681F21A5
:10338000090288432169090208439649486017E009
:10339000944800684008400092490860FFF7D0F95F
:1033A000054606E0FFF7CCF9401B022801D90320AF
:1033B00038E78C4800680421084080080028F1D1D3
:1033C000102120680840102860D18648C0680C2170
:1033D000084000285BD18348006801214902084069
:1033E000400A002804D0E069002801D1012019E733
:1033F0007C48616A4068072252031040814219D913
:10340000606A01F0A1FF002801D001200AE7754899
:103410004068072149038843616A0843714948604D
:10342000084640680002000A218C090608436D49DD
:10343000486018E06B484068072149038843616A87
:10344000084368494860084640680002000A218C29
:103450000906084363494860606A01F075FF002867
:1034600001D00120DEE6606A400B401C0121814052
:10347000C8035C49C968F022114009095A4A515CE5
:10348000C8405A4908600020FFF778F949E0E06930
:1034900000282CD053480068FF21013108435149CE
:1034A0000860FFF74DF9054606E0FFF749F9401BB4
:1034B000022801D90320B5E64A48006801214902E3
:1034C0000840400A0028F0D04648406807214903D8
:1034D0008843616A084343494860084640680002DF
:1034E000000A218C090608433E49486019E03D481E
:1034F0000068FF21013188433A490860FFF720F94D
:10350000054606E0FFF71CF9401B022801D90320FD
:1035100088E634480068012149020840400A002832
:10352000F0D1082120680840082839D160690028B6
:103530001BD02C4840300069012108432949403103
:103540000861FFF7FDF8054606E0FFF7F9F8401BB4
:10355000022801D9032065E6224840300069022193
:10356000084040080028F0D01AE01E4840300069AA
:10357000400840001B4940310861FFF7E1F805466B
:1035800006E0FFF7DDF8401B022801D9032049E6D9
:103590001448403000690221084040080028F0D15A
:1035A000042120680840042877D100260D48806B4C
:1035B00089060840002805D10A48806B084309495C
:1035C000886301260A480068FF210131084000286D
:1035D0001ED107480068084305490860FFF7B0F8A6
:1035E00005460EE000100240908B0008000000200D
:1035F00000700040FFF7A4F8401B642801D90320A5
:1036000010E6A6480068FF21013108400028F1D0EB
:1036100000BFFF210131A068884205D1A0480069A0
:1036200008439F49086130E0A06800280DD19C48FC
:103630000069FF2101318843994908610846006902
:1036400009158843964908611FE005210902A06811
:1036500088420DD1924800690121890208439049AE
:10366000086108460069891508438D4908610CE026
:103670008B480069FF210131884389490861084668
:103680000069091588438649086100BFA0680028C1
:1036900015D0FFF755F8054608E02FE0FFF750F882
:1036A000401B8049884201D90320BBE57C48006962
:1036B000012149020840400A0028EFD013E0FFF73B
:1036C0003FF8054607E0FFF73BF8401B7549884285
:1036D00001D90320A6E5724800690121490208408A
:1036E000400A0028EFD1012E07D16D484038806B89
:1036F000310788436A494039886300BF2021206828
:103700000840202852D1A06900282BD000BF64486F
:103710004038806801210843614940398860084683
:10372000406B012108435E49403948635E48006AA6
:103730000121490308435C49086200BFFFF700F814
:10374000054606E0FEF7FCFF401B022801D90320D6
:1037500068E5534840388068022108404008002846
:10376000F0D023E000BF4E48403880684008400059
:103770004B49403988604C48006A0121490388431D
:103780004949086200BFFEF7DBFF054606E0FEF789
:10379000D7FF401B022801D9032043E540484038A9
:1037A00080680221084040080028F0D1A06A002863
:1037B00072D03B484038C0680C2108400C2869D0C2
:1037C000A06A022848D1364840380068012109061D
:1037D0008843334940390860FEF7B2FF054606E0EA
:1037E000FEF7AEFF401B022801D903201AE52C4842
:1037F00040380068012149060840400E0028EFD1FA
:10380000216BE06A0843616B084325494039C96868
:10381000FD2212049143084321494039C8600846FB
:1038200000680121090608431D4940390860FEF778
:1038300087FF054606E0FEF783FF401B022801D9FB
:103840000320EFE41648403800680121490608408B
:10385000400E0028EFD01FE01148403800680121D9
:10386000090688430E4940390860FEF769FF05469E
:1038700006E0FEF765FF401B022801D90320D1E4D2
:10388000074840380068012149060840400E0028DA
:10389000EFD101E00120C5E40020C3E40070004046
:1038A00040100240881300000000014070470246AB
:1038B00000231068034650338800C3181868704707
:1038C00010B500230468234650338C00E3181A60B7
:1038D00010BD70B50446002500BF2020005D012802
:1038E00001D1022070BD01212020015500BF02211D
:1038F0002120015500BFCA20216848625320216859
:10390000486200BF206880680121890288432168DD
:103910008860206880680121890388432168886065
:10392000FEF70EFF054615E0FEF70AFF401B7D215E
:10393000C90088420ED900BFFF202168486200BF3D
:1039400003212120015500BF00212020015500BF87
:103950000320C7E72068C0680421084080080028C9
:10396000E2D000BFFF202168486200BF0121212072
:10397000015500BF00212020015500BF0020B1E704
:1039800010B5044610484068C007C00F01214840E8
:103990004840002805D00C480068042108430A4923
:1039A00008600A48C0680C210840082804D007486D
:1039B000C0680840002804D1FDF7E6FC04A004F02C
:1039C00089FB62B610BD000000700040001002408C
:1039D000776B7570206C6F772D706F776572206EC6
:1039E0006F770D0A0000000010B50446206880685B
:1039F000012109030840000B002811D02068C0688D
:103A000009110840000A00280AD02046FFF7B8FF35
:103A10002068C06880210840124908432168C860B6
:103A200020688068012149030840400B002811D01C
:103A30002068C06809110840400A00280AD02046C2
:103A4000FFF734FF2068C06880210840064908431A
:103A50002168C860012040040449486101212120F7
:103A6000015510BD7FFEFFFF7FFDFFFF00040140F9
:103A700070B504460D46002600BF2020005D0128D9
:103A800001D1022070BD01212020015500BF02217B
:103A90002120015500BFCA202168486253202168B7
:103AA000486200BFFF20013085422CD12068806829
:103AB00029468843216888602068806829018843F6
:103AC00021688860FEF73CFE064615E0FEF738FEEA
:103AD000801B7D21C90088420ED900BFFF202168CC
:103AE000486200BF03212120015500BF0021202092
:103AF000015500BF0320C5E72068C068C007C00F9C
:103B00000028E3D02EE02068806801214902884324
:103B10002168886020688068012149038843216802
:103B20008860FEF70DFE064615E0FEF709FE801BD5
:103B30007D21C90088420ED900BFFF20216848625C
:103B400000BF03212120015500BF00212020015585
:103B500000BF032096E72068C068022108404008A3
:103B60000028E2D000BFFF202168486200BF012189
:103B70002120015500BF00212020015500BF002059
:103B800080E70000F0B506460C4617460025306871
:103B90004068124908400546FF2000042840000CF8
:103BA000E0701F2000022840000A6070A806800E06
:103BB000A070072040032840400B2070002F0BD13D
:103BC000E07801F085FCE070607801F081FC6070C5
:103BD000A07801F07DFCA0700020F0BD3FFFFF0049
:103BE000F0B505460C46174600262868806A6060D6
:103BF000286800694004400CA060286800681249E9
:103C0000084006463F2000043040000C20707F2012
:103C100000023040000A60707006400EA070012063
:103C200080053040000CE070002F0BD1207801F0AF
:103C30004FFC2070607801F04BFC6070A07801F0C0
:103C400047FCA0700020F0BD7F7F7F0010B50446C8
:103C5000002C01D1012010BD2FA004F03BFA21203F
:103C6000005D002805D1002120200155204600F0EC
:103C700061F802212120015500BFCA202168486255
:103C800053202168486200BF204601F03BFC002819
:103C900009D000BFFF202168486200BF0421212015
:103CA00001550120D7E72068806821490840216834
:103CB0008860216960680843A169084321688968B0
:103CC0000843216888602168E0680861206800690D
:103CD000218909040843216808612068C06880219F
:103CE00088432168C8602068C06C80088000216813
:103CF000C8646169E06908432168C96C08432168A8
:103D0000C86400BFFF202168486200BF0121212054
:103D1000015500209FE7000048414C5F5254435F2B
:103D2000496E6974205374617274200D0A0000009A
:103D3000BFFF8FFF054A0168914206D10449096916
:103D4000012292041143024A116170470028004089
:103D500040100240FEB504460D46164600270020DE
:103D60000190009000BF2020005D012801D10220B9
:103D7000FEBD01212020015500BF02212120015557
:103D8000002E2AD12068806840210840002800D0F9
:103D900002E00020E87000BFE869002800D100E0E0
:103DA00000BF287801F0A1FB0304687801F09DFBB7
:103DB00000020343A87801F098FB0343E87800046D
:103DC00003432021485D01F090FB00060343E869AE
:103DD00003436869034301932FE020688068402112
:103DE0000840002804D0287801F072FB019002E01E
:103DF0000020E87000BFE869002805D12021485D57
:103E000001F066FB019005E02021485D01F060FBB8
:103E1000019000BF28780004697809020843A97856
:103E20000843E978090408432021495D090608434D
:103E3000E9690843696908430190A969686808430A
:103E4000009000BFCA202168486253202168486260
:103E500000BFFF210131686A884241D12068806833
:103E60008843216888602068C068802108404D49E7
:103E700008432168C860FEF763FC074615E0FEF7BB
:103E80005FFCC01B7D21C90088420ED900BFFF2006
:103E90002168486200BF03212120015500BF002195
:103EA0002020015500BF032062E72068C068C007DA
:103EB000C00F0028E3D001982168C86100982168EC
:103EC000486420688068FF210131084321688860C8
:103ED000206880680121090308432168886043E065
:103EE0002068806801214902884321688860206831
:103EF000C068802108402C4908432168C860FEF74B
:103F00001FFC074615E0FEF71BFCC01B7D21C90006
:103F100088420ED900BFFF202168486200BF0321FC
:103F20002120015500BF00212020015500BF0320A2
:103F30001EE72068C0680221084040080028E2D03F
:103F40000198216808620098216888642068806868
:103F500001214902084321688860206880680121A6
:103F6000490308432168886010480068012149041A
:103F700008430E4908600846806801214904084347
:103F80000A49886000BFFF202168486200BF012104
:103F90002120015500BF00212020015500BF002035
:103FA000E6E600007FFEFFFF7FFDFFFF000401400B
:103FB000F8B504460D461646002700BF2020005DD8
:103FC000012801D10220F8BD01212020015500BFA8
:103FD000022121200155002E09D1687810210840C6
:103FE000102804D16878EF2108400A306870002E4C
:103FF00011D1E87801F079FA0304687801F075FAD4
:1040000000020343A87801F070FA034328784003C4
:1040100003431F4612E0687801F05AFA0746A87871
:1040200001F056FA0746E878000469780902084367
:10403000A9780843297849030843074600BFCA20E6
:104040002168486253202168486200BF204601F081
:1040500059FA00280ED000BFFF202168486200BF37
:1040600004212120015500BF00212020015500BF5F
:104070000120A8E719483840216848602068C068D6
:10408000802188432168C86020688068202108401A
:10409000002813D1204600F0CDF800280ED000BF34
:1040A000FF202168486200BF04212120015500BF84
:1040B00000212020015500BF012084E700BFFF2020
:1040C0002168486200BF01212120015500BF002165
:1040D0002020015500BF002075E700003FFFFF00D2
:1040E000F8B504460D461646002700BF2020005DA7
:1040F000012801D10220F8BD01212020015500BF77
:10410000022121200155002E1BD12068806840210A
:104110000840002800D002E00020E87000BF2878A6
:1041200001F0E3F90304687801F0DFF900020343CA
:10413000A87801F0DAF90343E878000403431F4646
:1041400018E02068806840210840002804D02878C2
:1041500001F0BEF9074602E00020E87000BF2878B1
:104160000004697809020843A9780843E97809043A
:104170000843074600BFCA202168486253202168CF
:10418000486200BF204601F0BDF900280ED000BFF4
:10419000FF202168486200BF04212120015500BF93
:1041A00000212020015500BF0120A4E7204838400D
:1041B000216808602068806801218904884321689B
:1041C00088602969E868084321688968084321688C
:1041D00088602068C068802188432168C8602068A2
:1041E000806820210840002813D1204600F022F8E2
:1041F00000280ED000BFFF202168486200BF0421C4
:104200002120015500BF00212020015500BF0120C1
:1042100071E700BFFF202168486200BF0121212013
:10422000015500BF00212020015500BF002062E79A
:104230007F7F7F0070B5044600252068C068A021FC
:1042400088432168C860FEF77BFA054608E0FEF760
:1042500077FA401B7D21C900884201D9032070BD37
:104260002068C068202108400028F0D00020F6E730
:1042700003480069022108430149086170470000B2
:1042800000E000E0042806D1064909690422114330
:10429000044A116105E00349096904229143014A76
:1042A0001161704700E000E07047000070B50446FF
:1042B0002546681E0949884201D901200CE0681E84
:1042C000074948610321081F00F0E4FF002004496A
:1042D000886107200861002070BD0000FFFFFF001B
:1042E00000E000E010B5FFF7DFFF10BD03480069F4
:1042F00002218843014908617047000000E000E0A6
:10430000704710B504462068006902210840400843
:1043100000281CD02068C06808404008002816D03B
:10432000481F216808610120207520688069800786
:10433000800F002803D02046FFF7E2FF05E020466B
:1043400000F09DF8204600F09BF8002020752068C2
:10435000006904210840800800281DD02068C0683A
:1043600008408008002817D0C8432168086102204F
:10437000207520688069032109020840002803D0C5
:104380002046FFF7BDFF05E0204600F078F8204604
:1043900000F076F8002020752068006908210840A8
:1043A000C00800281CD02068C0680840C008002849
:1043B00016D0C84321680861042020752068C069B0
:1043C0008007800F002803D02046FFF799FF05E003
:1043D000204600F054F8204600F052F800202075E6
:1043E0002068006910210840000900281DD02068BD
:1043F000C06808400009002817D0C8432168086138
:10440000082020752068C06903210902084000289F
:1044100003D02046FFF774FF05E0204600F02FF898
:10442000204600F02DF80020207520680069C007A4
:10443000C00F01214840484000280CD02068C068C7
:10444000084048404840002805D0C81E216808613F
:10445000204600F016F820680069402108408009D5
:1044600000280BD02068C06808408009002805D0CB
:10447000C84321680861204600F004F810BD704769
:10448000704770477047704710B50446002C01D143
:10449000012010BD242169200155206800684008D2
:1044A0004000216808600020216808602168486099
:1044B00021688860204600F03BF90020E06600217A
:1044C000692001556A20015500BF6820015500BFD1
:1044D0000020DEE770470146002200236920425C8D
:1044E0006A20435C1046184370470000F8B5044644
:1044F0002068C569206806682807000F00900098AA
:1045000000280BD120202840002807D02020304050
:10451000002803D0204602F016FEF8BD2068876808
:10452000009800287ED0F807C00F002804D1FF2093
:10453000213030400028F5D0E807C00F00280BD00C
:10454000FF2001303040002806D001202168086299
:10455000E06E01210843E0660220284000280AD0CE
:10456000F807C00F002806D0022021680862E06E1C
:1045700004210843E0660420284000280AD0F807F8
:10458000C00F002806D0042021680862E06E0221D6
:104590000843E0660820284000280ED02020304044
:1045A000002803D1F807C00F002806D00820216892
:1045B0000862E06E08210843E066E06E002841D002
:1045C00020202840002806D020203040002802D09B
:1045D000204602F0B8FDE06E08210840002805D111
:1045E0002068806840210840002826D0204602F03C
:1045F00089FD2068806840210840002819D0206883
:104600008068884321688860606E00280DD0264845
:10461000616E8863606EFDF76DFE002812D0606EDB
:10462000816B00E00FE088470CE02046FFF752FF67
:1046300008E02046FFF74EFF04E02046FFF74AFF60
:104640000020E06669E7012000052840002811D01D
:1046500001208005384000280CD001200005216889
:1046600008622021692001556A2001552046FFF784
:104670000AFF52E780202840002807D080203040E1
:10468000002803D0204602F09FFF46E74020284044
:10469000002807D040203040002803D0204602F0F8
:1046A00042FD3AE700BF38E7ED70000810B5044658
:1046B000002C01D1012010BDA069002800D000E02D
:1046C00000BF6920005D002805D100216820015548
:1046D000204600F077F82421692001552068006801
:1046E0004008400021680860606A002802D0204627
:1046F00002F04AFC204602F06FFD012800D1DAE703
:10470000206840680921C902884321684860206800
:1047100080682A2188432168886020680068012118
:10472000084321680860204602F0A6FCC3E70000A9
:1047300010B504461E492068884210D11D48406BC0
:104740000121890388431B4948630321490205204D
:104750000007FDF737FE1B20FEF726F826E0164976
:10476000206888420FD11348806B01214904884397
:10477000104988630C2105200007FDF723FE1C204B
:10478000FEF712F812E00D49206888420ED1094860
:10479000806B0121C904884306498863032189028B
:1047A0000748FDF70FFE0E20FDF7FEFF10BD0000CD
:1047B000003801400010024000440040004C00401E
:1047C0000008005010B586B004463749206888427A
:1047D00016D13648806B0121890408433349886328
:1047E0000320800201900220029000200390032009
:1047F00004900420059001A92D48FDF795FE50E096
:104800002C492068884217D12848406B0121890330
:104810000843264948630320400201900220029089
:1048200001200390032004900420059001A9052095
:104830000007FDF779FE34E01F492068884216D151
:104840001A48806B012149040843184988630C20E9
:104850000190022002900120039003200490042084
:10486000059001A905200007FDF75EFE19E0134938
:104870002068884215D10D48806B0121C904084386
:104880000A498863032080020190022002900120DF
:104890000390032004900620059001A90848FDF725
:1048A00043FE06B010BD000000480040001002406A
:1048B000000400500038014000440040004C00401B
:1048C0000008005010B503466A20C05C20286AD159
:1048D000002901D0002A01D1012010BD01242403A8
:1048E0009868A04208D11869002805D1C807C00FF0
:1048F000002801D00120F0E700BF6820C05C01283B
:1049000001D10220E9E701246820C45400BF5965A1
:104910005820C2525A20C25200BF24039868A042B5
:104920000AD11869002803D1204C5C20C45220E031
:10493000FF245C20C4521CE0986800280AD1186942
:10494000002803D1FF245C20C45212E07F245C20A5
:10495000C4520EE0012424079868A04209D11869C6
:10496000002803D17F245C20C45202E03F245C2055
:10497000C45200BF0020D86622246A20C45400BF5D
:1049800000246820C45400BF1868806801242043B4
:104990001C68A06018680068FF24213420431C684C
:1049A0002060002099E7022097E70000FF01000047
:1049B00070B504466C49206888421BD16B48817AE7
:1049C0000289FF38FD38815468480089401C81B253
:1049D00066480181FDF7B4FE65498860012163489E
:1049E0000173008981218900884202DB00215F4830
:1049F0000181B8E05F4920688842FAD15E48807A38
:104A00000D2803D101215C480173A3E05A48807A44
:104A10000A2873D15848007B002870D000215648DE
:104A20000173002555A1FF38FD38FBF7FAFBA842BA
:104A300003D101205549087016E055A15948FBF7EC
:104A4000F0FBA84203D10120504948700CE056A168
:104A50005448FBF7E6FBA84206D101204B49887079
:104A6000FDF76EFE4949C86443480089801F4D49DF
:104A7000085C412844D1FDF763FE4449896C461A1D
:104A800031464EA003F026FB40484030C079401C20
:104A9000C1B23E484030C171C0791E2809DB0120F7
:104AA0003A49C8704A4988688047002137484030F1
:104AB000C171314802893B493448801DFBF772FBC4
:104AC0000D212D4802890089401C83B22A480381A8
:104AD0002E48801D81540A21274802890089401CE4
:104AE00083B2254803812948801D81543A30C17919
:104AF00002463A3A37A003F0EDFA12E01FE011E067
:104B00001D480089801F2749085C562809D10020CC
:104B10001E49C8701848028922491C48801DFBF7AD
:104B200041FB00BF1F4930A003F0D4FA12480189AD
:104B30001C48FBF750FB00210F4801810AE00E489A
:104B4000817A0289174881540B480089401C81B240
:104B5000094801810848008981218900884202DBD7
:104B600000210548018170BD00480040F80B00207D
:104B7000D005002000440040E809002024504D5496
:104B80004B3031302C3030322A324400681E002045
:104B900024504D544B3030312C3331342C332A33A4
:104BA00036000000EC07002024504D544B303031CB
:104BB0002C3232302C332A33300000004750535F00
:104BC00054494D453232203A2025640D0A00000038
:104BD000B48B0008436F756E7465723A25642C4778
:104BE0004C4C2D2D2573000025730D0A000000008C
:104BF000FEB504460D4616461F460020019069206A
:104C0000005D20286AD1002D01D0002E01D10120A5
:104C1000FEBD01210903A068884208D1206900284F
:104C200005D1E807C00F002801D00120F0E700BF40
:104C30006820005D012801D10220E9E701216820F8
:104C4000015500BF0020E066212169200155FDF7D4
:104C500077FD0190502006535220065325E0522044
:104C6000005B401E81B25220015300970022802138
:104C70002046019B02F0E1FC002801D00320C7E799
:104C800001210903A06888420BD12069002808D1BE
:104C90000295029D2888C005C00D21688862AD1C60
:104CA00003E028786D1C216888625220005B002890
:104CB000D5D10097002240212046019B02F0BDFC87
:104CC000002801D00320A3E720216920015500BF5F
:104CD00000216820015500BF002099E7022097E7D6
:104CE0007047704710B504462068406801214902AA
:104CF0000840400A00280ED020688068C007C00F16
:104D0000012148404840002805D0C81E216888601D
:104D10002046FFF7E6FF10BD01460A68C86810602C
:104D200000207047024903A003F0D4F900BFFEE75A
:104D3000EC8B000825730D0A0000000000B585B05B
:104D40000020642302900390019300930490054B8C
:104D5000054A06490648FCF776FD0548FCF7D8FCED
:104D600005B000BD080C00206C0C0020DC06002003
:104D7000BC07002010B515481549086000211448EB
:104D800001640120800712494860002110488160B9
:104D90000521C163012101610021C160012101627E
:104DA00000214162C162FF21C231816200210163A1
:104DB000042141610021416381618163C161FDF78B
:104DC00089F8002801D0FCF799FC10BD00240140AF
:104DD000F40C002010B5144814490860E12040028A
:104DE0004860002111488160C16001610C2141616E
:104DF00000218161016200200C4948620846FFF7EA
:104E000055FC002801D0FCF779FC002205211D206B
:104E1000FDF7E2FC1D20FDF7D3FC01220449034805
:104E2000FFF750FD10BD0000004800404C07002077
:104E3000020C002010B50E480E490860E120400227
:104E4000486000210B488160C16001610C21416113
:104E500000218161C1610162002006494862084663
:104E6000FFF724FC002801D0FCF748FC10BD00002F
:104E700000380140FC05002010B5144814490860B2
:104E80004B20C0014860002111488160C160016170
:104E90000C21416100218161C161016200200C4946
:104EA00048620846FFF702FC002801D0FCF726FC08
:104EB000002204211C20FDF78FFC1C20FDF780FC44
:104EC000012204490248FFF7FDFC10BD00440040E8
:104ED0006C060020F209002010B512481249086043
:104EE0004B20C001486000210F488160C160016112
:104EF0000C21416100218161C161016200200A49E8
:104F000048620846FFF7D2FB002801D0FCF7F6FB09
:104F1000002203210E20FDF75FFC0E20FDF750FC60
:104F200010BD0000004C0040DC0600200246134685
:104F300010E010782A2805D01078202802DB10789D
:104F40007A2801DDFF20704710782C2801D1481EF7
:104F5000C1B2521C0029ECD1D01AC0B2F3E7000054
:104F6000F3B589B0044680A10A98FBF73FF90646DD
:104F700001213046FFF7DAFF0546FF2D54D07019A6
:104F800008A900F006F9079008A80078801CC1B2B3
:104F90000A2000F0F1F8014605900798FBF7A8F801
:104FA000074621468131FBF754F908A80078801C98
:104FB000C1B20A2000F0E0F8014605900798FBF71F
:104FC00097F80F463846FBF75DFB069008A8007877
:104FD0000522101AC1B20A2000F0CEF80090FBF7AB
:104FE00051FB07460699FBF759FA61490190FBF717
:104FF00092FA039020468130FBF721F907460521FC
:105000000A2000F0B9F8474338460197FBF73AFB0E
:1050100002900399FBF7E9F90490FBF749FB21465D
:1050200081310590FBF715F902213046FFF77EFF2D
:105030000546FF2D02D0715D8520015503213046C4
:10504000FFF774FF0546FF2D54D0701908A900F032
:10505000A0F8079008A80078801CC1B20A2000F0D0
:105060008BF8014605900798FBF742F80746214662
:105070008631FBF7EEF808A80078801CC1B20A2040
:1050800000F07AF8014605900798FBF731F80F46D3
:105090003846FBF7F7FA069008A800780522101AA0
:1050A000C1B20A2000F068F80090FBF7EBFA01901B
:1050B0000699FBF7F3F907462D49FBF72CFA039005
:1050C00020468630FBF7BBF8074605210A2000F092
:1050D00053F8474338460197FBF7D4FA02900399F7
:1050E000FBF783F90490FBF7E3FA2146863105903C
:1050F000FBF7AFF804213046FFF718FF0546FF2DF8
:1051000002D0715D8A20015505213046FFF70EFF60
:105110000546FF2D25D008A801780A2000F02CF8BC
:105120000746701908A900F034F839460590FAF7D7
:10513000DFFF07900F490798FAF7DAFFC1B27E2028
:10514000015564210798FAF7D3FF07466421FAF75F
:10515000CFFF7F20015564210798FAF7C9FF80200F
:1051600001550BB0F0BD0000244750474C4C0000E7
:10517000000070421027000010B50246012002E036
:105180000346534318460B464C1EE1B2002BF7D1A1
:1051900010BDF3B584B0049C0020039002900190F0
:1051A0000026002729E020782D2802D1022007437D
:1051B000641C20782C2802D020782A2800D11DE0F9
:1051C00020782E2803D101200743641C09E02078B1
:1051D000392802DC2078302803DA002001900026EC
:1051E0000CE0F807C00F002802D0701CC6B203E024
:1051F0000198401CC0B20190641CD4E700BF02209B
:105200003840002802D00498401C049000250FE08C
:105210000198401E401BC1B20A20FFF7ADFF049960
:10522000495D30394843039940180390681CC5B262
:1052300001988542ECDB052E00DD052605980670F9
:10524000002511E0701E401BC1B20A20FFF794FF39
:105250000199491C4A190499895C303948430299DB
:1052600040180290681CC5B2B542EBDB31460A20FB
:10527000FFF782FF039948430299401800900220EB
:105280003840002802D0009840420090009806B0B4
:10529000F0BD704710B5002819DA1A4A03071B0F32
:1052A000083B9B089B00D2588307DC0EFF23A340DA
:1052B0009A438B071B0E8407E40EA3401A43114B3D
:1052C0000407240F083CA408A4001A5118E00E4A51
:1052D00003231B02D21883089B00D2588307DC0EDD
:1052E000FF23A3409A438B071B0E8407E40EA340C1
:1052F0001A43054B032424021B198408A4001A51E5
:1053000010BD00001CED00E000E100E0F8B504462F
:1053100000250026042C01D1062500E025460120A9
:10532000A840064948710648642303220721476BB9
:105330000248B84706463046F8BD00007505002013
:10534000A00D00207047000010B501460023002288
:105350002048C068F0242040002829D11D48806BD7
:10536000012424072040002806D01B48006803249D
:10537000E4022040034613E01648806B0124240712
:105380002043144CA063144800680324E402204026
:1053900003461048806B01242407A0430D4CA063F2
:1053A0000320C002834203D1C000814200D1012208
:1053B0000A480068400840001043084C206020461E
:1053C0000068C007C00F904201D0012010BD00202E
:1053D000FCE7000000100240007000400020024086
:1053E00010B51348FFF782F80024FDF7A9F9044629
:1053F00005E0FDF7A5F9001B142800D904E00C48CE
:10540000FFF769F82028F4D100BFFDF799F90446A9
:1054100005E0FDF795F9001B142800D906E00122EC
:1054200004490348FFF74EFA0028F2D100BF10BD2F
:105430004C070020020C002070B50546002442E015
:105440005C216143214A891808460C301421FAF77F
:10545000C2FE5C2060431D49095C5C2060431B4A1E
:10546000801801735C2060431146401845735C202E
:10547000604340188078FF210902084001125C2037
:105480006043801881735C20604311464018807827
:105490005C2161438918C8735C2060431146401841
:1054A000C078FF210902084001125C206043801887
:1054B00001745C20604311464018C0785C21614350
:1054C00089184874641C0F2CBAD370BD10000020DA
:1054D000014600BFF020084000110A23584302464D
:1054E0000807000F8018C0B270470146002203E091
:1054F000521C08460A38C1B20A29F9D21007000E18
:105500000843704770B5044600252068C0684021F4
:105510000840002815D1401E2168C860FDF710F929
:10552000054608E0FDF70CF9401B7D21C9008842C3
:1055300001D9032070BD2068C068402108400028C0
:10554000F0D00020F6E7000010B50448FEF74CFA52
:10555000FF2101310148FEF78BFA10BDD00C00206D
:1055600000B587B000212248FEF7A1F92149884201
:105570003BD021481E490860002048607F211C481C
:105580008160FF21C1600021016141618161C161D0
:10559000FEF75CFB002801D0FCF7B0F8002168465C
:1055A000017241728172C172002005900690002242
:1055B00002A90F48FEF794FD002801D0FCF79EF8E1
:1055C000012168460171417181710021C171002280
:1055D00001A90748FEF7ECFC002801D0FCF78EF883
:1055E000044A00210248FEF76BF907B000BD000035
:1055F000D00C0020F23200000028004070B51025C9
:10560000002407E02846A04081B200220348FDF7AD
:1056100090F8641C062CF5DB70BD000000040050FF
:10562000FFB583B005460E4617460122D10305207B
:105630000007FDF77EF823483146826A28469047E6
:105640000698FCF7B1FE204BB21C29461F48FFF715
:10565000CFFA00220121C90305200007FDF769F8F0
:105660002878FD2804D17D20C000FCF79DFE03E0D2
:10567000FF202D30FCF798FE14211248FAF7ABFDFD
:1056800010483946C26A90470446601E0D49085CBE
:105690000290A01E085C0190A01EC1B20948826A57
:1056A0009047601E0749095C0298814208D1A01EFC
:1056B0000449095C0198814202D1204607B0F0BD3F
:1056C0000020FBE7A00D0020FFFF0000DC0600200B
:1056D000F8B506460D4600200090002404E0684618
:1056E00000783055601CC4B269460F48FCF780F85A
:1056F0000028F4D0002C15DD022D02DC0BA002F0F6
:10570000E9FC002707E0022D03DCF15D0CA002F0AC
:10571000E1FC781CC7B2A742F5DB022D02DC0AA02F
:1057200002F0D8FC2046F8BDBC0700202D2D2D2D01
:1057300067657420646174612D2D2D2D00000000BB
:1057400025303258200000000D0A000010B5FFF788
:10575000C3FBFFF7F3FA0B480B4948610B4888611C
:105760000B48C8610B4808620B4848620B48086345
:105770000B4888620B48C8620B48486348698047F9
:1057800010BD0000E5570008A00D0020AD5700082F
:10579000FD550008B980000899800008615800088C
:1057A000C1140008D15600082156000870B50546FE
:1057B00001267602002408E03046204101460022FE
:1057C0000748FCF7B6FF601CC4B2062CF4DB304679
:1057D0002841014601220248FCF7ABFF70BD0000E2
:1057E0000004005000B587B000BF1A48C06A01210C
:1057F00008431849C8620846C06AC007C00F019034
:1058000000BF00BF00BF0846C06A0221084311491B
:10581000C8620846C06A02210840019000BF00BF6C
:105820000D4802900120039000200490059002A9E9
:105830000A48FCF779FE0120C00302900120039082
:1058400000200490059002A905200007FCF76CFEDB
:1058500007B000BD00100240F843000000040050F3
:10586000F8B506460F461446002506E0022C03DC78
:10587000715D06A002F02EFC6D1CBD42F6DB022C11
:1058800002DC04A002F026FCF8BD000025303258EE
:10589000200000000D0A000030B50B46002105E095
:1058A00004884D005C53801C4C1CA1B29142F7DB74
:1058B00030BD7047F0B595B000201490002500264B
:1058C000342107A8FAF787FC0020069005900027EE
:1058D0000024FE490880FE4802788C21FD4802F031
:1058E000F9FB00BF7BE2FC486043FC49085C0128EF
:1058F00072D1F7480178059881426DDDF648604322
:10590000F6494018017914980818C0B214901498F8
:10591000262862DCF0486043F0494018027995215E
:10592000EF4802F0D7FBEC486043EC49401800799F
:1059300000284CD0E848604340184178E948007896
:1059400065225043E84A821828466B1CDDB2115488
:10595000E1486043E1494018C178E2480078652297
:105960005043E14A821828466B1CDDB21154DA48D4
:105970006043DA4BC0180079801E82B2D64860437B
:10598000C0180146373107AB06981818049003F089
:10599000F3F8D14A6243D14BD2181279911ECE4A04
:1059A0006243D21810463730FAF715FCCA486043F4
:1059B000CA4940180079801E06994018C0B2069066
:1059C000C5486043C549401800798019C6B205989A
:1059D000401CC0B2059000E29AE0C248017800780D
:1059E00065225043C04A801820308174FBF7CAFDFD
:1059F000BC49097865225143BB4A89183231487045
:105A0000E90F4919C9050A0EB649097865235943B2
:105A1000B54BC91832318A7003200490B149097816
:105A2000652251431A4689183231049A8818322166
:105A3000FAF7D1FBAB48007865225043AA4A811897
:105A4000A848007865225043A74A80183230049A4B
:105A500083182A46184603F08FF804984019C0B2FC
:105A60000490A0490978652251439F4A8918323130
:105A7000049A881807A9069A03F07EF8F01CC6B2AB
:105A8000984800786521484397494018603006716E
:105A90008F4800780599334600940191029091480F
:105AA0000278C021914802F015FB002003900FE01E
:105AB0008C480078652250438B4A80183230039A14
:105AC000815C8BA002F006FB0398401CC0B20390DF
:105AD0000398B042ECDB88A002F0FCFA07A8069914
